{
	"contracts/5_UUPS_UpgradableContract2.sol": {
		"UUPS_UpgradableContract2": {
			"abi": [
				{
					"inputs": [
						{
							"internalType": "address",
							"name": "target",
							"type": "address"
						}
					],
					"name": "AddressEmptyCode",
					"type": "error"
				},
				{
					"inputs": [
						{
							"internalType": "address",
							"name": "implementation",
							"type": "address"
						}
					],
					"name": "ERC1967InvalidImplementation",
					"type": "error"
				},
				{
					"inputs": [],
					"name": "ERC1967NonPayable",
					"type": "error"
				},
				{
					"inputs": [],
					"name": "FailedInnerCall",
					"type": "error"
				},
				{
					"inputs": [],
					"name": "InvalidInitialization",
					"type": "error"
				},
				{
					"inputs": [],
					"name": "NotInitializing",
					"type": "error"
				},
				{
					"inputs": [
						{
							"internalType": "address",
							"name": "owner",
							"type": "address"
						}
					],
					"name": "OwnableInvalidOwner",
					"type": "error"
				},
				{
					"inputs": [
						{
							"internalType": "address",
							"name": "account",
							"type": "address"
						}
					],
					"name": "OwnableUnauthorizedAccount",
					"type": "error"
				},
				{
					"inputs": [],
					"name": "UUPSUnauthorizedCallContext",
					"type": "error"
				},
				{
					"inputs": [
						{
							"internalType": "bytes32",
							"name": "slot",
							"type": "bytes32"
						}
					],
					"name": "UUPSUnsupportedProxiableUUID",
					"type": "error"
				},
				{
					"anonymous": false,
					"inputs": [
						{
							"indexed": false,
							"internalType": "uint64",
							"name": "version",
							"type": "uint64"
						}
					],
					"name": "Initialized",
					"type": "event"
				},
				{
					"anonymous": false,
					"inputs": [
						{
							"indexed": true,
							"internalType": "address",
							"name": "previousOwner",
							"type": "address"
						},
						{
							"indexed": true,
							"internalType": "address",
							"name": "newOwner",
							"type": "address"
						}
					],
					"name": "OwnershipTransferred",
					"type": "event"
				},
				{
					"anonymous": false,
					"inputs": [
						{
							"indexed": true,
							"internalType": "address",
							"name": "implementation",
							"type": "address"
						}
					],
					"name": "Upgraded",
					"type": "event"
				},
				{
					"inputs": [],
					"name": "UPGRADE_INTERFACE_VERSION",
					"outputs": [
						{
							"internalType": "string",
							"name": "",
							"type": "string"
						}
					],
					"stateMutability": "view",
					"type": "function"
				},
				{
					"inputs": [
						{
							"internalType": "string",
							"name": "_name",
							"type": "string"
						}
					],
					"name": "addName",
					"outputs": [
						{
							"internalType": "string",
							"name": "",
							"type": "string"
						}
					],
					"stateMutability": "nonpayable",
					"type": "function"
				},
				{
					"inputs": [],
					"name": "initialize",
					"outputs": [],
					"stateMutability": "nonpayable",
					"type": "function"
				},
				{
					"inputs": [],
					"name": "name",
					"outputs": [
						{
							"internalType": "string",
							"name": "",
							"type": "string"
						}
					],
					"stateMutability": "view",
					"type": "function"
				},
				{
					"inputs": [],
					"name": "number",
					"outputs": [
						{
							"internalType": "uint256",
							"name": "",
							"type": "uint256"
						}
					],
					"stateMutability": "view",
					"type": "function"
				},
				{
					"inputs": [],
					"name": "owner",
					"outputs": [
						{
							"internalType": "address",
							"name": "",
							"type": "address"
						}
					],
					"stateMutability": "view",
					"type": "function"
				},
				{
					"inputs": [],
					"name": "proxiableUUID",
					"outputs": [
						{
							"internalType": "bytes32",
							"name": "",
							"type": "bytes32"
						}
					],
					"stateMutability": "view",
					"type": "function"
				},
				{
					"inputs": [],
					"name": "renounceOwnership",
					"outputs": [],
					"stateMutability": "nonpayable",
					"type": "function"
				},
				{
					"inputs": [
						{
							"internalType": "address",
							"name": "newOwner",
							"type": "address"
						}
					],
					"name": "transferOwnership",
					"outputs": [],
					"stateMutability": "nonpayable",
					"type": "function"
				},
				{
					"inputs": [
						{
							"internalType": "uint256",
							"name": "_number",
							"type": "uint256"
						}
					],
					"name": "updateNumber",
					"outputs": [
						{
							"internalType": "uint256",
							"name": "",
							"type": "uint256"
						},
						{
							"internalType": "uint256",
							"name": "",
							"type": "uint256"
						}
					],
					"stateMutability": "nonpayable",
					"type": "function"
				},
				{
					"inputs": [
						{
							"internalType": "address",
							"name": "newImplementation",
							"type": "address"
						},
						{
							"internalType": "bytes",
							"name": "data",
							"type": "bytes"
						}
					],
					"name": "upgradeToAndCall",
					"outputs": [],
					"stateMutability": "payable",
					"type": "function"
				}
			],
			"devdoc": {
				"errors": {
					"AddressEmptyCode(address)": [
						{
							"details": "There's no code at `target` (it is not a contract)."
						}
					],
					"ERC1967InvalidImplementation(address)": [
						{
							"details": "The `implementation` of the proxy is invalid."
						}
					],
					"ERC1967NonPayable()": [
						{
							"details": "An upgrade function sees `msg.value > 0` that may be lost."
						}
					],
					"FailedInnerCall()": [
						{
							"details": "A call to an address target failed. The target may have reverted."
						}
					],
					"InvalidInitialization()": [
						{
							"details": "The contract is already initialized."
						}
					],
					"NotInitializing()": [
						{
							"details": "The contract is not initializing."
						}
					],
					"OwnableInvalidOwner(address)": [
						{
							"details": "The owner is not a valid owner account. (eg. `address(0)`)"
						}
					],
					"OwnableUnauthorizedAccount(address)": [
						{
							"details": "The caller account is not authorized to perform an operation."
						}
					],
					"UUPSUnauthorizedCallContext()": [
						{
							"details": "The call is from an unauthorized context."
						}
					],
					"UUPSUnsupportedProxiableUUID(bytes32)": [
						{
							"details": "The storage `slot` is unsupported as a UUID."
						}
					]
				},
				"events": {
					"Initialized(uint64)": {
						"details": "Triggered when the contract has been initialized or reinitialized."
					},
					"Upgraded(address)": {
						"details": "Emitted when the implementation is upgraded."
					}
				},
				"kind": "dev",
				"methods": {
					"owner()": {
						"details": "Returns the address of the current owner."
					},
					"proxiableUUID()": {
						"details": "Implementation of the ERC1822 {proxiableUUID} function. This returns the storage slot used by the implementation. It is used to validate the implementation's compatibility when performing an upgrade. IMPORTANT: A proxy pointing at a proxiable contract should not be considered proxiable itself, because this risks bricking a proxy that upgrades to it, by delegating to itself until out of gas. Thus it is critical that this function revert if invoked through a proxy. This is guaranteed by the `notDelegated` modifier."
					},
					"renounceOwnership()": {
						"details": "Leaves the contract without owner. It will not be possible to call `onlyOwner` functions. Can only be called by the current owner. NOTE: Renouncing ownership will leave the contract without an owner, thereby disabling any functionality that is only available to the owner."
					},
					"transferOwnership(address)": {
						"details": "Transfers ownership of the contract to a new account (`newOwner`). Can only be called by the current owner."
					},
					"upgradeToAndCall(address,bytes)": {
						"custom:oz-upgrades-unsafe-allow-reachable": "delegatecall",
						"details": "Upgrade the implementation of the proxy to `newImplementation`, and subsequently execute the function call encoded in `data`. Calls {_authorizeUpgrade}. Emits an {Upgraded} event."
					}
				},
				"version": 1
			},
			"evm": {
				"assembly": "    /* \"contracts/5_UUPS_UpgradableContract2.sol\":288:1267  contract UUPS_UpgradableContract2 is ... */\n  mstore(0x40, 0xa0)\n    /* \"@openzeppelin/contracts-upgradeable/proxy/utils/UUPSUpgradeable.sol\":1171:1175  this */\n  address\n    /* \"@openzeppelin/contracts-upgradeable/proxy/utils/UUPSUpgradeable.sol\":1128:1176  address private immutable __self = address(this) */\n  0xffffffffffffffffffffffffffffffffffffffff\n  and\n  0x80\n  swap1\n  0xffffffffffffffffffffffffffffffffffffffff\n  and\n  dup2\n  mstore\n  pop\n    /* \"contracts/5_UUPS_UpgradableContract2.sol\":288:1267  contract UUPS_UpgradableContract2 is ... */\n  callvalue\n  dup1\n  iszero\n  tag_1\n  jumpi\n  0x00\n  dup1\n  revert\ntag_1:\n  pop\n  mload(0x80)\n  codecopy(0x00, dataOffset(sub_0), dataSize(sub_0))\n  0x00\n  assignImmutable(\"0x0b83f23a4eeb8c3f5f7d5934a2289bcf0186d09a12e1b7f20adf54e4b179db15\")\n  return(0x00, dataSize(sub_0))\nstop\n\nsub_0: assembly {\n        /* \"contracts/5_UUPS_UpgradableContract2.sol\":288:1267  contract UUPS_UpgradableContract2 is ... */\n      mstore(0x40, 0x80)\n      jumpi(tag_1, lt(calldatasize, 0x04))\n      shr(0xe0, calldataload(0x00))\n      dup1\n      0x715018a6\n      gt\n      tag_13\n      jumpi\n      dup1\n      0x715018a6\n      eq\n      tag_7\n      jumpi\n      dup1\n      0x8129fc1c\n      eq\n      tag_8\n      jumpi\n      dup1\n      0x8381f58a\n      eq\n      tag_9\n      jumpi\n      dup1\n      0x8da5cb5b\n      eq\n      tag_10\n      jumpi\n      dup1\n      0xad3cb1cc\n      eq\n      tag_11\n      jumpi\n      dup1\n      0xf2fde38b\n      eq\n      tag_12\n      jumpi\n      jump(tag_1)\n    tag_13:\n      dup1\n      0x06fdde03\n      eq\n      tag_2\n      jumpi\n      dup1\n      0x11456b47\n      eq\n      tag_3\n      jumpi\n      dup1\n      0x1db05a88\n      eq\n      tag_4\n      jumpi\n      dup1\n      0x4f1ef286\n      eq\n      tag_5\n      jumpi\n      dup1\n      0x52d1902d\n      eq\n      tag_6\n      jumpi\n    tag_1:\n      0x00\n      dup1\n      revert\n        /* \"contracts/5_UUPS_UpgradableContract2.sol\":591:609  string public name */\n    tag_2:\n      callvalue\n      dup1\n      iszero\n      tag_14\n      jumpi\n      0x00\n      dup1\n      revert\n    tag_14:\n      pop\n      tag_15\n      tag_16\n      jump\t// in\n    tag_15:\n      mload(0x40)\n      tag_17\n      swap2\n      swap1\n      tag_18\n      jump\t// in\n    tag_17:\n      mload(0x40)\n      dup1\n      swap2\n      sub\n      swap1\n      return\n        /* \"contracts/5_UUPS_UpgradableContract2.sol\":1146:1264  function addName(string memory _name) public returns (string memory){... */\n    tag_3:\n      callvalue\n      dup1\n      iszero\n      tag_19\n      jumpi\n      0x00\n      dup1\n      revert\n    tag_19:\n      pop\n      tag_20\n      0x04\n      dup1\n      calldatasize\n      sub\n      dup2\n      add\n      swap1\n      tag_21\n      swap2\n      swap1\n      tag_22\n      jump\t// in\n    tag_21:\n      tag_23\n      jump\t// in\n    tag_20:\n      mload(0x40)\n      tag_24\n      swap2\n      swap1\n      tag_18\n      jump\t// in\n    tag_24:\n      mload(0x40)\n      dup1\n      swap2\n      sub\n      swap1\n      return\n        /* \"contracts/5_UUPS_UpgradableContract2.sol\":943:1143  function updateNumber(uint _number) public returns (uint, uint) {... */\n    tag_4:\n      callvalue\n      dup1\n      iszero\n      tag_25\n      jumpi\n      0x00\n      dup1\n      revert\n    tag_25:\n      pop\n      tag_26\n      0x04\n      dup1\n      calldatasize\n      sub\n      dup2\n      add\n      swap1\n      tag_27\n      swap2\n      swap1\n      tag_28\n      jump\t// in\n    tag_27:\n      tag_29\n      jump\t// in\n    tag_26:\n      mload(0x40)\n      tag_30\n      swap3\n      swap2\n      swap1\n      tag_31\n      jump\t// in\n    tag_30:\n      mload(0x40)\n      dup1\n      swap2\n      sub\n      swap1\n      return\n        /* \"@openzeppelin/contracts-upgradeable/proxy/utils/UUPSUpgradeable.sol\":4158:4372  function upgradeToAndCall(address newImplementation, bytes memory data) public payable virtual onlyProxy {... */\n    tag_5:\n      tag_32\n      0x04\n      dup1\n      calldatasize\n      sub\n      dup2\n      add\n      swap1\n      tag_33\n      swap2\n      swap1\n      tag_34\n      jump\t// in\n    tag_33:\n      tag_35\n      jump\t// in\n    tag_32:\n      stop\n        /* \"@openzeppelin/contracts-upgradeable/proxy/utils/UUPSUpgradeable.sol\":3705:3839  function proxiableUUID() external view virtual notDelegated returns (bytes32) {... */\n    tag_6:\n      callvalue\n      dup1\n      iszero\n      tag_36\n      jumpi\n      0x00\n      dup1\n      revert\n    tag_36:\n      pop\n      tag_37\n      tag_38\n      jump\t// in\n    tag_37:\n      mload(0x40)\n      tag_39\n      swap2\n      swap1\n      tag_40\n      jump\t// in\n    tag_39:\n      mload(0x40)\n      dup1\n      swap2\n      sub\n      swap1\n      return\n        /* \"@openzeppelin/contracts-upgradeable/access/OwnableUpgradeable.sol\":3155:3256  function renounceOwnership() public virtual onlyOwner {... */\n    tag_7:\n      callvalue\n      dup1\n      iszero\n      tag_41\n      jumpi\n      0x00\n      dup1\n      revert\n    tag_41:\n      pop\n      tag_42\n      tag_43\n      jump\t// in\n    tag_42:\n      stop\n        /* \"contracts/5_UUPS_UpgradableContract2.sol\":796:935  function initialize() public initializer {... */\n    tag_8:\n      callvalue\n      dup1\n      iszero\n      tag_44\n      jumpi\n      0x00\n      dup1\n      revert\n    tag_44:\n      pop\n      tag_45\n      tag_46\n      jump\t// in\n    tag_45:\n      stop\n        /* \"contracts/5_UUPS_UpgradableContract2.sol\":567:585  uint public number */\n    tag_9:\n      callvalue\n      dup1\n      iszero\n      tag_47\n      jumpi\n      0x00\n      dup1\n      revert\n    tag_47:\n      pop\n      tag_48\n      tag_49\n      jump\t// in\n    tag_48:\n      mload(0x40)\n      tag_50\n      swap2\n      swap1\n      tag_51\n      jump\t// in\n    tag_50:\n      mload(0x40)\n      dup1\n      swap2\n      sub\n      swap1\n      return\n        /* \"@openzeppelin/contracts-upgradeable/access/OwnableUpgradeable.sol\":2441:2585  function owner() public view virtual returns (address) {... */\n    tag_10:\n      callvalue\n      dup1\n      iszero\n      tag_52\n      jumpi\n      0x00\n      dup1\n      revert\n    tag_52:\n      pop\n      tag_53\n      tag_54\n      jump\t// in\n    tag_53:\n      mload(0x40)\n      tag_55\n      swap2\n      swap1\n      tag_56\n      jump\t// in\n    tag_55:\n      mload(0x40)\n      dup1\n      swap2\n      sub\n      swap1\n      return\n        /* \"@openzeppelin/contracts-upgradeable/proxy/utils/UUPSUpgradeable.sol\":1819:1877  string public constant UPGRADE_INTERFACE_VERSION = \"5.0.0\" */\n    tag_11:\n      callvalue\n      dup1\n      iszero\n      tag_57\n      jumpi\n      0x00\n      dup1\n      revert\n    tag_57:\n      pop\n      tag_58\n      tag_59\n      jump\t// in\n    tag_58:\n      mload(0x40)\n      tag_60\n      swap2\n      swap1\n      tag_18\n      jump\t// in\n    tag_60:\n      mload(0x40)\n      dup1\n      swap2\n      sub\n      swap1\n      return\n        /* \"@openzeppelin/contracts-upgradeable/access/OwnableUpgradeable.sol\":3405:3620  function transferOwnership(address newOwner) public virtual onlyOwner {... */\n    tag_12:\n      callvalue\n      dup1\n      iszero\n      tag_61\n      jumpi\n      0x00\n      dup1\n      revert\n    tag_61:\n      pop\n      tag_62\n      0x04\n      dup1\n      calldatasize\n      sub\n      dup2\n      add\n      swap1\n      tag_63\n      swap2\n      swap1\n      tag_64\n      jump\t// in\n    tag_63:\n      tag_65\n      jump\t// in\n    tag_62:\n      stop\n        /* \"contracts/5_UUPS_UpgradableContract2.sol\":591:609  string public name */\n    tag_16:\n      0x02\n      dup1\n      sload\n      tag_66\n      swap1\n      tag_67\n      jump\t// in\n    tag_66:\n      dup1\n      0x1f\n      add\n      0x20\n      dup1\n      swap2\n      div\n      mul\n      0x20\n      add\n      mload(0x40)\n      swap1\n      dup2\n      add\n      0x40\n      mstore\n      dup1\n      swap3\n      swap2\n      swap1\n      dup2\n      dup2\n      mstore\n      0x20\n      add\n      dup3\n      dup1\n      sload\n      tag_68\n      swap1\n      tag_67\n      jump\t// in\n    tag_68:\n      dup1\n      iszero\n      tag_69\n      jumpi\n      dup1\n      0x1f\n      lt\n      tag_70\n      jumpi\n      0x0100\n      dup1\n      dup4\n      sload\n      div\n      mul\n      dup4\n      mstore\n      swap2\n      0x20\n      add\n      swap2\n      jump(tag_69)\n    tag_70:\n      dup3\n      add\n      swap2\n      swap1\n      0x00\n      mstore\n      keccak256(0x00, 0x20)\n      swap1\n    tag_71:\n      dup2\n      sload\n      dup2\n      mstore\n      swap1\n      0x01\n      add\n      swap1\n      0x20\n      add\n      dup1\n      dup4\n      gt\n      tag_71\n      jumpi\n      dup3\n      swap1\n      sub\n      0x1f\n      and\n      dup3\n      add\n      swap2\n    tag_69:\n      pop\n      pop\n      pop\n      pop\n      pop\n      dup2\n      jump\t// out\n        /* \"contracts/5_UUPS_UpgradableContract2.sol\":1146:1264  function addName(string memory _name) public returns (string memory){... */\n    tag_23:\n        /* \"contracts/5_UUPS_UpgradableContract2.sol\":1200:1213  string memory */\n      0x60\n        /* \"contracts/5_UUPS_UpgradableContract2.sol\":1231:1236  _name */\n      dup2\n        /* \"contracts/5_UUPS_UpgradableContract2.sol\":1224:1228  name */\n      0x02\n        /* \"contracts/5_UUPS_UpgradableContract2.sol\":1224:1236  name = _name */\n      swap1\n      dup2\n      tag_73\n      swap2\n      swap1\n      tag_74\n      jump\t// in\n    tag_73:\n      pop\n        /* \"contracts/5_UUPS_UpgradableContract2.sol\":1253:1257  name */\n      0x02\n        /* \"contracts/5_UUPS_UpgradableContract2.sol\":1246:1257  return name */\n      dup1\n      sload\n      tag_75\n      swap1\n      tag_67\n      jump\t// in\n    tag_75:\n      dup1\n      0x1f\n      add\n      0x20\n      dup1\n      swap2\n      div\n      mul\n      0x20\n      add\n      mload(0x40)\n      swap1\n      dup2\n      add\n      0x40\n      mstore\n      dup1\n      swap3\n      swap2\n      swap1\n      dup2\n      dup2\n      mstore\n      0x20\n      add\n      dup3\n      dup1\n      sload\n      tag_76\n      swap1\n      tag_67\n      jump\t// in\n    tag_76:\n      dup1\n      iszero\n      tag_77\n      jumpi\n      dup1\n      0x1f\n      lt\n      tag_78\n      jumpi\n      0x0100\n      dup1\n      dup4\n      sload\n      div\n      mul\n      dup4\n      mstore\n      swap2\n      0x20\n      add\n      swap2\n      jump(tag_77)\n    tag_78:\n      dup3\n      add\n      swap2\n      swap1\n      0x00\n      mstore\n      keccak256(0x00, 0x20)\n      swap1\n    tag_79:\n      dup2\n      sload\n      dup2\n      mstore\n      swap1\n      0x01\n      add\n      swap1\n      0x20\n      add\n      dup1\n      dup4\n      gt\n      tag_79\n      jumpi\n      dup3\n      swap1\n      sub\n      0x1f\n      and\n      dup3\n      add\n      swap2\n    tag_77:\n      pop\n      pop\n      pop\n      pop\n      pop\n      swap1\n      pop\n        /* \"contracts/5_UUPS_UpgradableContract2.sol\":1146:1264  function addName(string memory _name) public returns (string memory){... */\n      swap2\n      swap1\n      pop\n      jump\t// out\n        /* \"contracts/5_UUPS_UpgradableContract2.sol\":943:1143  function updateNumber(uint _number) public returns (uint, uint) {... */\n    tag_29:\n        /* \"contracts/5_UUPS_UpgradableContract2.sol\":995:999  uint */\n      0x00\n        /* \"contracts/5_UUPS_UpgradableContract2.sol\":1001:1005  uint */\n      dup1\n        /* \"contracts/5_UUPS_UpgradableContract2.sol\":1036:1038  10 */\n      0x0a\n        /* \"contracts/5_UUPS_UpgradableContract2.sol\":1026:1033  _number */\n      dup4\n        /* \"contracts/5_UUPS_UpgradableContract2.sol\":1026:1038  _number * 10 */\n      tag_81\n      swap2\n      swap1\n      tag_82\n      jump\t// in\n    tag_81:\n        /* \"contracts/5_UUPS_UpgradableContract2.sol\":1017:1023  number */\n      0x01\n        /* \"contracts/5_UUPS_UpgradableContract2.sol\":1017:1038  number = _number * 10 */\n      dup2\n      swap1\n      sstore\n      pop\n        /* \"contracts/5_UUPS_UpgradableContract2.sol\":1049:1069  changeId.increment() */\n      tag_83\n        /* \"contracts/5_UUPS_UpgradableContract2.sol\":1049:1057  changeId */\n      0x00\n        /* \"contracts/5_UUPS_UpgradableContract2.sol\":1049:1067  changeId.increment */\n      tag_84\n        /* \"contracts/5_UUPS_UpgradableContract2.sol\":1049:1069  changeId.increment() */\n      jump\t// in\n    tag_83:\n        /* \"contracts/5_UUPS_UpgradableContract2.sol\":1079:1086  uint id */\n      0x00\n        /* \"contracts/5_UUPS_UpgradableContract2.sol\":1089:1107  changeId.current() */\n      tag_85\n        /* \"contracts/5_UUPS_UpgradableContract2.sol\":1089:1097  changeId */\n      0x00\n        /* \"contracts/5_UUPS_UpgradableContract2.sol\":1089:1105  changeId.current */\n      tag_86\n        /* \"contracts/5_UUPS_UpgradableContract2.sol\":1089:1107  changeId.current() */\n      jump\t// in\n    tag_85:\n        /* \"contracts/5_UUPS_UpgradableContract2.sol\":1079:1107  uint id = changeId.current() */\n      swap1\n      pop\n        /* \"contracts/5_UUPS_UpgradableContract2.sol\":1125:1131  number */\n      sload(0x01)\n        /* \"contracts/5_UUPS_UpgradableContract2.sol\":1133:1135  id */\n      dup2\n        /* \"contracts/5_UUPS_UpgradableContract2.sol\":1117:1136  return (number, id) */\n      swap3\n      pop\n      swap3\n      pop\n      pop\n        /* \"contracts/5_UUPS_UpgradableContract2.sol\":943:1143  function updateNumber(uint _number) public returns (uint, uint) {... */\n      swap2\n      pop\n      swap2\n      jump\t// out\n        /* \"@openzeppelin/contracts-upgradeable/proxy/utils/UUPSUpgradeable.sol\":4158:4372  function upgradeToAndCall(address newImplementation, bytes memory data) public payable virtual onlyProxy {... */\n    tag_35:\n        /* \"@openzeppelin/contracts-upgradeable/proxy/utils/UUPSUpgradeable.sol\":2653:2666  _checkProxy() */\n      tag_88\n        /* \"@openzeppelin/contracts-upgradeable/proxy/utils/UUPSUpgradeable.sol\":2653:2664  _checkProxy */\n      tag_89\n        /* \"@openzeppelin/contracts-upgradeable/proxy/utils/UUPSUpgradeable.sol\":2653:2666  _checkProxy() */\n      jump\t// in\n    tag_88:\n        /* \"@openzeppelin/contracts-upgradeable/proxy/utils/UUPSUpgradeable.sol\":4273:4309  _authorizeUpgrade(newImplementation) */\n      tag_91\n        /* \"@openzeppelin/contracts-upgradeable/proxy/utils/UUPSUpgradeable.sol\":4291:4308  newImplementation */\n      dup3\n        /* \"@openzeppelin/contracts-upgradeable/proxy/utils/UUPSUpgradeable.sol\":4273:4290  _authorizeUpgrade */\n      tag_92\n        /* \"@openzeppelin/contracts-upgradeable/proxy/utils/UUPSUpgradeable.sol\":4273:4309  _authorizeUpgrade(newImplementation) */\n      jump\t// in\n    tag_91:\n        /* \"@openzeppelin/contracts-upgradeable/proxy/utils/UUPSUpgradeable.sol\":4319:4365  _upgradeToAndCallUUPS(newImplementation, data) */\n      tag_93\n        /* \"@openzeppelin/contracts-upgradeable/proxy/utils/UUPSUpgradeable.sol\":4341:4358  newImplementation */\n      dup3\n        /* \"@openzeppelin/contracts-upgradeable/proxy/utils/UUPSUpgradeable.sol\":4360:4364  data */\n      dup3\n        /* \"@openzeppelin/contracts-upgradeable/proxy/utils/UUPSUpgradeable.sol\":4319:4340  _upgradeToAndCallUUPS */\n      tag_94\n        /* \"@openzeppelin/contracts-upgradeable/proxy/utils/UUPSUpgradeable.sol\":4319:4365  _upgradeToAndCallUUPS(newImplementation, data) */\n      jump\t// in\n    tag_93:\n        /* \"@openzeppelin/contracts-upgradeable/proxy/utils/UUPSUpgradeable.sol\":4158:4372  function upgradeToAndCall(address newImplementation, bytes memory data) public payable virtual onlyProxy {... */\n      pop\n      pop\n      jump\t// out\n        /* \"@openzeppelin/contracts-upgradeable/proxy/utils/UUPSUpgradeable.sol\":3705:3839  function proxiableUUID() external view virtual notDelegated returns (bytes32) {... */\n    tag_38:\n        /* \"@openzeppelin/contracts-upgradeable/proxy/utils/UUPSUpgradeable.sol\":3774:3781  bytes32 */\n      0x00\n        /* \"@openzeppelin/contracts-upgradeable/proxy/utils/UUPSUpgradeable.sol\":2924:2944  _checkNotDelegated() */\n      tag_96\n        /* \"@openzeppelin/contracts-upgradeable/proxy/utils/UUPSUpgradeable.sol\":2924:2942  _checkNotDelegated */\n      tag_97\n        /* \"@openzeppelin/contracts-upgradeable/proxy/utils/UUPSUpgradeable.sol\":2924:2944  _checkNotDelegated() */\n      jump\t// in\n    tag_96:\n        /* \"@openzeppelin/contracts/proxy/ERC1967/ERC1967Utils.sol\":1327:1393  0x360894a13ba1a3210667c828492db98dca3e2076cc3735a920a3ca505d382bbc */\n      0x360894a13ba1a3210667c828492db98dca3e2076cc3735a920a3ca505d382bbc\n        /* \"@openzeppelin/contracts-upgradeable/proxy/utils/UUPSUpgradeable.sol\":3800:3832  ERC1967Utils.IMPLEMENTATION_SLOT */\n      0x00\n      shl\n        /* \"@openzeppelin/contracts-upgradeable/proxy/utils/UUPSUpgradeable.sol\":3793:3832  return ERC1967Utils.IMPLEMENTATION_SLOT */\n      swap1\n      pop\n        /* \"@openzeppelin/contracts-upgradeable/proxy/utils/UUPSUpgradeable.sol\":3705:3839  function proxiableUUID() external view virtual notDelegated returns (bytes32) {... */\n      swap1\n      jump\t// out\n        /* \"@openzeppelin/contracts-upgradeable/access/OwnableUpgradeable.sol\":3155:3256  function renounceOwnership() public virtual onlyOwner {... */\n    tag_43:\n        /* \"@openzeppelin/contracts-upgradeable/access/OwnableUpgradeable.sol\":2334:2347  _checkOwner() */\n      tag_100\n        /* \"@openzeppelin/contracts-upgradeable/access/OwnableUpgradeable.sol\":2334:2345  _checkOwner */\n      tag_101\n        /* \"@openzeppelin/contracts-upgradeable/access/OwnableUpgradeable.sol\":2334:2347  _checkOwner() */\n      jump\t// in\n    tag_100:\n        /* \"@openzeppelin/contracts-upgradeable/access/OwnableUpgradeable.sol\":3219:3249  _transferOwnership(address(0)) */\n      tag_103\n        /* \"@openzeppelin/contracts-upgradeable/access/OwnableUpgradeable.sol\":3246:3247  0 */\n      0x00\n        /* \"@openzeppelin/contracts-upgradeable/access/OwnableUpgradeable.sol\":3219:3237  _transferOwnership */\n      tag_104\n        /* \"@openzeppelin/contracts-upgradeable/access/OwnableUpgradeable.sol\":3219:3249  _transferOwnership(address(0)) */\n      jump\t// in\n    tag_103:\n        /* \"@openzeppelin/contracts-upgradeable/access/OwnableUpgradeable.sol\":3155:3256  function renounceOwnership() public virtual onlyOwner {... */\n      jump\t// out\n        /* \"contracts/5_UUPS_UpgradableContract2.sol\":796:935  function initialize() public initializer {... */\n    tag_46:\n        /* \"@openzeppelin/contracts-upgradeable/proxy/utils/Initializable.sol\":4158:4188  InitializableStorage storage $ */\n      0x00\n        /* \"@openzeppelin/contracts-upgradeable/proxy/utils/Initializable.sol\":4191:4217  _getInitializableStorage() */\n      tag_106\n        /* \"@openzeppelin/contracts-upgradeable/proxy/utils/Initializable.sol\":4191:4215  _getInitializableStorage */\n      tag_107\n        /* \"@openzeppelin/contracts-upgradeable/proxy/utils/Initializable.sol\":4191:4217  _getInitializableStorage() */\n      jump\t// in\n    tag_106:\n        /* \"@openzeppelin/contracts-upgradeable/proxy/utils/Initializable.sol\":4158:4217  InitializableStorage storage $ = _getInitializableStorage() */\n      swap1\n      pop\n        /* \"@openzeppelin/contracts-upgradeable/proxy/utils/Initializable.sol\":4279:4298  bool isTopLevelCall */\n      0x00\n        /* \"@openzeppelin/contracts-upgradeable/proxy/utils/Initializable.sol\":4302:4303  $ */\n      dup2\n        /* \"@openzeppelin/contracts-upgradeable/proxy/utils/Initializable.sol\":4302:4317  $._initializing */\n      0x00\n      add\n      0x08\n      swap1\n      sload\n      swap1\n      0x0100\n      exp\n      swap1\n      div\n      0xff\n      and\n        /* \"@openzeppelin/contracts-upgradeable/proxy/utils/Initializable.sol\":4301:4317  !$._initializing */\n      iszero\n        /* \"@openzeppelin/contracts-upgradeable/proxy/utils/Initializable.sol\":4279:4317  bool isTopLevelCall = !$._initializing */\n      swap1\n      pop\n        /* \"@openzeppelin/contracts-upgradeable/proxy/utils/Initializable.sol\":4327:4345  uint64 initialized */\n      0x00\n        /* \"@openzeppelin/contracts-upgradeable/proxy/utils/Initializable.sol\":4348:4349  $ */\n      dup3\n        /* \"@openzeppelin/contracts-upgradeable/proxy/utils/Initializable.sol\":4348:4362  $._initialized */\n      0x00\n      add\n      0x00\n      swap1\n      sload\n      swap1\n      0x0100\n      exp\n      swap1\n      div\n      0xffffffffffffffff\n      and\n        /* \"@openzeppelin/contracts-upgradeable/proxy/utils/Initializable.sol\":4327:4362  uint64 initialized = $._initialized */\n      swap1\n      pop\n        /* \"@openzeppelin/contracts-upgradeable/proxy/utils/Initializable.sol\":4706:4723  bool initialSetup */\n      0x00\n        /* \"@openzeppelin/contracts-upgradeable/proxy/utils/Initializable.sol\":4741:4742  0 */\n      dup1\n        /* \"@openzeppelin/contracts-upgradeable/proxy/utils/Initializable.sol\":4726:4737  initialized */\n      dup3\n        /* \"@openzeppelin/contracts-upgradeable/proxy/utils/Initializable.sol\":4726:4742  initialized == 0 */\n      0xffffffffffffffff\n      and\n      eq\n        /* \"@openzeppelin/contracts-upgradeable/proxy/utils/Initializable.sol\":4726:4760  initialized == 0 && isTopLevelCall */\n      dup1\n      iszero\n      tag_108\n      jumpi\n      pop\n        /* \"@openzeppelin/contracts-upgradeable/proxy/utils/Initializable.sol\":4746:4760  isTopLevelCall */\n      dup3\n        /* \"@openzeppelin/contracts-upgradeable/proxy/utils/Initializable.sol\":4726:4760  initialized == 0 && isTopLevelCall */\n    tag_108:\n        /* \"@openzeppelin/contracts-upgradeable/proxy/utils/Initializable.sol\":4706:4760  bool initialSetup = initialized == 0 && isTopLevelCall */\n      swap1\n      pop\n        /* \"@openzeppelin/contracts-upgradeable/proxy/utils/Initializable.sol\":4770:4787  bool construction */\n      0x00\n        /* \"@openzeppelin/contracts-upgradeable/proxy/utils/Initializable.sol\":4805:4806  1 */\n      0x01\n        /* \"@openzeppelin/contracts-upgradeable/proxy/utils/Initializable.sol\":4790:4801  initialized */\n      dup4\n        /* \"@openzeppelin/contracts-upgradeable/proxy/utils/Initializable.sol\":4790:4806  initialized == 1 */\n      0xffffffffffffffff\n      and\n      eq\n        /* \"@openzeppelin/contracts-upgradeable/proxy/utils/Initializable.sol\":4790:4840  initialized == 1 && address(this).code.length == 0 */\n      dup1\n      iszero\n      tag_109\n      jumpi\n      pop\n        /* \"@openzeppelin/contracts-upgradeable/proxy/utils/Initializable.sol\":4839:4840  0 */\n      0x00\n        /* \"@openzeppelin/contracts-upgradeable/proxy/utils/Initializable.sol\":4818:4822  this */\n      address\n        /* \"@openzeppelin/contracts-upgradeable/proxy/utils/Initializable.sol\":4810:4835  address(this).code.length */\n      0xffffffffffffffffffffffffffffffffffffffff\n      and\n      extcodesize\n        /* \"@openzeppelin/contracts-upgradeable/proxy/utils/Initializable.sol\":4810:4840  address(this).code.length == 0 */\n      eq\n        /* \"@openzeppelin/contracts-upgradeable/proxy/utils/Initializable.sol\":4790:4840  initialized == 1 && address(this).code.length == 0 */\n    tag_109:\n        /* \"@openzeppelin/contracts-upgradeable/proxy/utils/Initializable.sol\":4770:4840  bool construction = initialized == 1 && address(this).code.length == 0 */\n      swap1\n      pop\n        /* \"@openzeppelin/contracts-upgradeable/proxy/utils/Initializable.sol\":4856:4868  initialSetup */\n      dup2\n        /* \"@openzeppelin/contracts-upgradeable/proxy/utils/Initializable.sol\":4855:4868  !initialSetup */\n      iszero\n        /* \"@openzeppelin/contracts-upgradeable/proxy/utils/Initializable.sol\":4855:4885  !initialSetup && !construction */\n      dup1\n      iszero\n      tag_110\n      jumpi\n      pop\n        /* \"@openzeppelin/contracts-upgradeable/proxy/utils/Initializable.sol\":4873:4885  construction */\n      dup1\n        /* \"@openzeppelin/contracts-upgradeable/proxy/utils/Initializable.sol\":4872:4885  !construction */\n      iszero\n        /* \"@openzeppelin/contracts-upgradeable/proxy/utils/Initializable.sol\":4855:4885  !initialSetup && !construction */\n    tag_110:\n        /* \"@openzeppelin/contracts-upgradeable/proxy/utils/Initializable.sol\":4851:4942  if (!initialSetup && !construction) {... */\n      iszero\n      tag_111\n      jumpi\n        /* \"@openzeppelin/contracts-upgradeable/proxy/utils/Initializable.sol\":4908:4931  InvalidInitialization() */\n      mload(0x40)\n      0xf92ee8a900000000000000000000000000000000000000000000000000000000\n      dup2\n      mstore\n      0x04\n      add\n      mload(0x40)\n      dup1\n      swap2\n      sub\n      swap1\n      revert\n        /* \"@openzeppelin/contracts-upgradeable/proxy/utils/Initializable.sol\":4851:4942  if (!initialSetup && !construction) {... */\n    tag_111:\n        /* \"@openzeppelin/contracts-upgradeable/proxy/utils/Initializable.sol\":4968:4969  1 */\n      0x01\n        /* \"@openzeppelin/contracts-upgradeable/proxy/utils/Initializable.sol\":4951:4952  $ */\n      dup6\n        /* \"@openzeppelin/contracts-upgradeable/proxy/utils/Initializable.sol\":4951:4965  $._initialized */\n      0x00\n      add\n      0x00\n        /* \"@openzeppelin/contracts-upgradeable/proxy/utils/Initializable.sol\":4951:4969  $._initialized = 1 */\n      0x0100\n      exp\n      dup2\n      sload\n      dup2\n      0xffffffffffffffff\n      mul\n      not\n      and\n      swap1\n      dup4\n      0xffffffffffffffff\n      and\n      mul\n      or\n      swap1\n      sstore\n      pop\n        /* \"@openzeppelin/contracts-upgradeable/proxy/utils/Initializable.sol\":4983:4997  isTopLevelCall */\n      dup4\n        /* \"@openzeppelin/contracts-upgradeable/proxy/utils/Initializable.sol\":4979:5046  if (isTopLevelCall) {... */\n      iszero\n      tag_112\n      jumpi\n        /* \"@openzeppelin/contracts-upgradeable/proxy/utils/Initializable.sol\":5031:5035  true */\n      0x01\n        /* \"@openzeppelin/contracts-upgradeable/proxy/utils/Initializable.sol\":5013:5014  $ */\n      dup6\n        /* \"@openzeppelin/contracts-upgradeable/proxy/utils/Initializable.sol\":5013:5028  $._initializing */\n      0x00\n      add\n      0x08\n        /* \"@openzeppelin/contracts-upgradeable/proxy/utils/Initializable.sol\":5013:5035  $._initializing = true */\n      0x0100\n      exp\n      dup2\n      sload\n      dup2\n      0xff\n      mul\n      not\n      and\n      swap1\n      dup4\n      iszero\n      iszero\n      mul\n      or\n      swap1\n      sstore\n      pop\n        /* \"@openzeppelin/contracts-upgradeable/proxy/utils/Initializable.sol\":4979:5046  if (isTopLevelCall) {... */\n    tag_112:\n        /* \"contracts/5_UUPS_UpgradableContract2.sol\":847:873  __Ownable_init(msg.sender) */\n      tag_114\n        /* \"contracts/5_UUPS_UpgradableContract2.sol\":862:872  msg.sender */\n      caller\n        /* \"contracts/5_UUPS_UpgradableContract2.sol\":847:861  __Ownable_init */\n      tag_115\n        /* \"contracts/5_UUPS_UpgradableContract2.sol\":847:873  __Ownable_init(msg.sender) */\n      jump\t// in\n    tag_114:\n        /* \"contracts/5_UUPS_UpgradableContract2.sol\":883:907  __UUPSUpgradeable_init() */\n      tag_116\n        /* \"contracts/5_UUPS_UpgradableContract2.sol\":883:905  __UUPSUpgradeable_init */\n      tag_117\n        /* \"contracts/5_UUPS_UpgradableContract2.sol\":883:907  __UUPSUpgradeable_init() */\n      jump\t// in\n    tag_116:\n        /* \"contracts/5_UUPS_UpgradableContract2.sol\":926:928  10 */\n      0x0a\n        /* \"contracts/5_UUPS_UpgradableContract2.sol\":917:923  number */\n      0x01\n        /* \"contracts/5_UUPS_UpgradableContract2.sol\":917:928  number = 10 */\n      dup2\n      swap1\n      sstore\n      pop\n        /* \"@openzeppelin/contracts-upgradeable/proxy/utils/Initializable.sol\":5070:5084  isTopLevelCall */\n      dup4\n        /* \"@openzeppelin/contracts-upgradeable/proxy/utils/Initializable.sol\":5066:5167  if (isTopLevelCall) {... */\n      iszero\n      tag_118\n      jumpi\n        /* \"@openzeppelin/contracts-upgradeable/proxy/utils/Initializable.sol\":5118:5123  false */\n      0x00\n        /* \"@openzeppelin/contracts-upgradeable/proxy/utils/Initializable.sol\":5100:5101  $ */\n      dup6\n        /* \"@openzeppelin/contracts-upgradeable/proxy/utils/Initializable.sol\":5100:5115  $._initializing */\n      0x00\n      add\n      0x08\n        /* \"@openzeppelin/contracts-upgradeable/proxy/utils/Initializable.sol\":5100:5123  $._initializing = false */\n      0x0100\n      exp\n      dup2\n      sload\n      dup2\n      0xff\n      mul\n      not\n      and\n      swap1\n      dup4\n      iszero\n      iszero\n      mul\n      or\n      swap1\n      sstore\n      pop\n        /* \"@openzeppelin/contracts-upgradeable/proxy/utils/Initializable.sol\":5142:5156  Initialized(1) */\n      0xc7f505b2f371ae2175ee4913f4499e1f2633a7b5936321eed1cdaeb6115181d2\n        /* \"@openzeppelin/contracts-upgradeable/proxy/utils/Initializable.sol\":5154:5155  1 */\n      0x01\n        /* \"@openzeppelin/contracts-upgradeable/proxy/utils/Initializable.sol\":5142:5156  Initialized(1) */\n      mload(0x40)\n      tag_119\n      swap2\n      swap1\n      tag_120\n      jump\t// in\n    tag_119:\n      mload(0x40)\n      dup1\n      swap2\n      sub\n      swap1\n      log1\n        /* \"@openzeppelin/contracts-upgradeable/proxy/utils/Initializable.sol\":5066:5167  if (isTopLevelCall) {... */\n    tag_118:\n        /* \"@openzeppelin/contracts-upgradeable/proxy/utils/Initializable.sol\":4092:5173  {... */\n      pop\n      pop\n      pop\n      pop\n      pop\n        /* \"contracts/5_UUPS_UpgradableContract2.sol\":796:935  function initialize() public initializer {... */\n      jump\t// out\n        /* \"contracts/5_UUPS_UpgradableContract2.sol\":567:585  uint public number */\n    tag_49:\n      sload(0x01)\n      dup2\n      jump\t// out\n        /* \"@openzeppelin/contracts-upgradeable/access/OwnableUpgradeable.sol\":2441:2585  function owner() public view virtual returns (address) {... */\n    tag_54:\n        /* \"@openzeppelin/contracts-upgradeable/access/OwnableUpgradeable.sol\":2487:2494  address */\n      0x00\n        /* \"@openzeppelin/contracts-upgradeable/access/OwnableUpgradeable.sol\":2506:2530  OwnableStorage storage $ */\n      dup1\n        /* \"@openzeppelin/contracts-upgradeable/access/OwnableUpgradeable.sol\":2533:2553  _getOwnableStorage() */\n      tag_122\n        /* \"@openzeppelin/contracts-upgradeable/access/OwnableUpgradeable.sol\":2533:2551  _getOwnableStorage */\n      tag_123\n        /* \"@openzeppelin/contracts-upgradeable/access/OwnableUpgradeable.sol\":2533:2553  _getOwnableStorage() */\n      jump\t// in\n    tag_122:\n        /* \"@openzeppelin/contracts-upgradeable/access/OwnableUpgradeable.sol\":2506:2553  OwnableStorage storage $ = _getOwnableStorage() */\n      swap1\n      pop\n        /* \"@openzeppelin/contracts-upgradeable/access/OwnableUpgradeable.sol\":2570:2571  $ */\n      dup1\n        /* \"@openzeppelin/contracts-upgradeable/access/OwnableUpgradeable.sol\":2570:2578  $._owner */\n      0x00\n      add\n      0x00\n      swap1\n      sload\n      swap1\n      0x0100\n      exp\n      swap1\n      div\n      0xffffffffffffffffffffffffffffffffffffffff\n      and\n        /* \"@openzeppelin/contracts-upgradeable/access/OwnableUpgradeable.sol\":2563:2578  return $._owner */\n      swap2\n      pop\n      pop\n        /* \"@openzeppelin/contracts-upgradeable/access/OwnableUpgradeable.sol\":2441:2585  function owner() public view virtual returns (address) {... */\n      swap1\n      jump\t// out\n        /* \"@openzeppelin/contracts-upgradeable/proxy/utils/UUPSUpgradeable.sol\":1819:1877  string public constant UPGRADE_INTERFACE_VERSION = \"5.0.0\" */\n    tag_59:\n      mload(0x40)\n      dup1\n      0x40\n      add\n      0x40\n      mstore\n      dup1\n      0x05\n      dup2\n      mstore\n      0x20\n      add\n      0x352e302e30000000000000000000000000000000000000000000000000000000\n      dup2\n      mstore\n      pop\n      dup2\n      jump\t// out\n        /* \"@openzeppelin/contracts-upgradeable/access/OwnableUpgradeable.sol\":3405:3620  function transferOwnership(address newOwner) public virtual onlyOwner {... */\n    tag_65:\n        /* \"@openzeppelin/contracts-upgradeable/access/OwnableUpgradeable.sol\":2334:2347  _checkOwner() */\n      tag_125\n        /* \"@openzeppelin/contracts-upgradeable/access/OwnableUpgradeable.sol\":2334:2345  _checkOwner */\n      tag_101\n        /* \"@openzeppelin/contracts-upgradeable/access/OwnableUpgradeable.sol\":2334:2347  _checkOwner() */\n      jump\t// in\n    tag_125:\n        /* \"@openzeppelin/contracts-upgradeable/access/OwnableUpgradeable.sol\":3509:3510  0 */\n      0x00\n        /* \"@openzeppelin/contracts-upgradeable/access/OwnableUpgradeable.sol\":3489:3511  newOwner == address(0) */\n      0xffffffffffffffffffffffffffffffffffffffff\n      and\n        /* \"@openzeppelin/contracts-upgradeable/access/OwnableUpgradeable.sol\":3489:3497  newOwner */\n      dup2\n        /* \"@openzeppelin/contracts-upgradeable/access/OwnableUpgradeable.sol\":3489:3511  newOwner == address(0) */\n      0xffffffffffffffffffffffffffffffffffffffff\n      and\n      sub\n        /* \"@openzeppelin/contracts-upgradeable/access/OwnableUpgradeable.sol\":3485:3576  if (newOwner == address(0)) {... */\n      tag_127\n      jumpi\n        /* \"@openzeppelin/contracts-upgradeable/access/OwnableUpgradeable.sol\":3562:3563  0 */\n      0x00\n        /* \"@openzeppelin/contracts-upgradeable/access/OwnableUpgradeable.sol\":3534:3565  OwnableInvalidOwner(address(0)) */\n      mload(0x40)\n      0x1e4fbdf700000000000000000000000000000000000000000000000000000000\n      dup2\n      mstore\n      0x04\n      add\n      tag_128\n      swap2\n      swap1\n      tag_56\n      jump\t// in\n    tag_128:\n      mload(0x40)\n      dup1\n      swap2\n      sub\n      swap1\n      revert\n        /* \"@openzeppelin/contracts-upgradeable/access/OwnableUpgradeable.sol\":3485:3576  if (newOwner == address(0)) {... */\n    tag_127:\n        /* \"@openzeppelin/contracts-upgradeable/access/OwnableUpgradeable.sol\":3585:3613  _transferOwnership(newOwner) */\n      tag_129\n        /* \"@openzeppelin/contracts-upgradeable/access/OwnableUpgradeable.sol\":3604:3612  newOwner */\n      dup2\n        /* \"@openzeppelin/contracts-upgradeable/access/OwnableUpgradeable.sol\":3585:3603  _transferOwnership */\n      tag_104\n        /* \"@openzeppelin/contracts-upgradeable/access/OwnableUpgradeable.sol\":3585:3613  _transferOwnership(newOwner) */\n      jump\t// in\n    tag_129:\n        /* \"@openzeppelin/contracts-upgradeable/access/OwnableUpgradeable.sol\":3405:3620  function transferOwnership(address newOwner) public virtual onlyOwner {... */\n      pop\n      jump\t// out\n        /* \"@openzeppelin/contracts-upgradeable/utils/CountersUpgradeable.sol\":956:1079  function increment(Counter storage counter) internal {... */\n    tag_84:\n        /* \"@openzeppelin/contracts-upgradeable/utils/CountersUpgradeable.sol\":1061:1062  1 */\n      0x01\n        /* \"@openzeppelin/contracts-upgradeable/utils/CountersUpgradeable.sol\":1043:1050  counter */\n      dup2\n        /* \"@openzeppelin/contracts-upgradeable/utils/CountersUpgradeable.sol\":1043:1057  counter._value */\n      0x00\n      add\n      0x00\n        /* \"@openzeppelin/contracts-upgradeable/utils/CountersUpgradeable.sol\":1043:1062  counter._value += 1 */\n      dup3\n      dup3\n      sload\n      add\n      swap3\n      pop\n      pop\n      dup2\n      swap1\n      sstore\n      pop\n        /* \"@openzeppelin/contracts-upgradeable/utils/CountersUpgradeable.sol\":956:1079  function increment(Counter storage counter) internal {... */\n      pop\n      jump\t// out\n        /* \"@openzeppelin/contracts-upgradeable/utils/CountersUpgradeable.sol\":838:950  function current(Counter storage counter) internal view returns (uint256) {... */\n    tag_86:\n        /* \"@openzeppelin/contracts-upgradeable/utils/CountersUpgradeable.sol\":903:910  uint256 */\n      0x00\n        /* \"@openzeppelin/contracts-upgradeable/utils/CountersUpgradeable.sol\":929:936  counter */\n      dup2\n        /* \"@openzeppelin/contracts-upgradeable/utils/CountersUpgradeable.sol\":929:943  counter._value */\n      0x00\n      add\n      sload\n        /* \"@openzeppelin/contracts-upgradeable/utils/CountersUpgradeable.sol\":922:943  return counter._value */\n      swap1\n      pop\n        /* \"@openzeppelin/contracts-upgradeable/utils/CountersUpgradeable.sol\":838:950  function current(Counter storage counter) internal view returns (uint256) {... */\n      swap2\n      swap1\n      pop\n      jump\t// out\n        /* \"@openzeppelin/contracts-upgradeable/proxy/utils/UUPSUpgradeable.sol\":4599:4911  function _checkProxy() internal view virtual {... */\n    tag_89:\n        /* \"@openzeppelin/contracts-upgradeable/proxy/utils/UUPSUpgradeable.sol\":4688:4694  __self */\n      immutable(\"0x0b83f23a4eeb8c3f5f7d5934a2289bcf0186d09a12e1b7f20adf54e4b179db15\")\n        /* \"@openzeppelin/contracts-upgradeable/proxy/utils/UUPSUpgradeable.sol\":4671:4694  address(this) == __self */\n      0xffffffffffffffffffffffffffffffffffffffff\n      and\n        /* \"@openzeppelin/contracts-upgradeable/proxy/utils/UUPSUpgradeable.sol\":4679:4683  this */\n      address\n        /* \"@openzeppelin/contracts-upgradeable/proxy/utils/UUPSUpgradeable.sol\":4671:4694  address(this) == __self */\n      0xffffffffffffffffffffffffffffffffffffffff\n      and\n      eq\n        /* \"@openzeppelin/contracts-upgradeable/proxy/utils/UUPSUpgradeable.sol\":4671:4791  address(this) == __self || // Must be called through delegatecall... */\n      dup1\n      tag_133\n      jumpi\n      pop\n        /* \"@openzeppelin/contracts-upgradeable/proxy/utils/UUPSUpgradeable.sol\":4785:4791  __self */\n      immutable(\"0x0b83f23a4eeb8c3f5f7d5934a2289bcf0186d09a12e1b7f20adf54e4b179db15\")\n        /* \"@openzeppelin/contracts-upgradeable/proxy/utils/UUPSUpgradeable.sol\":4749:4791  ERC1967Utils.getImplementation() != __self */\n      0xffffffffffffffffffffffffffffffffffffffff\n      and\n        /* \"@openzeppelin/contracts-upgradeable/proxy/utils/UUPSUpgradeable.sol\":4749:4781  ERC1967Utils.getImplementation() */\n      tag_134\n        /* \"@openzeppelin/contracts-upgradeable/proxy/utils/UUPSUpgradeable.sol\":4749:4779  ERC1967Utils.getImplementation */\n      tag_135\n        /* \"@openzeppelin/contracts-upgradeable/proxy/utils/UUPSUpgradeable.sol\":4749:4781  ERC1967Utils.getImplementation() */\n      jump\t// in\n    tag_134:\n        /* \"@openzeppelin/contracts-upgradeable/proxy/utils/UUPSUpgradeable.sol\":4749:4791  ERC1967Utils.getImplementation() != __self */\n      0xffffffffffffffffffffffffffffffffffffffff\n      and\n      eq\n      iszero\n        /* \"@openzeppelin/contracts-upgradeable/proxy/utils/UUPSUpgradeable.sol\":4671:4791  address(this) == __self || // Must be called through delegatecall... */\n    tag_133:\n        /* \"@openzeppelin/contracts-upgradeable/proxy/utils/UUPSUpgradeable.sol\":4654:4905  if (... */\n      iszero\n      tag_136\n      jumpi\n        /* \"@openzeppelin/contracts-upgradeable/proxy/utils/UUPSUpgradeable.sol\":4865:4894  UUPSUnauthorizedCallContext() */\n      mload(0x40)\n      0xe07c8dba00000000000000000000000000000000000000000000000000000000\n      dup2\n      mstore\n      0x04\n      add\n      mload(0x40)\n      dup1\n      swap2\n      sub\n      swap1\n      revert\n        /* \"@openzeppelin/contracts-upgradeable/proxy/utils/UUPSUpgradeable.sol\":4654:4905  if (... */\n    tag_136:\n        /* \"@openzeppelin/contracts-upgradeable/proxy/utils/UUPSUpgradeable.sol\":4599:4911  function _checkProxy() internal view virtual {... */\n      jump\t// out\n        /* \"contracts/5_UUPS_UpgradableContract2.sol\":616:700  function _authorizeUpgrade(address newImplementation) internal override onlyOwner {} */\n    tag_92:\n        /* \"@openzeppelin/contracts-upgradeable/access/OwnableUpgradeable.sol\":2334:2347  _checkOwner() */\n      tag_138\n        /* \"@openzeppelin/contracts-upgradeable/access/OwnableUpgradeable.sol\":2334:2345  _checkOwner */\n      tag_101\n        /* \"@openzeppelin/contracts-upgradeable/access/OwnableUpgradeable.sol\":2334:2347  _checkOwner() */\n      jump\t// in\n    tag_138:\n        /* \"contracts/5_UUPS_UpgradableContract2.sol\":616:700  function _authorizeUpgrade(address newImplementation) internal override onlyOwner {} */\n      pop\n      jump\t// out\n        /* \"@openzeppelin/contracts-upgradeable/proxy/utils/UUPSUpgradeable.sol\":6052:6590  function _upgradeToAndCallUUPS(address newImplementation, bytes memory data) private {... */\n    tag_94:\n        /* \"@openzeppelin/contracts-upgradeable/proxy/utils/UUPSUpgradeable.sol\":6169:6186  newImplementation */\n      dup2\n        /* \"@openzeppelin/contracts-upgradeable/proxy/utils/UUPSUpgradeable.sol\":6151:6201  IERC1822Proxiable(newImplementation).proxiableUUID */\n      0xffffffffffffffffffffffffffffffffffffffff\n      and\n      0x52d1902d\n        /* \"@openzeppelin/contracts-upgradeable/proxy/utils/UUPSUpgradeable.sol\":6151:6203  IERC1822Proxiable(newImplementation).proxiableUUID() */\n      mload(0x40)\n      dup2\n      0xffffffff\n      and\n      0xe0\n      shl\n      dup2\n      mstore\n      0x04\n      add\n      0x20\n      mload(0x40)\n      dup1\n      dup4\n      sub\n      dup2\n      dup7\n      gas\n      staticcall\n      swap3\n      pop\n      pop\n      pop\n      dup1\n      iszero\n      tag_141\n      jumpi\n      pop\n      mload(0x40)\n      returndatasize\n      not(0x1f)\n      0x1f\n      dup3\n      add\n      and\n      dup3\n      add\n      dup1\n      0x40\n      mstore\n      pop\n      dup2\n      add\n      swap1\n      tag_142\n      swap2\n      swap1\n      tag_143\n      jump\t// in\n    tag_142:\n      0x01\n    tag_141:\n        /* \"@openzeppelin/contracts-upgradeable/proxy/utils/UUPSUpgradeable.sol\":6147:6584  try IERC1822Proxiable(newImplementation).proxiableUUID() returns (bytes32 slot) {... */\n      tag_144\n      jumpi\n        /* \"@openzeppelin/contracts-upgradeable/proxy/utils/UUPSUpgradeable.sol\":6555:6572  newImplementation */\n      dup2\n        /* \"@openzeppelin/contracts-upgradeable/proxy/utils/UUPSUpgradeable.sol\":6513:6573  ERC1967Utils.ERC1967InvalidImplementation(newImplementation) */\n      mload(0x40)\n      0x4c9c8ce300000000000000000000000000000000000000000000000000000000\n      dup2\n      mstore\n      0x04\n      add\n      tag_148\n      swap2\n      swap1\n      tag_56\n      jump\t// in\n    tag_148:\n      mload(0x40)\n      dup1\n      swap2\n      sub\n      swap1\n      revert\n        /* \"@openzeppelin/contracts-upgradeable/proxy/utils/UUPSUpgradeable.sol\":6147:6584  try IERC1822Proxiable(newImplementation).proxiableUUID() returns (bytes32 slot) {... */\n    tag_144:\n        /* \"@openzeppelin/contracts/proxy/ERC1967/ERC1967Utils.sol\":1327:1393  0x360894a13ba1a3210667c828492db98dca3e2076cc3735a920a3ca505d382bbc */\n      0x360894a13ba1a3210667c828492db98dca3e2076cc3735a920a3ca505d382bbc\n        /* \"@openzeppelin/contracts-upgradeable/proxy/utils/UUPSUpgradeable.sol\":6253:6285  ERC1967Utils.IMPLEMENTATION_SLOT */\n      0x00\n      shl\n        /* \"@openzeppelin/contracts-upgradeable/proxy/utils/UUPSUpgradeable.sol\":6245:6249  slot */\n      dup2\n        /* \"@openzeppelin/contracts-upgradeable/proxy/utils/UUPSUpgradeable.sol\":6245:6285  slot != ERC1967Utils.IMPLEMENTATION_SLOT */\n      eq\n        /* \"@openzeppelin/contracts-upgradeable/proxy/utils/UUPSUpgradeable.sol\":6241:6361  if (slot != ERC1967Utils.IMPLEMENTATION_SLOT) {... */\n      tag_150\n      jumpi\n        /* \"@openzeppelin/contracts-upgradeable/proxy/utils/UUPSUpgradeable.sol\":6341:6345  slot */\n      dup1\n        /* \"@openzeppelin/contracts-upgradeable/proxy/utils/UUPSUpgradeable.sol\":6312:6346  UUPSUnsupportedProxiableUUID(slot) */\n      mload(0x40)\n      0xaa1d49a400000000000000000000000000000000000000000000000000000000\n      dup2\n      mstore\n      0x04\n      add\n      tag_151\n      swap2\n      swap1\n      tag_40\n      jump\t// in\n    tag_151:\n      mload(0x40)\n      dup1\n      swap2\n      sub\n      swap1\n      revert\n        /* \"@openzeppelin/contracts-upgradeable/proxy/utils/UUPSUpgradeable.sol\":6241:6361  if (slot != ERC1967Utils.IMPLEMENTATION_SLOT) {... */\n    tag_150:\n        /* \"@openzeppelin/contracts-upgradeable/proxy/utils/UUPSUpgradeable.sol\":6374:6428  ERC1967Utils.upgradeToAndCall(newImplementation, data) */\n      tag_152\n        /* \"@openzeppelin/contracts-upgradeable/proxy/utils/UUPSUpgradeable.sol\":6404:6421  newImplementation */\n      dup4\n        /* \"@openzeppelin/contracts-upgradeable/proxy/utils/UUPSUpgradeable.sol\":6423:6427  data */\n      dup4\n        /* \"@openzeppelin/contracts-upgradeable/proxy/utils/UUPSUpgradeable.sol\":6374:6403  ERC1967Utils.upgradeToAndCall */\n      tag_153\n        /* \"@openzeppelin/contracts-upgradeable/proxy/utils/UUPSUpgradeable.sol\":6374:6428  ERC1967Utils.upgradeToAndCall(newImplementation, data) */\n      jump\t// in\n    tag_152:\n        /* \"@openzeppelin/contracts-upgradeable/proxy/utils/UUPSUpgradeable.sol\":6204:6439  returns (bytes32 slot) {... */\n      pop\n        /* \"@openzeppelin/contracts-upgradeable/proxy/utils/UUPSUpgradeable.sol\":6052:6590  function _upgradeToAndCallUUPS(address newImplementation, bytes memory data) private {... */\n      pop\n      pop\n      jump\t// out\n        /* \"@openzeppelin/contracts-upgradeable/proxy/utils/UUPSUpgradeable.sol\":5028:5241  function _checkNotDelegated() internal view virtual {... */\n    tag_97:\n        /* \"@openzeppelin/contracts-upgradeable/proxy/utils/UUPSUpgradeable.sol\":5111:5117  __self */\n      immutable(\"0x0b83f23a4eeb8c3f5f7d5934a2289bcf0186d09a12e1b7f20adf54e4b179db15\")\n        /* \"@openzeppelin/contracts-upgradeable/proxy/utils/UUPSUpgradeable.sol\":5094:5117  address(this) != __self */\n      0xffffffffffffffffffffffffffffffffffffffff\n      and\n        /* \"@openzeppelin/contracts-upgradeable/proxy/utils/UUPSUpgradeable.sol\":5102:5106  this */\n      address\n        /* \"@openzeppelin/contracts-upgradeable/proxy/utils/UUPSUpgradeable.sol\":5094:5117  address(this) != __self */\n      0xffffffffffffffffffffffffffffffffffffffff\n      and\n      eq\n        /* \"@openzeppelin/contracts-upgradeable/proxy/utils/UUPSUpgradeable.sol\":5090:5235  if (address(this) != __self) {... */\n      tag_155\n      jumpi\n        /* \"@openzeppelin/contracts-upgradeable/proxy/utils/UUPSUpgradeable.sol\":5195:5224  UUPSUnauthorizedCallContext() */\n      mload(0x40)\n      0xe07c8dba00000000000000000000000000000000000000000000000000000000\n      dup2\n      mstore\n      0x04\n      add\n      mload(0x40)\n      dup1\n      swap2\n      sub\n      swap1\n      revert\n        /* \"@openzeppelin/contracts-upgradeable/proxy/utils/UUPSUpgradeable.sol\":5090:5235  if (address(this) != __self) {... */\n    tag_155:\n        /* \"@openzeppelin/contracts-upgradeable/proxy/utils/UUPSUpgradeable.sol\":5028:5241  function _checkNotDelegated() internal view virtual {... */\n      jump\t// out\n        /* \"@openzeppelin/contracts-upgradeable/access/OwnableUpgradeable.sol\":2658:2820  function _checkOwner() internal view virtual {... */\n    tag_101:\n        /* \"@openzeppelin/contracts-upgradeable/access/OwnableUpgradeable.sol\":2728:2740  _msgSender() */\n      tag_157\n        /* \"@openzeppelin/contracts-upgradeable/access/OwnableUpgradeable.sol\":2728:2738  _msgSender */\n      tag_158\n        /* \"@openzeppelin/contracts-upgradeable/access/OwnableUpgradeable.sol\":2728:2740  _msgSender() */\n      jump\t// in\n    tag_157:\n        /* \"@openzeppelin/contracts-upgradeable/access/OwnableUpgradeable.sol\":2717:2740  owner() != _msgSender() */\n      0xffffffffffffffffffffffffffffffffffffffff\n      and\n        /* \"@openzeppelin/contracts-upgradeable/access/OwnableUpgradeable.sol\":2717:2724  owner() */\n      tag_159\n        /* \"@openzeppelin/contracts-upgradeable/access/OwnableUpgradeable.sol\":2717:2722  owner */\n      tag_54\n        /* \"@openzeppelin/contracts-upgradeable/access/OwnableUpgradeable.sol\":2717:2724  owner() */\n      jump\t// in\n    tag_159:\n        /* \"@openzeppelin/contracts-upgradeable/access/OwnableUpgradeable.sol\":2717:2740  owner() != _msgSender() */\n      0xffffffffffffffffffffffffffffffffffffffff\n      and\n      eq\n        /* \"@openzeppelin/contracts-upgradeable/access/OwnableUpgradeable.sol\":2713:2814  if (owner() != _msgSender()) {... */\n      tag_160\n      jumpi\n        /* \"@openzeppelin/contracts-upgradeable/access/OwnableUpgradeable.sol\":2790:2802  _msgSender() */\n      tag_161\n        /* \"@openzeppelin/contracts-upgradeable/access/OwnableUpgradeable.sol\":2790:2800  _msgSender */\n      tag_158\n        /* \"@openzeppelin/contracts-upgradeable/access/OwnableUpgradeable.sol\":2790:2802  _msgSender() */\n      jump\t// in\n    tag_161:\n        /* \"@openzeppelin/contracts-upgradeable/access/OwnableUpgradeable.sol\":2763:2803  OwnableUnauthorizedAccount(_msgSender()) */\n      mload(0x40)\n      0x118cdaa700000000000000000000000000000000000000000000000000000000\n      dup2\n      mstore\n      0x04\n      add\n      tag_162\n      swap2\n      swap1\n      tag_56\n      jump\t// in\n    tag_162:\n      mload(0x40)\n      dup1\n      swap2\n      sub\n      swap1\n      revert\n        /* \"@openzeppelin/contracts-upgradeable/access/OwnableUpgradeable.sol\":2713:2814  if (owner() != _msgSender()) {... */\n    tag_160:\n        /* \"@openzeppelin/contracts-upgradeable/access/OwnableUpgradeable.sol\":2658:2820  function _checkOwner() internal view virtual {... */\n      jump\t// out\n        /* \"@openzeppelin/contracts-upgradeable/access/OwnableUpgradeable.sol\":3774:4022  function _transferOwnership(address newOwner) internal virtual {... */\n    tag_104:\n        /* \"@openzeppelin/contracts-upgradeable/access/OwnableUpgradeable.sol\":3847:3871  OwnableStorage storage $ */\n      0x00\n        /* \"@openzeppelin/contracts-upgradeable/access/OwnableUpgradeable.sol\":3874:3894  _getOwnableStorage() */\n      tag_164\n        /* \"@openzeppelin/contracts-upgradeable/access/OwnableUpgradeable.sol\":3874:3892  _getOwnableStorage */\n      tag_123\n        /* \"@openzeppelin/contracts-upgradeable/access/OwnableUpgradeable.sol\":3874:3894  _getOwnableStorage() */\n      jump\t// in\n    tag_164:\n        /* \"@openzeppelin/contracts-upgradeable/access/OwnableUpgradeable.sol\":3847:3894  OwnableStorage storage $ = _getOwnableStorage() */\n      swap1\n      pop\n        /* \"@openzeppelin/contracts-upgradeable/access/OwnableUpgradeable.sol\":3904:3920  address oldOwner */\n      0x00\n        /* \"@openzeppelin/contracts-upgradeable/access/OwnableUpgradeable.sol\":3923:3924  $ */\n      dup2\n        /* \"@openzeppelin/contracts-upgradeable/access/OwnableUpgradeable.sol\":3923:3931  $._owner */\n      0x00\n      add\n      0x00\n      swap1\n      sload\n      swap1\n      0x0100\n      exp\n      swap1\n      div\n      0xffffffffffffffffffffffffffffffffffffffff\n      and\n        /* \"@openzeppelin/contracts-upgradeable/access/OwnableUpgradeable.sol\":3904:3931  address oldOwner = $._owner */\n      swap1\n      pop\n        /* \"@openzeppelin/contracts-upgradeable/access/OwnableUpgradeable.sol\":3952:3960  newOwner */\n      dup3\n        /* \"@openzeppelin/contracts-upgradeable/access/OwnableUpgradeable.sol\":3941:3942  $ */\n      dup3\n        /* \"@openzeppelin/contracts-upgradeable/access/OwnableUpgradeable.sol\":3941:3949  $._owner */\n      0x00\n      add\n      0x00\n        /* \"@openzeppelin/contracts-upgradeable/access/OwnableUpgradeable.sol\":3941:3960  $._owner = newOwner */\n      0x0100\n      exp\n      dup2\n      sload\n      dup2\n      0xffffffffffffffffffffffffffffffffffffffff\n      mul\n      not\n      and\n      swap1\n      dup4\n      0xffffffffffffffffffffffffffffffffffffffff\n      and\n      mul\n      or\n      swap1\n      sstore\n      pop\n        /* \"@openzeppelin/contracts-upgradeable/access/OwnableUpgradeable.sol\":4006:4014  newOwner */\n      dup3\n        /* \"@openzeppelin/contracts-upgradeable/access/OwnableUpgradeable.sol\":3975:4015  OwnershipTransferred(oldOwner, newOwner) */\n      0xffffffffffffffffffffffffffffffffffffffff\n      and\n        /* \"@openzeppelin/contracts-upgradeable/access/OwnableUpgradeable.sol\":3996:4004  oldOwner */\n      dup2\n        /* \"@openzeppelin/contracts-upgradeable/access/OwnableUpgradeable.sol\":3975:4015  OwnershipTransferred(oldOwner, newOwner) */\n      0xffffffffffffffffffffffffffffffffffffffff\n      and\n      0x8be0079c531659141344cd1fd0a4f28419497f9722a3daafe3b4186f6b6457e0\n      mload(0x40)\n      mload(0x40)\n      dup1\n      swap2\n      sub\n      swap1\n      log3\n        /* \"@openzeppelin/contracts-upgradeable/access/OwnableUpgradeable.sol\":3837:4022  {... */\n      pop\n      pop\n        /* \"@openzeppelin/contracts-upgradeable/access/OwnableUpgradeable.sol\":3774:4022  function _transferOwnership(address newOwner) internal virtual {... */\n      pop\n      jump\t// out\n        /* \"@openzeppelin/contracts-upgradeable/proxy/utils/Initializable.sol\":8737:8907  function _getInitializableStorage() private pure returns (InitializableStorage storage $) {... */\n    tag_107:\n        /* \"@openzeppelin/contracts-upgradeable/proxy/utils/Initializable.sol\":8795:8825  InitializableStorage storage $ */\n      0x00\n        /* \"@openzeppelin/contracts-upgradeable/proxy/utils/Initializable.sol\":8870:8891  INITIALIZABLE_STORAGE */\n      0xf0c57e16840df040f15088dc2f81fe391c3923bec73e23a9662efc9c229c6a00\n        /* \"@openzeppelin/contracts-upgradeable/proxy/utils/Initializable.sol\":8860:8891  $.slot := INITIALIZABLE_STORAGE */\n      swap1\n      pop\n        /* \"@openzeppelin/contracts-upgradeable/proxy/utils/Initializable.sol\":8737:8907  function _getInitializableStorage() private pure returns (InitializableStorage storage $) {... */\n      swap1\n      jump\t// out\n        /* \"@openzeppelin/contracts-upgradeable/access/OwnableUpgradeable.sol\":1847:1974  function __Ownable_init(address initialOwner) internal onlyInitializing {... */\n    tag_115:\n        /* \"@openzeppelin/contracts-upgradeable/proxy/utils/Initializable.sol\":6931:6951  _checkInitializing() */\n      tag_167\n        /* \"@openzeppelin/contracts-upgradeable/proxy/utils/Initializable.sol\":6931:6949  _checkInitializing */\n      tag_168\n        /* \"@openzeppelin/contracts-upgradeable/proxy/utils/Initializable.sol\":6931:6951  _checkInitializing() */\n      jump\t// in\n    tag_167:\n        /* \"@openzeppelin/contracts-upgradeable/access/OwnableUpgradeable.sol\":1929:1967  __Ownable_init_unchained(initialOwner) */\n      tag_170\n        /* \"@openzeppelin/contracts-upgradeable/access/OwnableUpgradeable.sol\":1954:1966  initialOwner */\n      dup2\n        /* \"@openzeppelin/contracts-upgradeable/access/OwnableUpgradeable.sol\":1929:1953  __Ownable_init_unchained */\n      tag_171\n        /* \"@openzeppelin/contracts-upgradeable/access/OwnableUpgradeable.sol\":1929:1967  __Ownable_init_unchained(initialOwner) */\n      jump\t// in\n    tag_170:\n        /* \"@openzeppelin/contracts-upgradeable/access/OwnableUpgradeable.sol\":1847:1974  function __Ownable_init(address initialOwner) internal onlyInitializing {... */\n      pop\n      jump\t// out\n        /* \"@openzeppelin/contracts-upgradeable/proxy/utils/UUPSUpgradeable.sol\":2968:3035  function __UUPSUpgradeable_init() internal onlyInitializing {... */\n    tag_117:\n        /* \"@openzeppelin/contracts-upgradeable/proxy/utils/Initializable.sol\":6931:6951  _checkInitializing() */\n      tag_173\n        /* \"@openzeppelin/contracts-upgradeable/proxy/utils/Initializable.sol\":6931:6949  _checkInitializing */\n      tag_168\n        /* \"@openzeppelin/contracts-upgradeable/proxy/utils/Initializable.sol\":6931:6951  _checkInitializing() */\n      jump\t// in\n    tag_173:\n        /* \"@openzeppelin/contracts-upgradeable/proxy/utils/UUPSUpgradeable.sol\":2968:3035  function __UUPSUpgradeable_init() internal onlyInitializing {... */\n      jump\t// out\n        /* \"@openzeppelin/contracts-upgradeable/access/OwnableUpgradeable.sol\":1192:1351  function _getOwnableStorage() private pure returns (OwnableStorage storage $) {... */\n    tag_123:\n        /* \"@openzeppelin/contracts-upgradeable/access/OwnableUpgradeable.sol\":1244:1268  OwnableStorage storage $ */\n      0x00\n        /* \"@openzeppelin/contracts-upgradeable/access/OwnableUpgradeable.sol\":1313:1335  OwnableStorageLocation */\n      0x9016d09d72d40fdae2fd8ceac6b6234c7706214fd39c1cd1e609a0528c199300\n        /* \"@openzeppelin/contracts-upgradeable/access/OwnableUpgradeable.sol\":1303:1335  $.slot := OwnableStorageLocation */\n      swap1\n      pop\n        /* \"@openzeppelin/contracts-upgradeable/access/OwnableUpgradeable.sol\":1192:1351  function _getOwnableStorage() private pure returns (OwnableStorage storage $) {... */\n      swap1\n      jump\t// out\n        /* \"@openzeppelin/contracts/proxy/ERC1967/ERC1967Utils.sol\":1957:2095  function getImplementation() internal view returns (address) {... */\n    tag_135:\n        /* \"@openzeppelin/contracts/proxy/ERC1967/ERC1967Utils.sol\":2009:2016  address */\n      0x00\n        /* \"@openzeppelin/contracts/proxy/ERC1967/ERC1967Utils.sol\":2035:2082  StorageSlot.getAddressSlot(IMPLEMENTATION_SLOT) */\n      tag_177\n        /* \"@openzeppelin/contracts/proxy/ERC1967/ERC1967Utils.sol\":1327:1393  0x360894a13ba1a3210667c828492db98dca3e2076cc3735a920a3ca505d382bbc */\n      0x360894a13ba1a3210667c828492db98dca3e2076cc3735a920a3ca505d382bbc\n        /* \"@openzeppelin/contracts/proxy/ERC1967/ERC1967Utils.sol\":2062:2081  IMPLEMENTATION_SLOT */\n      0x00\n      shl\n        /* \"@openzeppelin/contracts/proxy/ERC1967/ERC1967Utils.sol\":2035:2061  StorageSlot.getAddressSlot */\n      tag_178\n        /* \"@openzeppelin/contracts/proxy/ERC1967/ERC1967Utils.sol\":2035:2082  StorageSlot.getAddressSlot(IMPLEMENTATION_SLOT) */\n      jump\t// in\n    tag_177:\n        /* \"@openzeppelin/contracts/proxy/ERC1967/ERC1967Utils.sol\":2035:2088  StorageSlot.getAddressSlot(IMPLEMENTATION_SLOT).value */\n      0x00\n      add\n      0x00\n      swap1\n      sload\n      swap1\n      0x0100\n      exp\n      swap1\n      div\n      0xffffffffffffffffffffffffffffffffffffffff\n      and\n        /* \"@openzeppelin/contracts/proxy/ERC1967/ERC1967Utils.sol\":2028:2088  return StorageSlot.getAddressSlot(IMPLEMENTATION_SLOT).value */\n      swap1\n      pop\n        /* \"@openzeppelin/contracts/proxy/ERC1967/ERC1967Utils.sol\":1957:2095  function getImplementation() internal view returns (address) {... */\n      swap1\n      jump\t// out\n        /* \"@openzeppelin/contracts/proxy/ERC1967/ERC1967Utils.sol\":2779:3114  function upgradeToAndCall(address newImplementation, bytes memory data) internal {... */\n    tag_153:\n        /* \"@openzeppelin/contracts/proxy/ERC1967/ERC1967Utils.sol\":2870:2907  _setImplementation(newImplementation) */\n      tag_180\n        /* \"@openzeppelin/contracts/proxy/ERC1967/ERC1967Utils.sol\":2889:2906  newImplementation */\n      dup3\n        /* \"@openzeppelin/contracts/proxy/ERC1967/ERC1967Utils.sol\":2870:2888  _setImplementation */\n      tag_181\n        /* \"@openzeppelin/contracts/proxy/ERC1967/ERC1967Utils.sol\":2870:2907  _setImplementation(newImplementation) */\n      jump\t// in\n    tag_180:\n        /* \"@openzeppelin/contracts/proxy/ERC1967/ERC1967Utils.sol\":2931:2948  newImplementation */\n      dup2\n        /* \"@openzeppelin/contracts/proxy/ERC1967/ERC1967Utils.sol\":2922:2949  Upgraded(newImplementation) */\n      0xffffffffffffffffffffffffffffffffffffffff\n      and\n      0xbc7cd75a20ee27fd9adebab32041f755214dbc6bffa90cc0225b39da2e5c2d3b\n      mload(0x40)\n      mload(0x40)\n      dup1\n      swap2\n      sub\n      swap1\n      log2\n        /* \"@openzeppelin/contracts/proxy/ERC1967/ERC1967Utils.sol\":2978:2979  0 */\n      0x00\n        /* \"@openzeppelin/contracts/proxy/ERC1967/ERC1967Utils.sol\":2964:2968  data */\n      dup2\n        /* \"@openzeppelin/contracts/proxy/ERC1967/ERC1967Utils.sol\":2964:2975  data.length */\n      mload\n        /* \"@openzeppelin/contracts/proxy/ERC1967/ERC1967Utils.sol\":2964:2979  data.length > 0 */\n      gt\n        /* \"@openzeppelin/contracts/proxy/ERC1967/ERC1967Utils.sol\":2960:3108  if (data.length > 0) {... */\n      iszero\n      tag_182\n      jumpi\n        /* \"@openzeppelin/contracts/proxy/ERC1967/ERC1967Utils.sol\":2995:3048  Address.functionDelegateCall(newImplementation, data) */\n      tag_183\n        /* \"@openzeppelin/contracts/proxy/ERC1967/ERC1967Utils.sol\":3024:3041  newImplementation */\n      dup3\n        /* \"@openzeppelin/contracts/proxy/ERC1967/ERC1967Utils.sol\":3043:3047  data */\n      dup3\n        /* \"@openzeppelin/contracts/proxy/ERC1967/ERC1967Utils.sol\":2995:3023  Address.functionDelegateCall */\n      tag_184\n        /* \"@openzeppelin/contracts/proxy/ERC1967/ERC1967Utils.sol\":2995:3048  Address.functionDelegateCall(newImplementation, data) */\n      jump\t// in\n    tag_183:\n      pop\n        /* \"@openzeppelin/contracts/proxy/ERC1967/ERC1967Utils.sol\":2960:3108  if (data.length > 0) {... */\n      jump(tag_185)\n    tag_182:\n        /* \"@openzeppelin/contracts/proxy/ERC1967/ERC1967Utils.sol\":3079:3097  _checkNonPayable() */\n      tag_186\n        /* \"@openzeppelin/contracts/proxy/ERC1967/ERC1967Utils.sol\":3079:3095  _checkNonPayable */\n      tag_187\n        /* \"@openzeppelin/contracts/proxy/ERC1967/ERC1967Utils.sol\":3079:3097  _checkNonPayable() */\n      jump\t// in\n    tag_186:\n        /* \"@openzeppelin/contracts/proxy/ERC1967/ERC1967Utils.sol\":2960:3108  if (data.length > 0) {... */\n    tag_185:\n        /* \"@openzeppelin/contracts/proxy/ERC1967/ERC1967Utils.sol\":2779:3114  function upgradeToAndCall(address newImplementation, bytes memory data) internal {... */\n      pop\n      pop\n      jump\t// out\n        /* \"@openzeppelin/contracts-upgradeable/utils/ContextUpgradeable.sol\":887:983  function _msgSender() internal view virtual returns (address) {... */\n    tag_158:\n        /* \"@openzeppelin/contracts-upgradeable/utils/ContextUpgradeable.sol\":940:947  address */\n      0x00\n        /* \"@openzeppelin/contracts-upgradeable/utils/ContextUpgradeable.sol\":966:976  msg.sender */\n      caller\n        /* \"@openzeppelin/contracts-upgradeable/utils/ContextUpgradeable.sol\":959:976  return msg.sender */\n      swap1\n      pop\n        /* \"@openzeppelin/contracts-upgradeable/utils/ContextUpgradeable.sol\":887:983  function _msgSender() internal view virtual returns (address) {... */\n      swap1\n      jump\t// out\n        /* \"@openzeppelin/contracts-upgradeable/proxy/utils/Initializable.sol\":7084:7225  function _checkInitializing() internal view virtual {... */\n    tag_168:\n        /* \"@openzeppelin/contracts-upgradeable/proxy/utils/Initializable.sol\":7151:7168  _isInitializing() */\n      tag_190\n        /* \"@openzeppelin/contracts-upgradeable/proxy/utils/Initializable.sol\":7151:7166  _isInitializing */\n      tag_191\n        /* \"@openzeppelin/contracts-upgradeable/proxy/utils/Initializable.sol\":7151:7168  _isInitializing() */\n      jump\t// in\n    tag_190:\n        /* \"@openzeppelin/contracts-upgradeable/proxy/utils/Initializable.sol\":7146:7219  if (!_isInitializing()) {... */\n      tag_192\n      jumpi\n        /* \"@openzeppelin/contracts-upgradeable/proxy/utils/Initializable.sol\":7191:7208  NotInitializing() */\n      mload(0x40)\n      0xd7e6bcf800000000000000000000000000000000000000000000000000000000\n      dup2\n      mstore\n      0x04\n      add\n      mload(0x40)\n      dup1\n      swap2\n      sub\n      swap1\n      revert\n        /* \"@openzeppelin/contracts-upgradeable/proxy/utils/Initializable.sol\":7146:7219  if (!_isInitializing()) {... */\n    tag_192:\n        /* \"@openzeppelin/contracts-upgradeable/proxy/utils/Initializable.sol\":7084:7225  function _checkInitializing() internal view virtual {... */\n      jump\t// out\n        /* \"@openzeppelin/contracts-upgradeable/access/OwnableUpgradeable.sol\":1980:2215  function __Ownable_init_unchained(address initialOwner) internal onlyInitializing {... */\n    tag_171:\n        /* \"@openzeppelin/contracts-upgradeable/proxy/utils/Initializable.sol\":6931:6951  _checkInitializing() */\n      tag_194\n        /* \"@openzeppelin/contracts-upgradeable/proxy/utils/Initializable.sol\":6931:6949  _checkInitializing */\n      tag_168\n        /* \"@openzeppelin/contracts-upgradeable/proxy/utils/Initializable.sol\":6931:6951  _checkInitializing() */\n      jump\t// in\n    tag_194:\n        /* \"@openzeppelin/contracts-upgradeable/access/OwnableUpgradeable.sol\":2100:2101  0 */\n      0x00\n        /* \"@openzeppelin/contracts-upgradeable/access/OwnableUpgradeable.sol\":2076:2102  initialOwner == address(0) */\n      0xffffffffffffffffffffffffffffffffffffffff\n      and\n        /* \"@openzeppelin/contracts-upgradeable/access/OwnableUpgradeable.sol\":2076:2088  initialOwner */\n      dup2\n        /* \"@openzeppelin/contracts-upgradeable/access/OwnableUpgradeable.sol\":2076:2102  initialOwner == address(0) */\n      0xffffffffffffffffffffffffffffffffffffffff\n      and\n      sub\n        /* \"@openzeppelin/contracts-upgradeable/access/OwnableUpgradeable.sol\":2072:2167  if (initialOwner == address(0)) {... */\n      tag_196\n      jumpi\n        /* \"@openzeppelin/contracts-upgradeable/access/OwnableUpgradeable.sol\":2153:2154  0 */\n      0x00\n        /* \"@openzeppelin/contracts-upgradeable/access/OwnableUpgradeable.sol\":2125:2156  OwnableInvalidOwner(address(0)) */\n      mload(0x40)\n      0x1e4fbdf700000000000000000000000000000000000000000000000000000000\n      dup2\n      mstore\n      0x04\n      add\n      tag_197\n      swap2\n      swap1\n      tag_56\n      jump\t// in\n    tag_197:\n      mload(0x40)\n      dup1\n      swap2\n      sub\n      swap1\n      revert\n        /* \"@openzeppelin/contracts-upgradeable/access/OwnableUpgradeable.sol\":2072:2167  if (initialOwner == address(0)) {... */\n    tag_196:\n        /* \"@openzeppelin/contracts-upgradeable/access/OwnableUpgradeable.sol\":2176:2208  _transferOwnership(initialOwner) */\n      tag_198\n        /* \"@openzeppelin/contracts-upgradeable/access/OwnableUpgradeable.sol\":2195:2207  initialOwner */\n      dup2\n        /* \"@openzeppelin/contracts-upgradeable/access/OwnableUpgradeable.sol\":2176:2194  _transferOwnership */\n      tag_104\n        /* \"@openzeppelin/contracts-upgradeable/access/OwnableUpgradeable.sol\":2176:2208  _transferOwnership(initialOwner) */\n      jump\t// in\n    tag_198:\n        /* \"@openzeppelin/contracts-upgradeable/access/OwnableUpgradeable.sol\":1980:2215  function __Ownable_init_unchained(address initialOwner) internal onlyInitializing {... */\n      pop\n      jump\t// out\n        /* \"@openzeppelin/contracts/utils/StorageSlot.sol\":1684:1874  function getAddressSlot(bytes32 slot) internal pure returns (AddressSlot storage r) {... */\n    tag_178:\n        /* \"@openzeppelin/contracts/utils/StorageSlot.sol\":1745:1766  AddressSlot storage r */\n      0x00\n        /* \"@openzeppelin/contracts/utils/StorageSlot.sol\":1854:1858  slot */\n      dup2\n        /* \"@openzeppelin/contracts/utils/StorageSlot.sol\":1844:1858  r.slot := slot */\n      swap1\n      pop\n        /* \"@openzeppelin/contracts/utils/StorageSlot.sol\":1684:1874  function getAddressSlot(bytes32 slot) internal pure returns (AddressSlot storage r) {... */\n      swap2\n      swap1\n      pop\n      jump\t// out\n        /* \"@openzeppelin/contracts/proxy/ERC1967/ERC1967Utils.sol\":2186:2467  function _setImplementation(address newImplementation) private {... */\n    tag_181:\n        /* \"@openzeppelin/contracts/proxy/ERC1967/ERC1967Utils.sol\":2296:2297  0 */\n      0x00\n        /* \"@openzeppelin/contracts/proxy/ERC1967/ERC1967Utils.sol\":2263:2280  newImplementation */\n      dup2\n        /* \"@openzeppelin/contracts/proxy/ERC1967/ERC1967Utils.sol\":2263:2292  newImplementation.code.length */\n      0xffffffffffffffffffffffffffffffffffffffff\n      and\n      extcodesize\n        /* \"@openzeppelin/contracts/proxy/ERC1967/ERC1967Utils.sol\":2263:2297  newImplementation.code.length == 0 */\n      sub\n        /* \"@openzeppelin/contracts/proxy/ERC1967/ERC1967Utils.sol\":2259:2378  if (newImplementation.code.length == 0) {... */\n      tag_201\n      jumpi\n        /* \"@openzeppelin/contracts/proxy/ERC1967/ERC1967Utils.sol\":2349:2366  newImplementation */\n      dup1\n        /* \"@openzeppelin/contracts/proxy/ERC1967/ERC1967Utils.sol\":2320:2367  ERC1967InvalidImplementation(newImplementation) */\n      mload(0x40)\n      0x4c9c8ce300000000000000000000000000000000000000000000000000000000\n      dup2\n      mstore\n      0x04\n      add\n      tag_202\n      swap2\n      swap1\n      tag_56\n      jump\t// in\n    tag_202:\n      mload(0x40)\n      dup1\n      swap2\n      sub\n      swap1\n      revert\n        /* \"@openzeppelin/contracts/proxy/ERC1967/ERC1967Utils.sol\":2259:2378  if (newImplementation.code.length == 0) {... */\n    tag_201:\n        /* \"@openzeppelin/contracts/proxy/ERC1967/ERC1967Utils.sol\":2443:2460  newImplementation */\n      dup1\n        /* \"@openzeppelin/contracts/proxy/ERC1967/ERC1967Utils.sol\":2387:2434  StorageSlot.getAddressSlot(IMPLEMENTATION_SLOT) */\n      tag_203\n        /* \"@openzeppelin/contracts/proxy/ERC1967/ERC1967Utils.sol\":1327:1393  0x360894a13ba1a3210667c828492db98dca3e2076cc3735a920a3ca505d382bbc */\n      0x360894a13ba1a3210667c828492db98dca3e2076cc3735a920a3ca505d382bbc\n        /* \"@openzeppelin/contracts/proxy/ERC1967/ERC1967Utils.sol\":2414:2433  IMPLEMENTATION_SLOT */\n      0x00\n      shl\n        /* \"@openzeppelin/contracts/proxy/ERC1967/ERC1967Utils.sol\":2387:2413  StorageSlot.getAddressSlot */\n      tag_178\n        /* \"@openzeppelin/contracts/proxy/ERC1967/ERC1967Utils.sol\":2387:2434  StorageSlot.getAddressSlot(IMPLEMENTATION_SLOT) */\n      jump\t// in\n    tag_203:\n        /* \"@openzeppelin/contracts/proxy/ERC1967/ERC1967Utils.sol\":2387:2440  StorageSlot.getAddressSlot(IMPLEMENTATION_SLOT).value */\n      0x00\n      add\n      0x00\n        /* \"@openzeppelin/contracts/proxy/ERC1967/ERC1967Utils.sol\":2387:2460  StorageSlot.getAddressSlot(IMPLEMENTATION_SLOT).value = newImplementation */\n      0x0100\n      exp\n      dup2\n      sload\n      dup2\n      0xffffffffffffffffffffffffffffffffffffffff\n      mul\n      not\n      and\n      swap1\n      dup4\n      0xffffffffffffffffffffffffffffffffffffffff\n      and\n      mul\n      or\n      swap1\n      sstore\n      pop\n        /* \"@openzeppelin/contracts/proxy/ERC1967/ERC1967Utils.sol\":2186:2467  function _setImplementation(address newImplementation) private {... */\n      pop\n      jump\t// out\n        /* \"@openzeppelin/contracts/utils/Address.sol\":4106:4359  function functionDelegateCall(address target, bytes memory data) internal returns (bytes memory) {... */\n    tag_184:\n        /* \"@openzeppelin/contracts/utils/Address.sol\":4189:4201  bytes memory */\n      0x60\n        /* \"@openzeppelin/contracts/utils/Address.sol\":4214:4226  bool success */\n      0x00\n        /* \"@openzeppelin/contracts/utils/Address.sol\":4228:4251  bytes memory returndata */\n      dup1\n        /* \"@openzeppelin/contracts/utils/Address.sol\":4255:4261  target */\n      dup5\n        /* \"@openzeppelin/contracts/utils/Address.sol\":4255:4274  target.delegatecall */\n      0xffffffffffffffffffffffffffffffffffffffff\n      and\n        /* \"@openzeppelin/contracts/utils/Address.sol\":4275:4279  data */\n      dup5\n        /* \"@openzeppelin/contracts/utils/Address.sol\":4255:4280  target.delegatecall(data) */\n      mload(0x40)\n      tag_205\n      swap2\n      swap1\n      tag_206\n      jump\t// in\n    tag_205:\n      0x00\n      mload(0x40)\n      dup1\n      dup4\n      sub\n      dup2\n      dup6\n      gas\n      delegatecall\n      swap2\n      pop\n      pop\n      returndatasize\n      dup1\n      0x00\n      dup2\n      eq\n      tag_209\n      jumpi\n      mload(0x40)\n      swap2\n      pop\n      and(add(returndatasize, 0x3f), not(0x1f))\n      dup3\n      add\n      0x40\n      mstore\n      returndatasize\n      dup3\n      mstore\n      returndatasize\n      0x00\n      0x20\n      dup5\n      add\n      returndatacopy\n      jump(tag_208)\n    tag_209:\n      0x60\n      swap2\n      pop\n    tag_208:\n      pop\n        /* \"@openzeppelin/contracts/utils/Address.sol\":4213:4280  (bool success, bytes memory returndata) = target.delegatecall(data) */\n      swap2\n      pop\n      swap2\n      pop\n        /* \"@openzeppelin/contracts/utils/Address.sol\":4297:4352  verifyCallResultFromTarget(target, success, returndata) */\n      tag_210\n        /* \"@openzeppelin/contracts/utils/Address.sol\":4324:4330  target */\n      dup6\n        /* \"@openzeppelin/contracts/utils/Address.sol\":4332:4339  success */\n      dup4\n        /* \"@openzeppelin/contracts/utils/Address.sol\":4341:4351  returndata */\n      dup4\n        /* \"@openzeppelin/contracts/utils/Address.sol\":4297:4323  verifyCallResultFromTarget */\n      tag_211\n        /* \"@openzeppelin/contracts/utils/Address.sol\":4297:4352  verifyCallResultFromTarget(target, success, returndata) */\n      jump\t// in\n    tag_210:\n        /* \"@openzeppelin/contracts/utils/Address.sol\":4290:4352  return verifyCallResultFromTarget(target, success, returndata) */\n      swap3\n      pop\n      pop\n      pop\n        /* \"@openzeppelin/contracts/utils/Address.sol\":4106:4359  function functionDelegateCall(address target, bytes memory data) internal returns (bytes memory) {... */\n      swap3\n      swap2\n      pop\n      pop\n      jump\t// out\n        /* \"@openzeppelin/contracts/proxy/ERC1967/ERC1967Utils.sol\":6598:6720  function _checkNonPayable() private {... */\n    tag_187:\n        /* \"@openzeppelin/contracts/proxy/ERC1967/ERC1967Utils.sol\":6660:6661  0 */\n      0x00\n        /* \"@openzeppelin/contracts/proxy/ERC1967/ERC1967Utils.sol\":6648:6657  msg.value */\n      callvalue\n        /* \"@openzeppelin/contracts/proxy/ERC1967/ERC1967Utils.sol\":6648:6661  msg.value > 0 */\n      gt\n        /* \"@openzeppelin/contracts/proxy/ERC1967/ERC1967Utils.sol\":6644:6714  if (msg.value > 0) {... */\n      iszero\n      tag_213\n      jumpi\n        /* \"@openzeppelin/contracts/proxy/ERC1967/ERC1967Utils.sol\":6684:6703  ERC1967NonPayable() */\n      mload(0x40)\n      0xb398979f00000000000000000000000000000000000000000000000000000000\n      dup2\n      mstore\n      0x04\n      add\n      mload(0x40)\n      dup1\n      swap2\n      sub\n      swap1\n      revert\n        /* \"@openzeppelin/contracts/proxy/ERC1967/ERC1967Utils.sol\":6644:6714  if (msg.value > 0) {... */\n    tag_213:\n        /* \"@openzeppelin/contracts/proxy/ERC1967/ERC1967Utils.sol\":6598:6720  function _checkNonPayable() private {... */\n      jump\t// out\n        /* \"@openzeppelin/contracts-upgradeable/proxy/utils/Initializable.sol\":8487:8607  function _isInitializing() internal view returns (bool) {... */\n    tag_191:\n        /* \"@openzeppelin/contracts-upgradeable/proxy/utils/Initializable.sol\":8537:8541  bool */\n      0x00\n        /* \"@openzeppelin/contracts-upgradeable/proxy/utils/Initializable.sol\":8560:8586  _getInitializableStorage() */\n      tag_215\n        /* \"@openzeppelin/contracts-upgradeable/proxy/utils/Initializable.sol\":8560:8584  _getInitializableStorage */\n      tag_107\n        /* \"@openzeppelin/contracts-upgradeable/proxy/utils/Initializable.sol\":8560:8586  _getInitializableStorage() */\n      jump\t// in\n    tag_215:\n        /* \"@openzeppelin/contracts-upgradeable/proxy/utils/Initializable.sol\":8560:8600  _getInitializableStorage()._initializing */\n      0x00\n      add\n      0x08\n      swap1\n      sload\n      swap1\n      0x0100\n      exp\n      swap1\n      div\n      0xff\n      and\n        /* \"@openzeppelin/contracts-upgradeable/proxy/utils/Initializable.sol\":8553:8600  return _getInitializableStorage()._initializing */\n      swap1\n      pop\n        /* \"@openzeppelin/contracts-upgradeable/proxy/utils/Initializable.sol\":8487:8607  function _isInitializing() internal view returns (bool) {... */\n      swap1\n      jump\t// out\n        /* \"@openzeppelin/contracts/utils/Address.sol\":4625:5207  function verifyCallResultFromTarget(... */\n    tag_211:\n        /* \"@openzeppelin/contracts/utils/Address.sol\":4769:4781  bytes memory */\n      0x60\n        /* \"@openzeppelin/contracts/utils/Address.sol\":4798:4805  success */\n      dup3\n        /* \"@openzeppelin/contracts/utils/Address.sol\":4793:5201  if (!success) {... */\n      tag_217\n      jumpi\n        /* \"@openzeppelin/contracts/utils/Address.sol\":4821:4840  _revert(returndata) */\n      tag_218\n        /* \"@openzeppelin/contracts/utils/Address.sol\":4829:4839  returndata */\n      dup3\n        /* \"@openzeppelin/contracts/utils/Address.sol\":4821:4828  _revert */\n      tag_219\n        /* \"@openzeppelin/contracts/utils/Address.sol\":4821:4840  _revert(returndata) */\n      jump\t// in\n    tag_218:\n        /* \"@openzeppelin/contracts/utils/Address.sol\":4793:5201  if (!success) {... */\n      jump(tag_220)\n    tag_217:\n        /* \"@openzeppelin/contracts/utils/Address.sol\":5066:5067  0 */\n      0x00\n        /* \"@openzeppelin/contracts/utils/Address.sol\":5045:5055  returndata */\n      dup3\n        /* \"@openzeppelin/contracts/utils/Address.sol\":5045:5062  returndata.length */\n      mload\n        /* \"@openzeppelin/contracts/utils/Address.sol\":5045:5067  returndata.length == 0 */\n      eq\n        /* \"@openzeppelin/contracts/utils/Address.sol\":5045:5094  returndata.length == 0 && target.code.length == 0 */\n      dup1\n      iszero\n      tag_221\n      jumpi\n      pop\n        /* \"@openzeppelin/contracts/utils/Address.sol\":5093:5094  0 */\n      0x00\n        /* \"@openzeppelin/contracts/utils/Address.sol\":5071:5077  target */\n      dup5\n        /* \"@openzeppelin/contracts/utils/Address.sol\":5071:5089  target.code.length */\n      0xffffffffffffffffffffffffffffffffffffffff\n      and\n      extcodesize\n        /* \"@openzeppelin/contracts/utils/Address.sol\":5071:5094  target.code.length == 0 */\n      eq\n        /* \"@openzeppelin/contracts/utils/Address.sol\":5045:5094  returndata.length == 0 && target.code.length == 0 */\n    tag_221:\n        /* \"@openzeppelin/contracts/utils/Address.sol\":5041:5160  if (returndata.length == 0 && target.code.length == 0) {... */\n      iszero\n      tag_222\n      jumpi\n        /* \"@openzeppelin/contracts/utils/Address.sol\":5138:5144  target */\n      dup4\n        /* \"@openzeppelin/contracts/utils/Address.sol\":5121:5145  AddressEmptyCode(target) */\n      mload(0x40)\n      0x9996b31500000000000000000000000000000000000000000000000000000000\n      dup2\n      mstore\n      0x04\n      add\n      tag_223\n      swap2\n      swap1\n      tag_56\n      jump\t// in\n    tag_223:\n      mload(0x40)\n      dup1\n      swap2\n      sub\n      swap1\n      revert\n        /* \"@openzeppelin/contracts/utils/Address.sol\":5041:5160  if (returndata.length == 0 && target.code.length == 0) {... */\n    tag_222:\n        /* \"@openzeppelin/contracts/utils/Address.sol\":5180:5190  returndata */\n      dup2\n        /* \"@openzeppelin/contracts/utils/Address.sol\":5173:5190  return returndata */\n      swap1\n      pop\n      jump(tag_216)\n        /* \"@openzeppelin/contracts/utils/Address.sol\":4793:5201  if (!success) {... */\n    tag_220:\n        /* \"@openzeppelin/contracts/utils/Address.sol\":4625:5207  function verifyCallResultFromTarget(... */\n    tag_216:\n      swap4\n      swap3\n      pop\n      pop\n      pop\n      jump\t// out\n        /* \"@openzeppelin/contracts/utils/Address.sol\":5743:6259  function _revert(bytes memory returndata) private pure {... */\n    tag_219:\n        /* \"@openzeppelin/contracts/utils/Address.sol\":5894:5895  0 */\n      0x00\n        /* \"@openzeppelin/contracts/utils/Address.sol\":5874:5884  returndata */\n      dup2\n        /* \"@openzeppelin/contracts/utils/Address.sol\":5874:5891  returndata.length */\n      mload\n        /* \"@openzeppelin/contracts/utils/Address.sol\":5874:5895  returndata.length > 0 */\n      gt\n        /* \"@openzeppelin/contracts/utils/Address.sol\":5870:6253  if (returndata.length > 0) {... */\n      iszero\n      tag_225\n      jumpi\n        /* \"@openzeppelin/contracts/utils/Address.sol\":6102:6112  returndata */\n      dup1\n        /* \"@openzeppelin/contracts/utils/Address.sol\":6096:6113  mload(returndata) */\n      mload\n        /* \"@openzeppelin/contracts/utils/Address.sol\":6158:6173  returndata_size */\n      dup1\n        /* \"@openzeppelin/contracts/utils/Address.sol\":6145:6155  returndata */\n      dup3\n        /* \"@openzeppelin/contracts/utils/Address.sol\":6141:6143  32 */\n      0x20\n        /* \"@openzeppelin/contracts/utils/Address.sol\":6137:6156  add(32, returndata) */\n      add\n        /* \"@openzeppelin/contracts/utils/Address.sol\":6130:6174  revert(add(32, returndata), returndata_size) */\n      revert\n        /* \"@openzeppelin/contracts/utils/Address.sol\":5870:6253  if (returndata.length > 0) {... */\n    tag_225:\n        /* \"@openzeppelin/contracts/utils/Address.sol\":6225:6242  FailedInnerCall() */\n      mload(0x40)\n      0x1425ea4200000000000000000000000000000000000000000000000000000000\n      dup2\n      mstore\n      0x04\n      add\n      mload(0x40)\n      dup1\n      swap2\n      sub\n      swap1\n      revert\n        /* \"#utility.yul\":7:106   */\n    tag_227:\n        /* \"#utility.yul\":59:65   */\n      0x00\n        /* \"#utility.yul\":93:98   */\n      dup2\n        /* \"#utility.yul\":87:99   */\n      mload\n        /* \"#utility.yul\":77:99   */\n      swap1\n      pop\n        /* \"#utility.yul\":7:106   */\n      swap2\n      swap1\n      pop\n      jump\t// out\n        /* \"#utility.yul\":112:281   */\n    tag_228:\n        /* \"#utility.yul\":196:207   */\n      0x00\n        /* \"#utility.yul\":230:236   */\n      dup3\n        /* \"#utility.yul\":225:228   */\n      dup3\n        /* \"#utility.yul\":218:237   */\n      mstore\n        /* \"#utility.yul\":270:274   */\n      0x20\n        /* \"#utility.yul\":265:268   */\n      dup3\n        /* \"#utility.yul\":261:275   */\n      add\n        /* \"#utility.yul\":246:275   */\n      swap1\n      pop\n        /* \"#utility.yul\":112:281   */\n      swap3\n      swap2\n      pop\n      pop\n      jump\t// out\n        /* \"#utility.yul\":287:533   */\n    tag_229:\n        /* \"#utility.yul\":368:369   */\n      0x00\n        /* \"#utility.yul\":378:491   */\n    tag_288:\n        /* \"#utility.yul\":392:398   */\n      dup4\n        /* \"#utility.yul\":389:390   */\n      dup2\n        /* \"#utility.yul\":386:399   */\n      lt\n        /* \"#utility.yul\":378:491   */\n      iszero\n      tag_290\n      jumpi\n        /* \"#utility.yul\":477:478   */\n      dup1\n        /* \"#utility.yul\":472:475   */\n      dup3\n        /* \"#utility.yul\":468:479   */\n      add\n        /* \"#utility.yul\":462:480   */\n      mload\n        /* \"#utility.yul\":458:459   */\n      dup2\n        /* \"#utility.yul\":453:456   */\n      dup5\n        /* \"#utility.yul\":449:460   */\n      add\n        /* \"#utility.yul\":442:481   */\n      mstore\n        /* \"#utility.yul\":414:416   */\n      0x20\n        /* \"#utility.yul\":411:412   */\n      dup2\n        /* \"#utility.yul\":407:417   */\n      add\n        /* \"#utility.yul\":402:417   */\n      swap1\n      pop\n        /* \"#utility.yul\":378:491   */\n      jump(tag_288)\n    tag_290:\n        /* \"#utility.yul\":525:526   */\n      0x00\n        /* \"#utility.yul\":516:522   */\n      dup5\n        /* \"#utility.yul\":511:514   */\n      dup5\n        /* \"#utility.yul\":507:523   */\n      add\n        /* \"#utility.yul\":500:527   */\n      mstore\n        /* \"#utility.yul\":349:533   */\n      pop\n        /* \"#utility.yul\":287:533   */\n      pop\n      pop\n      pop\n      jump\t// out\n        /* \"#utility.yul\":539:641   */\n    tag_230:\n        /* \"#utility.yul\":580:586   */\n      0x00\n        /* \"#utility.yul\":631:633   */\n      0x1f\n        /* \"#utility.yul\":627:634   */\n      not\n        /* \"#utility.yul\":622:624   */\n      0x1f\n        /* \"#utility.yul\":615:620   */\n      dup4\n        /* \"#utility.yul\":611:625   */\n      add\n        /* \"#utility.yul\":607:635   */\n      and\n        /* \"#utility.yul\":597:635   */\n      swap1\n      pop\n        /* \"#utility.yul\":539:641   */\n      swap2\n      swap1\n      pop\n      jump\t// out\n        /* \"#utility.yul\":647:1024   */\n    tag_231:\n        /* \"#utility.yul\":735:738   */\n      0x00\n        /* \"#utility.yul\":763:802   */\n      tag_293\n        /* \"#utility.yul\":796:801   */\n      dup3\n        /* \"#utility.yul\":763:802   */\n      tag_227\n      jump\t// in\n    tag_293:\n        /* \"#utility.yul\":818:889   */\n      tag_294\n        /* \"#utility.yul\":882:888   */\n      dup2\n        /* \"#utility.yul\":877:880   */\n      dup6\n        /* \"#utility.yul\":818:889   */\n      tag_228\n      jump\t// in\n    tag_294:\n        /* \"#utility.yul\":811:889   */\n      swap4\n      pop\n        /* \"#utility.yul\":898:963   */\n      tag_295\n        /* \"#utility.yul\":956:962   */\n      dup2\n        /* \"#utility.yul\":951:954   */\n      dup6\n        /* \"#utility.yul\":944:948   */\n      0x20\n        /* \"#utility.yul\":937:942   */\n      dup7\n        /* \"#utility.yul\":933:949   */\n      add\n        /* \"#utility.yul\":898:963   */\n      tag_229\n      jump\t// in\n    tag_295:\n        /* \"#utility.yul\":988:1017   */\n      tag_296\n        /* \"#utility.yul\":1010:1016   */\n      dup2\n        /* \"#utility.yul\":988:1017   */\n      tag_230\n      jump\t// in\n    tag_296:\n        /* \"#utility.yul\":983:986   */\n      dup5\n        /* \"#utility.yul\":979:1018   */\n      add\n        /* \"#utility.yul\":972:1018   */\n      swap2\n      pop\n        /* \"#utility.yul\":739:1024   */\n      pop\n        /* \"#utility.yul\":647:1024   */\n      swap3\n      swap2\n      pop\n      pop\n      jump\t// out\n        /* \"#utility.yul\":1030:1343   */\n    tag_18:\n        /* \"#utility.yul\":1143:1147   */\n      0x00\n        /* \"#utility.yul\":1181:1183   */\n      0x20\n        /* \"#utility.yul\":1170:1179   */\n      dup3\n        /* \"#utility.yul\":1166:1184   */\n      add\n        /* \"#utility.yul\":1158:1184   */\n      swap1\n      pop\n        /* \"#utility.yul\":1230:1239   */\n      dup2\n        /* \"#utility.yul\":1224:1228   */\n      dup2\n        /* \"#utility.yul\":1220:1240   */\n      sub\n        /* \"#utility.yul\":1216:1217   */\n      0x00\n        /* \"#utility.yul\":1205:1214   */\n      dup4\n        /* \"#utility.yul\":1201:1218   */\n      add\n        /* \"#utility.yul\":1194:1241   */\n      mstore\n        /* \"#utility.yul\":1258:1336   */\n      tag_298\n        /* \"#utility.yul\":1331:1335   */\n      dup2\n        /* \"#utility.yul\":1322:1328   */\n      dup5\n        /* \"#utility.yul\":1258:1336   */\n      tag_231\n      jump\t// in\n    tag_298:\n        /* \"#utility.yul\":1250:1336   */\n      swap1\n      pop\n        /* \"#utility.yul\":1030:1343   */\n      swap3\n      swap2\n      pop\n      pop\n      jump\t// out\n        /* \"#utility.yul\":1349:1424   */\n    tag_232:\n        /* \"#utility.yul\":1382:1388   */\n      0x00\n        /* \"#utility.yul\":1415:1417   */\n      0x40\n        /* \"#utility.yul\":1409:1418   */\n      mload\n        /* \"#utility.yul\":1399:1418   */\n      swap1\n      pop\n        /* \"#utility.yul\":1349:1424   */\n      swap1\n      jump\t// out\n        /* \"#utility.yul\":1430:1547   */\n    tag_233:\n        /* \"#utility.yul\":1539:1540   */\n      0x00\n        /* \"#utility.yul\":1536:1537   */\n      dup1\n        /* \"#utility.yul\":1529:1541   */\n      revert\n        /* \"#utility.yul\":1553:1670   */\n    tag_234:\n        /* \"#utility.yul\":1662:1663   */\n      0x00\n        /* \"#utility.yul\":1659:1660   */\n      dup1\n        /* \"#utility.yul\":1652:1664   */\n      revert\n        /* \"#utility.yul\":1676:1793   */\n    tag_235:\n        /* \"#utility.yul\":1785:1786   */\n      0x00\n        /* \"#utility.yul\":1782:1783   */\n      dup1\n        /* \"#utility.yul\":1775:1787   */\n      revert\n        /* \"#utility.yul\":1799:1916   */\n    tag_236:\n        /* \"#utility.yul\":1908:1909   */\n      0x00\n        /* \"#utility.yul\":1905:1906   */\n      dup1\n        /* \"#utility.yul\":1898:1910   */\n      revert\n        /* \"#utility.yul\":1922:2102   */\n    tag_237:\n        /* \"#utility.yul\":1970:2047   */\n      0x4e487b7100000000000000000000000000000000000000000000000000000000\n        /* \"#utility.yul\":1967:1968   */\n      0x00\n        /* \"#utility.yul\":1960:2048   */\n      mstore\n        /* \"#utility.yul\":2067:2071   */\n      0x41\n        /* \"#utility.yul\":2064:2065   */\n      0x04\n        /* \"#utility.yul\":2057:2072   */\n      mstore\n        /* \"#utility.yul\":2091:2095   */\n      0x24\n        /* \"#utility.yul\":2088:2089   */\n      0x00\n        /* \"#utility.yul\":2081:2096   */\n      revert\n        /* \"#utility.yul\":2108:2389   */\n    tag_238:\n        /* \"#utility.yul\":2191:2218   */\n      tag_306\n        /* \"#utility.yul\":2213:2217   */\n      dup3\n        /* \"#utility.yul\":2191:2218   */\n      tag_230\n      jump\t// in\n    tag_306:\n        /* \"#utility.yul\":2183:2189   */\n      dup2\n        /* \"#utility.yul\":2179:2219   */\n      add\n        /* \"#utility.yul\":2321:2327   */\n      dup2\n        /* \"#utility.yul\":2309:2319   */\n      dup2\n        /* \"#utility.yul\":2306:2328   */\n      lt\n        /* \"#utility.yul\":2285:2303   */\n      0xffffffffffffffff\n        /* \"#utility.yul\":2273:2283   */\n      dup3\n        /* \"#utility.yul\":2270:2304   */\n      gt\n        /* \"#utility.yul\":2267:2329   */\n      or\n        /* \"#utility.yul\":2264:2352   */\n      iszero\n      tag_307\n      jumpi\n        /* \"#utility.yul\":2332:2350   */\n      tag_308\n      tag_237\n      jump\t// in\n    tag_308:\n        /* \"#utility.yul\":2264:2352   */\n    tag_307:\n        /* \"#utility.yul\":2372:2382   */\n      dup1\n        /* \"#utility.yul\":2368:2370   */\n      0x40\n        /* \"#utility.yul\":2361:2383   */\n      mstore\n        /* \"#utility.yul\":2151:2389   */\n      pop\n        /* \"#utility.yul\":2108:2389   */\n      pop\n      pop\n      jump\t// out\n        /* \"#utility.yul\":2395:2524   */\n    tag_239:\n        /* \"#utility.yul\":2429:2435   */\n      0x00\n        /* \"#utility.yul\":2456:2476   */\n      tag_310\n      tag_232\n      jump\t// in\n    tag_310:\n        /* \"#utility.yul\":2446:2476   */\n      swap1\n      pop\n        /* \"#utility.yul\":2485:2518   */\n      tag_311\n        /* \"#utility.yul\":2513:2517   */\n      dup3\n        /* \"#utility.yul\":2505:2511   */\n      dup3\n        /* \"#utility.yul\":2485:2518   */\n      tag_238\n      jump\t// in\n    tag_311:\n        /* \"#utility.yul\":2395:2524   */\n      swap2\n      swap1\n      pop\n      jump\t// out\n        /* \"#utility.yul\":2530:2838   */\n    tag_240:\n        /* \"#utility.yul\":2592:2596   */\n      0x00\n        /* \"#utility.yul\":2682:2700   */\n      0xffffffffffffffff\n        /* \"#utility.yul\":2674:2680   */\n      dup3\n        /* \"#utility.yul\":2671:2701   */\n      gt\n        /* \"#utility.yul\":2668:2724   */\n      iszero\n      tag_313\n      jumpi\n        /* \"#utility.yul\":2704:2722   */\n      tag_314\n      tag_237\n      jump\t// in\n    tag_314:\n        /* \"#utility.yul\":2668:2724   */\n    tag_313:\n        /* \"#utility.yul\":2742:2771   */\n      tag_315\n        /* \"#utility.yul\":2764:2770   */\n      dup3\n        /* \"#utility.yul\":2742:2771   */\n      tag_230\n      jump\t// in\n    tag_315:\n        /* \"#utility.yul\":2734:2771   */\n      swap1\n      pop\n        /* \"#utility.yul\":2826:2830   */\n      0x20\n        /* \"#utility.yul\":2820:2824   */\n      dup2\n        /* \"#utility.yul\":2816:2831   */\n      add\n        /* \"#utility.yul\":2808:2831   */\n      swap1\n      pop\n        /* \"#utility.yul\":2530:2838   */\n      swap2\n      swap1\n      pop\n      jump\t// out\n        /* \"#utility.yul\":2844:2990   */\n    tag_241:\n        /* \"#utility.yul\":2941:2947   */\n      dup3\n        /* \"#utility.yul\":2936:2939   */\n      dup2\n        /* \"#utility.yul\":2931:2934   */\n      dup4\n        /* \"#utility.yul\":2918:2948   */\n      calldatacopy\n        /* \"#utility.yul\":2982:2983   */\n      0x00\n        /* \"#utility.yul\":2973:2979   */\n      dup4\n        /* \"#utility.yul\":2968:2971   */\n      dup4\n        /* \"#utility.yul\":2964:2980   */\n      add\n        /* \"#utility.yul\":2957:2984   */\n      mstore\n        /* \"#utility.yul\":2844:2990   */\n      pop\n      pop\n      pop\n      jump\t// out\n        /* \"#utility.yul\":2996:3421   */\n    tag_242:\n        /* \"#utility.yul\":3074:3079   */\n      0x00\n        /* \"#utility.yul\":3099:3165   */\n      tag_318\n        /* \"#utility.yul\":3115:3164   */\n      tag_319\n        /* \"#utility.yul\":3157:3163   */\n      dup5\n        /* \"#utility.yul\":3115:3164   */\n      tag_240\n      jump\t// in\n    tag_319:\n        /* \"#utility.yul\":3099:3165   */\n      tag_239\n      jump\t// in\n    tag_318:\n        /* \"#utility.yul\":3090:3165   */\n      swap1\n      pop\n        /* \"#utility.yul\":3188:3194   */\n      dup3\n        /* \"#utility.yul\":3181:3186   */\n      dup2\n        /* \"#utility.yul\":3174:3195   */\n      mstore\n        /* \"#utility.yul\":3226:3230   */\n      0x20\n        /* \"#utility.yul\":3219:3224   */\n      dup2\n        /* \"#utility.yul\":3215:3231   */\n      add\n        /* \"#utility.yul\":3264:3267   */\n      dup5\n        /* \"#utility.yul\":3255:3261   */\n      dup5\n        /* \"#utility.yul\":3250:3253   */\n      dup5\n        /* \"#utility.yul\":3246:3262   */\n      add\n        /* \"#utility.yul\":3243:3268   */\n      gt\n        /* \"#utility.yul\":3240:3352   */\n      iszero\n      tag_320\n      jumpi\n        /* \"#utility.yul\":3271:3350   */\n      tag_321\n      tag_236\n      jump\t// in\n    tag_321:\n        /* \"#utility.yul\":3240:3352   */\n    tag_320:\n        /* \"#utility.yul\":3361:3415   */\n      tag_322\n        /* \"#utility.yul\":3408:3414   */\n      dup5\n        /* \"#utility.yul\":3403:3406   */\n      dup3\n        /* \"#utility.yul\":3398:3401   */\n      dup6\n        /* \"#utility.yul\":3361:3415   */\n      tag_241\n      jump\t// in\n    tag_322:\n        /* \"#utility.yul\":3080:3421   */\n      pop\n        /* \"#utility.yul\":2996:3421   */\n      swap4\n      swap3\n      pop\n      pop\n      pop\n      jump\t// out\n        /* \"#utility.yul\":3441:3781   */\n    tag_243:\n        /* \"#utility.yul\":3497:3502   */\n      0x00\n        /* \"#utility.yul\":3546:3549   */\n      dup3\n        /* \"#utility.yul\":3539:3543   */\n      0x1f\n        /* \"#utility.yul\":3531:3537   */\n      dup4\n        /* \"#utility.yul\":3527:3544   */\n      add\n        /* \"#utility.yul\":3523:3550   */\n      slt\n        /* \"#utility.yul\":3513:3635   */\n      tag_324\n      jumpi\n        /* \"#utility.yul\":3554:3633   */\n      tag_325\n      tag_235\n      jump\t// in\n    tag_325:\n        /* \"#utility.yul\":3513:3635   */\n    tag_324:\n        /* \"#utility.yul\":3671:3677   */\n      dup2\n        /* \"#utility.yul\":3658:3678   */\n      calldataload\n        /* \"#utility.yul\":3696:3775   */\n      tag_326\n        /* \"#utility.yul\":3771:3774   */\n      dup5\n        /* \"#utility.yul\":3763:3769   */\n      dup3\n        /* \"#utility.yul\":3756:3760   */\n      0x20\n        /* \"#utility.yul\":3748:3754   */\n      dup7\n        /* \"#utility.yul\":3744:3761   */\n      add\n        /* \"#utility.yul\":3696:3775   */\n      tag_242\n      jump\t// in\n    tag_326:\n        /* \"#utility.yul\":3687:3775   */\n      swap2\n      pop\n        /* \"#utility.yul\":3503:3781   */\n      pop\n        /* \"#utility.yul\":3441:3781   */\n      swap3\n      swap2\n      pop\n      pop\n      jump\t// out\n        /* \"#utility.yul\":3787:4296   */\n    tag_22:\n        /* \"#utility.yul\":3856:3862   */\n      0x00\n        /* \"#utility.yul\":3905:3907   */\n      0x20\n        /* \"#utility.yul\":3893:3902   */\n      dup3\n        /* \"#utility.yul\":3884:3891   */\n      dup5\n        /* \"#utility.yul\":3880:3903   */\n      sub\n        /* \"#utility.yul\":3876:3908   */\n      slt\n        /* \"#utility.yul\":3873:3992   */\n      iszero\n      tag_328\n      jumpi\n        /* \"#utility.yul\":3911:3990   */\n      tag_329\n      tag_233\n      jump\t// in\n    tag_329:\n        /* \"#utility.yul\":3873:3992   */\n    tag_328:\n        /* \"#utility.yul\":4059:4060   */\n      0x00\n        /* \"#utility.yul\":4048:4057   */\n      dup3\n        /* \"#utility.yul\":4044:4061   */\n      add\n        /* \"#utility.yul\":4031:4062   */\n      calldataload\n        /* \"#utility.yul\":4089:4107   */\n      0xffffffffffffffff\n        /* \"#utility.yul\":4081:4087   */\n      dup2\n        /* \"#utility.yul\":4078:4108   */\n      gt\n        /* \"#utility.yul\":4075:4192   */\n      iszero\n      tag_330\n      jumpi\n        /* \"#utility.yul\":4111:4190   */\n      tag_331\n      tag_234\n      jump\t// in\n    tag_331:\n        /* \"#utility.yul\":4075:4192   */\n    tag_330:\n        /* \"#utility.yul\":4216:4279   */\n      tag_332\n        /* \"#utility.yul\":4271:4278   */\n      dup5\n        /* \"#utility.yul\":4262:4268   */\n      dup3\n        /* \"#utility.yul\":4251:4260   */\n      dup6\n        /* \"#utility.yul\":4247:4269   */\n      add\n        /* \"#utility.yul\":4216:4279   */\n      tag_243\n      jump\t// in\n    tag_332:\n        /* \"#utility.yul\":4206:4279   */\n      swap2\n      pop\n        /* \"#utility.yul\":4002:4289   */\n      pop\n        /* \"#utility.yul\":3787:4296   */\n      swap3\n      swap2\n      pop\n      pop\n      jump\t// out\n        /* \"#utility.yul\":4302:4379   */\n    tag_244:\n        /* \"#utility.yul\":4339:4346   */\n      0x00\n        /* \"#utility.yul\":4368:4373   */\n      dup2\n        /* \"#utility.yul\":4357:4373   */\n      swap1\n      pop\n        /* \"#utility.yul\":4302:4379   */\n      swap2\n      swap1\n      pop\n      jump\t// out\n        /* \"#utility.yul\":4385:4507   */\n    tag_245:\n        /* \"#utility.yul\":4458:4482   */\n      tag_335\n        /* \"#utility.yul\":4476:4481   */\n      dup2\n        /* \"#utility.yul\":4458:4482   */\n      tag_244\n      jump\t// in\n    tag_335:\n        /* \"#utility.yul\":4451:4456   */\n      dup2\n        /* \"#utility.yul\":4448:4483   */\n      eq\n        /* \"#utility.yul\":4438:4501   */\n      tag_336\n      jumpi\n        /* \"#utility.yul\":4497:4498   */\n      0x00\n        /* \"#utility.yul\":4494:4495   */\n      dup1\n        /* \"#utility.yul\":4487:4499   */\n      revert\n        /* \"#utility.yul\":4438:4501   */\n    tag_336:\n        /* \"#utility.yul\":4385:4507   */\n      pop\n      jump\t// out\n        /* \"#utility.yul\":4513:4652   */\n    tag_246:\n        /* \"#utility.yul\":4559:4564   */\n      0x00\n        /* \"#utility.yul\":4597:4603   */\n      dup2\n        /* \"#utility.yul\":4584:4604   */\n      calldataload\n        /* \"#utility.yul\":4575:4604   */\n      swap1\n      pop\n        /* \"#utility.yul\":4613:4646   */\n      tag_338\n        /* \"#utility.yul\":4640:4645   */\n      dup2\n        /* \"#utility.yul\":4613:4646   */\n      tag_245\n      jump\t// in\n    tag_338:\n        /* \"#utility.yul\":4513:4652   */\n      swap3\n      swap2\n      pop\n      pop\n      jump\t// out\n        /* \"#utility.yul\":4658:4987   */\n    tag_28:\n        /* \"#utility.yul\":4717:4723   */\n      0x00\n        /* \"#utility.yul\":4766:4768   */\n      0x20\n        /* \"#utility.yul\":4754:4763   */\n      dup3\n        /* \"#utility.yul\":4745:4752   */\n      dup5\n        /* \"#utility.yul\":4741:4764   */\n      sub\n        /* \"#utility.yul\":4737:4769   */\n      slt\n        /* \"#utility.yul\":4734:4853   */\n      iszero\n      tag_340\n      jumpi\n        /* \"#utility.yul\":4772:4851   */\n      tag_341\n      tag_233\n      jump\t// in\n    tag_341:\n        /* \"#utility.yul\":4734:4853   */\n    tag_340:\n        /* \"#utility.yul\":4892:4893   */\n      0x00\n        /* \"#utility.yul\":4917:4970   */\n      tag_342\n        /* \"#utility.yul\":4962:4969   */\n      dup5\n        /* \"#utility.yul\":4953:4959   */\n      dup3\n        /* \"#utility.yul\":4942:4951   */\n      dup6\n        /* \"#utility.yul\":4938:4960   */\n      add\n        /* \"#utility.yul\":4917:4970   */\n      tag_246\n      jump\t// in\n    tag_342:\n        /* \"#utility.yul\":4907:4970   */\n      swap2\n      pop\n        /* \"#utility.yul\":4863:4980   */\n      pop\n        /* \"#utility.yul\":4658:4987   */\n      swap3\n      swap2\n      pop\n      pop\n      jump\t// out\n        /* \"#utility.yul\":4993:5111   */\n    tag_247:\n        /* \"#utility.yul\":5080:5104   */\n      tag_344\n        /* \"#utility.yul\":5098:5103   */\n      dup2\n        /* \"#utility.yul\":5080:5104   */\n      tag_244\n      jump\t// in\n    tag_344:\n        /* \"#utility.yul\":5075:5078   */\n      dup3\n        /* \"#utility.yul\":5068:5105   */\n      mstore\n        /* \"#utility.yul\":4993:5111   */\n      pop\n      pop\n      jump\t// out\n        /* \"#utility.yul\":5117:5449   */\n    tag_31:\n        /* \"#utility.yul\":5238:5242   */\n      0x00\n        /* \"#utility.yul\":5276:5278   */\n      0x40\n        /* \"#utility.yul\":5265:5274   */\n      dup3\n        /* \"#utility.yul\":5261:5279   */\n      add\n        /* \"#utility.yul\":5253:5279   */\n      swap1\n      pop\n        /* \"#utility.yul\":5289:5360   */\n      tag_346\n        /* \"#utility.yul\":5357:5358   */\n      0x00\n        /* \"#utility.yul\":5346:5355   */\n      dup4\n        /* \"#utility.yul\":5342:5359   */\n      add\n        /* \"#utility.yul\":5333:5339   */\n      dup6\n        /* \"#utility.yul\":5289:5360   */\n      tag_247\n      jump\t// in\n    tag_346:\n        /* \"#utility.yul\":5370:5442   */\n      tag_347\n        /* \"#utility.yul\":5438:5440   */\n      0x20\n        /* \"#utility.yul\":5427:5436   */\n      dup4\n        /* \"#utility.yul\":5423:5441   */\n      add\n        /* \"#utility.yul\":5414:5420   */\n      dup5\n        /* \"#utility.yul\":5370:5442   */\n      tag_247\n      jump\t// in\n    tag_347:\n        /* \"#utility.yul\":5117:5449   */\n      swap4\n      swap3\n      pop\n      pop\n      pop\n      jump\t// out\n        /* \"#utility.yul\":5455:5581   */\n    tag_248:\n        /* \"#utility.yul\":5492:5499   */\n      0x00\n        /* \"#utility.yul\":5532:5574   */\n      0xffffffffffffffffffffffffffffffffffffffff\n        /* \"#utility.yul\":5525:5530   */\n      dup3\n        /* \"#utility.yul\":5521:5575   */\n      and\n        /* \"#utility.yul\":5510:5575   */\n      swap1\n      pop\n        /* \"#utility.yul\":5455:5581   */\n      swap2\n      swap1\n      pop\n      jump\t// out\n        /* \"#utility.yul\":5587:5683   */\n    tag_249:\n        /* \"#utility.yul\":5624:5631   */\n      0x00\n        /* \"#utility.yul\":5653:5677   */\n      tag_350\n        /* \"#utility.yul\":5671:5676   */\n      dup3\n        /* \"#utility.yul\":5653:5677   */\n      tag_248\n      jump\t// in\n    tag_350:\n        /* \"#utility.yul\":5642:5677   */\n      swap1\n      pop\n        /* \"#utility.yul\":5587:5683   */\n      swap2\n      swap1\n      pop\n      jump\t// out\n        /* \"#utility.yul\":5689:5811   */\n    tag_250:\n        /* \"#utility.yul\":5762:5786   */\n      tag_352\n        /* \"#utility.yul\":5780:5785   */\n      dup2\n        /* \"#utility.yul\":5762:5786   */\n      tag_249\n      jump\t// in\n    tag_352:\n        /* \"#utility.yul\":5755:5760   */\n      dup2\n        /* \"#utility.yul\":5752:5787   */\n      eq\n        /* \"#utility.yul\":5742:5805   */\n      tag_353\n      jumpi\n        /* \"#utility.yul\":5801:5802   */\n      0x00\n        /* \"#utility.yul\":5798:5799   */\n      dup1\n        /* \"#utility.yul\":5791:5803   */\n      revert\n        /* \"#utility.yul\":5742:5805   */\n    tag_353:\n        /* \"#utility.yul\":5689:5811   */\n      pop\n      jump\t// out\n        /* \"#utility.yul\":5817:5956   */\n    tag_251:\n        /* \"#utility.yul\":5863:5868   */\n      0x00\n        /* \"#utility.yul\":5901:5907   */\n      dup2\n        /* \"#utility.yul\":5888:5908   */\n      calldataload\n        /* \"#utility.yul\":5879:5908   */\n      swap1\n      pop\n        /* \"#utility.yul\":5917:5950   */\n      tag_355\n        /* \"#utility.yul\":5944:5949   */\n      dup2\n        /* \"#utility.yul\":5917:5950   */\n      tag_250\n      jump\t// in\n    tag_355:\n        /* \"#utility.yul\":5817:5956   */\n      swap3\n      swap2\n      pop\n      pop\n      jump\t// out\n        /* \"#utility.yul\":5962:6269   */\n    tag_252:\n        /* \"#utility.yul\":6023:6027   */\n      0x00\n        /* \"#utility.yul\":6113:6131   */\n      0xffffffffffffffff\n        /* \"#utility.yul\":6105:6111   */\n      dup3\n        /* \"#utility.yul\":6102:6132   */\n      gt\n        /* \"#utility.yul\":6099:6155   */\n      iszero\n      tag_357\n      jumpi\n        /* \"#utility.yul\":6135:6153   */\n      tag_358\n      tag_237\n      jump\t// in\n    tag_358:\n        /* \"#utility.yul\":6099:6155   */\n    tag_357:\n        /* \"#utility.yul\":6173:6202   */\n      tag_359\n        /* \"#utility.yul\":6195:6201   */\n      dup3\n        /* \"#utility.yul\":6173:6202   */\n      tag_230\n      jump\t// in\n    tag_359:\n        /* \"#utility.yul\":6165:6202   */\n      swap1\n      pop\n        /* \"#utility.yul\":6257:6261   */\n      0x20\n        /* \"#utility.yul\":6251:6255   */\n      dup2\n        /* \"#utility.yul\":6247:6262   */\n      add\n        /* \"#utility.yul\":6239:6262   */\n      swap1\n      pop\n        /* \"#utility.yul\":5962:6269   */\n      swap2\n      swap1\n      pop\n      jump\t// out\n        /* \"#utility.yul\":6275:6698   */\n    tag_253:\n        /* \"#utility.yul\":6352:6357   */\n      0x00\n        /* \"#utility.yul\":6377:6442   */\n      tag_361\n        /* \"#utility.yul\":6393:6441   */\n      tag_362\n        /* \"#utility.yul\":6434:6440   */\n      dup5\n        /* \"#utility.yul\":6393:6441   */\n      tag_252\n      jump\t// in\n    tag_362:\n        /* \"#utility.yul\":6377:6442   */\n      tag_239\n      jump\t// in\n    tag_361:\n        /* \"#utility.yul\":6368:6442   */\n      swap1\n      pop\n        /* \"#utility.yul\":6465:6471   */\n      dup3\n        /* \"#utility.yul\":6458:6463   */\n      dup2\n        /* \"#utility.yul\":6451:6472   */\n      mstore\n        /* \"#utility.yul\":6503:6507   */\n      0x20\n        /* \"#utility.yul\":6496:6501   */\n      dup2\n        /* \"#utility.yul\":6492:6508   */\n      add\n        /* \"#utility.yul\":6541:6544   */\n      dup5\n        /* \"#utility.yul\":6532:6538   */\n      dup5\n        /* \"#utility.yul\":6527:6530   */\n      dup5\n        /* \"#utility.yul\":6523:6539   */\n      add\n        /* \"#utility.yul\":6520:6545   */\n      gt\n        /* \"#utility.yul\":6517:6629   */\n      iszero\n      tag_363\n      jumpi\n        /* \"#utility.yul\":6548:6627   */\n      tag_364\n      tag_236\n      jump\t// in\n    tag_364:\n        /* \"#utility.yul\":6517:6629   */\n    tag_363:\n        /* \"#utility.yul\":6638:6692   */\n      tag_365\n        /* \"#utility.yul\":6685:6691   */\n      dup5\n        /* \"#utility.yul\":6680:6683   */\n      dup3\n        /* \"#utility.yul\":6675:6678   */\n      dup6\n        /* \"#utility.yul\":6638:6692   */\n      tag_241\n      jump\t// in\n    tag_365:\n        /* \"#utility.yul\":6358:6698   */\n      pop\n        /* \"#utility.yul\":6275:6698   */\n      swap4\n      swap3\n      pop\n      pop\n      pop\n      jump\t// out\n        /* \"#utility.yul\":6717:7055   */\n    tag_254:\n        /* \"#utility.yul\":6772:6777   */\n      0x00\n        /* \"#utility.yul\":6821:6824   */\n      dup3\n        /* \"#utility.yul\":6814:6818   */\n      0x1f\n        /* \"#utility.yul\":6806:6812   */\n      dup4\n        /* \"#utility.yul\":6802:6819   */\n      add\n        /* \"#utility.yul\":6798:6825   */\n      slt\n        /* \"#utility.yul\":6788:6910   */\n      tag_367\n      jumpi\n        /* \"#utility.yul\":6829:6908   */\n      tag_368\n      tag_235\n      jump\t// in\n    tag_368:\n        /* \"#utility.yul\":6788:6910   */\n    tag_367:\n        /* \"#utility.yul\":6946:6952   */\n      dup2\n        /* \"#utility.yul\":6933:6953   */\n      calldataload\n        /* \"#utility.yul\":6971:7049   */\n      tag_369\n        /* \"#utility.yul\":7045:7048   */\n      dup5\n        /* \"#utility.yul\":7037:7043   */\n      dup3\n        /* \"#utility.yul\":7030:7034   */\n      0x20\n        /* \"#utility.yul\":7022:7028   */\n      dup7\n        /* \"#utility.yul\":7018:7035   */\n      add\n        /* \"#utility.yul\":6971:7049   */\n      tag_253\n      jump\t// in\n    tag_369:\n        /* \"#utility.yul\":6962:7049   */\n      swap2\n      pop\n        /* \"#utility.yul\":6778:7055   */\n      pop\n        /* \"#utility.yul\":6717:7055   */\n      swap3\n      swap2\n      pop\n      pop\n      jump\t// out\n        /* \"#utility.yul\":7061:7713   */\n    tag_34:\n        /* \"#utility.yul\":7138:7144   */\n      0x00\n        /* \"#utility.yul\":7146:7152   */\n      dup1\n        /* \"#utility.yul\":7195:7197   */\n      0x40\n        /* \"#utility.yul\":7183:7192   */\n      dup4\n        /* \"#utility.yul\":7174:7181   */\n      dup6\n        /* \"#utility.yul\":7170:7193   */\n      sub\n        /* \"#utility.yul\":7166:7198   */\n      slt\n        /* \"#utility.yul\":7163:7282   */\n      iszero\n      tag_371\n      jumpi\n        /* \"#utility.yul\":7201:7280   */\n      tag_372\n      tag_233\n      jump\t// in\n    tag_372:\n        /* \"#utility.yul\":7163:7282   */\n    tag_371:\n        /* \"#utility.yul\":7321:7322   */\n      0x00\n        /* \"#utility.yul\":7346:7399   */\n      tag_373\n        /* \"#utility.yul\":7391:7398   */\n      dup6\n        /* \"#utility.yul\":7382:7388   */\n      dup3\n        /* \"#utility.yul\":7371:7380   */\n      dup7\n        /* \"#utility.yul\":7367:7389   */\n      add\n        /* \"#utility.yul\":7346:7399   */\n      tag_251\n      jump\t// in\n    tag_373:\n        /* \"#utility.yul\":7336:7399   */\n      swap3\n      pop\n        /* \"#utility.yul\":7292:7409   */\n      pop\n        /* \"#utility.yul\":7476:7478   */\n      0x20\n        /* \"#utility.yul\":7465:7474   */\n      dup4\n        /* \"#utility.yul\":7461:7479   */\n      add\n        /* \"#utility.yul\":7448:7480   */\n      calldataload\n        /* \"#utility.yul\":7507:7525   */\n      0xffffffffffffffff\n        /* \"#utility.yul\":7499:7505   */\n      dup2\n        /* \"#utility.yul\":7496:7526   */\n      gt\n        /* \"#utility.yul\":7493:7610   */\n      iszero\n      tag_374\n      jumpi\n        /* \"#utility.yul\":7529:7608   */\n      tag_375\n      tag_234\n      jump\t// in\n    tag_375:\n        /* \"#utility.yul\":7493:7610   */\n    tag_374:\n        /* \"#utility.yul\":7634:7696   */\n      tag_376\n        /* \"#utility.yul\":7688:7695   */\n      dup6\n        /* \"#utility.yul\":7679:7685   */\n      dup3\n        /* \"#utility.yul\":7668:7677   */\n      dup7\n        /* \"#utility.yul\":7664:7686   */\n      add\n        /* \"#utility.yul\":7634:7696   */\n      tag_254\n      jump\t// in\n    tag_376:\n        /* \"#utility.yul\":7624:7696   */\n      swap2\n      pop\n        /* \"#utility.yul\":7419:7706   */\n      pop\n        /* \"#utility.yul\":7061:7713   */\n      swap3\n      pop\n      swap3\n      swap1\n      pop\n      jump\t// out\n        /* \"#utility.yul\":7719:7796   */\n    tag_255:\n        /* \"#utility.yul\":7756:7763   */\n      0x00\n        /* \"#utility.yul\":7785:7790   */\n      dup2\n        /* \"#utility.yul\":7774:7790   */\n      swap1\n      pop\n        /* \"#utility.yul\":7719:7796   */\n      swap2\n      swap1\n      pop\n      jump\t// out\n        /* \"#utility.yul\":7802:7920   */\n    tag_256:\n        /* \"#utility.yul\":7889:7913   */\n      tag_379\n        /* \"#utility.yul\":7907:7912   */\n      dup2\n        /* \"#utility.yul\":7889:7913   */\n      tag_255\n      jump\t// in\n    tag_379:\n        /* \"#utility.yul\":7884:7887   */\n      dup3\n        /* \"#utility.yul\":7877:7914   */\n      mstore\n        /* \"#utility.yul\":7802:7920   */\n      pop\n      pop\n      jump\t// out\n        /* \"#utility.yul\":7926:8148   */\n    tag_40:\n        /* \"#utility.yul\":8019:8023   */\n      0x00\n        /* \"#utility.yul\":8057:8059   */\n      0x20\n        /* \"#utility.yul\":8046:8055   */\n      dup3\n        /* \"#utility.yul\":8042:8060   */\n      add\n        /* \"#utility.yul\":8034:8060   */\n      swap1\n      pop\n        /* \"#utility.yul\":8070:8141   */\n      tag_381\n        /* \"#utility.yul\":8138:8139   */\n      0x00\n        /* \"#utility.yul\":8127:8136   */\n      dup4\n        /* \"#utility.yul\":8123:8140   */\n      add\n        /* \"#utility.yul\":8114:8120   */\n      dup5\n        /* \"#utility.yul\":8070:8141   */\n      tag_256\n      jump\t// in\n    tag_381:\n        /* \"#utility.yul\":7926:8148   */\n      swap3\n      swap2\n      pop\n      pop\n      jump\t// out\n        /* \"#utility.yul\":8154:8376   */\n    tag_51:\n        /* \"#utility.yul\":8247:8251   */\n      0x00\n        /* \"#utility.yul\":8285:8287   */\n      0x20\n        /* \"#utility.yul\":8274:8283   */\n      dup3\n        /* \"#utility.yul\":8270:8288   */\n      add\n        /* \"#utility.yul\":8262:8288   */\n      swap1\n      pop\n        /* \"#utility.yul\":8298:8369   */\n      tag_383\n        /* \"#utility.yul\":8366:8367   */\n      0x00\n        /* \"#utility.yul\":8355:8364   */\n      dup4\n        /* \"#utility.yul\":8351:8368   */\n      add\n        /* \"#utility.yul\":8342:8348   */\n      dup5\n        /* \"#utility.yul\":8298:8369   */\n      tag_247\n      jump\t// in\n    tag_383:\n        /* \"#utility.yul\":8154:8376   */\n      swap3\n      swap2\n      pop\n      pop\n      jump\t// out\n        /* \"#utility.yul\":8382:8500   */\n    tag_257:\n        /* \"#utility.yul\":8469:8493   */\n      tag_385\n        /* \"#utility.yul\":8487:8492   */\n      dup2\n        /* \"#utility.yul\":8469:8493   */\n      tag_249\n      jump\t// in\n    tag_385:\n        /* \"#utility.yul\":8464:8467   */\n      dup3\n        /* \"#utility.yul\":8457:8494   */\n      mstore\n        /* \"#utility.yul\":8382:8500   */\n      pop\n      pop\n      jump\t// out\n        /* \"#utility.yul\":8506:8728   */\n    tag_56:\n        /* \"#utility.yul\":8599:8603   */\n      0x00\n        /* \"#utility.yul\":8637:8639   */\n      0x20\n        /* \"#utility.yul\":8626:8635   */\n      dup3\n        /* \"#utility.yul\":8622:8640   */\n      add\n        /* \"#utility.yul\":8614:8640   */\n      swap1\n      pop\n        /* \"#utility.yul\":8650:8721   */\n      tag_387\n        /* \"#utility.yul\":8718:8719   */\n      0x00\n        /* \"#utility.yul\":8707:8716   */\n      dup4\n        /* \"#utility.yul\":8703:8720   */\n      add\n        /* \"#utility.yul\":8694:8700   */\n      dup5\n        /* \"#utility.yul\":8650:8721   */\n      tag_257\n      jump\t// in\n    tag_387:\n        /* \"#utility.yul\":8506:8728   */\n      swap3\n      swap2\n      pop\n      pop\n      jump\t// out\n        /* \"#utility.yul\":8734:9063   */\n    tag_64:\n        /* \"#utility.yul\":8793:8799   */\n      0x00\n        /* \"#utility.yul\":8842:8844   */\n      0x20\n        /* \"#utility.yul\":8830:8839   */\n      dup3\n        /* \"#utility.yul\":8821:8828   */\n      dup5\n        /* \"#utility.yul\":8817:8840   */\n      sub\n        /* \"#utility.yul\":8813:8845   */\n      slt\n        /* \"#utility.yul\":8810:8929   */\n      iszero\n      tag_389\n      jumpi\n        /* \"#utility.yul\":8848:8927   */\n      tag_390\n      tag_233\n      jump\t// in\n    tag_390:\n        /* \"#utility.yul\":8810:8929   */\n    tag_389:\n        /* \"#utility.yul\":8968:8969   */\n      0x00\n        /* \"#utility.yul\":8993:9046   */\n      tag_391\n        /* \"#utility.yul\":9038:9045   */\n      dup5\n        /* \"#utility.yul\":9029:9035   */\n      dup3\n        /* \"#utility.yul\":9018:9027   */\n      dup6\n        /* \"#utility.yul\":9014:9036   */\n      add\n        /* \"#utility.yul\":8993:9046   */\n      tag_251\n      jump\t// in\n    tag_391:\n        /* \"#utility.yul\":8983:9046   */\n      swap2\n      pop\n        /* \"#utility.yul\":8939:9056   */\n      pop\n        /* \"#utility.yul\":8734:9063   */\n      swap3\n      swap2\n      pop\n      pop\n      jump\t// out\n        /* \"#utility.yul\":9069:9249   */\n    tag_258:\n        /* \"#utility.yul\":9117:9194   */\n      0x4e487b7100000000000000000000000000000000000000000000000000000000\n        /* \"#utility.yul\":9114:9115   */\n      0x00\n        /* \"#utility.yul\":9107:9195   */\n      mstore\n        /* \"#utility.yul\":9214:9218   */\n      0x22\n        /* \"#utility.yul\":9211:9212   */\n      0x04\n        /* \"#utility.yul\":9204:9219   */\n      mstore\n        /* \"#utility.yul\":9238:9242   */\n      0x24\n        /* \"#utility.yul\":9235:9236   */\n      0x00\n        /* \"#utility.yul\":9228:9243   */\n      revert\n        /* \"#utility.yul\":9255:9575   */\n    tag_67:\n        /* \"#utility.yul\":9299:9305   */\n      0x00\n        /* \"#utility.yul\":9336:9337   */\n      0x02\n        /* \"#utility.yul\":9330:9334   */\n      dup3\n        /* \"#utility.yul\":9326:9338   */\n      div\n        /* \"#utility.yul\":9316:9338   */\n      swap1\n      pop\n        /* \"#utility.yul\":9383:9384   */\n      0x01\n        /* \"#utility.yul\":9377:9381   */\n      dup3\n        /* \"#utility.yul\":9373:9385   */\n      and\n        /* \"#utility.yul\":9404:9422   */\n      dup1\n        /* \"#utility.yul\":9394:9475   */\n      tag_394\n      jumpi\n        /* \"#utility.yul\":9460:9464   */\n      0x7f\n        /* \"#utility.yul\":9452:9458   */\n      dup3\n        /* \"#utility.yul\":9448:9465   */\n      and\n        /* \"#utility.yul\":9438:9465   */\n      swap2\n      pop\n        /* \"#utility.yul\":9394:9475   */\n    tag_394:\n        /* \"#utility.yul\":9522:9524   */\n      0x20\n        /* \"#utility.yul\":9514:9520   */\n      dup3\n        /* \"#utility.yul\":9511:9525   */\n      lt\n        /* \"#utility.yul\":9491:9509   */\n      dup2\n        /* \"#utility.yul\":9488:9526   */\n      sub\n        /* \"#utility.yul\":9485:9569   */\n      tag_395\n      jumpi\n        /* \"#utility.yul\":9541:9559   */\n      tag_396\n      tag_258\n      jump\t// in\n    tag_396:\n        /* \"#utility.yul\":9485:9569   */\n    tag_395:\n        /* \"#utility.yul\":9306:9575   */\n      pop\n        /* \"#utility.yul\":9255:9575   */\n      swap2\n      swap1\n      pop\n      jump\t// out\n        /* \"#utility.yul\":9581:9722   */\n    tag_259:\n        /* \"#utility.yul\":9630:9634   */\n      0x00\n        /* \"#utility.yul\":9653:9656   */\n      dup2\n        /* \"#utility.yul\":9645:9656   */\n      swap1\n      pop\n        /* \"#utility.yul\":9676:9679   */\n      dup2\n        /* \"#utility.yul\":9673:9674   */\n      0x00\n        /* \"#utility.yul\":9666:9680   */\n      mstore\n        /* \"#utility.yul\":9710:9714   */\n      0x20\n        /* \"#utility.yul\":9707:9708   */\n      0x00\n        /* \"#utility.yul\":9697:9715   */\n      keccak256\n        /* \"#utility.yul\":9689:9715   */\n      swap1\n      pop\n        /* \"#utility.yul\":9581:9722   */\n      swap2\n      swap1\n      pop\n      jump\t// out\n        /* \"#utility.yul\":9728:9821   */\n    tag_260:\n        /* \"#utility.yul\":9765:9771   */\n      0x00\n        /* \"#utility.yul\":9812:9814   */\n      0x20\n        /* \"#utility.yul\":9807:9809   */\n      0x1f\n        /* \"#utility.yul\":9800:9805   */\n      dup4\n        /* \"#utility.yul\":9796:9810   */\n      add\n        /* \"#utility.yul\":9792:9815   */\n      div\n        /* \"#utility.yul\":9782:9815   */\n      swap1\n      pop\n        /* \"#utility.yul\":9728:9821   */\n      swap2\n      swap1\n      pop\n      jump\t// out\n        /* \"#utility.yul\":9827:9934   */\n    tag_261:\n        /* \"#utility.yul\":9871:9879   */\n      0x00\n        /* \"#utility.yul\":9921:9926   */\n      dup3\n        /* \"#utility.yul\":9915:9919   */\n      dup3\n        /* \"#utility.yul\":9911:9927   */\n      shl\n        /* \"#utility.yul\":9890:9927   */\n      swap1\n      pop\n        /* \"#utility.yul\":9827:9934   */\n      swap3\n      swap2\n      pop\n      pop\n      jump\t// out\n        /* \"#utility.yul\":9940:10333   */\n    tag_262:\n        /* \"#utility.yul\":10009:10015   */\n      0x00\n        /* \"#utility.yul\":10059:10060   */\n      0x08\n        /* \"#utility.yul\":10047:10057   */\n      dup4\n        /* \"#utility.yul\":10043:10061   */\n      mul\n        /* \"#utility.yul\":10082:10179   */\n      tag_401\n        /* \"#utility.yul\":10112:10178   */\n      0xffffffffffffffffffffffffffffffffffffffffffffffffffffffffffffffff\n        /* \"#utility.yul\":10101:10110   */\n      dup3\n        /* \"#utility.yul\":10082:10179   */\n      tag_261\n      jump\t// in\n    tag_401:\n        /* \"#utility.yul\":10200:10239   */\n      tag_402\n        /* \"#utility.yul\":10230:10238   */\n      dup7\n        /* \"#utility.yul\":10219:10228   */\n      dup4\n        /* \"#utility.yul\":10200:10239   */\n      tag_261\n      jump\t// in\n    tag_402:\n        /* \"#utility.yul\":10188:10239   */\n      swap6\n      pop\n        /* \"#utility.yul\":10272:10276   */\n      dup1\n        /* \"#utility.yul\":10268:10277   */\n      not\n        /* \"#utility.yul\":10261:10266   */\n      dup5\n        /* \"#utility.yul\":10257:10278   */\n      and\n        /* \"#utility.yul\":10248:10278   */\n      swap4\n      pop\n        /* \"#utility.yul\":10321:10325   */\n      dup1\n        /* \"#utility.yul\":10311:10319   */\n      dup7\n        /* \"#utility.yul\":10307:10326   */\n      and\n        /* \"#utility.yul\":10300:10305   */\n      dup5\n        /* \"#utility.yul\":10297:10327   */\n      or\n        /* \"#utility.yul\":10287:10327   */\n      swap3\n      pop\n        /* \"#utility.yul\":10016:10333   */\n      pop\n      pop\n        /* \"#utility.yul\":9940:10333   */\n      swap4\n      swap3\n      pop\n      pop\n      pop\n      jump\t// out\n        /* \"#utility.yul\":10339:10399   */\n    tag_263:\n        /* \"#utility.yul\":10367:10370   */\n      0x00\n        /* \"#utility.yul\":10388:10393   */\n      dup2\n        /* \"#utility.yul\":10381:10393   */\n      swap1\n      pop\n        /* \"#utility.yul\":10339:10399   */\n      swap2\n      swap1\n      pop\n      jump\t// out\n        /* \"#utility.yul\":10405:10547   */\n    tag_264:\n        /* \"#utility.yul\":10455:10464   */\n      0x00\n        /* \"#utility.yul\":10488:10541   */\n      tag_405\n        /* \"#utility.yul\":10506:10540   */\n      tag_406\n        /* \"#utility.yul\":10515:10539   */\n      tag_407\n        /* \"#utility.yul\":10533:10538   */\n      dup5\n        /* \"#utility.yul\":10515:10539   */\n      tag_244\n      jump\t// in\n    tag_407:\n        /* \"#utility.yul\":10506:10540   */\n      tag_263\n      jump\t// in\n    tag_406:\n        /* \"#utility.yul\":10488:10541   */\n      tag_244\n      jump\t// in\n    tag_405:\n        /* \"#utility.yul\":10475:10541   */\n      swap1\n      pop\n        /* \"#utility.yul\":10405:10547   */\n      swap2\n      swap1\n      pop\n      jump\t// out\n        /* \"#utility.yul\":10553:10628   */\n    tag_265:\n        /* \"#utility.yul\":10596:10599   */\n      0x00\n        /* \"#utility.yul\":10617:10622   */\n      dup2\n        /* \"#utility.yul\":10610:10622   */\n      swap1\n      pop\n        /* \"#utility.yul\":10553:10628   */\n      swap2\n      swap1\n      pop\n      jump\t// out\n        /* \"#utility.yul\":10634:10903   */\n    tag_266:\n        /* \"#utility.yul\":10744:10783   */\n      tag_410\n        /* \"#utility.yul\":10775:10782   */\n      dup4\n        /* \"#utility.yul\":10744:10783   */\n      tag_264\n      jump\t// in\n    tag_410:\n        /* \"#utility.yul\":10805:10896   */\n      tag_411\n        /* \"#utility.yul\":10854:10895   */\n      tag_412\n        /* \"#utility.yul\":10878:10894   */\n      dup3\n        /* \"#utility.yul\":10854:10895   */\n      tag_265\n      jump\t// in\n    tag_412:\n        /* \"#utility.yul\":10846:10852   */\n      dup5\n        /* \"#utility.yul\":10839:10843   */\n      dup5\n        /* \"#utility.yul\":10833:10844   */\n      sload\n        /* \"#utility.yul\":10805:10896   */\n      tag_262\n      jump\t// in\n    tag_411:\n        /* \"#utility.yul\":10799:10803   */\n      dup3\n        /* \"#utility.yul\":10792:10897   */\n      sstore\n        /* \"#utility.yul\":10710:10903   */\n      pop\n        /* \"#utility.yul\":10634:10903   */\n      pop\n      pop\n      pop\n      jump\t// out\n        /* \"#utility.yul\":10909:10982   */\n    tag_267:\n        /* \"#utility.yul\":10954:10957   */\n      0x00\n        /* \"#utility.yul\":10909:10982   */\n      swap1\n      jump\t// out\n        /* \"#utility.yul\":10988:11177   */\n    tag_268:\n        /* \"#utility.yul\":11065:11097   */\n      tag_415\n      tag_267\n      jump\t// in\n    tag_415:\n        /* \"#utility.yul\":11106:11171   */\n      tag_416\n        /* \"#utility.yul\":11164:11170   */\n      dup2\n        /* \"#utility.yul\":11156:11162   */\n      dup5\n        /* \"#utility.yul\":11150:11154   */\n      dup5\n        /* \"#utility.yul\":11106:11171   */\n      tag_266\n      jump\t// in\n    tag_416:\n        /* \"#utility.yul\":11041:11177   */\n      pop\n        /* \"#utility.yul\":10988:11177   */\n      pop\n      pop\n      jump\t// out\n        /* \"#utility.yul\":11183:11369   */\n    tag_269:\n        /* \"#utility.yul\":11243:11363   */\n    tag_418:\n        /* \"#utility.yul\":11260:11263   */\n      dup2\n        /* \"#utility.yul\":11253:11258   */\n      dup2\n        /* \"#utility.yul\":11250:11264   */\n      lt\n        /* \"#utility.yul\":11243:11363   */\n      iszero\n      tag_420\n      jumpi\n        /* \"#utility.yul\":11314:11353   */\n      tag_421\n        /* \"#utility.yul\":11351:11352   */\n      0x00\n        /* \"#utility.yul\":11344:11349   */\n      dup3\n        /* \"#utility.yul\":11314:11353   */\n      tag_268\n      jump\t// in\n    tag_421:\n        /* \"#utility.yul\":11287:11288   */\n      0x01\n        /* \"#utility.yul\":11280:11285   */\n      dup2\n        /* \"#utility.yul\":11276:11289   */\n      add\n        /* \"#utility.yul\":11267:11289   */\n      swap1\n      pop\n        /* \"#utility.yul\":11243:11363   */\n      jump(tag_418)\n    tag_420:\n        /* \"#utility.yul\":11183:11369   */\n      pop\n      pop\n      jump\t// out\n        /* \"#utility.yul\":11375:11918   */\n    tag_270:\n        /* \"#utility.yul\":11476:11478   */\n      0x1f\n        /* \"#utility.yul\":11471:11474   */\n      dup3\n        /* \"#utility.yul\":11468:11479   */\n      gt\n        /* \"#utility.yul\":11465:11911   */\n      iszero\n      tag_423\n      jumpi\n        /* \"#utility.yul\":11510:11548   */\n      tag_424\n        /* \"#utility.yul\":11542:11547   */\n      dup2\n        /* \"#utility.yul\":11510:11548   */\n      tag_259\n      jump\t// in\n    tag_424:\n        /* \"#utility.yul\":11594:11623   */\n      tag_425\n        /* \"#utility.yul\":11612:11622   */\n      dup5\n        /* \"#utility.yul\":11594:11623   */\n      tag_260\n      jump\t// in\n    tag_425:\n        /* \"#utility.yul\":11584:11592   */\n      dup2\n        /* \"#utility.yul\":11580:11624   */\n      add\n        /* \"#utility.yul\":11777:11779   */\n      0x20\n        /* \"#utility.yul\":11765:11775   */\n      dup6\n        /* \"#utility.yul\":11762:11780   */\n      lt\n        /* \"#utility.yul\":11759:11808   */\n      iszero\n      tag_426\n      jumpi\n        /* \"#utility.yul\":11798:11806   */\n      dup2\n        /* \"#utility.yul\":11783:11806   */\n      swap1\n      pop\n        /* \"#utility.yul\":11759:11808   */\n    tag_426:\n        /* \"#utility.yul\":11821:11901   */\n      tag_427\n        /* \"#utility.yul\":11877:11899   */\n      tag_428\n        /* \"#utility.yul\":11895:11898   */\n      dup6\n        /* \"#utility.yul\":11877:11899   */\n      tag_260\n      jump\t// in\n    tag_428:\n        /* \"#utility.yul\":11867:11875   */\n      dup4\n        /* \"#utility.yul\":11863:11900   */\n      add\n        /* \"#utility.yul\":11850:11861   */\n      dup3\n        /* \"#utility.yul\":11821:11901   */\n      tag_269\n      jump\t// in\n    tag_427:\n        /* \"#utility.yul\":11480:11911   */\n      pop\n      pop\n        /* \"#utility.yul\":11465:11911   */\n    tag_423:\n        /* \"#utility.yul\":11375:11918   */\n      pop\n      pop\n      pop\n      jump\t// out\n        /* \"#utility.yul\":11924:12041   */\n    tag_271:\n        /* \"#utility.yul\":11978:11986   */\n      0x00\n        /* \"#utility.yul\":12028:12033   */\n      dup3\n        /* \"#utility.yul\":12022:12026   */\n      dup3\n        /* \"#utility.yul\":12018:12034   */\n      shr\n        /* \"#utility.yul\":11997:12034   */\n      swap1\n      pop\n        /* \"#utility.yul\":11924:12041   */\n      swap3\n      swap2\n      pop\n      pop\n      jump\t// out\n        /* \"#utility.yul\":12047:12216   */\n    tag_272:\n        /* \"#utility.yul\":12091:12097   */\n      0x00\n        /* \"#utility.yul\":12124:12175   */\n      tag_431\n        /* \"#utility.yul\":12172:12173   */\n      0x00\n        /* \"#utility.yul\":12168:12174   */\n      not\n        /* \"#utility.yul\":12160:12165   */\n      dup5\n        /* \"#utility.yul\":12157:12158   */\n      0x08\n        /* \"#utility.yul\":12153:12166   */\n      mul\n        /* \"#utility.yul\":12124:12175   */\n      tag_271\n      jump\t// in\n    tag_431:\n        /* \"#utility.yul\":12120:12176   */\n      not\n        /* \"#utility.yul\":12205:12209   */\n      dup1\n        /* \"#utility.yul\":12199:12203   */\n      dup4\n        /* \"#utility.yul\":12195:12210   */\n      and\n        /* \"#utility.yul\":12185:12210   */\n      swap2\n      pop\n        /* \"#utility.yul\":12098:12216   */\n      pop\n        /* \"#utility.yul\":12047:12216   */\n      swap3\n      swap2\n      pop\n      pop\n      jump\t// out\n        /* \"#utility.yul\":12221:12516   */\n    tag_273:\n        /* \"#utility.yul\":12297:12301   */\n      0x00\n        /* \"#utility.yul\":12443:12472   */\n      tag_433\n        /* \"#utility.yul\":12468:12471   */\n      dup4\n        /* \"#utility.yul\":12462:12466   */\n      dup4\n        /* \"#utility.yul\":12443:12472   */\n      tag_272\n      jump\t// in\n    tag_433:\n        /* \"#utility.yul\":12435:12472   */\n      swap2\n      pop\n        /* \"#utility.yul\":12505:12508   */\n      dup3\n        /* \"#utility.yul\":12502:12503   */\n      0x02\n        /* \"#utility.yul\":12498:12509   */\n      mul\n        /* \"#utility.yul\":12492:12496   */\n      dup3\n        /* \"#utility.yul\":12489:12510   */\n      or\n        /* \"#utility.yul\":12481:12510   */\n      swap1\n      pop\n        /* \"#utility.yul\":12221:12516   */\n      swap3\n      swap2\n      pop\n      pop\n      jump\t// out\n        /* \"#utility.yul\":12521:13916   */\n    tag_74:\n        /* \"#utility.yul\":12638:12675   */\n      tag_435\n        /* \"#utility.yul\":12671:12674   */\n      dup3\n        /* \"#utility.yul\":12638:12675   */\n      tag_227\n      jump\t// in\n    tag_435:\n        /* \"#utility.yul\":12740:12758   */\n      0xffffffffffffffff\n        /* \"#utility.yul\":12732:12738   */\n      dup2\n        /* \"#utility.yul\":12729:12759   */\n      gt\n        /* \"#utility.yul\":12726:12782   */\n      iszero\n      tag_436\n      jumpi\n        /* \"#utility.yul\":12762:12780   */\n      tag_437\n      tag_237\n      jump\t// in\n    tag_437:\n        /* \"#utility.yul\":12726:12782   */\n    tag_436:\n        /* \"#utility.yul\":12806:12844   */\n      tag_438\n        /* \"#utility.yul\":12838:12842   */\n      dup3\n        /* \"#utility.yul\":12832:12843   */\n      sload\n        /* \"#utility.yul\":12806:12844   */\n      tag_67\n      jump\t// in\n    tag_438:\n        /* \"#utility.yul\":12891:12958   */\n      tag_439\n        /* \"#utility.yul\":12951:12957   */\n      dup3\n        /* \"#utility.yul\":12943:12949   */\n      dup3\n        /* \"#utility.yul\":12937:12941   */\n      dup6\n        /* \"#utility.yul\":12891:12958   */\n      tag_270\n      jump\t// in\n    tag_439:\n        /* \"#utility.yul\":12985:12986   */\n      0x00\n        /* \"#utility.yul\":13009:13013   */\n      0x20\n        /* \"#utility.yul\":12996:13013   */\n      swap1\n      pop\n        /* \"#utility.yul\":13041:13043   */\n      0x1f\n        /* \"#utility.yul\":13033:13039   */\n      dup4\n        /* \"#utility.yul\":13030:13044   */\n      gt\n        /* \"#utility.yul\":13058:13059   */\n      0x01\n        /* \"#utility.yul\":13053:13671   */\n      dup2\n      eq\n      tag_441\n      jumpi\n        /* \"#utility.yul\":13715:13716   */\n      0x00\n        /* \"#utility.yul\":13732:13738   */\n      dup5\n        /* \"#utility.yul\":13729:13806   */\n      iszero\n      tag_442\n      jumpi\n        /* \"#utility.yul\":13781:13790   */\n      dup3\n        /* \"#utility.yul\":13776:13779   */\n      dup8\n        /* \"#utility.yul\":13772:13791   */\n      add\n        /* \"#utility.yul\":13766:13792   */\n      mload\n        /* \"#utility.yul\":13757:13792   */\n      swap1\n      pop\n        /* \"#utility.yul\":13729:13806   */\n    tag_442:\n        /* \"#utility.yul\":13832:13899   */\n      tag_443\n        /* \"#utility.yul\":13892:13898   */\n      dup6\n        /* \"#utility.yul\":13885:13890   */\n      dup3\n        /* \"#utility.yul\":13832:13899   */\n      tag_273\n      jump\t// in\n    tag_443:\n        /* \"#utility.yul\":13826:13830   */\n      dup7\n        /* \"#utility.yul\":13819:13900   */\n      sstore\n        /* \"#utility.yul\":13688:13910   */\n      pop\n        /* \"#utility.yul\":13023:13910   */\n      jump(tag_440)\n        /* \"#utility.yul\":13053:13671   */\n    tag_441:\n        /* \"#utility.yul\":13105:13109   */\n      0x1f\n        /* \"#utility.yul\":13101:13110   */\n      not\n        /* \"#utility.yul\":13093:13099   */\n      dup5\n        /* \"#utility.yul\":13089:13111   */\n      and\n        /* \"#utility.yul\":13139:13176   */\n      tag_444\n        /* \"#utility.yul\":13171:13175   */\n      dup7\n        /* \"#utility.yul\":13139:13176   */\n      tag_259\n      jump\t// in\n    tag_444:\n        /* \"#utility.yul\":13198:13199   */\n      0x00\n        /* \"#utility.yul\":13212:13420   */\n    tag_445:\n        /* \"#utility.yul\":13226:13233   */\n      dup3\n        /* \"#utility.yul\":13223:13224   */\n      dup2\n        /* \"#utility.yul\":13220:13234   */\n      lt\n        /* \"#utility.yul\":13212:13420   */\n      iszero\n      tag_447\n      jumpi\n        /* \"#utility.yul\":13305:13314   */\n      dup5\n        /* \"#utility.yul\":13300:13303   */\n      dup10\n        /* \"#utility.yul\":13296:13315   */\n      add\n        /* \"#utility.yul\":13290:13316   */\n      mload\n        /* \"#utility.yul\":13282:13288   */\n      dup3\n        /* \"#utility.yul\":13275:13317   */\n      sstore\n        /* \"#utility.yul\":13356:13357   */\n      0x01\n        /* \"#utility.yul\":13348:13354   */\n      dup3\n        /* \"#utility.yul\":13344:13358   */\n      add\n        /* \"#utility.yul\":13334:13358   */\n      swap2\n      pop\n        /* \"#utility.yul\":13403:13405   */\n      0x20\n        /* \"#utility.yul\":13392:13401   */\n      dup6\n        /* \"#utility.yul\":13388:13406   */\n      add\n        /* \"#utility.yul\":13375:13406   */\n      swap5\n      pop\n        /* \"#utility.yul\":13249:13253   */\n      0x20\n        /* \"#utility.yul\":13246:13247   */\n      dup2\n        /* \"#utility.yul\":13242:13254   */\n      add\n        /* \"#utility.yul\":13237:13254   */\n      swap1\n      pop\n        /* \"#utility.yul\":13212:13420   */\n      jump(tag_445)\n    tag_447:\n        /* \"#utility.yul\":13448:13454   */\n      dup7\n        /* \"#utility.yul\":13439:13446   */\n      dup4\n        /* \"#utility.yul\":13436:13455   */\n      lt\n        /* \"#utility.yul\":13433:13612   */\n      iszero\n      tag_448\n      jumpi\n        /* \"#utility.yul\":13506:13515   */\n      dup5\n        /* \"#utility.yul\":13501:13504   */\n      dup10\n        /* \"#utility.yul\":13497:13516   */\n      add\n        /* \"#utility.yul\":13491:13517   */\n      mload\n        /* \"#utility.yul\":13549:13597   */\n      tag_449\n        /* \"#utility.yul\":13591:13595   */\n      0x1f\n        /* \"#utility.yul\":13583:13589   */\n      dup10\n        /* \"#utility.yul\":13579:13596   */\n      and\n        /* \"#utility.yul\":13568:13577   */\n      dup3\n        /* \"#utility.yul\":13549:13597   */\n      tag_272\n      jump\t// in\n    tag_449:\n        /* \"#utility.yul\":13541:13547   */\n      dup4\n        /* \"#utility.yul\":13534:13598   */\n      sstore\n        /* \"#utility.yul\":13456:13612   */\n      pop\n        /* \"#utility.yul\":13433:13612   */\n    tag_448:\n        /* \"#utility.yul\":13658:13659   */\n      0x01\n        /* \"#utility.yul\":13654:13655   */\n      0x02\n        /* \"#utility.yul\":13646:13652   */\n      dup9\n        /* \"#utility.yul\":13642:13656   */\n      mul\n        /* \"#utility.yul\":13638:13660   */\n      add\n        /* \"#utility.yul\":13632:13636   */\n      dup9\n        /* \"#utility.yul\":13625:13661   */\n      sstore\n        /* \"#utility.yul\":13060:13671   */\n      pop\n      pop\n      pop\n        /* \"#utility.yul\":13023:13910   */\n    tag_440:\n      pop\n        /* \"#utility.yul\":12613:13916   */\n      pop\n      pop\n      pop\n        /* \"#utility.yul\":12521:13916   */\n      pop\n      pop\n      jump\t// out\n        /* \"#utility.yul\":13922:14102   */\n    tag_274:\n        /* \"#utility.yul\":13970:14047   */\n      0x4e487b7100000000000000000000000000000000000000000000000000000000\n        /* \"#utility.yul\":13967:13968   */\n      0x00\n        /* \"#utility.yul\":13960:14048   */\n      mstore\n        /* \"#utility.yul\":14067:14071   */\n      0x11\n        /* \"#utility.yul\":14064:14065   */\n      0x04\n        /* \"#utility.yul\":14057:14072   */\n      mstore\n        /* \"#utility.yul\":14091:14095   */\n      0x24\n        /* \"#utility.yul\":14088:14089   */\n      0x00\n        /* \"#utility.yul\":14081:14096   */\n      revert\n        /* \"#utility.yul\":14108:14518   */\n    tag_82:\n        /* \"#utility.yul\":14148:14155   */\n      0x00\n        /* \"#utility.yul\":14171:14191   */\n      tag_452\n        /* \"#utility.yul\":14189:14190   */\n      dup3\n        /* \"#utility.yul\":14171:14191   */\n      tag_244\n      jump\t// in\n    tag_452:\n        /* \"#utility.yul\":14166:14191   */\n      swap2\n      pop\n        /* \"#utility.yul\":14205:14225   */\n      tag_453\n        /* \"#utility.yul\":14223:14224   */\n      dup4\n        /* \"#utility.yul\":14205:14225   */\n      tag_244\n      jump\t// in\n    tag_453:\n        /* \"#utility.yul\":14200:14225   */\n      swap3\n      pop\n        /* \"#utility.yul\":14260:14261   */\n      dup3\n        /* \"#utility.yul\":14257:14258   */\n      dup3\n        /* \"#utility.yul\":14253:14262   */\n      mul\n        /* \"#utility.yul\":14282:14312   */\n      tag_454\n        /* \"#utility.yul\":14300:14311   */\n      dup2\n        /* \"#utility.yul\":14282:14312   */\n      tag_244\n      jump\t// in\n    tag_454:\n        /* \"#utility.yul\":14271:14312   */\n      swap2\n      pop\n        /* \"#utility.yul\":14461:14462   */\n      dup3\n        /* \"#utility.yul\":14452:14459   */\n      dup3\n        /* \"#utility.yul\":14448:14463   */\n      div\n        /* \"#utility.yul\":14445:14446   */\n      dup5\n        /* \"#utility.yul\":14442:14464   */\n      eq\n        /* \"#utility.yul\":14422:14423   */\n      dup4\n        /* \"#utility.yul\":14415:14424   */\n      iszero\n        /* \"#utility.yul\":14395:14478   */\n      or\n        /* \"#utility.yul\":14372:14511   */\n      tag_455\n      jumpi\n        /* \"#utility.yul\":14491:14509   */\n      tag_456\n      tag_274\n      jump\t// in\n    tag_456:\n        /* \"#utility.yul\":14372:14511   */\n    tag_455:\n        /* \"#utility.yul\":14156:14518   */\n      pop\n        /* \"#utility.yul\":14108:14518   */\n      swap3\n      swap2\n      pop\n      pop\n      jump\t// out\n        /* \"#utility.yul\":14524:14609   */\n    tag_275:\n        /* \"#utility.yul\":14569:14576   */\n      0x00\n        /* \"#utility.yul\":14598:14603   */\n      dup2\n        /* \"#utility.yul\":14587:14603   */\n      swap1\n      pop\n        /* \"#utility.yul\":14524:14609   */\n      swap2\n      swap1\n      pop\n      jump\t// out\n        /* \"#utility.yul\":14615:14716   */\n    tag_276:\n        /* \"#utility.yul\":14651:14658   */\n      0x00\n        /* \"#utility.yul\":14691:14709   */\n      0xffffffffffffffff\n        /* \"#utility.yul\":14684:14689   */\n      dup3\n        /* \"#utility.yul\":14680:14710   */\n      and\n        /* \"#utility.yul\":14669:14710   */\n      swap1\n      pop\n        /* \"#utility.yul\":14615:14716   */\n      swap2\n      swap1\n      pop\n      jump\t// out\n        /* \"#utility.yul\":14722:14878   */\n    tag_277:\n        /* \"#utility.yul\":14779:14788   */\n      0x00\n        /* \"#utility.yul\":14812:14872   */\n      tag_460\n        /* \"#utility.yul\":14829:14871   */\n      tag_461\n        /* \"#utility.yul\":14838:14870   */\n      tag_462\n        /* \"#utility.yul\":14864:14869   */\n      dup5\n        /* \"#utility.yul\":14838:14870   */\n      tag_275\n      jump\t// in\n    tag_462:\n        /* \"#utility.yul\":14829:14871   */\n      tag_263\n      jump\t// in\n    tag_461:\n        /* \"#utility.yul\":14812:14872   */\n      tag_276\n      jump\t// in\n    tag_460:\n        /* \"#utility.yul\":14799:14872   */\n      swap1\n      pop\n        /* \"#utility.yul\":14722:14878   */\n      swap2\n      swap1\n      pop\n      jump\t// out\n        /* \"#utility.yul\":14884:15029   */\n    tag_278:\n        /* \"#utility.yul\":14978:15022   */\n      tag_464\n        /* \"#utility.yul\":15016:15021   */\n      dup2\n        /* \"#utility.yul\":14978:15022   */\n      tag_277\n      jump\t// in\n    tag_464:\n        /* \"#utility.yul\":14973:14976   */\n      dup3\n        /* \"#utility.yul\":14966:15023   */\n      mstore\n        /* \"#utility.yul\":14884:15029   */\n      pop\n      pop\n      jump\t// out\n        /* \"#utility.yul\":15035:15271   */\n    tag_120:\n        /* \"#utility.yul\":15135:15139   */\n      0x00\n        /* \"#utility.yul\":15173:15175   */\n      0x20\n        /* \"#utility.yul\":15162:15171   */\n      dup3\n        /* \"#utility.yul\":15158:15176   */\n      add\n        /* \"#utility.yul\":15150:15176   */\n      swap1\n      pop\n        /* \"#utility.yul\":15186:15264   */\n      tag_466\n        /* \"#utility.yul\":15261:15262   */\n      0x00\n        /* \"#utility.yul\":15250:15259   */\n      dup4\n        /* \"#utility.yul\":15246:15263   */\n      add\n        /* \"#utility.yul\":15237:15243   */\n      dup5\n        /* \"#utility.yul\":15186:15264   */\n      tag_278\n      jump\t// in\n    tag_466:\n        /* \"#utility.yul\":15035:15271   */\n      swap3\n      swap2\n      pop\n      pop\n      jump\t// out\n        /* \"#utility.yul\":15277:15399   */\n    tag_279:\n        /* \"#utility.yul\":15350:15374   */\n      tag_468\n        /* \"#utility.yul\":15368:15373   */\n      dup2\n        /* \"#utility.yul\":15350:15374   */\n      tag_255\n      jump\t// in\n    tag_468:\n        /* \"#utility.yul\":15343:15348   */\n      dup2\n        /* \"#utility.yul\":15340:15375   */\n      eq\n        /* \"#utility.yul\":15330:15393   */\n      tag_469\n      jumpi\n        /* \"#utility.yul\":15389:15390   */\n      0x00\n        /* \"#utility.yul\":15386:15387   */\n      dup1\n        /* \"#utility.yul\":15379:15391   */\n      revert\n        /* \"#utility.yul\":15330:15393   */\n    tag_469:\n        /* \"#utility.yul\":15277:15399   */\n      pop\n      jump\t// out\n        /* \"#utility.yul\":15405:15548   */\n    tag_280:\n        /* \"#utility.yul\":15462:15467   */\n      0x00\n        /* \"#utility.yul\":15493:15499   */\n      dup2\n        /* \"#utility.yul\":15487:15500   */\n      mload\n        /* \"#utility.yul\":15478:15500   */\n      swap1\n      pop\n        /* \"#utility.yul\":15509:15542   */\n      tag_471\n        /* \"#utility.yul\":15536:15541   */\n      dup2\n        /* \"#utility.yul\":15509:15542   */\n      tag_279\n      jump\t// in\n    tag_471:\n        /* \"#utility.yul\":15405:15548   */\n      swap3\n      swap2\n      pop\n      pop\n      jump\t// out\n        /* \"#utility.yul\":15554:15905   */\n    tag_143:\n        /* \"#utility.yul\":15624:15630   */\n      0x00\n        /* \"#utility.yul\":15673:15675   */\n      0x20\n        /* \"#utility.yul\":15661:15670   */\n      dup3\n        /* \"#utility.yul\":15652:15659   */\n      dup5\n        /* \"#utility.yul\":15648:15671   */\n      sub\n        /* \"#utility.yul\":15644:15676   */\n      slt\n        /* \"#utility.yul\":15641:15760   */\n      iszero\n      tag_473\n      jumpi\n        /* \"#utility.yul\":15679:15758   */\n      tag_474\n      tag_233\n      jump\t// in\n    tag_474:\n        /* \"#utility.yul\":15641:15760   */\n    tag_473:\n        /* \"#utility.yul\":15799:15800   */\n      0x00\n        /* \"#utility.yul\":15824:15888   */\n      tag_475\n        /* \"#utility.yul\":15880:15887   */\n      dup5\n        /* \"#utility.yul\":15871:15877   */\n      dup3\n        /* \"#utility.yul\":15860:15869   */\n      dup6\n        /* \"#utility.yul\":15856:15878   */\n      add\n        /* \"#utility.yul\":15824:15888   */\n      tag_280\n      jump\t// in\n    tag_475:\n        /* \"#utility.yul\":15814:15888   */\n      swap2\n      pop\n        /* \"#utility.yul\":15770:15898   */\n      pop\n        /* \"#utility.yul\":15554:15905   */\n      swap3\n      swap2\n      pop\n      pop\n      jump\t// out\n        /* \"#utility.yul\":15911:16009   */\n    tag_281:\n        /* \"#utility.yul\":15962:15968   */\n      0x00\n        /* \"#utility.yul\":15996:16001   */\n      dup2\n        /* \"#utility.yul\":15990:16002   */\n      mload\n        /* \"#utility.yul\":15980:16002   */\n      swap1\n      pop\n        /* \"#utility.yul\":15911:16009   */\n      swap2\n      swap1\n      pop\n      jump\t// out\n        /* \"#utility.yul\":16015:16162   */\n    tag_282:\n        /* \"#utility.yul\":16116:16127   */\n      0x00\n        /* \"#utility.yul\":16153:16156   */\n      dup2\n        /* \"#utility.yul\":16138:16156   */\n      swap1\n      pop\n        /* \"#utility.yul\":16015:16162   */\n      swap3\n      swap2\n      pop\n      pop\n      jump\t// out\n        /* \"#utility.yul\":16168:16554   */\n    tag_283:\n        /* \"#utility.yul\":16272:16275   */\n      0x00\n        /* \"#utility.yul\":16300:16338   */\n      tag_479\n        /* \"#utility.yul\":16332:16337   */\n      dup3\n        /* \"#utility.yul\":16300:16338   */\n      tag_281\n      jump\t// in\n    tag_479:\n        /* \"#utility.yul\":16354:16442   */\n      tag_480\n        /* \"#utility.yul\":16435:16441   */\n      dup2\n        /* \"#utility.yul\":16430:16433   */\n      dup6\n        /* \"#utility.yul\":16354:16442   */\n      tag_282\n      jump\t// in\n    tag_480:\n        /* \"#utility.yul\":16347:16442   */\n      swap4\n      pop\n        /* \"#utility.yul\":16451:16516   */\n      tag_481\n        /* \"#utility.yul\":16509:16515   */\n      dup2\n        /* \"#utility.yul\":16504:16507   */\n      dup6\n        /* \"#utility.yul\":16497:16501   */\n      0x20\n        /* \"#utility.yul\":16490:16495   */\n      dup7\n        /* \"#utility.yul\":16486:16502   */\n      add\n        /* \"#utility.yul\":16451:16516   */\n      tag_229\n      jump\t// in\n    tag_481:\n        /* \"#utility.yul\":16541:16547   */\n      dup1\n        /* \"#utility.yul\":16536:16539   */\n      dup5\n        /* \"#utility.yul\":16532:16548   */\n      add\n        /* \"#utility.yul\":16525:16548   */\n      swap2\n      pop\n        /* \"#utility.yul\":16276:16554   */\n      pop\n        /* \"#utility.yul\":16168:16554   */\n      swap3\n      swap2\n      pop\n      pop\n      jump\t// out\n        /* \"#utility.yul\":16560:16831   */\n    tag_206:\n        /* \"#utility.yul\":16690:16693   */\n      0x00\n        /* \"#utility.yul\":16712:16805   */\n      tag_483\n        /* \"#utility.yul\":16801:16804   */\n      dup3\n        /* \"#utility.yul\":16792:16798   */\n      dup5\n        /* \"#utility.yul\":16712:16805   */\n      tag_283\n      jump\t// in\n    tag_483:\n        /* \"#utility.yul\":16705:16805   */\n      swap2\n      pop\n        /* \"#utility.yul\":16822:16825   */\n      dup2\n        /* \"#utility.yul\":16815:16825   */\n      swap1\n      pop\n        /* \"#utility.yul\":16560:16831   */\n      swap3\n      swap2\n      pop\n      pop\n      jump\t// out\n\n    auxdata: 0xa264697066735822122026271e23f1ca983233a2fff8fed661c1c27db096c5bb983283f598360a705ae164736f6c63430008160033\n}\n",
				"bytecode": {
					"linkReferences": {},
					"object": "60a06040523073ffffffffffffffffffffffffffffffffffffffff1660809073ffffffffffffffffffffffffffffffffffffffff16815250348015610042575f80fd5b506080516118646100695f395f81816106cd0152818161072201526108dc01526118645ff3fe60806040526004361061009b575f3560e01c8063715018a611610063578063715018a6146101885780638129fc1c1461019e5780638381f58a146101b45780638da5cb5b146101de578063ad3cb1cc14610208578063f2fde38b146102325761009b565b806306fdde031461009f57806311456b47146100c95780631db05a88146101055780634f1ef2861461014257806352d1902d1461015e575b5f80fd5b3480156100aa575f80fd5b506100b361025a565b6040516100c09190610fbc565b60405180910390f35b3480156100d4575f80fd5b506100ef60048036038101906100ea9190611119565b6102e6565b6040516100fc9190610fbc565b60405180910390f35b348015610110575f80fd5b5061012b60048036038101906101269190611193565b610388565b6040516101399291906111cd565b60405180910390f35b61015c600480360381019061015791906112ec565b6103c0565b005b348015610169575f80fd5b506101726103df565b60405161017f919061135e565b60405180910390f35b348015610193575f80fd5b5061019c610410565b005b3480156101a9575f80fd5b506101b2610423565b005b3480156101bf575f80fd5b506101c86105b3565b6040516101d59190611377565b60405180910390f35b3480156101e9575f80fd5b506101f26105b9565b6040516101ff919061139f565b60405180910390f35b348015610213575f80fd5b5061021c6105ee565b6040516102299190610fbc565b60405180910390f35b34801561023d575f80fd5b50610258600480360381019061025391906113b8565b610627565b005b6002805461026790611410565b80601f016020809104026020016040519081016040528092919081815260200182805461029390611410565b80156102de5780601f106102b5576101008083540402835291602001916102de565b820191905f5260205f20905b8154815290600101906020018083116102c157829003601f168201915b505050505081565b606081600290816102f791906115dd565b506002805461030590611410565b80601f016020809104026020016040519081016040528092919081815260200182805461033190611410565b801561037c5780601f106103535761010080835404028352916020019161037c565b820191905f5260205f20905b81548152906001019060200180831161035f57829003601f168201915b50505050509050919050565b5f80600a8361039791906116d9565b6001819055506103a65f6106ab565b5f6103b05f6106bf565b9050600154819250925050915091565b6103c86106cb565b6103d1826107b1565b6103db82826107bc565b5050565b5f6103e86108da565b7f360894a13ba1a3210667c828492db98dca3e2076cc3735a920a3ca505d382bbc5f1b905090565b610418610961565b6104215f6109e8565b565b5f61042c610ab9565b90505f815f0160089054906101000a900460ff161590505f825f015f9054906101000a900467ffffffffffffffff1690505f808267ffffffffffffffff161480156104745750825b90505f60018367ffffffffffffffff161480156104a757505f3073ffffffffffffffffffffffffffffffffffffffff163b145b9050811580156104b5575080155b156104ec576040517ff92ee8a900000000000000000000000000000000000000000000000000000000815260040160405180910390fd5b6001855f015f6101000a81548167ffffffffffffffff021916908367ffffffffffffffff1602179055508315610539576001855f0160086101000a81548160ff0219169083151502179055505b61054233610ae0565b61054a610af4565b600a60018190555083156105ac575f855f0160086101000a81548160ff0219169083151502179055507fc7f505b2f371ae2175ee4913f4499e1f2633a7b5936321eed1cdaeb6115181d260016040516105a39190611766565b60405180910390a15b5050505050565b60015481565b5f806105c3610afe565b9050805f015f9054906101000a900473ffffffffffffffffffffffffffffffffffffffff1691505090565b6040518060400160405280600581526020017f352e302e3000000000000000000000000000000000000000000000000000000081525081565b61062f610961565b5f73ffffffffffffffffffffffffffffffffffffffff168173ffffffffffffffffffffffffffffffffffffffff160361069f575f6040517f1e4fbdf7000000000000000000000000000000000000000000000000000000008152600401610696919061139f565b60405180910390fd5b6106a8816109e8565b50565b6001815f015f828254019250508190555050565b5f815f01549050919050565b7f000000000000000000000000000000000000000000000000000000000000000073ffffffffffffffffffffffffffffffffffffffff163073ffffffffffffffffffffffffffffffffffffffff16148061077857507f000000000000000000000000000000000000000000000000000000000000000073ffffffffffffffffffffffffffffffffffffffff1661075f610b25565b73ffffffffffffffffffffffffffffffffffffffff1614155b156107af576040517fe07c8dba00000000000000000000000000000000000000000000000000000000815260040160405180910390fd5b565b6107b9610961565b50565b8173ffffffffffffffffffffffffffffffffffffffff166352d1902d6040518163ffffffff1660e01b8152600401602060405180830381865afa92505050801561082457506040513d601f19601f8201168201806040525081019061082191906117a9565b60015b61086557816040517f4c9c8ce300000000000000000000000000000000000000000000000000000000815260040161085c919061139f565b60405180910390fd5b7f360894a13ba1a3210667c828492db98dca3e2076cc3735a920a3ca505d382bbc5f1b81146108cb57806040517faa1d49a40000000000000000000000000000000000000000000000000000000081526004016108c2919061135e565b60405180910390fd5b6108d58383610b78565b505050565b7f000000000000000000000000000000000000000000000000000000000000000073ffffffffffffffffffffffffffffffffffffffff163073ffffffffffffffffffffffffffffffffffffffff161461095f576040517fe07c8dba00000000000000000000000000000000000000000000000000000000815260040160405180910390fd5b565b610969610bea565b73ffffffffffffffffffffffffffffffffffffffff166109876105b9565b73ffffffffffffffffffffffffffffffffffffffff16146109e6576109aa610bea565b6040517f118cdaa70000000000000000000000000000000000000000000000000000000081526004016109dd919061139f565b60405180910390fd5b565b5f6109f1610afe565b90505f815f015f9054906101000a900473ffffffffffffffffffffffffffffffffffffffff16905082825f015f6101000a81548173ffffffffffffffffffffffffffffffffffffffff021916908373ffffffffffffffffffffffffffffffffffffffff1602179055508273ffffffffffffffffffffffffffffffffffffffff168173ffffffffffffffffffffffffffffffffffffffff167f8be0079c531659141344cd1fd0a4f28419497f9722a3daafe3b4186f6b6457e060405160405180910390a3505050565b5f7ff0c57e16840df040f15088dc2f81fe391c3923bec73e23a9662efc9c229c6a00905090565b610ae8610bf1565b610af181610c31565b50565b610afc610bf1565b565b5f7f9016d09d72d40fdae2fd8ceac6b6234c7706214fd39c1cd1e609a0528c199300905090565b5f610b517f360894a13ba1a3210667c828492db98dca3e2076cc3735a920a3ca505d382bbc5f1b610cb5565b5f015f9054906101000a900473ffffffffffffffffffffffffffffffffffffffff16905090565b610b8182610cbe565b8173ffffffffffffffffffffffffffffffffffffffff167fbc7cd75a20ee27fd9adebab32041f755214dbc6bffa90cc0225b39da2e5c2d3b60405160405180910390a25f81511115610bdd57610bd78282610d87565b50610be6565b610be5610e07565b5b5050565b5f33905090565b610bf9610e43565b610c2f576040517fd7e6bcf800000000000000000000000000000000000000000000000000000000815260040160405180910390fd5b565b610c39610bf1565b5f73ffffffffffffffffffffffffffffffffffffffff168173ffffffffffffffffffffffffffffffffffffffff1603610ca9575f6040517f1e4fbdf7000000000000000000000000000000000000000000000000000000008152600401610ca0919061139f565b60405180910390fd5b610cb2816109e8565b50565b5f819050919050565b5f8173ffffffffffffffffffffffffffffffffffffffff163b03610d1957806040517f4c9c8ce3000000000000000000000000000000000000000000000000000000008152600401610d10919061139f565b60405180910390fd5b80610d457f360894a13ba1a3210667c828492db98dca3e2076cc3735a920a3ca505d382bbc5f1b610cb5565b5f015f6101000a81548173ffffffffffffffffffffffffffffffffffffffff021916908373ffffffffffffffffffffffffffffffffffffffff16021790555050565b60605f808473ffffffffffffffffffffffffffffffffffffffff1684604051610db09190611818565b5f60405180830381855af49150503d805f8114610de8576040519150601f19603f3d011682016040523d82523d5f602084013e610ded565b606091505b5091509150610dfd858383610e61565b9250505092915050565b5f341115610e41576040517fb398979f00000000000000000000000000000000000000000000000000000000815260040160405180910390fd5b565b5f610e4c610ab9565b5f0160089054906101000a900460ff16905090565b606082610e7657610e7182610eee565b610ee6565b5f8251148015610e9c57505f8473ffffffffffffffffffffffffffffffffffffffff163b145b15610ede57836040517f9996b315000000000000000000000000000000000000000000000000000000008152600401610ed5919061139f565b60405180910390fd5b819050610ee7565b5b9392505050565b5f81511115610f005780518082602001fd5b6040517f1425ea4200000000000000000000000000000000000000000000000000000000815260040160405180910390fd5b5f81519050919050565b5f82825260208201905092915050565b5f5b83811015610f69578082015181840152602081019050610f4e565b5f8484015250505050565b5f601f19601f8301169050919050565b5f610f8e82610f32565b610f988185610f3c565b9350610fa8818560208601610f4c565b610fb181610f74565b840191505092915050565b5f6020820190508181035f830152610fd48184610f84565b905092915050565b5f604051905090565b5f80fd5b5f80fd5b5f80fd5b5f80fd5b7f4e487b71000000000000000000000000000000000000000000000000000000005f52604160045260245ffd5b61102b82610f74565b810181811067ffffffffffffffff8211171561104a57611049610ff5565b5b80604052505050565b5f61105c610fdc565b90506110688282611022565b919050565b5f67ffffffffffffffff82111561108757611086610ff5565b5b61109082610f74565b9050602081019050919050565b828183375f83830152505050565b5f6110bd6110b88461106d565b611053565b9050828152602081018484840111156110d9576110d8610ff1565b5b6110e484828561109d565b509392505050565b5f82601f830112611100576110ff610fed565b5b81356111108482602086016110ab565b91505092915050565b5f6020828403121561112e5761112d610fe5565b5b5f82013567ffffffffffffffff81111561114b5761114a610fe9565b5b611157848285016110ec565b91505092915050565b5f819050919050565b61117281611160565b811461117c575f80fd5b50565b5f8135905061118d81611169565b92915050565b5f602082840312156111a8576111a7610fe5565b5b5f6111b58482850161117f565b91505092915050565b6111c781611160565b82525050565b5f6040820190506111e05f8301856111be565b6111ed60208301846111be565b9392505050565b5f73ffffffffffffffffffffffffffffffffffffffff82169050919050565b5f61121d826111f4565b9050919050565b61122d81611213565b8114611237575f80fd5b50565b5f8135905061124881611224565b92915050565b5f67ffffffffffffffff82111561126857611267610ff5565b5b61127182610f74565b9050602081019050919050565b5f61129061128b8461124e565b611053565b9050828152602081018484840111156112ac576112ab610ff1565b5b6112b784828561109d565b509392505050565b5f82601f8301126112d3576112d2610fed565b5b81356112e384826020860161127e565b91505092915050565b5f806040838503121561130257611301610fe5565b5b5f61130f8582860161123a565b925050602083013567ffffffffffffffff8111156113305761132f610fe9565b5b61133c858286016112bf565b9150509250929050565b5f819050919050565b61135881611346565b82525050565b5f6020820190506113715f83018461134f565b92915050565b5f60208201905061138a5f8301846111be565b92915050565b61139981611213565b82525050565b5f6020820190506113b25f830184611390565b92915050565b5f602082840312156113cd576113cc610fe5565b5b5f6113da8482850161123a565b91505092915050565b7f4e487b71000000000000000000000000000000000000000000000000000000005f52602260045260245ffd5b5f600282049050600182168061142757607f821691505b60208210810361143a576114396113e3565b5b50919050565b5f819050815f5260205f209050919050565b5f6020601f8301049050919050565b5f82821b905092915050565b5f6008830261149c7fffffffffffffffffffffffffffffffffffffffffffffffffffffffffffffffff82611461565b6114a68683611461565b95508019841693508086168417925050509392505050565b5f819050919050565b5f6114e16114dc6114d784611160565b6114be565b611160565b9050919050565b5f819050919050565b6114fa836114c7565b61150e611506826114e8565b84845461146d565b825550505050565b5f90565b611522611516565b61152d8184846114f1565b505050565b5b81811015611550576115455f8261151a565b600181019050611533565b5050565b601f8211156115955761156681611440565b61156f84611452565b8101602085101561157e578190505b61159261158a85611452565b830182611532565b50505b505050565b5f82821c905092915050565b5f6115b55f198460080261159a565b1980831691505092915050565b5f6115cd83836115a6565b9150826002028217905092915050565b6115e682610f32565b67ffffffffffffffff8111156115ff576115fe610ff5565b5b6116098254611410565b611614828285611554565b5f60209050601f831160018114611645575f8415611633578287015190505b61163d85826115c2565b8655506116a4565b601f19841661165386611440565b5f5b8281101561167a57848901518255600182019150602085019450602081019050611655565b868310156116975784890151611693601f8916826115a6565b8355505b6001600288020188555050505b505050505050565b7f4e487b71000000000000000000000000000000000000000000000000000000005f52601160045260245ffd5b5f6116e382611160565b91506116ee83611160565b92508282026116fc81611160565b91508282048414831517611713576117126116ac565b5b5092915050565b5f819050919050565b5f67ffffffffffffffff82169050919050565b5f61175061174b6117468461171a565b6114be565b611723565b9050919050565b61176081611736565b82525050565b5f6020820190506117795f830184611757565b92915050565b61178881611346565b8114611792575f80fd5b50565b5f815190506117a38161177f565b92915050565b5f602082840312156117be576117bd610fe5565b5b5f6117cb84828501611795565b91505092915050565b5f81519050919050565b5f81905092915050565b5f6117f2826117d4565b6117fc81856117de565b935061180c818560208601610f4c565b80840191505092915050565b5f61182382846117e8565b91508190509291505056fea264697066735822122026271e23f1ca983233a2fff8fed661c1c27db096c5bb983283f598360a705ae164736f6c63430008160033",
					"opcodes": "PUSH1 0xA0 PUSH1 0x40 MSTORE ADDRESS PUSH20 0xFFFFFFFFFFFFFFFFFFFFFFFFFFFFFFFFFFFFFFFF AND PUSH1 0x80 SWAP1 PUSH20 0xFFFFFFFFFFFFFFFFFFFFFFFFFFFFFFFFFFFFFFFF AND DUP2 MSTORE POP CALLVALUE DUP1 ISZERO PUSH2 0x42 JUMPI PUSH0 DUP1 REVERT JUMPDEST POP PUSH1 0x80 MLOAD PUSH2 0x1864 PUSH2 0x69 PUSH0 CODECOPY PUSH0 DUP2 DUP2 PUSH2 0x6CD ADD MSTORE DUP2 DUP2 PUSH2 0x722 ADD MSTORE PUSH2 0x8DC ADD MSTORE PUSH2 0x1864 PUSH0 RETURN INVALID PUSH1 0x80 PUSH1 0x40 MSTORE PUSH1 0x4 CALLDATASIZE LT PUSH2 0x9B JUMPI PUSH0 CALLDATALOAD PUSH1 0xE0 SHR DUP1 PUSH4 0x715018A6 GT PUSH2 0x63 JUMPI DUP1 PUSH4 0x715018A6 EQ PUSH2 0x188 JUMPI DUP1 PUSH4 0x8129FC1C EQ PUSH2 0x19E JUMPI DUP1 PUSH4 0x8381F58A EQ PUSH2 0x1B4 JUMPI DUP1 PUSH4 0x8DA5CB5B EQ PUSH2 0x1DE JUMPI DUP1 PUSH4 0xAD3CB1CC EQ PUSH2 0x208 JUMPI DUP1 PUSH4 0xF2FDE38B EQ PUSH2 0x232 JUMPI PUSH2 0x9B JUMP JUMPDEST DUP1 PUSH4 0x6FDDE03 EQ PUSH2 0x9F JUMPI DUP1 PUSH4 0x11456B47 EQ PUSH2 0xC9 JUMPI DUP1 PUSH4 0x1DB05A88 EQ PUSH2 0x105 JUMPI DUP1 PUSH4 0x4F1EF286 EQ PUSH2 0x142 JUMPI DUP1 PUSH4 0x52D1902D EQ PUSH2 0x15E JUMPI JUMPDEST PUSH0 DUP1 REVERT JUMPDEST CALLVALUE DUP1 ISZERO PUSH2 0xAA JUMPI PUSH0 DUP1 REVERT JUMPDEST POP PUSH2 0xB3 PUSH2 0x25A JUMP JUMPDEST PUSH1 0x40 MLOAD PUSH2 0xC0 SWAP2 SWAP1 PUSH2 0xFBC JUMP JUMPDEST PUSH1 0x40 MLOAD DUP1 SWAP2 SUB SWAP1 RETURN JUMPDEST CALLVALUE DUP1 ISZERO PUSH2 0xD4 JUMPI PUSH0 DUP1 REVERT JUMPDEST POP PUSH2 0xEF PUSH1 0x4 DUP1 CALLDATASIZE SUB DUP2 ADD SWAP1 PUSH2 0xEA SWAP2 SWAP1 PUSH2 0x1119 JUMP JUMPDEST PUSH2 0x2E6 JUMP JUMPDEST PUSH1 0x40 MLOAD PUSH2 0xFC SWAP2 SWAP1 PUSH2 0xFBC JUMP JUMPDEST PUSH1 0x40 MLOAD DUP1 SWAP2 SUB SWAP1 RETURN JUMPDEST CALLVALUE DUP1 ISZERO PUSH2 0x110 JUMPI PUSH0 DUP1 REVERT JUMPDEST POP PUSH2 0x12B PUSH1 0x4 DUP1 CALLDATASIZE SUB DUP2 ADD SWAP1 PUSH2 0x126 SWAP2 SWAP1 PUSH2 0x1193 JUMP JUMPDEST PUSH2 0x388 JUMP JUMPDEST PUSH1 0x40 MLOAD PUSH2 0x139 SWAP3 SWAP2 SWAP1 PUSH2 0x11CD JUMP JUMPDEST PUSH1 0x40 MLOAD DUP1 SWAP2 SUB SWAP1 RETURN JUMPDEST PUSH2 0x15C PUSH1 0x4 DUP1 CALLDATASIZE SUB DUP2 ADD SWAP1 PUSH2 0x157 SWAP2 SWAP1 PUSH2 0x12EC JUMP JUMPDEST PUSH2 0x3C0 JUMP JUMPDEST STOP JUMPDEST CALLVALUE DUP1 ISZERO PUSH2 0x169 JUMPI PUSH0 DUP1 REVERT JUMPDEST POP PUSH2 0x172 PUSH2 0x3DF JUMP JUMPDEST PUSH1 0x40 MLOAD PUSH2 0x17F SWAP2 SWAP1 PUSH2 0x135E JUMP JUMPDEST PUSH1 0x40 MLOAD DUP1 SWAP2 SUB SWAP1 RETURN JUMPDEST CALLVALUE DUP1 ISZERO PUSH2 0x193 JUMPI PUSH0 DUP1 REVERT JUMPDEST POP PUSH2 0x19C PUSH2 0x410 JUMP JUMPDEST STOP JUMPDEST CALLVALUE DUP1 ISZERO PUSH2 0x1A9 JUMPI PUSH0 DUP1 REVERT JUMPDEST POP PUSH2 0x1B2 PUSH2 0x423 JUMP JUMPDEST STOP JUMPDEST CALLVALUE DUP1 ISZERO PUSH2 0x1BF JUMPI PUSH0 DUP1 REVERT JUMPDEST POP PUSH2 0x1C8 PUSH2 0x5B3 JUMP JUMPDEST PUSH1 0x40 MLOAD PUSH2 0x1D5 SWAP2 SWAP1 PUSH2 0x1377 JUMP JUMPDEST PUSH1 0x40 MLOAD DUP1 SWAP2 SUB SWAP1 RETURN JUMPDEST CALLVALUE DUP1 ISZERO PUSH2 0x1E9 JUMPI PUSH0 DUP1 REVERT JUMPDEST POP PUSH2 0x1F2 PUSH2 0x5B9 JUMP JUMPDEST PUSH1 0x40 MLOAD PUSH2 0x1FF SWAP2 SWAP1 PUSH2 0x139F JUMP JUMPDEST PUSH1 0x40 MLOAD DUP1 SWAP2 SUB SWAP1 RETURN JUMPDEST CALLVALUE DUP1 ISZERO PUSH2 0x213 JUMPI PUSH0 DUP1 REVERT JUMPDEST POP PUSH2 0x21C PUSH2 0x5EE JUMP JUMPDEST PUSH1 0x40 MLOAD PUSH2 0x229 SWAP2 SWAP1 PUSH2 0xFBC JUMP JUMPDEST PUSH1 0x40 MLOAD DUP1 SWAP2 SUB SWAP1 RETURN JUMPDEST CALLVALUE DUP1 ISZERO PUSH2 0x23D JUMPI PUSH0 DUP1 REVERT JUMPDEST POP PUSH2 0x258 PUSH1 0x4 DUP1 CALLDATASIZE SUB DUP2 ADD SWAP1 PUSH2 0x253 SWAP2 SWAP1 PUSH2 0x13B8 JUMP JUMPDEST PUSH2 0x627 JUMP JUMPDEST STOP JUMPDEST PUSH1 0x2 DUP1 SLOAD PUSH2 0x267 SWAP1 PUSH2 0x1410 JUMP JUMPDEST DUP1 PUSH1 0x1F ADD PUSH1 0x20 DUP1 SWAP2 DIV MUL PUSH1 0x20 ADD PUSH1 0x40 MLOAD SWAP1 DUP2 ADD PUSH1 0x40 MSTORE DUP1 SWAP3 SWAP2 SWAP1 DUP2 DUP2 MSTORE PUSH1 0x20 ADD DUP3 DUP1 SLOAD PUSH2 0x293 SWAP1 PUSH2 0x1410 JUMP JUMPDEST DUP1 ISZERO PUSH2 0x2DE JUMPI DUP1 PUSH1 0x1F LT PUSH2 0x2B5 JUMPI PUSH2 0x100 DUP1 DUP4 SLOAD DIV MUL DUP4 MSTORE SWAP2 PUSH1 0x20 ADD SWAP2 PUSH2 0x2DE JUMP JUMPDEST DUP3 ADD SWAP2 SWAP1 PUSH0 MSTORE PUSH1 0x20 PUSH0 KECCAK256 SWAP1 JUMPDEST DUP2 SLOAD DUP2 MSTORE SWAP1 PUSH1 0x1 ADD SWAP1 PUSH1 0x20 ADD DUP1 DUP4 GT PUSH2 0x2C1 JUMPI DUP3 SWAP1 SUB PUSH1 0x1F AND DUP3 ADD SWAP2 JUMPDEST POP POP POP POP POP DUP2 JUMP JUMPDEST PUSH1 0x60 DUP2 PUSH1 0x2 SWAP1 DUP2 PUSH2 0x2F7 SWAP2 SWAP1 PUSH2 0x15DD JUMP JUMPDEST POP PUSH1 0x2 DUP1 SLOAD PUSH2 0x305 SWAP1 PUSH2 0x1410 JUMP JUMPDEST DUP1 PUSH1 0x1F ADD PUSH1 0x20 DUP1 SWAP2 DIV MUL PUSH1 0x20 ADD PUSH1 0x40 MLOAD SWAP1 DUP2 ADD PUSH1 0x40 MSTORE DUP1 SWAP3 SWAP2 SWAP1 DUP2 DUP2 MSTORE PUSH1 0x20 ADD DUP3 DUP1 SLOAD PUSH2 0x331 SWAP1 PUSH2 0x1410 JUMP JUMPDEST DUP1 ISZERO PUSH2 0x37C JUMPI DUP1 PUSH1 0x1F LT PUSH2 0x353 JUMPI PUSH2 0x100 DUP1 DUP4 SLOAD DIV MUL DUP4 MSTORE SWAP2 PUSH1 0x20 ADD SWAP2 PUSH2 0x37C JUMP JUMPDEST DUP3 ADD SWAP2 SWAP1 PUSH0 MSTORE PUSH1 0x20 PUSH0 KECCAK256 SWAP1 JUMPDEST DUP2 SLOAD DUP2 MSTORE SWAP1 PUSH1 0x1 ADD SWAP1 PUSH1 0x20 ADD DUP1 DUP4 GT PUSH2 0x35F JUMPI DUP3 SWAP1 SUB PUSH1 0x1F AND DUP3 ADD SWAP2 JUMPDEST POP POP POP POP POP SWAP1 POP SWAP2 SWAP1 POP JUMP JUMPDEST PUSH0 DUP1 PUSH1 0xA DUP4 PUSH2 0x397 SWAP2 SWAP1 PUSH2 0x16D9 JUMP JUMPDEST PUSH1 0x1 DUP2 SWAP1 SSTORE POP PUSH2 0x3A6 PUSH0 PUSH2 0x6AB JUMP JUMPDEST PUSH0 PUSH2 0x3B0 PUSH0 PUSH2 0x6BF JUMP JUMPDEST SWAP1 POP PUSH1 0x1 SLOAD DUP2 SWAP3 POP SWAP3 POP POP SWAP2 POP SWAP2 JUMP JUMPDEST PUSH2 0x3C8 PUSH2 0x6CB JUMP JUMPDEST PUSH2 0x3D1 DUP3 PUSH2 0x7B1 JUMP JUMPDEST PUSH2 0x3DB DUP3 DUP3 PUSH2 0x7BC JUMP JUMPDEST POP POP JUMP JUMPDEST PUSH0 PUSH2 0x3E8 PUSH2 0x8DA JUMP JUMPDEST PUSH32 0x360894A13BA1A3210667C828492DB98DCA3E2076CC3735A920A3CA505D382BBC PUSH0 SHL SWAP1 POP SWAP1 JUMP JUMPDEST PUSH2 0x418 PUSH2 0x961 JUMP JUMPDEST PUSH2 0x421 PUSH0 PUSH2 0x9E8 JUMP JUMPDEST JUMP JUMPDEST PUSH0 PUSH2 0x42C PUSH2 0xAB9 JUMP JUMPDEST SWAP1 POP PUSH0 DUP2 PUSH0 ADD PUSH1 0x8 SWAP1 SLOAD SWAP1 PUSH2 0x100 EXP SWAP1 DIV PUSH1 0xFF AND ISZERO SWAP1 POP PUSH0 DUP3 PUSH0 ADD PUSH0 SWAP1 SLOAD SWAP1 PUSH2 0x100 EXP SWAP1 DIV PUSH8 0xFFFFFFFFFFFFFFFF AND SWAP1 POP PUSH0 DUP1 DUP3 PUSH8 0xFFFFFFFFFFFFFFFF AND EQ DUP1 ISZERO PUSH2 0x474 JUMPI POP DUP3 JUMPDEST SWAP1 POP PUSH0 PUSH1 0x1 DUP4 PUSH8 0xFFFFFFFFFFFFFFFF AND EQ DUP1 ISZERO PUSH2 0x4A7 JUMPI POP PUSH0 ADDRESS PUSH20 0xFFFFFFFFFFFFFFFFFFFFFFFFFFFFFFFFFFFFFFFF AND EXTCODESIZE EQ JUMPDEST SWAP1 POP DUP2 ISZERO DUP1 ISZERO PUSH2 0x4B5 JUMPI POP DUP1 ISZERO JUMPDEST ISZERO PUSH2 0x4EC JUMPI PUSH1 0x40 MLOAD PUSH32 0xF92EE8A900000000000000000000000000000000000000000000000000000000 DUP2 MSTORE PUSH1 0x4 ADD PUSH1 0x40 MLOAD DUP1 SWAP2 SUB SWAP1 REVERT JUMPDEST PUSH1 0x1 DUP6 PUSH0 ADD PUSH0 PUSH2 0x100 EXP DUP2 SLOAD DUP2 PUSH8 0xFFFFFFFFFFFFFFFF MUL NOT AND SWAP1 DUP4 PUSH8 0xFFFFFFFFFFFFFFFF AND MUL OR SWAP1 SSTORE POP DUP4 ISZERO PUSH2 0x539 JUMPI PUSH1 0x1 DUP6 PUSH0 ADD PUSH1 0x8 PUSH2 0x100 EXP DUP2 SLOAD DUP2 PUSH1 0xFF MUL NOT AND SWAP1 DUP4 ISZERO ISZERO MUL OR SWAP1 SSTORE POP JUMPDEST PUSH2 0x542 CALLER PUSH2 0xAE0 JUMP JUMPDEST PUSH2 0x54A PUSH2 0xAF4 JUMP JUMPDEST PUSH1 0xA PUSH1 0x1 DUP2 SWAP1 SSTORE POP DUP4 ISZERO PUSH2 0x5AC JUMPI PUSH0 DUP6 PUSH0 ADD PUSH1 0x8 PUSH2 0x100 EXP DUP2 SLOAD DUP2 PUSH1 0xFF MUL NOT AND SWAP1 DUP4 ISZERO ISZERO MUL OR SWAP1 SSTORE POP PUSH32 0xC7F505B2F371AE2175EE4913F4499E1F2633A7B5936321EED1CDAEB6115181D2 PUSH1 0x1 PUSH1 0x40 MLOAD PUSH2 0x5A3 SWAP2 SWAP1 PUSH2 0x1766 JUMP JUMPDEST PUSH1 0x40 MLOAD DUP1 SWAP2 SUB SWAP1 LOG1 JUMPDEST POP POP POP POP POP JUMP JUMPDEST PUSH1 0x1 SLOAD DUP2 JUMP JUMPDEST PUSH0 DUP1 PUSH2 0x5C3 PUSH2 0xAFE JUMP JUMPDEST SWAP1 POP DUP1 PUSH0 ADD PUSH0 SWAP1 SLOAD SWAP1 PUSH2 0x100 EXP SWAP1 DIV PUSH20 0xFFFFFFFFFFFFFFFFFFFFFFFFFFFFFFFFFFFFFFFF AND SWAP2 POP POP SWAP1 JUMP JUMPDEST PUSH1 0x40 MLOAD DUP1 PUSH1 0x40 ADD PUSH1 0x40 MSTORE DUP1 PUSH1 0x5 DUP2 MSTORE PUSH1 0x20 ADD PUSH32 0x352E302E30000000000000000000000000000000000000000000000000000000 DUP2 MSTORE POP DUP2 JUMP JUMPDEST PUSH2 0x62F PUSH2 0x961 JUMP JUMPDEST PUSH0 PUSH20 0xFFFFFFFFFFFFFFFFFFFFFFFFFFFFFFFFFFFFFFFF AND DUP2 PUSH20 0xFFFFFFFFFFFFFFFFFFFFFFFFFFFFFFFFFFFFFFFF AND SUB PUSH2 0x69F JUMPI PUSH0 PUSH1 0x40 MLOAD PUSH32 0x1E4FBDF700000000000000000000000000000000000000000000000000000000 DUP2 MSTORE PUSH1 0x4 ADD PUSH2 0x696 SWAP2 SWAP1 PUSH2 0x139F JUMP JUMPDEST PUSH1 0x40 MLOAD DUP1 SWAP2 SUB SWAP1 REVERT JUMPDEST PUSH2 0x6A8 DUP2 PUSH2 0x9E8 JUMP JUMPDEST POP JUMP JUMPDEST PUSH1 0x1 DUP2 PUSH0 ADD PUSH0 DUP3 DUP3 SLOAD ADD SWAP3 POP POP DUP2 SWAP1 SSTORE POP POP JUMP JUMPDEST PUSH0 DUP2 PUSH0 ADD SLOAD SWAP1 POP SWAP2 SWAP1 POP JUMP JUMPDEST PUSH32 0x0 PUSH20 0xFFFFFFFFFFFFFFFFFFFFFFFFFFFFFFFFFFFFFFFF AND ADDRESS PUSH20 0xFFFFFFFFFFFFFFFFFFFFFFFFFFFFFFFFFFFFFFFF AND EQ DUP1 PUSH2 0x778 JUMPI POP PUSH32 0x0 PUSH20 0xFFFFFFFFFFFFFFFFFFFFFFFFFFFFFFFFFFFFFFFF AND PUSH2 0x75F PUSH2 0xB25 JUMP JUMPDEST PUSH20 0xFFFFFFFFFFFFFFFFFFFFFFFFFFFFFFFFFFFFFFFF AND EQ ISZERO JUMPDEST ISZERO PUSH2 0x7AF JUMPI PUSH1 0x40 MLOAD PUSH32 0xE07C8DBA00000000000000000000000000000000000000000000000000000000 DUP2 MSTORE PUSH1 0x4 ADD PUSH1 0x40 MLOAD DUP1 SWAP2 SUB SWAP1 REVERT JUMPDEST JUMP JUMPDEST PUSH2 0x7B9 PUSH2 0x961 JUMP JUMPDEST POP JUMP JUMPDEST DUP2 PUSH20 0xFFFFFFFFFFFFFFFFFFFFFFFFFFFFFFFFFFFFFFFF AND PUSH4 0x52D1902D PUSH1 0x40 MLOAD DUP2 PUSH4 0xFFFFFFFF AND PUSH1 0xE0 SHL DUP2 MSTORE PUSH1 0x4 ADD PUSH1 0x20 PUSH1 0x40 MLOAD DUP1 DUP4 SUB DUP2 DUP7 GAS STATICCALL SWAP3 POP POP POP DUP1 ISZERO PUSH2 0x824 JUMPI POP PUSH1 0x40 MLOAD RETURNDATASIZE PUSH1 0x1F NOT PUSH1 0x1F DUP3 ADD AND DUP3 ADD DUP1 PUSH1 0x40 MSTORE POP DUP2 ADD SWAP1 PUSH2 0x821 SWAP2 SWAP1 PUSH2 0x17A9 JUMP JUMPDEST PUSH1 0x1 JUMPDEST PUSH2 0x865 JUMPI DUP2 PUSH1 0x40 MLOAD PUSH32 0x4C9C8CE300000000000000000000000000000000000000000000000000000000 DUP2 MSTORE PUSH1 0x4 ADD PUSH2 0x85C SWAP2 SWAP1 PUSH2 0x139F JUMP JUMPDEST PUSH1 0x40 MLOAD DUP1 SWAP2 SUB SWAP1 REVERT JUMPDEST PUSH32 0x360894A13BA1A3210667C828492DB98DCA3E2076CC3735A920A3CA505D382BBC PUSH0 SHL DUP2 EQ PUSH2 0x8CB JUMPI DUP1 PUSH1 0x40 MLOAD PUSH32 0xAA1D49A400000000000000000000000000000000000000000000000000000000 DUP2 MSTORE PUSH1 0x4 ADD PUSH2 0x8C2 SWAP2 SWAP1 PUSH2 0x135E JUMP JUMPDEST PUSH1 0x40 MLOAD DUP1 SWAP2 SUB SWAP1 REVERT JUMPDEST PUSH2 0x8D5 DUP4 DUP4 PUSH2 0xB78 JUMP JUMPDEST POP POP POP JUMP JUMPDEST PUSH32 0x0 PUSH20 0xFFFFFFFFFFFFFFFFFFFFFFFFFFFFFFFFFFFFFFFF AND ADDRESS PUSH20 0xFFFFFFFFFFFFFFFFFFFFFFFFFFFFFFFFFFFFFFFF AND EQ PUSH2 0x95F JUMPI PUSH1 0x40 MLOAD PUSH32 0xE07C8DBA00000000000000000000000000000000000000000000000000000000 DUP2 MSTORE PUSH1 0x4 ADD PUSH1 0x40 MLOAD DUP1 SWAP2 SUB SWAP1 REVERT JUMPDEST JUMP JUMPDEST PUSH2 0x969 PUSH2 0xBEA JUMP JUMPDEST PUSH20 0xFFFFFFFFFFFFFFFFFFFFFFFFFFFFFFFFFFFFFFFF AND PUSH2 0x987 PUSH2 0x5B9 JUMP JUMPDEST PUSH20 0xFFFFFFFFFFFFFFFFFFFFFFFFFFFFFFFFFFFFFFFF AND EQ PUSH2 0x9E6 JUMPI PUSH2 0x9AA PUSH2 0xBEA JUMP JUMPDEST PUSH1 0x40 MLOAD PUSH32 0x118CDAA700000000000000000000000000000000000000000000000000000000 DUP2 MSTORE PUSH1 0x4 ADD PUSH2 0x9DD SWAP2 SWAP1 PUSH2 0x139F JUMP JUMPDEST PUSH1 0x40 MLOAD DUP1 SWAP2 SUB SWAP1 REVERT JUMPDEST JUMP JUMPDEST PUSH0 PUSH2 0x9F1 PUSH2 0xAFE JUMP JUMPDEST SWAP1 POP PUSH0 DUP2 PUSH0 ADD PUSH0 SWAP1 SLOAD SWAP1 PUSH2 0x100 EXP SWAP1 DIV PUSH20 0xFFFFFFFFFFFFFFFFFFFFFFFFFFFFFFFFFFFFFFFF AND SWAP1 POP DUP3 DUP3 PUSH0 ADD PUSH0 PUSH2 0x100 EXP DUP2 SLOAD DUP2 PUSH20 0xFFFFFFFFFFFFFFFFFFFFFFFFFFFFFFFFFFFFFFFF MUL NOT AND SWAP1 DUP4 PUSH20 0xFFFFFFFFFFFFFFFFFFFFFFFFFFFFFFFFFFFFFFFF AND MUL OR SWAP1 SSTORE POP DUP3 PUSH20 0xFFFFFFFFFFFFFFFFFFFFFFFFFFFFFFFFFFFFFFFF AND DUP2 PUSH20 0xFFFFFFFFFFFFFFFFFFFFFFFFFFFFFFFFFFFFFFFF AND PUSH32 0x8BE0079C531659141344CD1FD0A4F28419497F9722A3DAAFE3B4186F6B6457E0 PUSH1 0x40 MLOAD PUSH1 0x40 MLOAD DUP1 SWAP2 SUB SWAP1 LOG3 POP POP POP JUMP JUMPDEST PUSH0 PUSH32 0xF0C57E16840DF040F15088DC2F81FE391C3923BEC73E23A9662EFC9C229C6A00 SWAP1 POP SWAP1 JUMP JUMPDEST PUSH2 0xAE8 PUSH2 0xBF1 JUMP JUMPDEST PUSH2 0xAF1 DUP2 PUSH2 0xC31 JUMP JUMPDEST POP JUMP JUMPDEST PUSH2 0xAFC PUSH2 0xBF1 JUMP JUMPDEST JUMP JUMPDEST PUSH0 PUSH32 0x9016D09D72D40FDAE2FD8CEAC6B6234C7706214FD39C1CD1E609A0528C199300 SWAP1 POP SWAP1 JUMP JUMPDEST PUSH0 PUSH2 0xB51 PUSH32 0x360894A13BA1A3210667C828492DB98DCA3E2076CC3735A920A3CA505D382BBC PUSH0 SHL PUSH2 0xCB5 JUMP JUMPDEST PUSH0 ADD PUSH0 SWAP1 SLOAD SWAP1 PUSH2 0x100 EXP SWAP1 DIV PUSH20 0xFFFFFFFFFFFFFFFFFFFFFFFFFFFFFFFFFFFFFFFF AND SWAP1 POP SWAP1 JUMP JUMPDEST PUSH2 0xB81 DUP3 PUSH2 0xCBE JUMP JUMPDEST DUP2 PUSH20 0xFFFFFFFFFFFFFFFFFFFFFFFFFFFFFFFFFFFFFFFF AND PUSH32 0xBC7CD75A20EE27FD9ADEBAB32041F755214DBC6BFFA90CC0225B39DA2E5C2D3B PUSH1 0x40 MLOAD PUSH1 0x40 MLOAD DUP1 SWAP2 SUB SWAP1 LOG2 PUSH0 DUP2 MLOAD GT ISZERO PUSH2 0xBDD JUMPI PUSH2 0xBD7 DUP3 DUP3 PUSH2 0xD87 JUMP JUMPDEST POP PUSH2 0xBE6 JUMP JUMPDEST PUSH2 0xBE5 PUSH2 0xE07 JUMP JUMPDEST JUMPDEST POP POP JUMP JUMPDEST PUSH0 CALLER SWAP1 POP SWAP1 JUMP JUMPDEST PUSH2 0xBF9 PUSH2 0xE43 JUMP JUMPDEST PUSH2 0xC2F JUMPI PUSH1 0x40 MLOAD PUSH32 0xD7E6BCF800000000000000000000000000000000000000000000000000000000 DUP2 MSTORE PUSH1 0x4 ADD PUSH1 0x40 MLOAD DUP1 SWAP2 SUB SWAP1 REVERT JUMPDEST JUMP JUMPDEST PUSH2 0xC39 PUSH2 0xBF1 JUMP JUMPDEST PUSH0 PUSH20 0xFFFFFFFFFFFFFFFFFFFFFFFFFFFFFFFFFFFFFFFF AND DUP2 PUSH20 0xFFFFFFFFFFFFFFFFFFFFFFFFFFFFFFFFFFFFFFFF AND SUB PUSH2 0xCA9 JUMPI PUSH0 PUSH1 0x40 MLOAD PUSH32 0x1E4FBDF700000000000000000000000000000000000000000000000000000000 DUP2 MSTORE PUSH1 0x4 ADD PUSH2 0xCA0 SWAP2 SWAP1 PUSH2 0x139F JUMP JUMPDEST PUSH1 0x40 MLOAD DUP1 SWAP2 SUB SWAP1 REVERT JUMPDEST PUSH2 0xCB2 DUP2 PUSH2 0x9E8 JUMP JUMPDEST POP JUMP JUMPDEST PUSH0 DUP2 SWAP1 POP SWAP2 SWAP1 POP JUMP JUMPDEST PUSH0 DUP2 PUSH20 0xFFFFFFFFFFFFFFFFFFFFFFFFFFFFFFFFFFFFFFFF AND EXTCODESIZE SUB PUSH2 0xD19 JUMPI DUP1 PUSH1 0x40 MLOAD PUSH32 0x4C9C8CE300000000000000000000000000000000000000000000000000000000 DUP2 MSTORE PUSH1 0x4 ADD PUSH2 0xD10 SWAP2 SWAP1 PUSH2 0x139F JUMP JUMPDEST PUSH1 0x40 MLOAD DUP1 SWAP2 SUB SWAP1 REVERT JUMPDEST DUP1 PUSH2 0xD45 PUSH32 0x360894A13BA1A3210667C828492DB98DCA3E2076CC3735A920A3CA505D382BBC PUSH0 SHL PUSH2 0xCB5 JUMP JUMPDEST PUSH0 ADD PUSH0 PUSH2 0x100 EXP DUP2 SLOAD DUP2 PUSH20 0xFFFFFFFFFFFFFFFFFFFFFFFFFFFFFFFFFFFFFFFF MUL NOT AND SWAP1 DUP4 PUSH20 0xFFFFFFFFFFFFFFFFFFFFFFFFFFFFFFFFFFFFFFFF AND MUL OR SWAP1 SSTORE POP POP JUMP JUMPDEST PUSH1 0x60 PUSH0 DUP1 DUP5 PUSH20 0xFFFFFFFFFFFFFFFFFFFFFFFFFFFFFFFFFFFFFFFF AND DUP5 PUSH1 0x40 MLOAD PUSH2 0xDB0 SWAP2 SWAP1 PUSH2 0x1818 JUMP JUMPDEST PUSH0 PUSH1 0x40 MLOAD DUP1 DUP4 SUB DUP2 DUP6 GAS DELEGATECALL SWAP2 POP POP RETURNDATASIZE DUP1 PUSH0 DUP2 EQ PUSH2 0xDE8 JUMPI PUSH1 0x40 MLOAD SWAP2 POP PUSH1 0x1F NOT PUSH1 0x3F RETURNDATASIZE ADD AND DUP3 ADD PUSH1 0x40 MSTORE RETURNDATASIZE DUP3 MSTORE RETURNDATASIZE PUSH0 PUSH1 0x20 DUP5 ADD RETURNDATACOPY PUSH2 0xDED JUMP JUMPDEST PUSH1 0x60 SWAP2 POP JUMPDEST POP SWAP2 POP SWAP2 POP PUSH2 0xDFD DUP6 DUP4 DUP4 PUSH2 0xE61 JUMP JUMPDEST SWAP3 POP POP POP SWAP3 SWAP2 POP POP JUMP JUMPDEST PUSH0 CALLVALUE GT ISZERO PUSH2 0xE41 JUMPI PUSH1 0x40 MLOAD PUSH32 0xB398979F00000000000000000000000000000000000000000000000000000000 DUP2 MSTORE PUSH1 0x4 ADD PUSH1 0x40 MLOAD DUP1 SWAP2 SUB SWAP1 REVERT JUMPDEST JUMP JUMPDEST PUSH0 PUSH2 0xE4C PUSH2 0xAB9 JUMP JUMPDEST PUSH0 ADD PUSH1 0x8 SWAP1 SLOAD SWAP1 PUSH2 0x100 EXP SWAP1 DIV PUSH1 0xFF AND SWAP1 POP SWAP1 JUMP JUMPDEST PUSH1 0x60 DUP3 PUSH2 0xE76 JUMPI PUSH2 0xE71 DUP3 PUSH2 0xEEE JUMP JUMPDEST PUSH2 0xEE6 JUMP JUMPDEST PUSH0 DUP3 MLOAD EQ DUP1 ISZERO PUSH2 0xE9C JUMPI POP PUSH0 DUP5 PUSH20 0xFFFFFFFFFFFFFFFFFFFFFFFFFFFFFFFFFFFFFFFF AND EXTCODESIZE EQ JUMPDEST ISZERO PUSH2 0xEDE JUMPI DUP4 PUSH1 0x40 MLOAD PUSH32 0x9996B31500000000000000000000000000000000000000000000000000000000 DUP2 MSTORE PUSH1 0x4 ADD PUSH2 0xED5 SWAP2 SWAP1 PUSH2 0x139F JUMP JUMPDEST PUSH1 0x40 MLOAD DUP1 SWAP2 SUB SWAP1 REVERT JUMPDEST DUP2 SWAP1 POP PUSH2 0xEE7 JUMP JUMPDEST JUMPDEST SWAP4 SWAP3 POP POP POP JUMP JUMPDEST PUSH0 DUP2 MLOAD GT ISZERO PUSH2 0xF00 JUMPI DUP1 MLOAD DUP1 DUP3 PUSH1 0x20 ADD REVERT JUMPDEST PUSH1 0x40 MLOAD PUSH32 0x1425EA4200000000000000000000000000000000000000000000000000000000 DUP2 MSTORE PUSH1 0x4 ADD PUSH1 0x40 MLOAD DUP1 SWAP2 SUB SWAP1 REVERT JUMPDEST PUSH0 DUP2 MLOAD SWAP1 POP SWAP2 SWAP1 POP JUMP JUMPDEST PUSH0 DUP3 DUP3 MSTORE PUSH1 0x20 DUP3 ADD SWAP1 POP SWAP3 SWAP2 POP POP JUMP JUMPDEST PUSH0 JUMPDEST DUP4 DUP2 LT ISZERO PUSH2 0xF69 JUMPI DUP1 DUP3 ADD MLOAD DUP2 DUP5 ADD MSTORE PUSH1 0x20 DUP2 ADD SWAP1 POP PUSH2 0xF4E JUMP JUMPDEST PUSH0 DUP5 DUP5 ADD MSTORE POP POP POP POP JUMP JUMPDEST PUSH0 PUSH1 0x1F NOT PUSH1 0x1F DUP4 ADD AND SWAP1 POP SWAP2 SWAP1 POP JUMP JUMPDEST PUSH0 PUSH2 0xF8E DUP3 PUSH2 0xF32 JUMP JUMPDEST PUSH2 0xF98 DUP2 DUP6 PUSH2 0xF3C JUMP JUMPDEST SWAP4 POP PUSH2 0xFA8 DUP2 DUP6 PUSH1 0x20 DUP7 ADD PUSH2 0xF4C JUMP JUMPDEST PUSH2 0xFB1 DUP2 PUSH2 0xF74 JUMP JUMPDEST DUP5 ADD SWAP2 POP POP SWAP3 SWAP2 POP POP JUMP JUMPDEST PUSH0 PUSH1 0x20 DUP3 ADD SWAP1 POP DUP2 DUP2 SUB PUSH0 DUP4 ADD MSTORE PUSH2 0xFD4 DUP2 DUP5 PUSH2 0xF84 JUMP JUMPDEST SWAP1 POP SWAP3 SWAP2 POP POP JUMP JUMPDEST PUSH0 PUSH1 0x40 MLOAD SWAP1 POP SWAP1 JUMP JUMPDEST PUSH0 DUP1 REVERT JUMPDEST PUSH0 DUP1 REVERT JUMPDEST PUSH0 DUP1 REVERT JUMPDEST PUSH0 DUP1 REVERT JUMPDEST PUSH32 0x4E487B7100000000000000000000000000000000000000000000000000000000 PUSH0 MSTORE PUSH1 0x41 PUSH1 0x4 MSTORE PUSH1 0x24 PUSH0 REVERT JUMPDEST PUSH2 0x102B DUP3 PUSH2 0xF74 JUMP JUMPDEST DUP2 ADD DUP2 DUP2 LT PUSH8 0xFFFFFFFFFFFFFFFF DUP3 GT OR ISZERO PUSH2 0x104A JUMPI PUSH2 0x1049 PUSH2 0xFF5 JUMP JUMPDEST JUMPDEST DUP1 PUSH1 0x40 MSTORE POP POP POP JUMP JUMPDEST PUSH0 PUSH2 0x105C PUSH2 0xFDC JUMP JUMPDEST SWAP1 POP PUSH2 0x1068 DUP3 DUP3 PUSH2 0x1022 JUMP JUMPDEST SWAP2 SWAP1 POP JUMP JUMPDEST PUSH0 PUSH8 0xFFFFFFFFFFFFFFFF DUP3 GT ISZERO PUSH2 0x1087 JUMPI PUSH2 0x1086 PUSH2 0xFF5 JUMP JUMPDEST JUMPDEST PUSH2 0x1090 DUP3 PUSH2 0xF74 JUMP JUMPDEST SWAP1 POP PUSH1 0x20 DUP2 ADD SWAP1 POP SWAP2 SWAP1 POP JUMP JUMPDEST DUP3 DUP2 DUP4 CALLDATACOPY PUSH0 DUP4 DUP4 ADD MSTORE POP POP POP JUMP JUMPDEST PUSH0 PUSH2 0x10BD PUSH2 0x10B8 DUP5 PUSH2 0x106D JUMP JUMPDEST PUSH2 0x1053 JUMP JUMPDEST SWAP1 POP DUP3 DUP2 MSTORE PUSH1 0x20 DUP2 ADD DUP5 DUP5 DUP5 ADD GT ISZERO PUSH2 0x10D9 JUMPI PUSH2 0x10D8 PUSH2 0xFF1 JUMP JUMPDEST JUMPDEST PUSH2 0x10E4 DUP5 DUP3 DUP6 PUSH2 0x109D JUMP JUMPDEST POP SWAP4 SWAP3 POP POP POP JUMP JUMPDEST PUSH0 DUP3 PUSH1 0x1F DUP4 ADD SLT PUSH2 0x1100 JUMPI PUSH2 0x10FF PUSH2 0xFED JUMP JUMPDEST JUMPDEST DUP2 CALLDATALOAD PUSH2 0x1110 DUP5 DUP3 PUSH1 0x20 DUP7 ADD PUSH2 0x10AB JUMP JUMPDEST SWAP2 POP POP SWAP3 SWAP2 POP POP JUMP JUMPDEST PUSH0 PUSH1 0x20 DUP3 DUP5 SUB SLT ISZERO PUSH2 0x112E JUMPI PUSH2 0x112D PUSH2 0xFE5 JUMP JUMPDEST JUMPDEST PUSH0 DUP3 ADD CALLDATALOAD PUSH8 0xFFFFFFFFFFFFFFFF DUP2 GT ISZERO PUSH2 0x114B JUMPI PUSH2 0x114A PUSH2 0xFE9 JUMP JUMPDEST JUMPDEST PUSH2 0x1157 DUP5 DUP3 DUP6 ADD PUSH2 0x10EC JUMP JUMPDEST SWAP2 POP POP SWAP3 SWAP2 POP POP JUMP JUMPDEST PUSH0 DUP2 SWAP1 POP SWAP2 SWAP1 POP JUMP JUMPDEST PUSH2 0x1172 DUP2 PUSH2 0x1160 JUMP JUMPDEST DUP2 EQ PUSH2 0x117C JUMPI PUSH0 DUP1 REVERT JUMPDEST POP JUMP JUMPDEST PUSH0 DUP2 CALLDATALOAD SWAP1 POP PUSH2 0x118D DUP2 PUSH2 0x1169 JUMP JUMPDEST SWAP3 SWAP2 POP POP JUMP JUMPDEST PUSH0 PUSH1 0x20 DUP3 DUP5 SUB SLT ISZERO PUSH2 0x11A8 JUMPI PUSH2 0x11A7 PUSH2 0xFE5 JUMP JUMPDEST JUMPDEST PUSH0 PUSH2 0x11B5 DUP5 DUP3 DUP6 ADD PUSH2 0x117F JUMP JUMPDEST SWAP2 POP POP SWAP3 SWAP2 POP POP JUMP JUMPDEST PUSH2 0x11C7 DUP2 PUSH2 0x1160 JUMP JUMPDEST DUP3 MSTORE POP POP JUMP JUMPDEST PUSH0 PUSH1 0x40 DUP3 ADD SWAP1 POP PUSH2 0x11E0 PUSH0 DUP4 ADD DUP6 PUSH2 0x11BE JUMP JUMPDEST PUSH2 0x11ED PUSH1 0x20 DUP4 ADD DUP5 PUSH2 0x11BE JUMP JUMPDEST SWAP4 SWAP3 POP POP POP JUMP JUMPDEST PUSH0 PUSH20 0xFFFFFFFFFFFFFFFFFFFFFFFFFFFFFFFFFFFFFFFF DUP3 AND SWAP1 POP SWAP2 SWAP1 POP JUMP JUMPDEST PUSH0 PUSH2 0x121D DUP3 PUSH2 0x11F4 JUMP JUMPDEST SWAP1 POP SWAP2 SWAP1 POP JUMP JUMPDEST PUSH2 0x122D DUP2 PUSH2 0x1213 JUMP JUMPDEST DUP2 EQ PUSH2 0x1237 JUMPI PUSH0 DUP1 REVERT JUMPDEST POP JUMP JUMPDEST PUSH0 DUP2 CALLDATALOAD SWAP1 POP PUSH2 0x1248 DUP2 PUSH2 0x1224 JUMP JUMPDEST SWAP3 SWAP2 POP POP JUMP JUMPDEST PUSH0 PUSH8 0xFFFFFFFFFFFFFFFF DUP3 GT ISZERO PUSH2 0x1268 JUMPI PUSH2 0x1267 PUSH2 0xFF5 JUMP JUMPDEST JUMPDEST PUSH2 0x1271 DUP3 PUSH2 0xF74 JUMP JUMPDEST SWAP1 POP PUSH1 0x20 DUP2 ADD SWAP1 POP SWAP2 SWAP1 POP JUMP JUMPDEST PUSH0 PUSH2 0x1290 PUSH2 0x128B DUP5 PUSH2 0x124E JUMP JUMPDEST PUSH2 0x1053 JUMP JUMPDEST SWAP1 POP DUP3 DUP2 MSTORE PUSH1 0x20 DUP2 ADD DUP5 DUP5 DUP5 ADD GT ISZERO PUSH2 0x12AC JUMPI PUSH2 0x12AB PUSH2 0xFF1 JUMP JUMPDEST JUMPDEST PUSH2 0x12B7 DUP5 DUP3 DUP6 PUSH2 0x109D JUMP JUMPDEST POP SWAP4 SWAP3 POP POP POP JUMP JUMPDEST PUSH0 DUP3 PUSH1 0x1F DUP4 ADD SLT PUSH2 0x12D3 JUMPI PUSH2 0x12D2 PUSH2 0xFED JUMP JUMPDEST JUMPDEST DUP2 CALLDATALOAD PUSH2 0x12E3 DUP5 DUP3 PUSH1 0x20 DUP7 ADD PUSH2 0x127E JUMP JUMPDEST SWAP2 POP POP SWAP3 SWAP2 POP POP JUMP JUMPDEST PUSH0 DUP1 PUSH1 0x40 DUP4 DUP6 SUB SLT ISZERO PUSH2 0x1302 JUMPI PUSH2 0x1301 PUSH2 0xFE5 JUMP JUMPDEST JUMPDEST PUSH0 PUSH2 0x130F DUP6 DUP3 DUP7 ADD PUSH2 0x123A JUMP JUMPDEST SWAP3 POP POP PUSH1 0x20 DUP4 ADD CALLDATALOAD PUSH8 0xFFFFFFFFFFFFFFFF DUP2 GT ISZERO PUSH2 0x1330 JUMPI PUSH2 0x132F PUSH2 0xFE9 JUMP JUMPDEST JUMPDEST PUSH2 0x133C DUP6 DUP3 DUP7 ADD PUSH2 0x12BF JUMP JUMPDEST SWAP2 POP POP SWAP3 POP SWAP3 SWAP1 POP JUMP JUMPDEST PUSH0 DUP2 SWAP1 POP SWAP2 SWAP1 POP JUMP JUMPDEST PUSH2 0x1358 DUP2 PUSH2 0x1346 JUMP JUMPDEST DUP3 MSTORE POP POP JUMP JUMPDEST PUSH0 PUSH1 0x20 DUP3 ADD SWAP1 POP PUSH2 0x1371 PUSH0 DUP4 ADD DUP5 PUSH2 0x134F JUMP JUMPDEST SWAP3 SWAP2 POP POP JUMP JUMPDEST PUSH0 PUSH1 0x20 DUP3 ADD SWAP1 POP PUSH2 0x138A PUSH0 DUP4 ADD DUP5 PUSH2 0x11BE JUMP JUMPDEST SWAP3 SWAP2 POP POP JUMP JUMPDEST PUSH2 0x1399 DUP2 PUSH2 0x1213 JUMP JUMPDEST DUP3 MSTORE POP POP JUMP JUMPDEST PUSH0 PUSH1 0x20 DUP3 ADD SWAP1 POP PUSH2 0x13B2 PUSH0 DUP4 ADD DUP5 PUSH2 0x1390 JUMP JUMPDEST SWAP3 SWAP2 POP POP JUMP JUMPDEST PUSH0 PUSH1 0x20 DUP3 DUP5 SUB SLT ISZERO PUSH2 0x13CD JUMPI PUSH2 0x13CC PUSH2 0xFE5 JUMP JUMPDEST JUMPDEST PUSH0 PUSH2 0x13DA DUP5 DUP3 DUP6 ADD PUSH2 0x123A JUMP JUMPDEST SWAP2 POP POP SWAP3 SWAP2 POP POP JUMP JUMPDEST PUSH32 0x4E487B7100000000000000000000000000000000000000000000000000000000 PUSH0 MSTORE PUSH1 0x22 PUSH1 0x4 MSTORE PUSH1 0x24 PUSH0 REVERT JUMPDEST PUSH0 PUSH1 0x2 DUP3 DIV SWAP1 POP PUSH1 0x1 DUP3 AND DUP1 PUSH2 0x1427 JUMPI PUSH1 0x7F DUP3 AND SWAP2 POP JUMPDEST PUSH1 0x20 DUP3 LT DUP2 SUB PUSH2 0x143A JUMPI PUSH2 0x1439 PUSH2 0x13E3 JUMP JUMPDEST JUMPDEST POP SWAP2 SWAP1 POP JUMP JUMPDEST PUSH0 DUP2 SWAP1 POP DUP2 PUSH0 MSTORE PUSH1 0x20 PUSH0 KECCAK256 SWAP1 POP SWAP2 SWAP1 POP JUMP JUMPDEST PUSH0 PUSH1 0x20 PUSH1 0x1F DUP4 ADD DIV SWAP1 POP SWAP2 SWAP1 POP JUMP JUMPDEST PUSH0 DUP3 DUP3 SHL SWAP1 POP SWAP3 SWAP2 POP POP JUMP JUMPDEST PUSH0 PUSH1 0x8 DUP4 MUL PUSH2 0x149C PUSH32 0xFFFFFFFFFFFFFFFFFFFFFFFFFFFFFFFFFFFFFFFFFFFFFFFFFFFFFFFFFFFFFFFF DUP3 PUSH2 0x1461 JUMP JUMPDEST PUSH2 0x14A6 DUP7 DUP4 PUSH2 0x1461 JUMP JUMPDEST SWAP6 POP DUP1 NOT DUP5 AND SWAP4 POP DUP1 DUP7 AND DUP5 OR SWAP3 POP POP POP SWAP4 SWAP3 POP POP POP JUMP JUMPDEST PUSH0 DUP2 SWAP1 POP SWAP2 SWAP1 POP JUMP JUMPDEST PUSH0 PUSH2 0x14E1 PUSH2 0x14DC PUSH2 0x14D7 DUP5 PUSH2 0x1160 JUMP JUMPDEST PUSH2 0x14BE JUMP JUMPDEST PUSH2 0x1160 JUMP JUMPDEST SWAP1 POP SWAP2 SWAP1 POP JUMP JUMPDEST PUSH0 DUP2 SWAP1 POP SWAP2 SWAP1 POP JUMP JUMPDEST PUSH2 0x14FA DUP4 PUSH2 0x14C7 JUMP JUMPDEST PUSH2 0x150E PUSH2 0x1506 DUP3 PUSH2 0x14E8 JUMP JUMPDEST DUP5 DUP5 SLOAD PUSH2 0x146D JUMP JUMPDEST DUP3 SSTORE POP POP POP POP JUMP JUMPDEST PUSH0 SWAP1 JUMP JUMPDEST PUSH2 0x1522 PUSH2 0x1516 JUMP JUMPDEST PUSH2 0x152D DUP2 DUP5 DUP5 PUSH2 0x14F1 JUMP JUMPDEST POP POP POP JUMP JUMPDEST JUMPDEST DUP2 DUP2 LT ISZERO PUSH2 0x1550 JUMPI PUSH2 0x1545 PUSH0 DUP3 PUSH2 0x151A JUMP JUMPDEST PUSH1 0x1 DUP2 ADD SWAP1 POP PUSH2 0x1533 JUMP JUMPDEST POP POP JUMP JUMPDEST PUSH1 0x1F DUP3 GT ISZERO PUSH2 0x1595 JUMPI PUSH2 0x1566 DUP2 PUSH2 0x1440 JUMP JUMPDEST PUSH2 0x156F DUP5 PUSH2 0x1452 JUMP JUMPDEST DUP2 ADD PUSH1 0x20 DUP6 LT ISZERO PUSH2 0x157E JUMPI DUP2 SWAP1 POP JUMPDEST PUSH2 0x1592 PUSH2 0x158A DUP6 PUSH2 0x1452 JUMP JUMPDEST DUP4 ADD DUP3 PUSH2 0x1532 JUMP JUMPDEST POP POP JUMPDEST POP POP POP JUMP JUMPDEST PUSH0 DUP3 DUP3 SHR SWAP1 POP SWAP3 SWAP2 POP POP JUMP JUMPDEST PUSH0 PUSH2 0x15B5 PUSH0 NOT DUP5 PUSH1 0x8 MUL PUSH2 0x159A JUMP JUMPDEST NOT DUP1 DUP4 AND SWAP2 POP POP SWAP3 SWAP2 POP POP JUMP JUMPDEST PUSH0 PUSH2 0x15CD DUP4 DUP4 PUSH2 0x15A6 JUMP JUMPDEST SWAP2 POP DUP3 PUSH1 0x2 MUL DUP3 OR SWAP1 POP SWAP3 SWAP2 POP POP JUMP JUMPDEST PUSH2 0x15E6 DUP3 PUSH2 0xF32 JUMP JUMPDEST PUSH8 0xFFFFFFFFFFFFFFFF DUP2 GT ISZERO PUSH2 0x15FF JUMPI PUSH2 0x15FE PUSH2 0xFF5 JUMP JUMPDEST JUMPDEST PUSH2 0x1609 DUP3 SLOAD PUSH2 0x1410 JUMP JUMPDEST PUSH2 0x1614 DUP3 DUP3 DUP6 PUSH2 0x1554 JUMP JUMPDEST PUSH0 PUSH1 0x20 SWAP1 POP PUSH1 0x1F DUP4 GT PUSH1 0x1 DUP2 EQ PUSH2 0x1645 JUMPI PUSH0 DUP5 ISZERO PUSH2 0x1633 JUMPI DUP3 DUP8 ADD MLOAD SWAP1 POP JUMPDEST PUSH2 0x163D DUP6 DUP3 PUSH2 0x15C2 JUMP JUMPDEST DUP7 SSTORE POP PUSH2 0x16A4 JUMP JUMPDEST PUSH1 0x1F NOT DUP5 AND PUSH2 0x1653 DUP7 PUSH2 0x1440 JUMP JUMPDEST PUSH0 JUMPDEST DUP3 DUP2 LT ISZERO PUSH2 0x167A JUMPI DUP5 DUP10 ADD MLOAD DUP3 SSTORE PUSH1 0x1 DUP3 ADD SWAP2 POP PUSH1 0x20 DUP6 ADD SWAP5 POP PUSH1 0x20 DUP2 ADD SWAP1 POP PUSH2 0x1655 JUMP JUMPDEST DUP7 DUP4 LT ISZERO PUSH2 0x1697 JUMPI DUP5 DUP10 ADD MLOAD PUSH2 0x1693 PUSH1 0x1F DUP10 AND DUP3 PUSH2 0x15A6 JUMP JUMPDEST DUP4 SSTORE POP JUMPDEST PUSH1 0x1 PUSH1 0x2 DUP9 MUL ADD DUP9 SSTORE POP POP POP JUMPDEST POP POP POP POP POP POP JUMP JUMPDEST PUSH32 0x4E487B7100000000000000000000000000000000000000000000000000000000 PUSH0 MSTORE PUSH1 0x11 PUSH1 0x4 MSTORE PUSH1 0x24 PUSH0 REVERT JUMPDEST PUSH0 PUSH2 0x16E3 DUP3 PUSH2 0x1160 JUMP JUMPDEST SWAP2 POP PUSH2 0x16EE DUP4 PUSH2 0x1160 JUMP JUMPDEST SWAP3 POP DUP3 DUP3 MUL PUSH2 0x16FC DUP2 PUSH2 0x1160 JUMP JUMPDEST SWAP2 POP DUP3 DUP3 DIV DUP5 EQ DUP4 ISZERO OR PUSH2 0x1713 JUMPI PUSH2 0x1712 PUSH2 0x16AC JUMP JUMPDEST JUMPDEST POP SWAP3 SWAP2 POP POP JUMP JUMPDEST PUSH0 DUP2 SWAP1 POP SWAP2 SWAP1 POP JUMP JUMPDEST PUSH0 PUSH8 0xFFFFFFFFFFFFFFFF DUP3 AND SWAP1 POP SWAP2 SWAP1 POP JUMP JUMPDEST PUSH0 PUSH2 0x1750 PUSH2 0x174B PUSH2 0x1746 DUP5 PUSH2 0x171A JUMP JUMPDEST PUSH2 0x14BE JUMP JUMPDEST PUSH2 0x1723 JUMP JUMPDEST SWAP1 POP SWAP2 SWAP1 POP JUMP JUMPDEST PUSH2 0x1760 DUP2 PUSH2 0x1736 JUMP JUMPDEST DUP3 MSTORE POP POP JUMP JUMPDEST PUSH0 PUSH1 0x20 DUP3 ADD SWAP1 POP PUSH2 0x1779 PUSH0 DUP4 ADD DUP5 PUSH2 0x1757 JUMP JUMPDEST SWAP3 SWAP2 POP POP JUMP JUMPDEST PUSH2 0x1788 DUP2 PUSH2 0x1346 JUMP JUMPDEST DUP2 EQ PUSH2 0x1792 JUMPI PUSH0 DUP1 REVERT JUMPDEST POP JUMP JUMPDEST PUSH0 DUP2 MLOAD SWAP1 POP PUSH2 0x17A3 DUP2 PUSH2 0x177F JUMP JUMPDEST SWAP3 SWAP2 POP POP JUMP JUMPDEST PUSH0 PUSH1 0x20 DUP3 DUP5 SUB SLT ISZERO PUSH2 0x17BE JUMPI PUSH2 0x17BD PUSH2 0xFE5 JUMP JUMPDEST JUMPDEST PUSH0 PUSH2 0x17CB DUP5 DUP3 DUP6 ADD PUSH2 0x1795 JUMP JUMPDEST SWAP2 POP POP SWAP3 SWAP2 POP POP JUMP JUMPDEST PUSH0 DUP2 MLOAD SWAP1 POP SWAP2 SWAP1 POP JUMP JUMPDEST PUSH0 DUP2 SWAP1 POP SWAP3 SWAP2 POP POP JUMP JUMPDEST PUSH0 PUSH2 0x17F2 DUP3 PUSH2 0x17D4 JUMP JUMPDEST PUSH2 0x17FC DUP2 DUP6 PUSH2 0x17DE JUMP JUMPDEST SWAP4 POP PUSH2 0x180C DUP2 DUP6 PUSH1 0x20 DUP7 ADD PUSH2 0xF4C JUMP JUMPDEST DUP1 DUP5 ADD SWAP2 POP POP SWAP3 SWAP2 POP POP JUMP JUMPDEST PUSH0 PUSH2 0x1823 DUP3 DUP5 PUSH2 0x17E8 JUMP JUMPDEST SWAP2 POP DUP2 SWAP1 POP SWAP3 SWAP2 POP POP JUMP INVALID LOG2 PUSH5 0x6970667358 0x22 SLT KECCAK256 0x26 0x27 0x1E 0x23 CALL 0xCA SWAP9 ORIGIN CALLER LOG2 SELFDESTRUCT 0xF8 INVALID 0xD6 PUSH2 0xC1C2 PUSH30 0xB096C5BB983283F598360A705AE164736F6C634300081600330000000000 "
				},
				"gasEstimates": {
					"creation": {
						"codeDepositCost": "1248800",
						"executionCost": "infinite",
						"totalCost": "infinite"
					},
					"external": {
						"UPGRADE_INTERFACE_VERSION()": "infinite",
						"addName(string)": "infinite",
						"initialize()": "infinite",
						"name()": "infinite",
						"number()": "2469",
						"owner()": "2633",
						"proxiableUUID()": "infinite",
						"renounceOwnership()": "infinite",
						"transferOwnership(address)": "infinite",
						"updateNumber(uint256)": "infinite",
						"upgradeToAndCall(address,bytes)": "infinite"
					},
					"internal": {
						"_authorizeUpgrade(address)": "infinite"
					}
				},
				"methodIdentifiers": {
					"UPGRADE_INTERFACE_VERSION()": "ad3cb1cc",
					"addName(string)": "11456b47",
					"initialize()": "8129fc1c",
					"name()": "06fdde03",
					"number()": "8381f58a",
					"owner()": "8da5cb5b",
					"proxiableUUID()": "52d1902d",
					"renounceOwnership()": "715018a6",
					"transferOwnership(address)": "f2fde38b",
					"updateNumber(uint256)": "1db05a88",
					"upgradeToAndCall(address,bytes)": "4f1ef286"
				}
			},
			"storageLayout": {
				"storage": [
					{
						"astId": 1452,
						"contract": "contracts/5_UUPS_UpgradableContract2.sol:UUPS_UpgradableContract2",
						"label": "changeId",
						"offset": 0,
						"slot": "0",
						"type": "t_struct(Counter)682_storage"
					},
					{
						"astId": 1454,
						"contract": "contracts/5_UUPS_UpgradableContract2.sol:UUPS_UpgradableContract2",
						"label": "number",
						"offset": 0,
						"slot": "1",
						"type": "t_uint256"
					},
					{
						"astId": 1456,
						"contract": "contracts/5_UUPS_UpgradableContract2.sol:UUPS_UpgradableContract2",
						"label": "name",
						"offset": 0,
						"slot": "2",
						"type": "t_string_storage"
					}
				],
				"types": {
					"t_string_storage": {
						"encoding": "bytes",
						"label": "string",
						"numberOfBytes": "32"
					},
					"t_struct(Counter)682_storage": {
						"encoding": "inplace",
						"label": "struct CountersUpgradeable.Counter",
						"members": [
							{
								"astId": 681,
								"contract": "contracts/5_UUPS_UpgradableContract2.sol:UUPS_UpgradableContract2",
								"label": "_value",
								"offset": 0,
								"slot": "0",
								"type": "t_uint256"
							}
						],
						"numberOfBytes": "32"
					},
					"t_uint256": {
						"encoding": "inplace",
						"label": "uint256",
						"numberOfBytes": "32"
					}
				}
			},
			"userdoc": {
				"kind": "user",
				"methods": {},
				"version": 1
			}
		}
	}
}