{
	"@openzeppelin/contracts/proxy/transparent/ProxyAdmin.sol": {
		"ProxyAdmin": {
			"abi": [
				{
					"inputs": [
						{
							"internalType": "address",
							"name": "initialOwner",
							"type": "address"
						}
					],
					"stateMutability": "nonpayable",
					"type": "constructor"
				},
				{
					"inputs": [
						{
							"internalType": "address",
							"name": "owner",
							"type": "address"
						}
					],
					"name": "OwnableInvalidOwner",
					"type": "error"
				},
				{
					"inputs": [
						{
							"internalType": "address",
							"name": "account",
							"type": "address"
						}
					],
					"name": "OwnableUnauthorizedAccount",
					"type": "error"
				},
				{
					"anonymous": false,
					"inputs": [
						{
							"indexed": true,
							"internalType": "address",
							"name": "previousOwner",
							"type": "address"
						},
						{
							"indexed": true,
							"internalType": "address",
							"name": "newOwner",
							"type": "address"
						}
					],
					"name": "OwnershipTransferred",
					"type": "event"
				},
				{
					"inputs": [],
					"name": "UPGRADE_INTERFACE_VERSION",
					"outputs": [
						{
							"internalType": "string",
							"name": "",
							"type": "string"
						}
					],
					"stateMutability": "view",
					"type": "function"
				},
				{
					"inputs": [],
					"name": "owner",
					"outputs": [
						{
							"internalType": "address",
							"name": "",
							"type": "address"
						}
					],
					"stateMutability": "view",
					"type": "function"
				},
				{
					"inputs": [],
					"name": "renounceOwnership",
					"outputs": [],
					"stateMutability": "nonpayable",
					"type": "function"
				},
				{
					"inputs": [
						{
							"internalType": "address",
							"name": "newOwner",
							"type": "address"
						}
					],
					"name": "transferOwnership",
					"outputs": [],
					"stateMutability": "nonpayable",
					"type": "function"
				},
				{
					"inputs": [
						{
							"internalType": "contract ITransparentUpgradeableProxy",
							"name": "proxy",
							"type": "address"
						},
						{
							"internalType": "address",
							"name": "implementation",
							"type": "address"
						},
						{
							"internalType": "bytes",
							"name": "data",
							"type": "bytes"
						}
					],
					"name": "upgradeAndCall",
					"outputs": [],
					"stateMutability": "payable",
					"type": "function"
				}
			],
			"devdoc": {
				"details": "This is an auxiliary contract meant to be assigned as the admin of a {TransparentUpgradeableProxy}. For an explanation of why you would want to use this see the documentation for {TransparentUpgradeableProxy}.",
				"errors": {
					"OwnableInvalidOwner(address)": [
						{
							"details": "The owner is not a valid owner account. (eg. `address(0)`)"
						}
					],
					"OwnableUnauthorizedAccount(address)": [
						{
							"details": "The caller account is not authorized to perform an operation."
						}
					]
				},
				"kind": "dev",
				"methods": {
					"constructor": {
						"details": "Sets the initial owner who can perform upgrades."
					},
					"owner()": {
						"details": "Returns the address of the current owner."
					},
					"renounceOwnership()": {
						"details": "Leaves the contract without owner. It will not be possible to call `onlyOwner` functions. Can only be called by the current owner. NOTE: Renouncing ownership will leave the contract without an owner, thereby disabling any functionality that is only available to the owner."
					},
					"transferOwnership(address)": {
						"details": "Transfers ownership of the contract to a new account (`newOwner`). Can only be called by the current owner."
					},
					"upgradeAndCall(address,address,bytes)": {
						"details": "Upgrades `proxy` to `implementation` and calls a function on the new implementation. See {TransparentUpgradeableProxy-_dispatchUpgradeToAndCall}. Requirements: - This contract must be the admin of `proxy`. - If `data` is empty, `msg.value` must be zero."
					}
				},
				"stateVariables": {
					"UPGRADE_INTERFACE_VERSION": {
						"details": "The version of the upgrade interface of the contract. If this getter is missing, both `upgrade(address)` and `upgradeAndCall(address,bytes)` are present, and `upgradeTo` must be used if no function should be called, while `upgradeAndCall` will invoke the `receive` function if the second argument is the empty byte string. If the getter returns `\"5.0.0\"`, only `upgradeAndCall(address,bytes)` is present, and the second argument must be the empty byte string if no function should be called, making it impossible to invoke the `receive` function during an upgrade."
					}
				},
				"version": 1
			},
			"evm": {
				"assembly": "    /* \"@openzeppelin/contracts/proxy/transparent/ProxyAdmin.sol\":502:1944  contract ProxyAdmin is Ownable {... */\n  mstore(0x40, 0x80)\n    /* \"@openzeppelin/contracts/proxy/transparent/ProxyAdmin.sol\":1309:1367  constructor(address initialOwner) Ownable(initialOwner) {} */\n  callvalue\n  dup1\n  iszero\n  tag_1\n  jumpi\n  0x00\n  dup1\n  revert\ntag_1:\n  pop\n  mload(0x40)\n  sub(codesize, bytecodeSize)\n  dup1\n  bytecodeSize\n  dup4\n  codecopy\n  dup2\n  dup2\n  add\n  0x40\n  mstore\n  dup2\n  add\n  swap1\n  tag_2\n  swap2\n  swap1\n  tag_3\n  jump\t// in\ntag_2:\n    /* \"@openzeppelin/contracts/proxy/transparent/ProxyAdmin.sol\":1351:1363  initialOwner */\n  dup1\n    /* \"@openzeppelin/contracts/access/Ownable.sol\":1297:1298  0 */\n  0x00\n    /* \"@openzeppelin/contracts/access/Ownable.sol\":1273:1299  initialOwner == address(0) */\n  0xffffffffffffffffffffffffffffffffffffffff\n  and\n    /* \"@openzeppelin/contracts/access/Ownable.sol\":1273:1285  initialOwner */\n  dup2\n    /* \"@openzeppelin/contracts/access/Ownable.sol\":1273:1299  initialOwner == address(0) */\n  0xffffffffffffffffffffffffffffffffffffffff\n  and\n  sub\n    /* \"@openzeppelin/contracts/access/Ownable.sol\":1269:1364  if (initialOwner == address(0)) {... */\n  tag_7\n  jumpi\n    /* \"@openzeppelin/contracts/access/Ownable.sol\":1350:1351  0 */\n  0x00\n    /* \"@openzeppelin/contracts/access/Ownable.sol\":1322:1353  OwnableInvalidOwner(address(0)) */\n  mload(0x40)\n  0x1e4fbdf700000000000000000000000000000000000000000000000000000000\n  dup2\n  mstore\n  0x04\n  add\n  tag_8\n  swap2\n  swap1\n  tag_9\n  jump\t// in\ntag_8:\n  mload(0x40)\n  dup1\n  swap2\n  sub\n  swap1\n  revert\n    /* \"@openzeppelin/contracts/access/Ownable.sol\":1269:1364  if (initialOwner == address(0)) {... */\ntag_7:\n    /* \"@openzeppelin/contracts/access/Ownable.sol\":1373:1405  _transferOwnership(initialOwner) */\n  tag_10\n    /* \"@openzeppelin/contracts/access/Ownable.sol\":1392:1404  initialOwner */\n  dup2\n    /* \"@openzeppelin/contracts/access/Ownable.sol\":1373:1391  _transferOwnership */\n  shl(0x20, tag_11)\n    /* \"@openzeppelin/contracts/access/Ownable.sol\":1373:1405  _transferOwnership(initialOwner) */\n  0x20\n  shr\n  jump\t// in\ntag_10:\n    /* \"@openzeppelin/contracts/access/Ownable.sol\":1225:1412  constructor(address initialOwner) {... */\n  pop\n    /* \"@openzeppelin/contracts/proxy/transparent/ProxyAdmin.sol\":1309:1367  constructor(address initialOwner) Ownable(initialOwner) {} */\n  pop\n    /* \"@openzeppelin/contracts/proxy/transparent/ProxyAdmin.sol\":502:1944  contract ProxyAdmin is Ownable {... */\n  jump(tag_13)\n    /* \"@openzeppelin/contracts/access/Ownable.sol\":2912:3099  function _transferOwnership(address newOwner) internal virtual {... */\ntag_11:\n    /* \"@openzeppelin/contracts/access/Ownable.sol\":2985:3001  address oldOwner */\n  0x00\n    /* \"@openzeppelin/contracts/access/Ownable.sol\":3004:3010  _owner */\n  dup1\n  0x00\n  swap1\n  sload\n  swap1\n  0x0100\n  exp\n  swap1\n  div\n  0xffffffffffffffffffffffffffffffffffffffff\n  and\n    /* \"@openzeppelin/contracts/access/Ownable.sol\":2985:3010  address oldOwner = _owner */\n  swap1\n  pop\n    /* \"@openzeppelin/contracts/access/Ownable.sol\":3029:3037  newOwner */\n  dup2\n    /* \"@openzeppelin/contracts/access/Ownable.sol\":3020:3026  _owner */\n  0x00\n  dup1\n    /* \"@openzeppelin/contracts/access/Ownable.sol\":3020:3037  _owner = newOwner */\n  0x0100\n  exp\n  dup2\n  sload\n  dup2\n  0xffffffffffffffffffffffffffffffffffffffff\n  mul\n  not\n  and\n  swap1\n  dup4\n  0xffffffffffffffffffffffffffffffffffffffff\n  and\n  mul\n  or\n  swap1\n  sstore\n  pop\n    /* \"@openzeppelin/contracts/access/Ownable.sol\":3083:3091  newOwner */\n  dup2\n    /* \"@openzeppelin/contracts/access/Ownable.sol\":3052:3092  OwnershipTransferred(oldOwner, newOwner) */\n  0xffffffffffffffffffffffffffffffffffffffff\n  and\n    /* \"@openzeppelin/contracts/access/Ownable.sol\":3073:3081  oldOwner */\n  dup2\n    /* \"@openzeppelin/contracts/access/Ownable.sol\":3052:3092  OwnershipTransferred(oldOwner, newOwner) */\n  0xffffffffffffffffffffffffffffffffffffffff\n  and\n  0x8be0079c531659141344cd1fd0a4f28419497f9722a3daafe3b4186f6b6457e0\n  mload(0x40)\n  mload(0x40)\n  dup1\n  swap2\n  sub\n  swap1\n  log3\n    /* \"@openzeppelin/contracts/access/Ownable.sol\":2975:3099  {... */\n  pop\n    /* \"@openzeppelin/contracts/access/Ownable.sol\":2912:3099  function _transferOwnership(address newOwner) internal virtual {... */\n  pop\n  jump\t// out\n    /* \"#utility.yul\":88:205   */\ntag_16:\n    /* \"#utility.yul\":197:198   */\n  0x00\n    /* \"#utility.yul\":194:195   */\n  dup1\n    /* \"#utility.yul\":187:199   */\n  revert\n    /* \"#utility.yul\":334:460   */\ntag_18:\n    /* \"#utility.yul\":371:378   */\n  0x00\n    /* \"#utility.yul\":411:453   */\n  0xffffffffffffffffffffffffffffffffffffffff\n    /* \"#utility.yul\":404:409   */\n  dup3\n    /* \"#utility.yul\":400:454   */\n  and\n    /* \"#utility.yul\":389:454   */\n  swap1\n  pop\n    /* \"#utility.yul\":334:460   */\n  swap2\n  swap1\n  pop\n  jump\t// out\n    /* \"#utility.yul\":466:562   */\ntag_19:\n    /* \"#utility.yul\":503:510   */\n  0x00\n    /* \"#utility.yul\":532:556   */\n  tag_29\n    /* \"#utility.yul\":550:555   */\n  dup3\n    /* \"#utility.yul\":532:556   */\n  tag_18\n  jump\t// in\ntag_29:\n    /* \"#utility.yul\":521:556   */\n  swap1\n  pop\n    /* \"#utility.yul\":466:562   */\n  swap2\n  swap1\n  pop\n  jump\t// out\n    /* \"#utility.yul\":568:690   */\ntag_20:\n    /* \"#utility.yul\":641:665   */\n  tag_31\n    /* \"#utility.yul\":659:664   */\n  dup2\n    /* \"#utility.yul\":641:665   */\n  tag_19\n  jump\t// in\ntag_31:\n    /* \"#utility.yul\":634:639   */\n  dup2\n    /* \"#utility.yul\":631:666   */\n  eq\n    /* \"#utility.yul\":621:684   */\n  tag_32\n  jumpi\n    /* \"#utility.yul\":680:681   */\n  0x00\n    /* \"#utility.yul\":677:678   */\n  dup1\n    /* \"#utility.yul\":670:682   */\n  revert\n    /* \"#utility.yul\":621:684   */\ntag_32:\n    /* \"#utility.yul\":568:690   */\n  pop\n  jump\t// out\n    /* \"#utility.yul\":696:839   */\ntag_21:\n    /* \"#utility.yul\":753:758   */\n  0x00\n    /* \"#utility.yul\":784:790   */\n  dup2\n    /* \"#utility.yul\":778:791   */\n  mload\n    /* \"#utility.yul\":769:791   */\n  swap1\n  pop\n    /* \"#utility.yul\":800:833   */\n  tag_34\n    /* \"#utility.yul\":827:832   */\n  dup2\n    /* \"#utility.yul\":800:833   */\n  tag_20\n  jump\t// in\ntag_34:\n    /* \"#utility.yul\":696:839   */\n  swap3\n  swap2\n  pop\n  pop\n  jump\t// out\n    /* \"#utility.yul\":845:1196   */\ntag_3:\n    /* \"#utility.yul\":915:921   */\n  0x00\n    /* \"#utility.yul\":964:966   */\n  0x20\n    /* \"#utility.yul\":952:961   */\n  dup3\n    /* \"#utility.yul\":943:950   */\n  dup5\n    /* \"#utility.yul\":939:962   */\n  sub\n    /* \"#utility.yul\":935:967   */\n  slt\n    /* \"#utility.yul\":932:1051   */\n  iszero\n  tag_36\n  jumpi\n    /* \"#utility.yul\":970:1049   */\n  tag_37\n  tag_16\n  jump\t// in\ntag_37:\n    /* \"#utility.yul\":932:1051   */\ntag_36:\n    /* \"#utility.yul\":1090:1091   */\n  0x00\n    /* \"#utility.yul\":1115:1179   */\n  tag_38\n    /* \"#utility.yul\":1171:1178   */\n  dup5\n    /* \"#utility.yul\":1162:1168   */\n  dup3\n    /* \"#utility.yul\":1151:1160   */\n  dup6\n    /* \"#utility.yul\":1147:1169   */\n  add\n    /* \"#utility.yul\":1115:1179   */\n  tag_21\n  jump\t// in\ntag_38:\n    /* \"#utility.yul\":1105:1179   */\n  swap2\n  pop\n    /* \"#utility.yul\":1061:1189   */\n  pop\n    /* \"#utility.yul\":845:1196   */\n  swap3\n  swap2\n  pop\n  pop\n  jump\t// out\n    /* \"#utility.yul\":1202:1320   */\ntag_22:\n    /* \"#utility.yul\":1289:1313   */\n  tag_40\n    /* \"#utility.yul\":1307:1312   */\n  dup2\n    /* \"#utility.yul\":1289:1313   */\n  tag_19\n  jump\t// in\ntag_40:\n    /* \"#utility.yul\":1284:1287   */\n  dup3\n    /* \"#utility.yul\":1277:1314   */\n  mstore\n    /* \"#utility.yul\":1202:1320   */\n  pop\n  pop\n  jump\t// out\n    /* \"#utility.yul\":1326:1548   */\ntag_9:\n    /* \"#utility.yul\":1419:1423   */\n  0x00\n    /* \"#utility.yul\":1457:1459   */\n  0x20\n    /* \"#utility.yul\":1446:1455   */\n  dup3\n    /* \"#utility.yul\":1442:1460   */\n  add\n    /* \"#utility.yul\":1434:1460   */\n  swap1\n  pop\n    /* \"#utility.yul\":1470:1541   */\n  tag_42\n    /* \"#utility.yul\":1538:1539   */\n  0x00\n    /* \"#utility.yul\":1527:1536   */\n  dup4\n    /* \"#utility.yul\":1523:1540   */\n  add\n    /* \"#utility.yul\":1514:1520   */\n  dup5\n    /* \"#utility.yul\":1470:1541   */\n  tag_22\n  jump\t// in\ntag_42:\n    /* \"#utility.yul\":1326:1548   */\n  swap3\n  swap2\n  pop\n  pop\n  jump\t// out\n    /* \"@openzeppelin/contracts/proxy/transparent/ProxyAdmin.sol\":502:1944  contract ProxyAdmin is Ownable {... */\ntag_13:\n  dataSize(sub_0)\n  dup1\n  dataOffset(sub_0)\n  0x00\n  codecopy\n  0x00\n  return\nstop\n\nsub_0: assembly {\n        /* \"@openzeppelin/contracts/proxy/transparent/ProxyAdmin.sol\":502:1944  contract ProxyAdmin is Ownable {... */\n      mstore(0x40, 0x80)\n      jumpi(tag_1, lt(calldatasize, 0x04))\n      shr(0xe0, calldataload(0x00))\n      dup1\n      0x715018a6\n      eq\n      tag_2\n      jumpi\n      dup1\n      0x8da5cb5b\n      eq\n      tag_3\n      jumpi\n      dup1\n      0x9623609d\n      eq\n      tag_4\n      jumpi\n      dup1\n      0xad3cb1cc\n      eq\n      tag_5\n      jumpi\n      dup1\n      0xf2fde38b\n      eq\n      tag_6\n      jumpi\n    tag_1:\n      0x00\n      dup1\n      revert\n        /* \"@openzeppelin/contracts/access/Ownable.sol\":2293:2394  function renounceOwnership() public virtual onlyOwner {... */\n    tag_2:\n      callvalue\n      dup1\n      iszero\n      tag_7\n      jumpi\n      0x00\n      dup1\n      revert\n    tag_7:\n      pop\n      tag_8\n      tag_9\n      jump\t// in\n    tag_8:\n      stop\n        /* \"@openzeppelin/contracts/access/Ownable.sol\":1638:1723  function owner() public view virtual returns (address) {... */\n    tag_3:\n      callvalue\n      dup1\n      iszero\n      tag_10\n      jumpi\n      0x00\n      dup1\n      revert\n    tag_10:\n      pop\n      tag_11\n      tag_12\n      jump\t// in\n    tag_11:\n      mload(0x40)\n      tag_13\n      swap2\n      swap1\n      tag_14\n      jump\t// in\n    tag_13:\n      mload(0x40)\n      dup1\n      swap2\n      sub\n      swap1\n      return\n        /* \"@openzeppelin/contracts/proxy/transparent/ProxyAdmin.sol\":1697:1942  function upgradeAndCall(... */\n    tag_4:\n      tag_15\n      0x04\n      dup1\n      calldatasize\n      sub\n      dup2\n      add\n      swap1\n      tag_16\n      swap2\n      swap1\n      tag_17\n      jump\t// in\n    tag_16:\n      tag_18\n      jump\t// in\n    tag_15:\n      stop\n        /* \"@openzeppelin/contracts/proxy/transparent/ProxyAdmin.sol\":1167:1225  string public constant UPGRADE_INTERFACE_VERSION = \"5.0.0\" */\n    tag_5:\n      callvalue\n      dup1\n      iszero\n      tag_19\n      jumpi\n      0x00\n      dup1\n      revert\n    tag_19:\n      pop\n      tag_20\n      tag_21\n      jump\t// in\n    tag_20:\n      mload(0x40)\n      tag_22\n      swap2\n      swap1\n      tag_23\n      jump\t// in\n    tag_22:\n      mload(0x40)\n      dup1\n      swap2\n      sub\n      swap1\n      return\n        /* \"@openzeppelin/contracts/access/Ownable.sol\":2543:2758  function transferOwnership(address newOwner) public virtual onlyOwner {... */\n    tag_6:\n      callvalue\n      dup1\n      iszero\n      tag_24\n      jumpi\n      0x00\n      dup1\n      revert\n    tag_24:\n      pop\n      tag_25\n      0x04\n      dup1\n      calldatasize\n      sub\n      dup2\n      add\n      swap1\n      tag_26\n      swap2\n      swap1\n      tag_27\n      jump\t// in\n    tag_26:\n      tag_28\n      jump\t// in\n    tag_25:\n      stop\n        /* \"@openzeppelin/contracts/access/Ownable.sol\":2293:2394  function renounceOwnership() public virtual onlyOwner {... */\n    tag_9:\n        /* \"@openzeppelin/contracts/access/Ownable.sol\":1531:1544  _checkOwner() */\n      tag_30\n        /* \"@openzeppelin/contracts/access/Ownable.sol\":1531:1542  _checkOwner */\n      tag_31\n        /* \"@openzeppelin/contracts/access/Ownable.sol\":1531:1544  _checkOwner() */\n      jump\t// in\n    tag_30:\n        /* \"@openzeppelin/contracts/access/Ownable.sol\":2357:2387  _transferOwnership(address(0)) */\n      tag_33\n        /* \"@openzeppelin/contracts/access/Ownable.sol\":2384:2385  0 */\n      0x00\n        /* \"@openzeppelin/contracts/access/Ownable.sol\":2357:2375  _transferOwnership */\n      tag_34\n        /* \"@openzeppelin/contracts/access/Ownable.sol\":2357:2387  _transferOwnership(address(0)) */\n      jump\t// in\n    tag_33:\n        /* \"@openzeppelin/contracts/access/Ownable.sol\":2293:2394  function renounceOwnership() public virtual onlyOwner {... */\n      jump\t// out\n        /* \"@openzeppelin/contracts/access/Ownable.sol\":1638:1723  function owner() public view virtual returns (address) {... */\n    tag_12:\n        /* \"@openzeppelin/contracts/access/Ownable.sol\":1684:1691  address */\n      0x00\n        /* \"@openzeppelin/contracts/access/Ownable.sol\":1710:1716  _owner */\n      dup1\n      0x00\n      swap1\n      sload\n      swap1\n      0x0100\n      exp\n      swap1\n      div\n      0xffffffffffffffffffffffffffffffffffffffff\n      and\n        /* \"@openzeppelin/contracts/access/Ownable.sol\":1703:1716  return _owner */\n      swap1\n      pop\n        /* \"@openzeppelin/contracts/access/Ownable.sol\":1638:1723  function owner() public view virtual returns (address) {... */\n      swap1\n      jump\t// out\n        /* \"@openzeppelin/contracts/proxy/transparent/ProxyAdmin.sol\":1697:1942  function upgradeAndCall(... */\n    tag_18:\n        /* \"@openzeppelin/contracts/access/Ownable.sol\":1531:1544  _checkOwner() */\n      tag_37\n        /* \"@openzeppelin/contracts/access/Ownable.sol\":1531:1542  _checkOwner */\n      tag_31\n        /* \"@openzeppelin/contracts/access/Ownable.sol\":1531:1544  _checkOwner() */\n      jump\t// in\n    tag_37:\n        /* \"@openzeppelin/contracts/proxy/transparent/ProxyAdmin.sol\":1873:1878  proxy */\n      dup3\n        /* \"@openzeppelin/contracts/proxy/transparent/ProxyAdmin.sol\":1873:1895  proxy.upgradeToAndCall */\n      0xffffffffffffffffffffffffffffffffffffffff\n      and\n      0x4f1ef286\n        /* \"@openzeppelin/contracts/proxy/transparent/ProxyAdmin.sol\":1903:1912  msg.value */\n      callvalue\n        /* \"@openzeppelin/contracts/proxy/transparent/ProxyAdmin.sol\":1914:1928  implementation */\n      dup5\n        /* \"@openzeppelin/contracts/proxy/transparent/ProxyAdmin.sol\":1930:1934  data */\n      dup5\n        /* \"@openzeppelin/contracts/proxy/transparent/ProxyAdmin.sol\":1873:1935  proxy.upgradeToAndCall{value: msg.value}(implementation, data) */\n      mload(0x40)\n      dup5\n      0xffffffff\n      and\n      0xe0\n      shl\n      dup2\n      mstore\n      0x04\n      add\n      tag_39\n      swap3\n      swap2\n      swap1\n      tag_40\n      jump\t// in\n    tag_39:\n      0x00\n      mload(0x40)\n      dup1\n      dup4\n      sub\n      dup2\n      dup6\n      dup9\n      dup1\n      extcodesize\n      iszero\n      dup1\n      iszero\n      tag_41\n      jumpi\n      0x00\n      dup1\n      revert\n    tag_41:\n      pop\n      gas\n      call\n      iszero\n      dup1\n      iszero\n      tag_43\n      jumpi\n      returndatasize\n      0x00\n      dup1\n      returndatacopy\n      revert(0x00, returndatasize)\n    tag_43:\n      pop\n      pop\n      pop\n      pop\n      pop\n        /* \"@openzeppelin/contracts/proxy/transparent/ProxyAdmin.sol\":1697:1942  function upgradeAndCall(... */\n      pop\n      pop\n      pop\n      jump\t// out\n        /* \"@openzeppelin/contracts/proxy/transparent/ProxyAdmin.sol\":1167:1225  string public constant UPGRADE_INTERFACE_VERSION = \"5.0.0\" */\n    tag_21:\n      mload(0x40)\n      dup1\n      0x40\n      add\n      0x40\n      mstore\n      dup1\n      0x05\n      dup2\n      mstore\n      0x20\n      add\n      0x352e302e30000000000000000000000000000000000000000000000000000000\n      dup2\n      mstore\n      pop\n      dup2\n      jump\t// out\n        /* \"@openzeppelin/contracts/access/Ownable.sol\":2543:2758  function transferOwnership(address newOwner) public virtual onlyOwner {... */\n    tag_28:\n        /* \"@openzeppelin/contracts/access/Ownable.sol\":1531:1544  _checkOwner() */\n      tag_45\n        /* \"@openzeppelin/contracts/access/Ownable.sol\":1531:1542  _checkOwner */\n      tag_31\n        /* \"@openzeppelin/contracts/access/Ownable.sol\":1531:1544  _checkOwner() */\n      jump\t// in\n    tag_45:\n        /* \"@openzeppelin/contracts/access/Ownable.sol\":2647:2648  0 */\n      0x00\n        /* \"@openzeppelin/contracts/access/Ownable.sol\":2627:2649  newOwner == address(0) */\n      0xffffffffffffffffffffffffffffffffffffffff\n      and\n        /* \"@openzeppelin/contracts/access/Ownable.sol\":2627:2635  newOwner */\n      dup2\n        /* \"@openzeppelin/contracts/access/Ownable.sol\":2627:2649  newOwner == address(0) */\n      0xffffffffffffffffffffffffffffffffffffffff\n      and\n      sub\n        /* \"@openzeppelin/contracts/access/Ownable.sol\":2623:2714  if (newOwner == address(0)) {... */\n      tag_47\n      jumpi\n        /* \"@openzeppelin/contracts/access/Ownable.sol\":2700:2701  0 */\n      0x00\n        /* \"@openzeppelin/contracts/access/Ownable.sol\":2672:2703  OwnableInvalidOwner(address(0)) */\n      mload(0x40)\n      0x1e4fbdf700000000000000000000000000000000000000000000000000000000\n      dup2\n      mstore\n      0x04\n      add\n      tag_48\n      swap2\n      swap1\n      tag_14\n      jump\t// in\n    tag_48:\n      mload(0x40)\n      dup1\n      swap2\n      sub\n      swap1\n      revert\n        /* \"@openzeppelin/contracts/access/Ownable.sol\":2623:2714  if (newOwner == address(0)) {... */\n    tag_47:\n        /* \"@openzeppelin/contracts/access/Ownable.sol\":2723:2751  _transferOwnership(newOwner) */\n      tag_49\n        /* \"@openzeppelin/contracts/access/Ownable.sol\":2742:2750  newOwner */\n      dup2\n        /* \"@openzeppelin/contracts/access/Ownable.sol\":2723:2741  _transferOwnership */\n      tag_34\n        /* \"@openzeppelin/contracts/access/Ownable.sol\":2723:2751  _transferOwnership(newOwner) */\n      jump\t// in\n    tag_49:\n        /* \"@openzeppelin/contracts/access/Ownable.sol\":2543:2758  function transferOwnership(address newOwner) public virtual onlyOwner {... */\n      pop\n      jump\t// out\n        /* \"@openzeppelin/contracts/access/Ownable.sol\":1796:1958  function _checkOwner() internal view virtual {... */\n    tag_31:\n        /* \"@openzeppelin/contracts/access/Ownable.sol\":1866:1878  _msgSender() */\n      tag_51\n        /* \"@openzeppelin/contracts/access/Ownable.sol\":1866:1876  _msgSender */\n      tag_52\n        /* \"@openzeppelin/contracts/access/Ownable.sol\":1866:1878  _msgSender() */\n      jump\t// in\n    tag_51:\n        /* \"@openzeppelin/contracts/access/Ownable.sol\":1855:1878  owner() != _msgSender() */\n      0xffffffffffffffffffffffffffffffffffffffff\n      and\n        /* \"@openzeppelin/contracts/access/Ownable.sol\":1855:1862  owner() */\n      tag_53\n        /* \"@openzeppelin/contracts/access/Ownable.sol\":1855:1860  owner */\n      tag_12\n        /* \"@openzeppelin/contracts/access/Ownable.sol\":1855:1862  owner() */\n      jump\t// in\n    tag_53:\n        /* \"@openzeppelin/contracts/access/Ownable.sol\":1855:1878  owner() != _msgSender() */\n      0xffffffffffffffffffffffffffffffffffffffff\n      and\n      eq\n        /* \"@openzeppelin/contracts/access/Ownable.sol\":1851:1952  if (owner() != _msgSender()) {... */\n      tag_54\n      jumpi\n        /* \"@openzeppelin/contracts/access/Ownable.sol\":1928:1940  _msgSender() */\n      tag_55\n        /* \"@openzeppelin/contracts/access/Ownable.sol\":1928:1938  _msgSender */\n      tag_52\n        /* \"@openzeppelin/contracts/access/Ownable.sol\":1928:1940  _msgSender() */\n      jump\t// in\n    tag_55:\n        /* \"@openzeppelin/contracts/access/Ownable.sol\":1901:1941  OwnableUnauthorizedAccount(_msgSender()) */\n      mload(0x40)\n      0x118cdaa700000000000000000000000000000000000000000000000000000000\n      dup2\n      mstore\n      0x04\n      add\n      tag_56\n      swap2\n      swap1\n      tag_14\n      jump\t// in\n    tag_56:\n      mload(0x40)\n      dup1\n      swap2\n      sub\n      swap1\n      revert\n        /* \"@openzeppelin/contracts/access/Ownable.sol\":1851:1952  if (owner() != _msgSender()) {... */\n    tag_54:\n        /* \"@openzeppelin/contracts/access/Ownable.sol\":1796:1958  function _checkOwner() internal view virtual {... */\n      jump\t// out\n        /* \"@openzeppelin/contracts/access/Ownable.sol\":2912:3099  function _transferOwnership(address newOwner) internal virtual {... */\n    tag_34:\n        /* \"@openzeppelin/contracts/access/Ownable.sol\":2985:3001  address oldOwner */\n      0x00\n        /* \"@openzeppelin/contracts/access/Ownable.sol\":3004:3010  _owner */\n      dup1\n      0x00\n      swap1\n      sload\n      swap1\n      0x0100\n      exp\n      swap1\n      div\n      0xffffffffffffffffffffffffffffffffffffffff\n      and\n        /* \"@openzeppelin/contracts/access/Ownable.sol\":2985:3010  address oldOwner = _owner */\n      swap1\n      pop\n        /* \"@openzeppelin/contracts/access/Ownable.sol\":3029:3037  newOwner */\n      dup2\n        /* \"@openzeppelin/contracts/access/Ownable.sol\":3020:3026  _owner */\n      0x00\n      dup1\n        /* \"@openzeppelin/contracts/access/Ownable.sol\":3020:3037  _owner = newOwner */\n      0x0100\n      exp\n      dup2\n      sload\n      dup2\n      0xffffffffffffffffffffffffffffffffffffffff\n      mul\n      not\n      and\n      swap1\n      dup4\n      0xffffffffffffffffffffffffffffffffffffffff\n      and\n      mul\n      or\n      swap1\n      sstore\n      pop\n        /* \"@openzeppelin/contracts/access/Ownable.sol\":3083:3091  newOwner */\n      dup2\n        /* \"@openzeppelin/contracts/access/Ownable.sol\":3052:3092  OwnershipTransferred(oldOwner, newOwner) */\n      0xffffffffffffffffffffffffffffffffffffffff\n      and\n        /* \"@openzeppelin/contracts/access/Ownable.sol\":3073:3081  oldOwner */\n      dup2\n        /* \"@openzeppelin/contracts/access/Ownable.sol\":3052:3092  OwnershipTransferred(oldOwner, newOwner) */\n      0xffffffffffffffffffffffffffffffffffffffff\n      and\n      0x8be0079c531659141344cd1fd0a4f28419497f9722a3daafe3b4186f6b6457e0\n      mload(0x40)\n      mload(0x40)\n      dup1\n      swap2\n      sub\n      swap1\n      log3\n        /* \"@openzeppelin/contracts/access/Ownable.sol\":2975:3099  {... */\n      pop\n        /* \"@openzeppelin/contracts/access/Ownable.sol\":2912:3099  function _transferOwnership(address newOwner) internal virtual {... */\n      pop\n      jump\t// out\n        /* \"@openzeppelin/contracts/utils/Context.sol\":656:752  function _msgSender() internal view virtual returns (address) {... */\n    tag_52:\n        /* \"@openzeppelin/contracts/utils/Context.sol\":709:716  address */\n      0x00\n        /* \"@openzeppelin/contracts/utils/Context.sol\":735:745  msg.sender */\n      caller\n        /* \"@openzeppelin/contracts/utils/Context.sol\":728:745  return msg.sender */\n      swap1\n      pop\n        /* \"@openzeppelin/contracts/utils/Context.sol\":656:752  function _msgSender() internal view virtual returns (address) {... */\n      swap1\n      jump\t// out\n        /* \"#utility.yul\":7:133   */\n    tag_59:\n        /* \"#utility.yul\":44:51   */\n      0x00\n        /* \"#utility.yul\":84:126   */\n      0xffffffffffffffffffffffffffffffffffffffff\n        /* \"#utility.yul\":77:82   */\n      dup3\n        /* \"#utility.yul\":73:127   */\n      and\n        /* \"#utility.yul\":62:127   */\n      swap1\n      pop\n        /* \"#utility.yul\":7:133   */\n      swap2\n      swap1\n      pop\n      jump\t// out\n        /* \"#utility.yul\":139:235   */\n    tag_60:\n        /* \"#utility.yul\":176:183   */\n      0x00\n        /* \"#utility.yul\":205:229   */\n      tag_90\n        /* \"#utility.yul\":223:228   */\n      dup3\n        /* \"#utility.yul\":205:229   */\n      tag_59\n      jump\t// in\n    tag_90:\n        /* \"#utility.yul\":194:229   */\n      swap1\n      pop\n        /* \"#utility.yul\":139:235   */\n      swap2\n      swap1\n      pop\n      jump\t// out\n        /* \"#utility.yul\":241:359   */\n    tag_61:\n        /* \"#utility.yul\":328:352   */\n      tag_92\n        /* \"#utility.yul\":346:351   */\n      dup2\n        /* \"#utility.yul\":328:352   */\n      tag_60\n      jump\t// in\n    tag_92:\n        /* \"#utility.yul\":323:326   */\n      dup3\n        /* \"#utility.yul\":316:353   */\n      mstore\n        /* \"#utility.yul\":241:359   */\n      pop\n      pop\n      jump\t// out\n        /* \"#utility.yul\":365:587   */\n    tag_14:\n        /* \"#utility.yul\":458:462   */\n      0x00\n        /* \"#utility.yul\":496:498   */\n      0x20\n        /* \"#utility.yul\":485:494   */\n      dup3\n        /* \"#utility.yul\":481:499   */\n      add\n        /* \"#utility.yul\":473:499   */\n      swap1\n      pop\n        /* \"#utility.yul\":509:580   */\n      tag_94\n        /* \"#utility.yul\":577:578   */\n      0x00\n        /* \"#utility.yul\":566:575   */\n      dup4\n        /* \"#utility.yul\":562:579   */\n      add\n        /* \"#utility.yul\":553:559   */\n      dup5\n        /* \"#utility.yul\":509:580   */\n      tag_61\n      jump\t// in\n    tag_94:\n        /* \"#utility.yul\":365:587   */\n      swap3\n      swap2\n      pop\n      pop\n      jump\t// out\n        /* \"#utility.yul\":593:668   */\n    tag_62:\n        /* \"#utility.yul\":626:632   */\n      0x00\n        /* \"#utility.yul\":659:661   */\n      0x40\n        /* \"#utility.yul\":653:662   */\n      mload\n        /* \"#utility.yul\":643:662   */\n      swap1\n      pop\n        /* \"#utility.yul\":593:668   */\n      swap1\n      jump\t// out\n        /* \"#utility.yul\":674:791   */\n    tag_63:\n        /* \"#utility.yul\":783:784   */\n      0x00\n        /* \"#utility.yul\":780:781   */\n      dup1\n        /* \"#utility.yul\":773:785   */\n      revert\n        /* \"#utility.yul\":797:914   */\n    tag_64:\n        /* \"#utility.yul\":906:907   */\n      0x00\n        /* \"#utility.yul\":903:904   */\n      dup1\n        /* \"#utility.yul\":896:908   */\n      revert\n        /* \"#utility.yul\":920:1052   */\n    tag_65:\n        /* \"#utility.yul\":993:1000   */\n      0x00\n        /* \"#utility.yul\":1022:1046   */\n      tag_99\n        /* \"#utility.yul\":1040:1045   */\n      dup3\n        /* \"#utility.yul\":1022:1046   */\n      tag_60\n      jump\t// in\n    tag_99:\n        /* \"#utility.yul\":1011:1046   */\n      swap1\n      pop\n        /* \"#utility.yul\":920:1052   */\n      swap2\n      swap1\n      pop\n      jump\t// out\n        /* \"#utility.yul\":1058:1252   */\n    tag_66:\n        /* \"#utility.yul\":1167:1227   */\n      tag_101\n        /* \"#utility.yul\":1221:1226   */\n      dup2\n        /* \"#utility.yul\":1167:1227   */\n      tag_65\n      jump\t// in\n    tag_101:\n        /* \"#utility.yul\":1160:1165   */\n      dup2\n        /* \"#utility.yul\":1157:1228   */\n      eq\n        /* \"#utility.yul\":1147:1246   */\n      tag_102\n      jumpi\n        /* \"#utility.yul\":1242:1243   */\n      0x00\n        /* \"#utility.yul\":1239:1240   */\n      dup1\n        /* \"#utility.yul\":1232:1244   */\n      revert\n        /* \"#utility.yul\":1147:1246   */\n    tag_102:\n        /* \"#utility.yul\":1058:1252   */\n      pop\n      jump\t// out\n        /* \"#utility.yul\":1258:1469   */\n    tag_67:\n        /* \"#utility.yul\":1340:1345   */\n      0x00\n        /* \"#utility.yul\":1378:1384   */\n      dup2\n        /* \"#utility.yul\":1365:1385   */\n      calldataload\n        /* \"#utility.yul\":1356:1385   */\n      swap1\n      pop\n        /* \"#utility.yul\":1394:1463   */\n      tag_104\n        /* \"#utility.yul\":1457:1462   */\n      dup2\n        /* \"#utility.yul\":1394:1463   */\n      tag_66\n      jump\t// in\n    tag_104:\n        /* \"#utility.yul\":1258:1469   */\n      swap3\n      swap2\n      pop\n      pop\n      jump\t// out\n        /* \"#utility.yul\":1475:1597   */\n    tag_68:\n        /* \"#utility.yul\":1548:1572   */\n      tag_106\n        /* \"#utility.yul\":1566:1571   */\n      dup2\n        /* \"#utility.yul\":1548:1572   */\n      tag_60\n      jump\t// in\n    tag_106:\n        /* \"#utility.yul\":1541:1546   */\n      dup2\n        /* \"#utility.yul\":1538:1573   */\n      eq\n        /* \"#utility.yul\":1528:1591   */\n      tag_107\n      jumpi\n        /* \"#utility.yul\":1587:1588   */\n      0x00\n        /* \"#utility.yul\":1584:1585   */\n      dup1\n        /* \"#utility.yul\":1577:1589   */\n      revert\n        /* \"#utility.yul\":1528:1591   */\n    tag_107:\n        /* \"#utility.yul\":1475:1597   */\n      pop\n      jump\t// out\n        /* \"#utility.yul\":1603:1742   */\n    tag_69:\n        /* \"#utility.yul\":1649:1654   */\n      0x00\n        /* \"#utility.yul\":1687:1693   */\n      dup2\n        /* \"#utility.yul\":1674:1694   */\n      calldataload\n        /* \"#utility.yul\":1665:1694   */\n      swap1\n      pop\n        /* \"#utility.yul\":1703:1736   */\n      tag_109\n        /* \"#utility.yul\":1730:1735   */\n      dup2\n        /* \"#utility.yul\":1703:1736   */\n      tag_68\n      jump\t// in\n    tag_109:\n        /* \"#utility.yul\":1603:1742   */\n      swap3\n      swap2\n      pop\n      pop\n      jump\t// out\n        /* \"#utility.yul\":1748:1865   */\n    tag_70:\n        /* \"#utility.yul\":1857:1858   */\n      0x00\n        /* \"#utility.yul\":1854:1855   */\n      dup1\n        /* \"#utility.yul\":1847:1859   */\n      revert\n        /* \"#utility.yul\":1871:1988   */\n    tag_71:\n        /* \"#utility.yul\":1980:1981   */\n      0x00\n        /* \"#utility.yul\":1977:1978   */\n      dup1\n        /* \"#utility.yul\":1970:1982   */\n      revert\n        /* \"#utility.yul\":1994:2096   */\n    tag_72:\n        /* \"#utility.yul\":2035:2041   */\n      0x00\n        /* \"#utility.yul\":2086:2088   */\n      0x1f\n        /* \"#utility.yul\":2082:2089   */\n      not\n        /* \"#utility.yul\":2077:2079   */\n      0x1f\n        /* \"#utility.yul\":2070:2075   */\n      dup4\n        /* \"#utility.yul\":2066:2080   */\n      add\n        /* \"#utility.yul\":2062:2090   */\n      and\n        /* \"#utility.yul\":2052:2090   */\n      swap1\n      pop\n        /* \"#utility.yul\":1994:2096   */\n      swap2\n      swap1\n      pop\n      jump\t// out\n        /* \"#utility.yul\":2102:2282   */\n    tag_73:\n        /* \"#utility.yul\":2150:2227   */\n      0x4e487b7100000000000000000000000000000000000000000000000000000000\n        /* \"#utility.yul\":2147:2148   */\n      0x00\n        /* \"#utility.yul\":2140:2228   */\n      mstore\n        /* \"#utility.yul\":2247:2251   */\n      0x41\n        /* \"#utility.yul\":2244:2245   */\n      0x04\n        /* \"#utility.yul\":2237:2252   */\n      mstore\n        /* \"#utility.yul\":2271:2275   */\n      0x24\n        /* \"#utility.yul\":2268:2269   */\n      0x00\n        /* \"#utility.yul\":2261:2276   */\n      revert\n        /* \"#utility.yul\":2288:2569   */\n    tag_74:\n        /* \"#utility.yul\":2371:2398   */\n      tag_115\n        /* \"#utility.yul\":2393:2397   */\n      dup3\n        /* \"#utility.yul\":2371:2398   */\n      tag_72\n      jump\t// in\n    tag_115:\n        /* \"#utility.yul\":2363:2369   */\n      dup2\n        /* \"#utility.yul\":2359:2399   */\n      add\n        /* \"#utility.yul\":2501:2507   */\n      dup2\n        /* \"#utility.yul\":2489:2499   */\n      dup2\n        /* \"#utility.yul\":2486:2508   */\n      lt\n        /* \"#utility.yul\":2465:2483   */\n      0xffffffffffffffff\n        /* \"#utility.yul\":2453:2463   */\n      dup3\n        /* \"#utility.yul\":2450:2484   */\n      gt\n        /* \"#utility.yul\":2447:2509   */\n      or\n        /* \"#utility.yul\":2444:2532   */\n      iszero\n      tag_116\n      jumpi\n        /* \"#utility.yul\":2512:2530   */\n      tag_117\n      tag_73\n      jump\t// in\n    tag_117:\n        /* \"#utility.yul\":2444:2532   */\n    tag_116:\n        /* \"#utility.yul\":2552:2562   */\n      dup1\n        /* \"#utility.yul\":2548:2550   */\n      0x40\n        /* \"#utility.yul\":2541:2563   */\n      mstore\n        /* \"#utility.yul\":2331:2569   */\n      pop\n        /* \"#utility.yul\":2288:2569   */\n      pop\n      pop\n      jump\t// out\n        /* \"#utility.yul\":2575:2704   */\n    tag_75:\n        /* \"#utility.yul\":2609:2615   */\n      0x00\n        /* \"#utility.yul\":2636:2656   */\n      tag_119\n      tag_62\n      jump\t// in\n    tag_119:\n        /* \"#utility.yul\":2626:2656   */\n      swap1\n      pop\n        /* \"#utility.yul\":2665:2698   */\n      tag_120\n        /* \"#utility.yul\":2693:2697   */\n      dup3\n        /* \"#utility.yul\":2685:2691   */\n      dup3\n        /* \"#utility.yul\":2665:2698   */\n      tag_74\n      jump\t// in\n    tag_120:\n        /* \"#utility.yul\":2575:2704   */\n      swap2\n      swap1\n      pop\n      jump\t// out\n        /* \"#utility.yul\":2710:3017   */\n    tag_76:\n        /* \"#utility.yul\":2771:2775   */\n      0x00\n        /* \"#utility.yul\":2861:2879   */\n      0xffffffffffffffff\n        /* \"#utility.yul\":2853:2859   */\n      dup3\n        /* \"#utility.yul\":2850:2880   */\n      gt\n        /* \"#utility.yul\":2847:2903   */\n      iszero\n      tag_122\n      jumpi\n        /* \"#utility.yul\":2883:2901   */\n      tag_123\n      tag_73\n      jump\t// in\n    tag_123:\n        /* \"#utility.yul\":2847:2903   */\n    tag_122:\n        /* \"#utility.yul\":2921:2950   */\n      tag_124\n        /* \"#utility.yul\":2943:2949   */\n      dup3\n        /* \"#utility.yul\":2921:2950   */\n      tag_72\n      jump\t// in\n    tag_124:\n        /* \"#utility.yul\":2913:2950   */\n      swap1\n      pop\n        /* \"#utility.yul\":3005:3009   */\n      0x20\n        /* \"#utility.yul\":2999:3003   */\n      dup2\n        /* \"#utility.yul\":2995:3010   */\n      add\n        /* \"#utility.yul\":2987:3010   */\n      swap1\n      pop\n        /* \"#utility.yul\":2710:3017   */\n      swap2\n      swap1\n      pop\n      jump\t// out\n        /* \"#utility.yul\":3023:3169   */\n    tag_77:\n        /* \"#utility.yul\":3120:3126   */\n      dup3\n        /* \"#utility.yul\":3115:3118   */\n      dup2\n        /* \"#utility.yul\":3110:3113   */\n      dup4\n        /* \"#utility.yul\":3097:3127   */\n      calldatacopy\n        /* \"#utility.yul\":3161:3162   */\n      0x00\n        /* \"#utility.yul\":3152:3158   */\n      dup4\n        /* \"#utility.yul\":3147:3150   */\n      dup4\n        /* \"#utility.yul\":3143:3159   */\n      add\n        /* \"#utility.yul\":3136:3163   */\n      mstore\n        /* \"#utility.yul\":3023:3169   */\n      pop\n      pop\n      pop\n      jump\t// out\n        /* \"#utility.yul\":3175:3598   */\n    tag_78:\n        /* \"#utility.yul\":3252:3257   */\n      0x00\n        /* \"#utility.yul\":3277:3342   */\n      tag_127\n        /* \"#utility.yul\":3293:3341   */\n      tag_128\n        /* \"#utility.yul\":3334:3340   */\n      dup5\n        /* \"#utility.yul\":3293:3341   */\n      tag_76\n      jump\t// in\n    tag_128:\n        /* \"#utility.yul\":3277:3342   */\n      tag_75\n      jump\t// in\n    tag_127:\n        /* \"#utility.yul\":3268:3342   */\n      swap1\n      pop\n        /* \"#utility.yul\":3365:3371   */\n      dup3\n        /* \"#utility.yul\":3358:3363   */\n      dup2\n        /* \"#utility.yul\":3351:3372   */\n      mstore\n        /* \"#utility.yul\":3403:3407   */\n      0x20\n        /* \"#utility.yul\":3396:3401   */\n      dup2\n        /* \"#utility.yul\":3392:3408   */\n      add\n        /* \"#utility.yul\":3441:3444   */\n      dup5\n        /* \"#utility.yul\":3432:3438   */\n      dup5\n        /* \"#utility.yul\":3427:3430   */\n      dup5\n        /* \"#utility.yul\":3423:3439   */\n      add\n        /* \"#utility.yul\":3420:3445   */\n      gt\n        /* \"#utility.yul\":3417:3529   */\n      iszero\n      tag_129\n      jumpi\n        /* \"#utility.yul\":3448:3527   */\n      tag_130\n      tag_71\n      jump\t// in\n    tag_130:\n        /* \"#utility.yul\":3417:3529   */\n    tag_129:\n        /* \"#utility.yul\":3538:3592   */\n      tag_131\n        /* \"#utility.yul\":3585:3591   */\n      dup5\n        /* \"#utility.yul\":3580:3583   */\n      dup3\n        /* \"#utility.yul\":3575:3578   */\n      dup6\n        /* \"#utility.yul\":3538:3592   */\n      tag_77\n      jump\t// in\n    tag_131:\n        /* \"#utility.yul\":3258:3598   */\n      pop\n        /* \"#utility.yul\":3175:3598   */\n      swap4\n      swap3\n      pop\n      pop\n      pop\n      jump\t// out\n        /* \"#utility.yul\":3617:3955   */\n    tag_79:\n        /* \"#utility.yul\":3672:3677   */\n      0x00\n        /* \"#utility.yul\":3721:3724   */\n      dup3\n        /* \"#utility.yul\":3714:3718   */\n      0x1f\n        /* \"#utility.yul\":3706:3712   */\n      dup4\n        /* \"#utility.yul\":3702:3719   */\n      add\n        /* \"#utility.yul\":3698:3725   */\n      slt\n        /* \"#utility.yul\":3688:3810   */\n      tag_133\n      jumpi\n        /* \"#utility.yul\":3729:3808   */\n      tag_134\n      tag_70\n      jump\t// in\n    tag_134:\n        /* \"#utility.yul\":3688:3810   */\n    tag_133:\n        /* \"#utility.yul\":3846:3852   */\n      dup2\n        /* \"#utility.yul\":3833:3853   */\n      calldataload\n        /* \"#utility.yul\":3871:3949   */\n      tag_135\n        /* \"#utility.yul\":3945:3948   */\n      dup5\n        /* \"#utility.yul\":3937:3943   */\n      dup3\n        /* \"#utility.yul\":3930:3934   */\n      0x20\n        /* \"#utility.yul\":3922:3928   */\n      dup7\n        /* \"#utility.yul\":3918:3935   */\n      add\n        /* \"#utility.yul\":3871:3949   */\n      tag_78\n      jump\t// in\n    tag_135:\n        /* \"#utility.yul\":3862:3949   */\n      swap2\n      pop\n        /* \"#utility.yul\":3678:3955   */\n      pop\n        /* \"#utility.yul\":3617:3955   */\n      swap3\n      swap2\n      pop\n      pop\n      jump\t// out\n        /* \"#utility.yul\":3961:4830   */\n    tag_17:\n        /* \"#utility.yul\":4083:4089   */\n      0x00\n        /* \"#utility.yul\":4091:4097   */\n      dup1\n        /* \"#utility.yul\":4099:4105   */\n      0x00\n        /* \"#utility.yul\":4148:4150   */\n      0x60\n        /* \"#utility.yul\":4136:4145   */\n      dup5\n        /* \"#utility.yul\":4127:4134   */\n      dup7\n        /* \"#utility.yul\":4123:4146   */\n      sub\n        /* \"#utility.yul\":4119:4151   */\n      slt\n        /* \"#utility.yul\":4116:4235   */\n      iszero\n      tag_137\n      jumpi\n        /* \"#utility.yul\":4154:4233   */\n      tag_138\n      tag_63\n      jump\t// in\n    tag_138:\n        /* \"#utility.yul\":4116:4235   */\n    tag_137:\n        /* \"#utility.yul\":4274:4275   */\n      0x00\n        /* \"#utility.yul\":4299:4388   */\n      tag_139\n        /* \"#utility.yul\":4380:4387   */\n      dup7\n        /* \"#utility.yul\":4371:4377   */\n      dup3\n        /* \"#utility.yul\":4360:4369   */\n      dup8\n        /* \"#utility.yul\":4356:4378   */\n      add\n        /* \"#utility.yul\":4299:4388   */\n      tag_67\n      jump\t// in\n    tag_139:\n        /* \"#utility.yul\":4289:4388   */\n      swap4\n      pop\n        /* \"#utility.yul\":4245:4398   */\n      pop\n        /* \"#utility.yul\":4437:4439   */\n      0x20\n        /* \"#utility.yul\":4463:4516   */\n      tag_140\n        /* \"#utility.yul\":4508:4515   */\n      dup7\n        /* \"#utility.yul\":4499:4505   */\n      dup3\n        /* \"#utility.yul\":4488:4497   */\n      dup8\n        /* \"#utility.yul\":4484:4506   */\n      add\n        /* \"#utility.yul\":4463:4516   */\n      tag_69\n      jump\t// in\n    tag_140:\n        /* \"#utility.yul\":4453:4516   */\n      swap3\n      pop\n        /* \"#utility.yul\":4408:4526   */\n      pop\n        /* \"#utility.yul\":4593:4595   */\n      0x40\n        /* \"#utility.yul\":4582:4591   */\n      dup5\n        /* \"#utility.yul\":4578:4596   */\n      add\n        /* \"#utility.yul\":4565:4597   */\n      calldataload\n        /* \"#utility.yul\":4624:4642   */\n      0xffffffffffffffff\n        /* \"#utility.yul\":4616:4622   */\n      dup2\n        /* \"#utility.yul\":4613:4643   */\n      gt\n        /* \"#utility.yul\":4610:4727   */\n      iszero\n      tag_141\n      jumpi\n        /* \"#utility.yul\":4646:4725   */\n      tag_142\n      tag_64\n      jump\t// in\n    tag_142:\n        /* \"#utility.yul\":4610:4727   */\n    tag_141:\n        /* \"#utility.yul\":4751:4813   */\n      tag_143\n        /* \"#utility.yul\":4805:4812   */\n      dup7\n        /* \"#utility.yul\":4796:4802   */\n      dup3\n        /* \"#utility.yul\":4785:4794   */\n      dup8\n        /* \"#utility.yul\":4781:4803   */\n      add\n        /* \"#utility.yul\":4751:4813   */\n      tag_79\n      jump\t// in\n    tag_143:\n        /* \"#utility.yul\":4741:4813   */\n      swap2\n      pop\n        /* \"#utility.yul\":4536:4823   */\n      pop\n        /* \"#utility.yul\":3961:4830   */\n      swap3\n      pop\n      swap3\n      pop\n      swap3\n      jump\t// out\n        /* \"#utility.yul\":4836:4935   */\n    tag_80:\n        /* \"#utility.yul\":4888:4894   */\n      0x00\n        /* \"#utility.yul\":4922:4927   */\n      dup2\n        /* \"#utility.yul\":4916:4928   */\n      mload\n        /* \"#utility.yul\":4906:4928   */\n      swap1\n      pop\n        /* \"#utility.yul\":4836:4935   */\n      swap2\n      swap1\n      pop\n      jump\t// out\n        /* \"#utility.yul\":4941:5110   */\n    tag_81:\n        /* \"#utility.yul\":5025:5036   */\n      0x00\n        /* \"#utility.yul\":5059:5065   */\n      dup3\n        /* \"#utility.yul\":5054:5057   */\n      dup3\n        /* \"#utility.yul\":5047:5066   */\n      mstore\n        /* \"#utility.yul\":5099:5103   */\n      0x20\n        /* \"#utility.yul\":5094:5097   */\n      dup3\n        /* \"#utility.yul\":5090:5104   */\n      add\n        /* \"#utility.yul\":5075:5104   */\n      swap1\n      pop\n        /* \"#utility.yul\":4941:5110   */\n      swap3\n      swap2\n      pop\n      pop\n      jump\t// out\n        /* \"#utility.yul\":5116:5362   */\n    tag_82:\n        /* \"#utility.yul\":5197:5198   */\n      0x00\n        /* \"#utility.yul\":5207:5320   */\n    tag_147:\n        /* \"#utility.yul\":5221:5227   */\n      dup4\n        /* \"#utility.yul\":5218:5219   */\n      dup2\n        /* \"#utility.yul\":5215:5228   */\n      lt\n        /* \"#utility.yul\":5207:5320   */\n      iszero\n      tag_149\n      jumpi\n        /* \"#utility.yul\":5306:5307   */\n      dup1\n        /* \"#utility.yul\":5301:5304   */\n      dup3\n        /* \"#utility.yul\":5297:5308   */\n      add\n        /* \"#utility.yul\":5291:5309   */\n      mload\n        /* \"#utility.yul\":5287:5288   */\n      dup2\n        /* \"#utility.yul\":5282:5285   */\n      dup5\n        /* \"#utility.yul\":5278:5289   */\n      add\n        /* \"#utility.yul\":5271:5310   */\n      mstore\n        /* \"#utility.yul\":5243:5245   */\n      0x20\n        /* \"#utility.yul\":5240:5241   */\n      dup2\n        /* \"#utility.yul\":5236:5246   */\n      add\n        /* \"#utility.yul\":5231:5246   */\n      swap1\n      pop\n        /* \"#utility.yul\":5207:5320   */\n      jump(tag_147)\n    tag_149:\n        /* \"#utility.yul\":5354:5355   */\n      0x00\n        /* \"#utility.yul\":5345:5351   */\n      dup5\n        /* \"#utility.yul\":5340:5343   */\n      dup5\n        /* \"#utility.yul\":5336:5352   */\n      add\n        /* \"#utility.yul\":5329:5356   */\n      mstore\n        /* \"#utility.yul\":5178:5362   */\n      pop\n        /* \"#utility.yul\":5116:5362   */\n      pop\n      pop\n      pop\n      jump\t// out\n        /* \"#utility.yul\":5368:5745   */\n    tag_83:\n        /* \"#utility.yul\":5456:5459   */\n      0x00\n        /* \"#utility.yul\":5484:5523   */\n      tag_151\n        /* \"#utility.yul\":5517:5522   */\n      dup3\n        /* \"#utility.yul\":5484:5523   */\n      tag_80\n      jump\t// in\n    tag_151:\n        /* \"#utility.yul\":5539:5610   */\n      tag_152\n        /* \"#utility.yul\":5603:5609   */\n      dup2\n        /* \"#utility.yul\":5598:5601   */\n      dup6\n        /* \"#utility.yul\":5539:5610   */\n      tag_81\n      jump\t// in\n    tag_152:\n        /* \"#utility.yul\":5532:5610   */\n      swap4\n      pop\n        /* \"#utility.yul\":5619:5684   */\n      tag_153\n        /* \"#utility.yul\":5677:5683   */\n      dup2\n        /* \"#utility.yul\":5672:5675   */\n      dup6\n        /* \"#utility.yul\":5665:5669   */\n      0x20\n        /* \"#utility.yul\":5658:5663   */\n      dup7\n        /* \"#utility.yul\":5654:5670   */\n      add\n        /* \"#utility.yul\":5619:5684   */\n      tag_82\n      jump\t// in\n    tag_153:\n        /* \"#utility.yul\":5709:5738   */\n      tag_154\n        /* \"#utility.yul\":5731:5737   */\n      dup2\n        /* \"#utility.yul\":5709:5738   */\n      tag_72\n      jump\t// in\n    tag_154:\n        /* \"#utility.yul\":5704:5707   */\n      dup5\n        /* \"#utility.yul\":5700:5739   */\n      add\n        /* \"#utility.yul\":5693:5739   */\n      swap2\n      pop\n        /* \"#utility.yul\":5460:5745   */\n      pop\n        /* \"#utility.yul\":5368:5745   */\n      swap3\n      swap2\n      pop\n      pop\n      jump\t// out\n        /* \"#utility.yul\":5751:6064   */\n    tag_23:\n        /* \"#utility.yul\":5864:5868   */\n      0x00\n        /* \"#utility.yul\":5902:5904   */\n      0x20\n        /* \"#utility.yul\":5891:5900   */\n      dup3\n        /* \"#utility.yul\":5887:5905   */\n      add\n        /* \"#utility.yul\":5879:5905   */\n      swap1\n      pop\n        /* \"#utility.yul\":5951:5960   */\n      dup2\n        /* \"#utility.yul\":5945:5949   */\n      dup2\n        /* \"#utility.yul\":5941:5961   */\n      sub\n        /* \"#utility.yul\":5937:5938   */\n      0x00\n        /* \"#utility.yul\":5926:5935   */\n      dup4\n        /* \"#utility.yul\":5922:5939   */\n      add\n        /* \"#utility.yul\":5915:5962   */\n      mstore\n        /* \"#utility.yul\":5979:6057   */\n      tag_156\n        /* \"#utility.yul\":6052:6056   */\n      dup2\n        /* \"#utility.yul\":6043:6049   */\n      dup5\n        /* \"#utility.yul\":5979:6057   */\n      tag_83\n      jump\t// in\n    tag_156:\n        /* \"#utility.yul\":5971:6057   */\n      swap1\n      pop\n        /* \"#utility.yul\":5751:6064   */\n      swap3\n      swap2\n      pop\n      pop\n      jump\t// out\n        /* \"#utility.yul\":6070:6399   */\n    tag_27:\n        /* \"#utility.yul\":6129:6135   */\n      0x00\n        /* \"#utility.yul\":6178:6180   */\n      0x20\n        /* \"#utility.yul\":6166:6175   */\n      dup3\n        /* \"#utility.yul\":6157:6164   */\n      dup5\n        /* \"#utility.yul\":6153:6176   */\n      sub\n        /* \"#utility.yul\":6149:6181   */\n      slt\n        /* \"#utility.yul\":6146:6265   */\n      iszero\n      tag_158\n      jumpi\n        /* \"#utility.yul\":6184:6263   */\n      tag_159\n      tag_63\n      jump\t// in\n    tag_159:\n        /* \"#utility.yul\":6146:6265   */\n    tag_158:\n        /* \"#utility.yul\":6304:6305   */\n      0x00\n        /* \"#utility.yul\":6329:6382   */\n      tag_160\n        /* \"#utility.yul\":6374:6381   */\n      dup5\n        /* \"#utility.yul\":6365:6371   */\n      dup3\n        /* \"#utility.yul\":6354:6363   */\n      dup6\n        /* \"#utility.yul\":6350:6372   */\n      add\n        /* \"#utility.yul\":6329:6382   */\n      tag_69\n      jump\t// in\n    tag_160:\n        /* \"#utility.yul\":6319:6382   */\n      swap2\n      pop\n        /* \"#utility.yul\":6275:6392   */\n      pop\n        /* \"#utility.yul\":6070:6399   */\n      swap3\n      swap2\n      pop\n      pop\n      jump\t// out\n        /* \"#utility.yul\":6405:6503   */\n    tag_84:\n        /* \"#utility.yul\":6456:6462   */\n      0x00\n        /* \"#utility.yul\":6490:6495   */\n      dup2\n        /* \"#utility.yul\":6484:6496   */\n      mload\n        /* \"#utility.yul\":6474:6496   */\n      swap1\n      pop\n        /* \"#utility.yul\":6405:6503   */\n      swap2\n      swap1\n      pop\n      jump\t// out\n        /* \"#utility.yul\":6509:6677   */\n    tag_85:\n        /* \"#utility.yul\":6592:6603   */\n      0x00\n        /* \"#utility.yul\":6626:6632   */\n      dup3\n        /* \"#utility.yul\":6621:6624   */\n      dup3\n        /* \"#utility.yul\":6614:6633   */\n      mstore\n        /* \"#utility.yul\":6666:6670   */\n      0x20\n        /* \"#utility.yul\":6661:6664   */\n      dup3\n        /* \"#utility.yul\":6657:6671   */\n      add\n        /* \"#utility.yul\":6642:6671   */\n      swap1\n      pop\n        /* \"#utility.yul\":6509:6677   */\n      swap3\n      swap2\n      pop\n      pop\n      jump\t// out\n        /* \"#utility.yul\":6683:7056   */\n    tag_86:\n        /* \"#utility.yul\":6769:6772   */\n      0x00\n        /* \"#utility.yul\":6797:6835   */\n      tag_164\n        /* \"#utility.yul\":6829:6834   */\n      dup3\n        /* \"#utility.yul\":6797:6835   */\n      tag_84\n      jump\t// in\n    tag_164:\n        /* \"#utility.yul\":6851:6921   */\n      tag_165\n        /* \"#utility.yul\":6914:6920   */\n      dup2\n        /* \"#utility.yul\":6909:6912   */\n      dup6\n        /* \"#utility.yul\":6851:6921   */\n      tag_85\n      jump\t// in\n    tag_165:\n        /* \"#utility.yul\":6844:6921   */\n      swap4\n      pop\n        /* \"#utility.yul\":6930:6995   */\n      tag_166\n        /* \"#utility.yul\":6988:6994   */\n      dup2\n        /* \"#utility.yul\":6983:6986   */\n      dup6\n        /* \"#utility.yul\":6976:6980   */\n      0x20\n        /* \"#utility.yul\":6969:6974   */\n      dup7\n        /* \"#utility.yul\":6965:6981   */\n      add\n        /* \"#utility.yul\":6930:6995   */\n      tag_82\n      jump\t// in\n    tag_166:\n        /* \"#utility.yul\":7020:7049   */\n      tag_167\n        /* \"#utility.yul\":7042:7048   */\n      dup2\n        /* \"#utility.yul\":7020:7049   */\n      tag_72\n      jump\t// in\n    tag_167:\n        /* \"#utility.yul\":7015:7018   */\n      dup5\n        /* \"#utility.yul\":7011:7050   */\n      add\n        /* \"#utility.yul\":7004:7050   */\n      swap2\n      pop\n        /* \"#utility.yul\":6773:7056   */\n      pop\n        /* \"#utility.yul\":6683:7056   */\n      swap3\n      swap2\n      pop\n      pop\n      jump\t// out\n        /* \"#utility.yul\":7062:7481   */\n    tag_40:\n        /* \"#utility.yul\":7201:7205   */\n      0x00\n        /* \"#utility.yul\":7239:7241   */\n      0x40\n        /* \"#utility.yul\":7228:7237   */\n      dup3\n        /* \"#utility.yul\":7224:7242   */\n      add\n        /* \"#utility.yul\":7216:7242   */\n      swap1\n      pop\n        /* \"#utility.yul\":7252:7323   */\n      tag_169\n        /* \"#utility.yul\":7320:7321   */\n      0x00\n        /* \"#utility.yul\":7309:7318   */\n      dup4\n        /* \"#utility.yul\":7305:7322   */\n      add\n        /* \"#utility.yul\":7296:7302   */\n      dup6\n        /* \"#utility.yul\":7252:7323   */\n      tag_61\n      jump\t// in\n    tag_169:\n        /* \"#utility.yul\":7370:7379   */\n      dup2\n        /* \"#utility.yul\":7364:7368   */\n      dup2\n        /* \"#utility.yul\":7360:7380   */\n      sub\n        /* \"#utility.yul\":7355:7357   */\n      0x20\n        /* \"#utility.yul\":7344:7353   */\n      dup4\n        /* \"#utility.yul\":7340:7358   */\n      add\n        /* \"#utility.yul\":7333:7381   */\n      mstore\n        /* \"#utility.yul\":7398:7474   */\n      tag_170\n        /* \"#utility.yul\":7469:7473   */\n      dup2\n        /* \"#utility.yul\":7460:7466   */\n      dup5\n        /* \"#utility.yul\":7398:7474   */\n      tag_86\n      jump\t// in\n    tag_170:\n        /* \"#utility.yul\":7390:7474   */\n      swap1\n      pop\n        /* \"#utility.yul\":7062:7481   */\n      swap4\n      swap3\n      pop\n      pop\n      pop\n      jump\t// out\n\n    auxdata: 0xa26469706673582212202c5f2f3518b05332e079f5224b0081288f1e97f047824d46c40f0fd82c958d2264736f6c63430008160033\n}\n",
				"bytecode": {
					"linkReferences": {},
					"object": "608060405234801561000f575f80fd5b506040516109e03803806109e0833981810160405281019061003191906101d7565b805f73ffffffffffffffffffffffffffffffffffffffff168173ffffffffffffffffffffffffffffffffffffffff16036100a2575f6040517f1e4fbdf70000000000000000000000000000000000000000000000000000000081526004016100999190610211565b60405180910390fd5b6100b1816100b860201b60201c565b505061022a565b5f805f9054906101000a900473ffffffffffffffffffffffffffffffffffffffff169050815f806101000a81548173ffffffffffffffffffffffffffffffffffffffff021916908373ffffffffffffffffffffffffffffffffffffffff1602179055508173ffffffffffffffffffffffffffffffffffffffff168173ffffffffffffffffffffffffffffffffffffffff167f8be0079c531659141344cd1fd0a4f28419497f9722a3daafe3b4186f6b6457e060405160405180910390a35050565b5f80fd5b5f73ffffffffffffffffffffffffffffffffffffffff82169050919050565b5f6101a68261017d565b9050919050565b6101b68161019c565b81146101c0575f80fd5b50565b5f815190506101d1816101ad565b92915050565b5f602082840312156101ec576101eb610179565b5b5f6101f9848285016101c3565b91505092915050565b61020b8161019c565b82525050565b5f6020820190506102245f830184610202565b92915050565b6107a9806102375f395ff3fe608060405260043610610049575f3560e01c8063715018a61461004d5780638da5cb5b146100635780639623609d1461008d578063ad3cb1cc146100a9578063f2fde38b146100d3575b5f80fd5b348015610058575f80fd5b506100616100fb565b005b34801561006e575f80fd5b5061007761010e565b60405161008491906103f7565b60405180910390f35b6100a760048036038101906100a291906105c2565b610135565b005b3480156100b4575f80fd5b506100bd6101ac565b6040516100ca91906106a8565b60405180910390f35b3480156100de575f80fd5b506100f960048036038101906100f491906106c8565b6101e5565b005b610103610269565b61010c5f6102f0565b565b5f805f9054906101000a900473ffffffffffffffffffffffffffffffffffffffff16905090565b61013d610269565b8273ffffffffffffffffffffffffffffffffffffffff16634f1ef2863484846040518463ffffffff1660e01b8152600401610179929190610745565b5f604051808303818588803b158015610190575f80fd5b505af11580156101a2573d5f803e3d5ffd5b5050505050505050565b6040518060400160405280600581526020017f352e302e3000000000000000000000000000000000000000000000000000000081525081565b6101ed610269565b5f73ffffffffffffffffffffffffffffffffffffffff168173ffffffffffffffffffffffffffffffffffffffff160361025d575f6040517f1e4fbdf700000000000000000000000000000000000000000000000000000000815260040161025491906103f7565b60405180910390fd5b610266816102f0565b50565b6102716103b1565b73ffffffffffffffffffffffffffffffffffffffff1661028f61010e565b73ffffffffffffffffffffffffffffffffffffffff16146102ee576102b26103b1565b6040517f118cdaa70000000000000000000000000000000000000000000000000000000081526004016102e591906103f7565b60405180910390fd5b565b5f805f9054906101000a900473ffffffffffffffffffffffffffffffffffffffff169050815f806101000a81548173ffffffffffffffffffffffffffffffffffffffff021916908373ffffffffffffffffffffffffffffffffffffffff1602179055508173ffffffffffffffffffffffffffffffffffffffff168173ffffffffffffffffffffffffffffffffffffffff167f8be0079c531659141344cd1fd0a4f28419497f9722a3daafe3b4186f6b6457e060405160405180910390a35050565b5f33905090565b5f73ffffffffffffffffffffffffffffffffffffffff82169050919050565b5f6103e1826103b8565b9050919050565b6103f1816103d7565b82525050565b5f60208201905061040a5f8301846103e8565b92915050565b5f604051905090565b5f80fd5b5f80fd5b5f61042b826103d7565b9050919050565b61043b81610421565b8114610445575f80fd5b50565b5f8135905061045681610432565b92915050565b610465816103d7565b811461046f575f80fd5b50565b5f813590506104808161045c565b92915050565b5f80fd5b5f80fd5b5f601f19601f8301169050919050565b7f4e487b71000000000000000000000000000000000000000000000000000000005f52604160045260245ffd5b6104d48261048e565b810181811067ffffffffffffffff821117156104f3576104f261049e565b5b80604052505050565b5f610505610410565b905061051182826104cb565b919050565b5f67ffffffffffffffff8211156105305761052f61049e565b5b6105398261048e565b9050602081019050919050565b828183375f83830152505050565b5f61056661056184610516565b6104fc565b9050828152602081018484840111156105825761058161048a565b5b61058d848285610546565b509392505050565b5f82601f8301126105a9576105a8610486565b5b81356105b9848260208601610554565b91505092915050565b5f805f606084860312156105d9576105d8610419565b5b5f6105e686828701610448565b93505060206105f786828701610472565b925050604084013567ffffffffffffffff8111156106185761061761041d565b5b61062486828701610595565b9150509250925092565b5f81519050919050565b5f82825260208201905092915050565b5f5b8381101561066557808201518184015260208101905061064a565b5f8484015250505050565b5f61067a8261062e565b6106848185610638565b9350610694818560208601610648565b61069d8161048e565b840191505092915050565b5f6020820190508181035f8301526106c08184610670565b905092915050565b5f602082840312156106dd576106dc610419565b5b5f6106ea84828501610472565b91505092915050565b5f81519050919050565b5f82825260208201905092915050565b5f610717826106f3565b61072181856106fd565b9350610731818560208601610648565b61073a8161048e565b840191505092915050565b5f6040820190506107585f8301856103e8565b818103602083015261076a818461070d565b9050939250505056fea26469706673582212202c5f2f3518b05332e079f5224b0081288f1e97f047824d46c40f0fd82c958d2264736f6c63430008160033",
					"opcodes": "PUSH1 0x80 PUSH1 0x40 MSTORE CALLVALUE DUP1 ISZERO PUSH2 0xF JUMPI PUSH0 DUP1 REVERT JUMPDEST POP PUSH1 0x40 MLOAD PUSH2 0x9E0 CODESIZE SUB DUP1 PUSH2 0x9E0 DUP4 CODECOPY DUP2 DUP2 ADD PUSH1 0x40 MSTORE DUP2 ADD SWAP1 PUSH2 0x31 SWAP2 SWAP1 PUSH2 0x1D7 JUMP JUMPDEST DUP1 PUSH0 PUSH20 0xFFFFFFFFFFFFFFFFFFFFFFFFFFFFFFFFFFFFFFFF AND DUP2 PUSH20 0xFFFFFFFFFFFFFFFFFFFFFFFFFFFFFFFFFFFFFFFF AND SUB PUSH2 0xA2 JUMPI PUSH0 PUSH1 0x40 MLOAD PUSH32 0x1E4FBDF700000000000000000000000000000000000000000000000000000000 DUP2 MSTORE PUSH1 0x4 ADD PUSH2 0x99 SWAP2 SWAP1 PUSH2 0x211 JUMP JUMPDEST PUSH1 0x40 MLOAD DUP1 SWAP2 SUB SWAP1 REVERT JUMPDEST PUSH2 0xB1 DUP2 PUSH2 0xB8 PUSH1 0x20 SHL PUSH1 0x20 SHR JUMP JUMPDEST POP POP PUSH2 0x22A JUMP JUMPDEST PUSH0 DUP1 PUSH0 SWAP1 SLOAD SWAP1 PUSH2 0x100 EXP SWAP1 DIV PUSH20 0xFFFFFFFFFFFFFFFFFFFFFFFFFFFFFFFFFFFFFFFF AND SWAP1 POP DUP2 PUSH0 DUP1 PUSH2 0x100 EXP DUP2 SLOAD DUP2 PUSH20 0xFFFFFFFFFFFFFFFFFFFFFFFFFFFFFFFFFFFFFFFF MUL NOT AND SWAP1 DUP4 PUSH20 0xFFFFFFFFFFFFFFFFFFFFFFFFFFFFFFFFFFFFFFFF AND MUL OR SWAP1 SSTORE POP DUP2 PUSH20 0xFFFFFFFFFFFFFFFFFFFFFFFFFFFFFFFFFFFFFFFF AND DUP2 PUSH20 0xFFFFFFFFFFFFFFFFFFFFFFFFFFFFFFFFFFFFFFFF AND PUSH32 0x8BE0079C531659141344CD1FD0A4F28419497F9722A3DAAFE3B4186F6B6457E0 PUSH1 0x40 MLOAD PUSH1 0x40 MLOAD DUP1 SWAP2 SUB SWAP1 LOG3 POP POP JUMP JUMPDEST PUSH0 DUP1 REVERT JUMPDEST PUSH0 PUSH20 0xFFFFFFFFFFFFFFFFFFFFFFFFFFFFFFFFFFFFFFFF DUP3 AND SWAP1 POP SWAP2 SWAP1 POP JUMP JUMPDEST PUSH0 PUSH2 0x1A6 DUP3 PUSH2 0x17D JUMP JUMPDEST SWAP1 POP SWAP2 SWAP1 POP JUMP JUMPDEST PUSH2 0x1B6 DUP2 PUSH2 0x19C JUMP JUMPDEST DUP2 EQ PUSH2 0x1C0 JUMPI PUSH0 DUP1 REVERT JUMPDEST POP JUMP JUMPDEST PUSH0 DUP2 MLOAD SWAP1 POP PUSH2 0x1D1 DUP2 PUSH2 0x1AD JUMP JUMPDEST SWAP3 SWAP2 POP POP JUMP JUMPDEST PUSH0 PUSH1 0x20 DUP3 DUP5 SUB SLT ISZERO PUSH2 0x1EC JUMPI PUSH2 0x1EB PUSH2 0x179 JUMP JUMPDEST JUMPDEST PUSH0 PUSH2 0x1F9 DUP5 DUP3 DUP6 ADD PUSH2 0x1C3 JUMP JUMPDEST SWAP2 POP POP SWAP3 SWAP2 POP POP JUMP JUMPDEST PUSH2 0x20B DUP2 PUSH2 0x19C JUMP JUMPDEST DUP3 MSTORE POP POP JUMP JUMPDEST PUSH0 PUSH1 0x20 DUP3 ADD SWAP1 POP PUSH2 0x224 PUSH0 DUP4 ADD DUP5 PUSH2 0x202 JUMP JUMPDEST SWAP3 SWAP2 POP POP JUMP JUMPDEST PUSH2 0x7A9 DUP1 PUSH2 0x237 PUSH0 CODECOPY PUSH0 RETURN INVALID PUSH1 0x80 PUSH1 0x40 MSTORE PUSH1 0x4 CALLDATASIZE LT PUSH2 0x49 JUMPI PUSH0 CALLDATALOAD PUSH1 0xE0 SHR DUP1 PUSH4 0x715018A6 EQ PUSH2 0x4D JUMPI DUP1 PUSH4 0x8DA5CB5B EQ PUSH2 0x63 JUMPI DUP1 PUSH4 0x9623609D EQ PUSH2 0x8D JUMPI DUP1 PUSH4 0xAD3CB1CC EQ PUSH2 0xA9 JUMPI DUP1 PUSH4 0xF2FDE38B EQ PUSH2 0xD3 JUMPI JUMPDEST PUSH0 DUP1 REVERT JUMPDEST CALLVALUE DUP1 ISZERO PUSH2 0x58 JUMPI PUSH0 DUP1 REVERT JUMPDEST POP PUSH2 0x61 PUSH2 0xFB JUMP JUMPDEST STOP JUMPDEST CALLVALUE DUP1 ISZERO PUSH2 0x6E JUMPI PUSH0 DUP1 REVERT JUMPDEST POP PUSH2 0x77 PUSH2 0x10E JUMP JUMPDEST PUSH1 0x40 MLOAD PUSH2 0x84 SWAP2 SWAP1 PUSH2 0x3F7 JUMP JUMPDEST PUSH1 0x40 MLOAD DUP1 SWAP2 SUB SWAP1 RETURN JUMPDEST PUSH2 0xA7 PUSH1 0x4 DUP1 CALLDATASIZE SUB DUP2 ADD SWAP1 PUSH2 0xA2 SWAP2 SWAP1 PUSH2 0x5C2 JUMP JUMPDEST PUSH2 0x135 JUMP JUMPDEST STOP JUMPDEST CALLVALUE DUP1 ISZERO PUSH2 0xB4 JUMPI PUSH0 DUP1 REVERT JUMPDEST POP PUSH2 0xBD PUSH2 0x1AC JUMP JUMPDEST PUSH1 0x40 MLOAD PUSH2 0xCA SWAP2 SWAP1 PUSH2 0x6A8 JUMP JUMPDEST PUSH1 0x40 MLOAD DUP1 SWAP2 SUB SWAP1 RETURN JUMPDEST CALLVALUE DUP1 ISZERO PUSH2 0xDE JUMPI PUSH0 DUP1 REVERT JUMPDEST POP PUSH2 0xF9 PUSH1 0x4 DUP1 CALLDATASIZE SUB DUP2 ADD SWAP1 PUSH2 0xF4 SWAP2 SWAP1 PUSH2 0x6C8 JUMP JUMPDEST PUSH2 0x1E5 JUMP JUMPDEST STOP JUMPDEST PUSH2 0x103 PUSH2 0x269 JUMP JUMPDEST PUSH2 0x10C PUSH0 PUSH2 0x2F0 JUMP JUMPDEST JUMP JUMPDEST PUSH0 DUP1 PUSH0 SWAP1 SLOAD SWAP1 PUSH2 0x100 EXP SWAP1 DIV PUSH20 0xFFFFFFFFFFFFFFFFFFFFFFFFFFFFFFFFFFFFFFFF AND SWAP1 POP SWAP1 JUMP JUMPDEST PUSH2 0x13D PUSH2 0x269 JUMP JUMPDEST DUP3 PUSH20 0xFFFFFFFFFFFFFFFFFFFFFFFFFFFFFFFFFFFFFFFF AND PUSH4 0x4F1EF286 CALLVALUE DUP5 DUP5 PUSH1 0x40 MLOAD DUP5 PUSH4 0xFFFFFFFF AND PUSH1 0xE0 SHL DUP2 MSTORE PUSH1 0x4 ADD PUSH2 0x179 SWAP3 SWAP2 SWAP1 PUSH2 0x745 JUMP JUMPDEST PUSH0 PUSH1 0x40 MLOAD DUP1 DUP4 SUB DUP2 DUP6 DUP9 DUP1 EXTCODESIZE ISZERO DUP1 ISZERO PUSH2 0x190 JUMPI PUSH0 DUP1 REVERT JUMPDEST POP GAS CALL ISZERO DUP1 ISZERO PUSH2 0x1A2 JUMPI RETURNDATASIZE PUSH0 DUP1 RETURNDATACOPY RETURNDATASIZE PUSH0 REVERT JUMPDEST POP POP POP POP POP POP POP POP JUMP JUMPDEST PUSH1 0x40 MLOAD DUP1 PUSH1 0x40 ADD PUSH1 0x40 MSTORE DUP1 PUSH1 0x5 DUP2 MSTORE PUSH1 0x20 ADD PUSH32 0x352E302E30000000000000000000000000000000000000000000000000000000 DUP2 MSTORE POP DUP2 JUMP JUMPDEST PUSH2 0x1ED PUSH2 0x269 JUMP JUMPDEST PUSH0 PUSH20 0xFFFFFFFFFFFFFFFFFFFFFFFFFFFFFFFFFFFFFFFF AND DUP2 PUSH20 0xFFFFFFFFFFFFFFFFFFFFFFFFFFFFFFFFFFFFFFFF AND SUB PUSH2 0x25D JUMPI PUSH0 PUSH1 0x40 MLOAD PUSH32 0x1E4FBDF700000000000000000000000000000000000000000000000000000000 DUP2 MSTORE PUSH1 0x4 ADD PUSH2 0x254 SWAP2 SWAP1 PUSH2 0x3F7 JUMP JUMPDEST PUSH1 0x40 MLOAD DUP1 SWAP2 SUB SWAP1 REVERT JUMPDEST PUSH2 0x266 DUP2 PUSH2 0x2F0 JUMP JUMPDEST POP JUMP JUMPDEST PUSH2 0x271 PUSH2 0x3B1 JUMP JUMPDEST PUSH20 0xFFFFFFFFFFFFFFFFFFFFFFFFFFFFFFFFFFFFFFFF AND PUSH2 0x28F PUSH2 0x10E JUMP JUMPDEST PUSH20 0xFFFFFFFFFFFFFFFFFFFFFFFFFFFFFFFFFFFFFFFF AND EQ PUSH2 0x2EE JUMPI PUSH2 0x2B2 PUSH2 0x3B1 JUMP JUMPDEST PUSH1 0x40 MLOAD PUSH32 0x118CDAA700000000000000000000000000000000000000000000000000000000 DUP2 MSTORE PUSH1 0x4 ADD PUSH2 0x2E5 SWAP2 SWAP1 PUSH2 0x3F7 JUMP JUMPDEST PUSH1 0x40 MLOAD DUP1 SWAP2 SUB SWAP1 REVERT JUMPDEST JUMP JUMPDEST PUSH0 DUP1 PUSH0 SWAP1 SLOAD SWAP1 PUSH2 0x100 EXP SWAP1 DIV PUSH20 0xFFFFFFFFFFFFFFFFFFFFFFFFFFFFFFFFFFFFFFFF AND SWAP1 POP DUP2 PUSH0 DUP1 PUSH2 0x100 EXP DUP2 SLOAD DUP2 PUSH20 0xFFFFFFFFFFFFFFFFFFFFFFFFFFFFFFFFFFFFFFFF MUL NOT AND SWAP1 DUP4 PUSH20 0xFFFFFFFFFFFFFFFFFFFFFFFFFFFFFFFFFFFFFFFF AND MUL OR SWAP1 SSTORE POP DUP2 PUSH20 0xFFFFFFFFFFFFFFFFFFFFFFFFFFFFFFFFFFFFFFFF AND DUP2 PUSH20 0xFFFFFFFFFFFFFFFFFFFFFFFFFFFFFFFFFFFFFFFF AND PUSH32 0x8BE0079C531659141344CD1FD0A4F28419497F9722A3DAAFE3B4186F6B6457E0 PUSH1 0x40 MLOAD PUSH1 0x40 MLOAD DUP1 SWAP2 SUB SWAP1 LOG3 POP POP JUMP JUMPDEST PUSH0 CALLER SWAP1 POP SWAP1 JUMP JUMPDEST PUSH0 PUSH20 0xFFFFFFFFFFFFFFFFFFFFFFFFFFFFFFFFFFFFFFFF DUP3 AND SWAP1 POP SWAP2 SWAP1 POP JUMP JUMPDEST PUSH0 PUSH2 0x3E1 DUP3 PUSH2 0x3B8 JUMP JUMPDEST SWAP1 POP SWAP2 SWAP1 POP JUMP JUMPDEST PUSH2 0x3F1 DUP2 PUSH2 0x3D7 JUMP JUMPDEST DUP3 MSTORE POP POP JUMP JUMPDEST PUSH0 PUSH1 0x20 DUP3 ADD SWAP1 POP PUSH2 0x40A PUSH0 DUP4 ADD DUP5 PUSH2 0x3E8 JUMP JUMPDEST SWAP3 SWAP2 POP POP JUMP JUMPDEST PUSH0 PUSH1 0x40 MLOAD SWAP1 POP SWAP1 JUMP JUMPDEST PUSH0 DUP1 REVERT JUMPDEST PUSH0 DUP1 REVERT JUMPDEST PUSH0 PUSH2 0x42B DUP3 PUSH2 0x3D7 JUMP JUMPDEST SWAP1 POP SWAP2 SWAP1 POP JUMP JUMPDEST PUSH2 0x43B DUP2 PUSH2 0x421 JUMP JUMPDEST DUP2 EQ PUSH2 0x445 JUMPI PUSH0 DUP1 REVERT JUMPDEST POP JUMP JUMPDEST PUSH0 DUP2 CALLDATALOAD SWAP1 POP PUSH2 0x456 DUP2 PUSH2 0x432 JUMP JUMPDEST SWAP3 SWAP2 POP POP JUMP JUMPDEST PUSH2 0x465 DUP2 PUSH2 0x3D7 JUMP JUMPDEST DUP2 EQ PUSH2 0x46F JUMPI PUSH0 DUP1 REVERT JUMPDEST POP JUMP JUMPDEST PUSH0 DUP2 CALLDATALOAD SWAP1 POP PUSH2 0x480 DUP2 PUSH2 0x45C JUMP JUMPDEST SWAP3 SWAP2 POP POP JUMP JUMPDEST PUSH0 DUP1 REVERT JUMPDEST PUSH0 DUP1 REVERT JUMPDEST PUSH0 PUSH1 0x1F NOT PUSH1 0x1F DUP4 ADD AND SWAP1 POP SWAP2 SWAP1 POP JUMP JUMPDEST PUSH32 0x4E487B7100000000000000000000000000000000000000000000000000000000 PUSH0 MSTORE PUSH1 0x41 PUSH1 0x4 MSTORE PUSH1 0x24 PUSH0 REVERT JUMPDEST PUSH2 0x4D4 DUP3 PUSH2 0x48E JUMP JUMPDEST DUP2 ADD DUP2 DUP2 LT PUSH8 0xFFFFFFFFFFFFFFFF DUP3 GT OR ISZERO PUSH2 0x4F3 JUMPI PUSH2 0x4F2 PUSH2 0x49E JUMP JUMPDEST JUMPDEST DUP1 PUSH1 0x40 MSTORE POP POP POP JUMP JUMPDEST PUSH0 PUSH2 0x505 PUSH2 0x410 JUMP JUMPDEST SWAP1 POP PUSH2 0x511 DUP3 DUP3 PUSH2 0x4CB JUMP JUMPDEST SWAP2 SWAP1 POP JUMP JUMPDEST PUSH0 PUSH8 0xFFFFFFFFFFFFFFFF DUP3 GT ISZERO PUSH2 0x530 JUMPI PUSH2 0x52F PUSH2 0x49E JUMP JUMPDEST JUMPDEST PUSH2 0x539 DUP3 PUSH2 0x48E JUMP JUMPDEST SWAP1 POP PUSH1 0x20 DUP2 ADD SWAP1 POP SWAP2 SWAP1 POP JUMP JUMPDEST DUP3 DUP2 DUP4 CALLDATACOPY PUSH0 DUP4 DUP4 ADD MSTORE POP POP POP JUMP JUMPDEST PUSH0 PUSH2 0x566 PUSH2 0x561 DUP5 PUSH2 0x516 JUMP JUMPDEST PUSH2 0x4FC JUMP JUMPDEST SWAP1 POP DUP3 DUP2 MSTORE PUSH1 0x20 DUP2 ADD DUP5 DUP5 DUP5 ADD GT ISZERO PUSH2 0x582 JUMPI PUSH2 0x581 PUSH2 0x48A JUMP JUMPDEST JUMPDEST PUSH2 0x58D DUP5 DUP3 DUP6 PUSH2 0x546 JUMP JUMPDEST POP SWAP4 SWAP3 POP POP POP JUMP JUMPDEST PUSH0 DUP3 PUSH1 0x1F DUP4 ADD SLT PUSH2 0x5A9 JUMPI PUSH2 0x5A8 PUSH2 0x486 JUMP JUMPDEST JUMPDEST DUP2 CALLDATALOAD PUSH2 0x5B9 DUP5 DUP3 PUSH1 0x20 DUP7 ADD PUSH2 0x554 JUMP JUMPDEST SWAP2 POP POP SWAP3 SWAP2 POP POP JUMP JUMPDEST PUSH0 DUP1 PUSH0 PUSH1 0x60 DUP5 DUP7 SUB SLT ISZERO PUSH2 0x5D9 JUMPI PUSH2 0x5D8 PUSH2 0x419 JUMP JUMPDEST JUMPDEST PUSH0 PUSH2 0x5E6 DUP7 DUP3 DUP8 ADD PUSH2 0x448 JUMP JUMPDEST SWAP4 POP POP PUSH1 0x20 PUSH2 0x5F7 DUP7 DUP3 DUP8 ADD PUSH2 0x472 JUMP JUMPDEST SWAP3 POP POP PUSH1 0x40 DUP5 ADD CALLDATALOAD PUSH8 0xFFFFFFFFFFFFFFFF DUP2 GT ISZERO PUSH2 0x618 JUMPI PUSH2 0x617 PUSH2 0x41D JUMP JUMPDEST JUMPDEST PUSH2 0x624 DUP7 DUP3 DUP8 ADD PUSH2 0x595 JUMP JUMPDEST SWAP2 POP POP SWAP3 POP SWAP3 POP SWAP3 JUMP JUMPDEST PUSH0 DUP2 MLOAD SWAP1 POP SWAP2 SWAP1 POP JUMP JUMPDEST PUSH0 DUP3 DUP3 MSTORE PUSH1 0x20 DUP3 ADD SWAP1 POP SWAP3 SWAP2 POP POP JUMP JUMPDEST PUSH0 JUMPDEST DUP4 DUP2 LT ISZERO PUSH2 0x665 JUMPI DUP1 DUP3 ADD MLOAD DUP2 DUP5 ADD MSTORE PUSH1 0x20 DUP2 ADD SWAP1 POP PUSH2 0x64A JUMP JUMPDEST PUSH0 DUP5 DUP5 ADD MSTORE POP POP POP POP JUMP JUMPDEST PUSH0 PUSH2 0x67A DUP3 PUSH2 0x62E JUMP JUMPDEST PUSH2 0x684 DUP2 DUP6 PUSH2 0x638 JUMP JUMPDEST SWAP4 POP PUSH2 0x694 DUP2 DUP6 PUSH1 0x20 DUP7 ADD PUSH2 0x648 JUMP JUMPDEST PUSH2 0x69D DUP2 PUSH2 0x48E JUMP JUMPDEST DUP5 ADD SWAP2 POP POP SWAP3 SWAP2 POP POP JUMP JUMPDEST PUSH0 PUSH1 0x20 DUP3 ADD SWAP1 POP DUP2 DUP2 SUB PUSH0 DUP4 ADD MSTORE PUSH2 0x6C0 DUP2 DUP5 PUSH2 0x670 JUMP JUMPDEST SWAP1 POP SWAP3 SWAP2 POP POP JUMP JUMPDEST PUSH0 PUSH1 0x20 DUP3 DUP5 SUB SLT ISZERO PUSH2 0x6DD JUMPI PUSH2 0x6DC PUSH2 0x419 JUMP JUMPDEST JUMPDEST PUSH0 PUSH2 0x6EA DUP5 DUP3 DUP6 ADD PUSH2 0x472 JUMP JUMPDEST SWAP2 POP POP SWAP3 SWAP2 POP POP JUMP JUMPDEST PUSH0 DUP2 MLOAD SWAP1 POP SWAP2 SWAP1 POP JUMP JUMPDEST PUSH0 DUP3 DUP3 MSTORE PUSH1 0x20 DUP3 ADD SWAP1 POP SWAP3 SWAP2 POP POP JUMP JUMPDEST PUSH0 PUSH2 0x717 DUP3 PUSH2 0x6F3 JUMP JUMPDEST PUSH2 0x721 DUP2 DUP6 PUSH2 0x6FD JUMP JUMPDEST SWAP4 POP PUSH2 0x731 DUP2 DUP6 PUSH1 0x20 DUP7 ADD PUSH2 0x648 JUMP JUMPDEST PUSH2 0x73A DUP2 PUSH2 0x48E JUMP JUMPDEST DUP5 ADD SWAP2 POP POP SWAP3 SWAP2 POP POP JUMP JUMPDEST PUSH0 PUSH1 0x40 DUP3 ADD SWAP1 POP PUSH2 0x758 PUSH0 DUP4 ADD DUP6 PUSH2 0x3E8 JUMP JUMPDEST DUP2 DUP2 SUB PUSH1 0x20 DUP4 ADD MSTORE PUSH2 0x76A DUP2 DUP5 PUSH2 0x70D JUMP JUMPDEST SWAP1 POP SWAP4 SWAP3 POP POP POP JUMP INVALID LOG2 PUSH5 0x6970667358 0x22 SLT KECCAK256 0x2C PUSH0 0x2F CALLDATALOAD XOR 0xB0 MSTORE8 ORIGIN 0xE0 PUSH26 0xF5224B0081288F1E97F047824D46C40F0FD82C958D2264736F6C PUSH4 0x43000816 STOP CALLER "
				},
				"gasEstimates": {
					"creation": {
						"codeDepositCost": "392200",
						"executionCost": "infinite",
						"totalCost": "infinite"
					},
					"external": {
						"UPGRADE_INTERFACE_VERSION()": "infinite",
						"owner()": "2515",
						"renounceOwnership()": "infinite",
						"transferOwnership(address)": "infinite",
						"upgradeAndCall(address,address,bytes)": "infinite"
					}
				},
				"methodIdentifiers": {
					"UPGRADE_INTERFACE_VERSION()": "ad3cb1cc",
					"owner()": "8da5cb5b",
					"renounceOwnership()": "715018a6",
					"transferOwnership(address)": "f2fde38b",
					"upgradeAndCall(address,address,bytes)": "9623609d"
				}
			},
			"storageLayout": {
				"storage": [
					{
						"astId": 8,
						"contract": "@openzeppelin/contracts/proxy/transparent/ProxyAdmin.sol:ProxyAdmin",
						"label": "_owner",
						"offset": 0,
						"slot": "0",
						"type": "t_address"
					}
				],
				"types": {
					"t_address": {
						"encoding": "inplace",
						"label": "address",
						"numberOfBytes": "20"
					}
				}
			},
			"userdoc": {
				"kind": "user",
				"methods": {},
				"version": 1
			}
		}
	}
}