{
	"data": {
		"bytecode": {
			"linkReferences": {},
			"object": "60a06040523073ffffffffffffffffffffffffffffffffffffffff1660809073ffffffffffffffffffffffffffffffffffffffff16815250348015610042575f80fd5b5060805161129b6100695f395f81816105170152818161056c0152610726015261129b5ff3fe608060405260043610610085575f3560e01c80638129fc1c116100585780638129fc1c146101225780638381f58a146101385780638da5cb5b14610162578063ad3cb1cc1461018c578063f2fde38b146101b657610085565b80631db05a88146100895780634f1ef286146100c657806352d1902d146100e2578063715018a61461010c575b5f80fd5b348015610094575f80fd5b506100af60048036038101906100aa9190610dc0565b6101de565b6040516100bd929190610dfa565b60405180910390f35b6100e060048036038101906100db9190610fb7565b61020a565b005b3480156100ed575f80fd5b506100f6610229565b6040516101039190611029565b60405180910390f35b348015610117575f80fd5b5061012061025a565b005b34801561012d575f80fd5b5061013661026d565b005b348015610143575f80fd5b5061014c6103fd565b6040516101599190611042565b60405180910390f35b34801561016d575f80fd5b50610176610403565b604051610183919061106a565b60405180910390f35b348015610197575f80fd5b506101a0610438565b6040516101ad91906110fd565b60405180910390f35b3480156101c1575f80fd5b506101dc60048036038101906101d7919061111d565b610471565b005b5f80826001819055506101f05f6104f5565b5f6101fa5f610509565b9050600154819250925050915091565b610212610515565b61021b826105fb565b6102258282610606565b5050565b5f610232610724565b7f360894a13ba1a3210667c828492db98dca3e2076cc3735a920a3ca505d382bbc5f1b905090565b6102626107ab565b61026b5f610832565b565b5f610276610903565b90505f815f0160089054906101000a900460ff161590505f825f015f9054906101000a900467ffffffffffffffff1690505f808267ffffffffffffffff161480156102be5750825b90505f60018367ffffffffffffffff161480156102f157505f3073ffffffffffffffffffffffffffffffffffffffff163b145b9050811580156102ff575080155b15610336576040517ff92ee8a900000000000000000000000000000000000000000000000000000000815260040160405180910390fd5b6001855f015f6101000a81548167ffffffffffffffff021916908367ffffffffffffffff1602179055508315610383576001855f0160086101000a81548160ff0219169083151502179055505b61038c3361092a565b61039461093e565b600a60018190555083156103f6575f855f0160086101000a81548160ff0219169083151502179055507fc7f505b2f371ae2175ee4913f4499e1f2633a7b5936321eed1cdaeb6115181d260016040516103ed919061119d565b60405180910390a15b5050505050565b60015481565b5f8061040d610948565b9050805f015f9054906101000a900473ffffffffffffffffffffffffffffffffffffffff1691505090565b6040518060400160405280600581526020017f352e302e3000000000000000000000000000000000000000000000000000000081525081565b6104796107ab565b5f73ffffffffffffffffffffffffffffffffffffffff168173ffffffffffffffffffffffffffffffffffffffff16036104e9575f6040517f1e4fbdf70000000000000000000000000000000000000000000000000000000081526004016104e0919061106a565b60405180910390fd5b6104f281610832565b50565b6001815f015f828254019250508190555050565b5f815f01549050919050565b7f000000000000000000000000000000000000000000000000000000000000000073ffffffffffffffffffffffffffffffffffffffff163073ffffffffffffffffffffffffffffffffffffffff1614806105c257507f000000000000000000000000000000000000000000000000000000000000000073ffffffffffffffffffffffffffffffffffffffff166105a961096f565b73ffffffffffffffffffffffffffffffffffffffff1614155b156105f9576040517fe07c8dba00000000000000000000000000000000000000000000000000000000815260040160405180910390fd5b565b6106036107ab565b50565b8173ffffffffffffffffffffffffffffffffffffffff166352d1902d6040518163ffffffff1660e01b8152600401602060405180830381865afa92505050801561066e57506040513d601f19601f8201168201806040525081019061066b91906111e0565b60015b6106af57816040517f4c9c8ce30000000000000000000000000000000000000000000000000000000081526004016106a6919061106a565b60405180910390fd5b7f360894a13ba1a3210667c828492db98dca3e2076cc3735a920a3ca505d382bbc5f1b811461071557806040517faa1d49a400000000000000000000000000000000000000000000000000000000815260040161070c9190611029565b60405180910390fd5b61071f83836109c2565b505050565b7f000000000000000000000000000000000000000000000000000000000000000073ffffffffffffffffffffffffffffffffffffffff163073ffffffffffffffffffffffffffffffffffffffff16146107a9576040517fe07c8dba00000000000000000000000000000000000000000000000000000000815260040160405180910390fd5b565b6107b3610a34565b73ffffffffffffffffffffffffffffffffffffffff166107d1610403565b73ffffffffffffffffffffffffffffffffffffffff1614610830576107f4610a34565b6040517f118cdaa7000000000000000000000000000000000000000000000000000000008152600401610827919061106a565b60405180910390fd5b565b5f61083b610948565b90505f815f015f9054906101000a900473ffffffffffffffffffffffffffffffffffffffff16905082825f015f6101000a81548173ffffffffffffffffffffffffffffffffffffffff021916908373ffffffffffffffffffffffffffffffffffffffff1602179055508273ffffffffffffffffffffffffffffffffffffffff168173ffffffffffffffffffffffffffffffffffffffff167f8be0079c531659141344cd1fd0a4f28419497f9722a3daafe3b4186f6b6457e060405160405180910390a3505050565b5f7ff0c57e16840df040f15088dc2f81fe391c3923bec73e23a9662efc9c229c6a00905090565b610932610a3b565b61093b81610a7b565b50565b610946610a3b565b565b5f7f9016d09d72d40fdae2fd8ceac6b6234c7706214fd39c1cd1e609a0528c199300905090565b5f61099b7f360894a13ba1a3210667c828492db98dca3e2076cc3735a920a3ca505d382bbc5f1b610aff565b5f015f9054906101000a900473ffffffffffffffffffffffffffffffffffffffff16905090565b6109cb82610b08565b8173ffffffffffffffffffffffffffffffffffffffff167fbc7cd75a20ee27fd9adebab32041f755214dbc6bffa90cc0225b39da2e5c2d3b60405160405180910390a25f81511115610a2757610a218282610bd1565b50610a30565b610a2f610c51565b5b5050565b5f33905090565b610a43610c8d565b610a79576040517fd7e6bcf800000000000000000000000000000000000000000000000000000000815260040160405180910390fd5b565b610a83610a3b565b5f73ffffffffffffffffffffffffffffffffffffffff168173ffffffffffffffffffffffffffffffffffffffff1603610af3575f6040517f1e4fbdf7000000000000000000000000000000000000000000000000000000008152600401610aea919061106a565b60405180910390fd5b610afc81610832565b50565b5f819050919050565b5f8173ffffffffffffffffffffffffffffffffffffffff163b03610b6357806040517f4c9c8ce3000000000000000000000000000000000000000000000000000000008152600401610b5a919061106a565b60405180910390fd5b80610b8f7f360894a13ba1a3210667c828492db98dca3e2076cc3735a920a3ca505d382bbc5f1b610aff565b5f015f6101000a81548173ffffffffffffffffffffffffffffffffffffffff021916908373ffffffffffffffffffffffffffffffffffffffff16021790555050565b60605f808473ffffffffffffffffffffffffffffffffffffffff1684604051610bfa919061124f565b5f60405180830381855af49150503d805f8114610c32576040519150601f19603f3d011682016040523d82523d5f602084013e610c37565b606091505b5091509150610c47858383610cab565b9250505092915050565b5f341115610c8b576040517fb398979f00000000000000000000000000000000000000000000000000000000815260040160405180910390fd5b565b5f610c96610903565b5f0160089054906101000a900460ff16905090565b606082610cc057610cbb82610d38565b610d30565b5f8251148015610ce657505f8473ffffffffffffffffffffffffffffffffffffffff163b145b15610d2857836040517f9996b315000000000000000000000000000000000000000000000000000000008152600401610d1f919061106a565b60405180910390fd5b819050610d31565b5b9392505050565b5f81511115610d4a5780518082602001fd5b6040517f1425ea4200000000000000000000000000000000000000000000000000000000815260040160405180910390fd5b5f604051905090565b5f80fd5b5f80fd5b5f819050919050565b610d9f81610d8d565b8114610da9575f80fd5b50565b5f81359050610dba81610d96565b92915050565b5f60208284031215610dd557610dd4610d85565b5b5f610de284828501610dac565b91505092915050565b610df481610d8d565b82525050565b5f604082019050610e0d5f830185610deb565b610e1a6020830184610deb565b9392505050565b5f73ffffffffffffffffffffffffffffffffffffffff82169050919050565b5f610e4a82610e21565b9050919050565b610e5a81610e40565b8114610e64575f80fd5b50565b5f81359050610e7581610e51565b92915050565b5f80fd5b5f80fd5b5f601f19601f8301169050919050565b7f4e487b71000000000000000000000000000000000000000000000000000000005f52604160045260245ffd5b610ec982610e83565b810181811067ffffffffffffffff82111715610ee857610ee7610e93565b5b80604052505050565b5f610efa610d7c565b9050610f068282610ec0565b919050565b5f67ffffffffffffffff821115610f2557610f24610e93565b5b610f2e82610e83565b9050602081019050919050565b828183375f83830152505050565b5f610f5b610f5684610f0b565b610ef1565b905082815260208101848484011115610f7757610f76610e7f565b5b610f82848285610f3b565b509392505050565b5f82601f830112610f9e57610f9d610e7b565b5b8135610fae848260208601610f49565b91505092915050565b5f8060408385031215610fcd57610fcc610d85565b5b5f610fda85828601610e67565b925050602083013567ffffffffffffffff811115610ffb57610ffa610d89565b5b61100785828601610f8a565b9150509250929050565b5f819050919050565b61102381611011565b82525050565b5f60208201905061103c5f83018461101a565b92915050565b5f6020820190506110555f830184610deb565b92915050565b61106481610e40565b82525050565b5f60208201905061107d5f83018461105b565b92915050565b5f81519050919050565b5f82825260208201905092915050565b5f5b838110156110ba57808201518184015260208101905061109f565b5f8484015250505050565b5f6110cf82611083565b6110d9818561108d565b93506110e981856020860161109d565b6110f281610e83565b840191505092915050565b5f6020820190508181035f83015261111581846110c5565b905092915050565b5f6020828403121561113257611131610d85565b5b5f61113f84828501610e67565b91505092915050565b5f819050919050565b5f67ffffffffffffffff82169050919050565b5f819050919050565b5f61118761118261117d84611148565b611164565b611151565b9050919050565b6111978161116d565b82525050565b5f6020820190506111b05f83018461118e565b92915050565b6111bf81611011565b81146111c9575f80fd5b50565b5f815190506111da816111b6565b92915050565b5f602082840312156111f5576111f4610d85565b5b5f611202848285016111cc565b91505092915050565b5f81519050919050565b5f81905092915050565b5f6112298261120b565b6112338185611215565b935061124381856020860161109d565b80840191505092915050565b5f61125a828461121f565b91508190509291505056fea264697066735822122063cf5a313fb9fe849cbb940d0db59ab9ddce4d434146e81142db547507bc118a64736f6c63430008160033",
			"opcodes": "PUSH1 0xA0 PUSH1 0x40 MSTORE ADDRESS PUSH20 0xFFFFFFFFFFFFFFFFFFFFFFFFFFFFFFFFFFFFFFFF AND PUSH1 0x80 SWAP1 PUSH20 0xFFFFFFFFFFFFFFFFFFFFFFFFFFFFFFFFFFFFFFFF AND DUP2 MSTORE POP CALLVALUE DUP1 ISZERO PUSH2 0x42 JUMPI PUSH0 DUP1 REVERT JUMPDEST POP PUSH1 0x80 MLOAD PUSH2 0x129B PUSH2 0x69 PUSH0 CODECOPY PUSH0 DUP2 DUP2 PUSH2 0x517 ADD MSTORE DUP2 DUP2 PUSH2 0x56C ADD MSTORE PUSH2 0x726 ADD MSTORE PUSH2 0x129B PUSH0 RETURN INVALID PUSH1 0x80 PUSH1 0x40 MSTORE PUSH1 0x4 CALLDATASIZE LT PUSH2 0x85 JUMPI PUSH0 CALLDATALOAD PUSH1 0xE0 SHR DUP1 PUSH4 0x8129FC1C GT PUSH2 0x58 JUMPI DUP1 PUSH4 0x8129FC1C EQ PUSH2 0x122 JUMPI DUP1 PUSH4 0x8381F58A EQ PUSH2 0x138 JUMPI DUP1 PUSH4 0x8DA5CB5B EQ PUSH2 0x162 JUMPI DUP1 PUSH4 0xAD3CB1CC EQ PUSH2 0x18C JUMPI DUP1 PUSH4 0xF2FDE38B EQ PUSH2 0x1B6 JUMPI PUSH2 0x85 JUMP JUMPDEST DUP1 PUSH4 0x1DB05A88 EQ PUSH2 0x89 JUMPI DUP1 PUSH4 0x4F1EF286 EQ PUSH2 0xC6 JUMPI DUP1 PUSH4 0x52D1902D EQ PUSH2 0xE2 JUMPI DUP1 PUSH4 0x715018A6 EQ PUSH2 0x10C JUMPI JUMPDEST PUSH0 DUP1 REVERT JUMPDEST CALLVALUE DUP1 ISZERO PUSH2 0x94 JUMPI PUSH0 DUP1 REVERT JUMPDEST POP PUSH2 0xAF PUSH1 0x4 DUP1 CALLDATASIZE SUB DUP2 ADD SWAP1 PUSH2 0xAA SWAP2 SWAP1 PUSH2 0xDC0 JUMP JUMPDEST PUSH2 0x1DE JUMP JUMPDEST PUSH1 0x40 MLOAD PUSH2 0xBD SWAP3 SWAP2 SWAP1 PUSH2 0xDFA JUMP JUMPDEST PUSH1 0x40 MLOAD DUP1 SWAP2 SUB SWAP1 RETURN JUMPDEST PUSH2 0xE0 PUSH1 0x4 DUP1 CALLDATASIZE SUB DUP2 ADD SWAP1 PUSH2 0xDB SWAP2 SWAP1 PUSH2 0xFB7 JUMP JUMPDEST PUSH2 0x20A JUMP JUMPDEST STOP JUMPDEST CALLVALUE DUP1 ISZERO PUSH2 0xED JUMPI PUSH0 DUP1 REVERT JUMPDEST POP PUSH2 0xF6 PUSH2 0x229 JUMP JUMPDEST PUSH1 0x40 MLOAD PUSH2 0x103 SWAP2 SWAP1 PUSH2 0x1029 JUMP JUMPDEST PUSH1 0x40 MLOAD DUP1 SWAP2 SUB SWAP1 RETURN JUMPDEST CALLVALUE DUP1 ISZERO PUSH2 0x117 JUMPI PUSH0 DUP1 REVERT JUMPDEST POP PUSH2 0x120 PUSH2 0x25A JUMP JUMPDEST STOP JUMPDEST CALLVALUE DUP1 ISZERO PUSH2 0x12D JUMPI PUSH0 DUP1 REVERT JUMPDEST POP PUSH2 0x136 PUSH2 0x26D JUMP JUMPDEST STOP JUMPDEST CALLVALUE DUP1 ISZERO PUSH2 0x143 JUMPI PUSH0 DUP1 REVERT JUMPDEST POP PUSH2 0x14C PUSH2 0x3FD JUMP JUMPDEST PUSH1 0x40 MLOAD PUSH2 0x159 SWAP2 SWAP1 PUSH2 0x1042 JUMP JUMPDEST PUSH1 0x40 MLOAD DUP1 SWAP2 SUB SWAP1 RETURN JUMPDEST CALLVALUE DUP1 ISZERO PUSH2 0x16D JUMPI PUSH0 DUP1 REVERT JUMPDEST POP PUSH2 0x176 PUSH2 0x403 JUMP JUMPDEST PUSH1 0x40 MLOAD PUSH2 0x183 SWAP2 SWAP1 PUSH2 0x106A JUMP JUMPDEST PUSH1 0x40 MLOAD DUP1 SWAP2 SUB SWAP1 RETURN JUMPDEST CALLVALUE DUP1 ISZERO PUSH2 0x197 JUMPI PUSH0 DUP1 REVERT JUMPDEST POP PUSH2 0x1A0 PUSH2 0x438 JUMP JUMPDEST PUSH1 0x40 MLOAD PUSH2 0x1AD SWAP2 SWAP1 PUSH2 0x10FD JUMP JUMPDEST PUSH1 0x40 MLOAD DUP1 SWAP2 SUB SWAP1 RETURN JUMPDEST CALLVALUE DUP1 ISZERO PUSH2 0x1C1 JUMPI PUSH0 DUP1 REVERT JUMPDEST POP PUSH2 0x1DC PUSH1 0x4 DUP1 CALLDATASIZE SUB DUP2 ADD SWAP1 PUSH2 0x1D7 SWAP2 SWAP1 PUSH2 0x111D JUMP JUMPDEST PUSH2 0x471 JUMP JUMPDEST STOP JUMPDEST PUSH0 DUP1 DUP3 PUSH1 0x1 DUP2 SWAP1 SSTORE POP PUSH2 0x1F0 PUSH0 PUSH2 0x4F5 JUMP JUMPDEST PUSH0 PUSH2 0x1FA PUSH0 PUSH2 0x509 JUMP JUMPDEST SWAP1 POP PUSH1 0x1 SLOAD DUP2 SWAP3 POP SWAP3 POP POP SWAP2 POP SWAP2 JUMP JUMPDEST PUSH2 0x212 PUSH2 0x515 JUMP JUMPDEST PUSH2 0x21B DUP3 PUSH2 0x5FB JUMP JUMPDEST PUSH2 0x225 DUP3 DUP3 PUSH2 0x606 JUMP JUMPDEST POP POP JUMP JUMPDEST PUSH0 PUSH2 0x232 PUSH2 0x724 JUMP JUMPDEST PUSH32 0x360894A13BA1A3210667C828492DB98DCA3E2076CC3735A920A3CA505D382BBC PUSH0 SHL SWAP1 POP SWAP1 JUMP JUMPDEST PUSH2 0x262 PUSH2 0x7AB JUMP JUMPDEST PUSH2 0x26B PUSH0 PUSH2 0x832 JUMP JUMPDEST JUMP JUMPDEST PUSH0 PUSH2 0x276 PUSH2 0x903 JUMP JUMPDEST SWAP1 POP PUSH0 DUP2 PUSH0 ADD PUSH1 0x8 SWAP1 SLOAD SWAP1 PUSH2 0x100 EXP SWAP1 DIV PUSH1 0xFF AND ISZERO SWAP1 POP PUSH0 DUP3 PUSH0 ADD PUSH0 SWAP1 SLOAD SWAP1 PUSH2 0x100 EXP SWAP1 DIV PUSH8 0xFFFFFFFFFFFFFFFF AND SWAP1 POP PUSH0 DUP1 DUP3 PUSH8 0xFFFFFFFFFFFFFFFF AND EQ DUP1 ISZERO PUSH2 0x2BE JUMPI POP DUP3 JUMPDEST SWAP1 POP PUSH0 PUSH1 0x1 DUP4 PUSH8 0xFFFFFFFFFFFFFFFF AND EQ DUP1 ISZERO PUSH2 0x2F1 JUMPI POP PUSH0 ADDRESS PUSH20 0xFFFFFFFFFFFFFFFFFFFFFFFFFFFFFFFFFFFFFFFF AND EXTCODESIZE EQ JUMPDEST SWAP1 POP DUP2 ISZERO DUP1 ISZERO PUSH2 0x2FF JUMPI POP DUP1 ISZERO JUMPDEST ISZERO PUSH2 0x336 JUMPI PUSH1 0x40 MLOAD PUSH32 0xF92EE8A900000000000000000000000000000000000000000000000000000000 DUP2 MSTORE PUSH1 0x4 ADD PUSH1 0x40 MLOAD DUP1 SWAP2 SUB SWAP1 REVERT JUMPDEST PUSH1 0x1 DUP6 PUSH0 ADD PUSH0 PUSH2 0x100 EXP DUP2 SLOAD DUP2 PUSH8 0xFFFFFFFFFFFFFFFF MUL NOT AND SWAP1 DUP4 PUSH8 0xFFFFFFFFFFFFFFFF AND MUL OR SWAP1 SSTORE POP DUP4 ISZERO PUSH2 0x383 JUMPI PUSH1 0x1 DUP6 PUSH0 ADD PUSH1 0x8 PUSH2 0x100 EXP DUP2 SLOAD DUP2 PUSH1 0xFF MUL NOT AND SWAP1 DUP4 ISZERO ISZERO MUL OR SWAP1 SSTORE POP JUMPDEST PUSH2 0x38C CALLER PUSH2 0x92A JUMP JUMPDEST PUSH2 0x394 PUSH2 0x93E JUMP JUMPDEST PUSH1 0xA PUSH1 0x1 DUP2 SWAP1 SSTORE POP DUP4 ISZERO PUSH2 0x3F6 JUMPI PUSH0 DUP6 PUSH0 ADD PUSH1 0x8 PUSH2 0x100 EXP DUP2 SLOAD DUP2 PUSH1 0xFF MUL NOT AND SWAP1 DUP4 ISZERO ISZERO MUL OR SWAP1 SSTORE POP PUSH32 0xC7F505B2F371AE2175EE4913F4499E1F2633A7B5936321EED1CDAEB6115181D2 PUSH1 0x1 PUSH1 0x40 MLOAD PUSH2 0x3ED SWAP2 SWAP1 PUSH2 0x119D JUMP JUMPDEST PUSH1 0x40 MLOAD DUP1 SWAP2 SUB SWAP1 LOG1 JUMPDEST POP POP POP POP POP JUMP JUMPDEST PUSH1 0x1 SLOAD DUP2 JUMP JUMPDEST PUSH0 DUP1 PUSH2 0x40D PUSH2 0x948 JUMP JUMPDEST SWAP1 POP DUP1 PUSH0 ADD PUSH0 SWAP1 SLOAD SWAP1 PUSH2 0x100 EXP SWAP1 DIV PUSH20 0xFFFFFFFFFFFFFFFFFFFFFFFFFFFFFFFFFFFFFFFF AND SWAP2 POP POP SWAP1 JUMP JUMPDEST PUSH1 0x40 MLOAD DUP1 PUSH1 0x40 ADD PUSH1 0x40 MSTORE DUP1 PUSH1 0x5 DUP2 MSTORE PUSH1 0x20 ADD PUSH32 0x352E302E30000000000000000000000000000000000000000000000000000000 DUP2 MSTORE POP DUP2 JUMP JUMPDEST PUSH2 0x479 PUSH2 0x7AB JUMP JUMPDEST PUSH0 PUSH20 0xFFFFFFFFFFFFFFFFFFFFFFFFFFFFFFFFFFFFFFFF AND DUP2 PUSH20 0xFFFFFFFFFFFFFFFFFFFFFFFFFFFFFFFFFFFFFFFF AND SUB PUSH2 0x4E9 JUMPI PUSH0 PUSH1 0x40 MLOAD PUSH32 0x1E4FBDF700000000000000000000000000000000000000000000000000000000 DUP2 MSTORE PUSH1 0x4 ADD PUSH2 0x4E0 SWAP2 SWAP1 PUSH2 0x106A JUMP JUMPDEST PUSH1 0x40 MLOAD DUP1 SWAP2 SUB SWAP1 REVERT JUMPDEST PUSH2 0x4F2 DUP2 PUSH2 0x832 JUMP JUMPDEST POP JUMP JUMPDEST PUSH1 0x1 DUP2 PUSH0 ADD PUSH0 DUP3 DUP3 SLOAD ADD SWAP3 POP POP DUP2 SWAP1 SSTORE POP POP JUMP JUMPDEST PUSH0 DUP2 PUSH0 ADD SLOAD SWAP1 POP SWAP2 SWAP1 POP JUMP JUMPDEST PUSH32 0x0 PUSH20 0xFFFFFFFFFFFFFFFFFFFFFFFFFFFFFFFFFFFFFFFF AND ADDRESS PUSH20 0xFFFFFFFFFFFFFFFFFFFFFFFFFFFFFFFFFFFFFFFF AND EQ DUP1 PUSH2 0x5C2 JUMPI POP PUSH32 0x0 PUSH20 0xFFFFFFFFFFFFFFFFFFFFFFFFFFFFFFFFFFFFFFFF AND PUSH2 0x5A9 PUSH2 0x96F JUMP JUMPDEST PUSH20 0xFFFFFFFFFFFFFFFFFFFFFFFFFFFFFFFFFFFFFFFF AND EQ ISZERO JUMPDEST ISZERO PUSH2 0x5F9 JUMPI PUSH1 0x40 MLOAD PUSH32 0xE07C8DBA00000000000000000000000000000000000000000000000000000000 DUP2 MSTORE PUSH1 0x4 ADD PUSH1 0x40 MLOAD DUP1 SWAP2 SUB SWAP1 REVERT JUMPDEST JUMP JUMPDEST PUSH2 0x603 PUSH2 0x7AB JUMP JUMPDEST POP JUMP JUMPDEST DUP2 PUSH20 0xFFFFFFFFFFFFFFFFFFFFFFFFFFFFFFFFFFFFFFFF AND PUSH4 0x52D1902D PUSH1 0x40 MLOAD DUP2 PUSH4 0xFFFFFFFF AND PUSH1 0xE0 SHL DUP2 MSTORE PUSH1 0x4 ADD PUSH1 0x20 PUSH1 0x40 MLOAD DUP1 DUP4 SUB DUP2 DUP7 GAS STATICCALL SWAP3 POP POP POP DUP1 ISZERO PUSH2 0x66E JUMPI POP PUSH1 0x40 MLOAD RETURNDATASIZE PUSH1 0x1F NOT PUSH1 0x1F DUP3 ADD AND DUP3 ADD DUP1 PUSH1 0x40 MSTORE POP DUP2 ADD SWAP1 PUSH2 0x66B SWAP2 SWAP1 PUSH2 0x11E0 JUMP JUMPDEST PUSH1 0x1 JUMPDEST PUSH2 0x6AF JUMPI DUP2 PUSH1 0x40 MLOAD PUSH32 0x4C9C8CE300000000000000000000000000000000000000000000000000000000 DUP2 MSTORE PUSH1 0x4 ADD PUSH2 0x6A6 SWAP2 SWAP1 PUSH2 0x106A JUMP JUMPDEST PUSH1 0x40 MLOAD DUP1 SWAP2 SUB SWAP1 REVERT JUMPDEST PUSH32 0x360894A13BA1A3210667C828492DB98DCA3E2076CC3735A920A3CA505D382BBC PUSH0 SHL DUP2 EQ PUSH2 0x715 JUMPI DUP1 PUSH1 0x40 MLOAD PUSH32 0xAA1D49A400000000000000000000000000000000000000000000000000000000 DUP2 MSTORE PUSH1 0x4 ADD PUSH2 0x70C SWAP2 SWAP1 PUSH2 0x1029 JUMP JUMPDEST PUSH1 0x40 MLOAD DUP1 SWAP2 SUB SWAP1 REVERT JUMPDEST PUSH2 0x71F DUP4 DUP4 PUSH2 0x9C2 JUMP JUMPDEST POP POP POP JUMP JUMPDEST PUSH32 0x0 PUSH20 0xFFFFFFFFFFFFFFFFFFFFFFFFFFFFFFFFFFFFFFFF AND ADDRESS PUSH20 0xFFFFFFFFFFFFFFFFFFFFFFFFFFFFFFFFFFFFFFFF AND EQ PUSH2 0x7A9 JUMPI PUSH1 0x40 MLOAD PUSH32 0xE07C8DBA00000000000000000000000000000000000000000000000000000000 DUP2 MSTORE PUSH1 0x4 ADD PUSH1 0x40 MLOAD DUP1 SWAP2 SUB SWAP1 REVERT JUMPDEST JUMP JUMPDEST PUSH2 0x7B3 PUSH2 0xA34 JUMP JUMPDEST PUSH20 0xFFFFFFFFFFFFFFFFFFFFFFFFFFFFFFFFFFFFFFFF AND PUSH2 0x7D1 PUSH2 0x403 JUMP JUMPDEST PUSH20 0xFFFFFFFFFFFFFFFFFFFFFFFFFFFFFFFFFFFFFFFF AND EQ PUSH2 0x830 JUMPI PUSH2 0x7F4 PUSH2 0xA34 JUMP JUMPDEST PUSH1 0x40 MLOAD PUSH32 0x118CDAA700000000000000000000000000000000000000000000000000000000 DUP2 MSTORE PUSH1 0x4 ADD PUSH2 0x827 SWAP2 SWAP1 PUSH2 0x106A JUMP JUMPDEST PUSH1 0x40 MLOAD DUP1 SWAP2 SUB SWAP1 REVERT JUMPDEST JUMP JUMPDEST PUSH0 PUSH2 0x83B PUSH2 0x948 JUMP JUMPDEST SWAP1 POP PUSH0 DUP2 PUSH0 ADD PUSH0 SWAP1 SLOAD SWAP1 PUSH2 0x100 EXP SWAP1 DIV PUSH20 0xFFFFFFFFFFFFFFFFFFFFFFFFFFFFFFFFFFFFFFFF AND SWAP1 POP DUP3 DUP3 PUSH0 ADD PUSH0 PUSH2 0x100 EXP DUP2 SLOAD DUP2 PUSH20 0xFFFFFFFFFFFFFFFFFFFFFFFFFFFFFFFFFFFFFFFF MUL NOT AND SWAP1 DUP4 PUSH20 0xFFFFFFFFFFFFFFFFFFFFFFFFFFFFFFFFFFFFFFFF AND MUL OR SWAP1 SSTORE POP DUP3 PUSH20 0xFFFFFFFFFFFFFFFFFFFFFFFFFFFFFFFFFFFFFFFF AND DUP2 PUSH20 0xFFFFFFFFFFFFFFFFFFFFFFFFFFFFFFFFFFFFFFFF AND PUSH32 0x8BE0079C531659141344CD1FD0A4F28419497F9722A3DAAFE3B4186F6B6457E0 PUSH1 0x40 MLOAD PUSH1 0x40 MLOAD DUP1 SWAP2 SUB SWAP1 LOG3 POP POP POP JUMP JUMPDEST PUSH0 PUSH32 0xF0C57E16840DF040F15088DC2F81FE391C3923BEC73E23A9662EFC9C229C6A00 SWAP1 POP SWAP1 JUMP JUMPDEST PUSH2 0x932 PUSH2 0xA3B JUMP JUMPDEST PUSH2 0x93B DUP2 PUSH2 0xA7B JUMP JUMPDEST POP JUMP JUMPDEST PUSH2 0x946 PUSH2 0xA3B JUMP JUMPDEST JUMP JUMPDEST PUSH0 PUSH32 0x9016D09D72D40FDAE2FD8CEAC6B6234C7706214FD39C1CD1E609A0528C199300 SWAP1 POP SWAP1 JUMP JUMPDEST PUSH0 PUSH2 0x99B PUSH32 0x360894A13BA1A3210667C828492DB98DCA3E2076CC3735A920A3CA505D382BBC PUSH0 SHL PUSH2 0xAFF JUMP JUMPDEST PUSH0 ADD PUSH0 SWAP1 SLOAD SWAP1 PUSH2 0x100 EXP SWAP1 DIV PUSH20 0xFFFFFFFFFFFFFFFFFFFFFFFFFFFFFFFFFFFFFFFF AND SWAP1 POP SWAP1 JUMP JUMPDEST PUSH2 0x9CB DUP3 PUSH2 0xB08 JUMP JUMPDEST DUP2 PUSH20 0xFFFFFFFFFFFFFFFFFFFFFFFFFFFFFFFFFFFFFFFF AND PUSH32 0xBC7CD75A20EE27FD9ADEBAB32041F755214DBC6BFFA90CC0225B39DA2E5C2D3B PUSH1 0x40 MLOAD PUSH1 0x40 MLOAD DUP1 SWAP2 SUB SWAP1 LOG2 PUSH0 DUP2 MLOAD GT ISZERO PUSH2 0xA27 JUMPI PUSH2 0xA21 DUP3 DUP3 PUSH2 0xBD1 JUMP JUMPDEST POP PUSH2 0xA30 JUMP JUMPDEST PUSH2 0xA2F PUSH2 0xC51 JUMP JUMPDEST JUMPDEST POP POP JUMP JUMPDEST PUSH0 CALLER SWAP1 POP SWAP1 JUMP JUMPDEST PUSH2 0xA43 PUSH2 0xC8D JUMP JUMPDEST PUSH2 0xA79 JUMPI PUSH1 0x40 MLOAD PUSH32 0xD7E6BCF800000000000000000000000000000000000000000000000000000000 DUP2 MSTORE PUSH1 0x4 ADD PUSH1 0x40 MLOAD DUP1 SWAP2 SUB SWAP1 REVERT JUMPDEST JUMP JUMPDEST PUSH2 0xA83 PUSH2 0xA3B JUMP JUMPDEST PUSH0 PUSH20 0xFFFFFFFFFFFFFFFFFFFFFFFFFFFFFFFFFFFFFFFF AND DUP2 PUSH20 0xFFFFFFFFFFFFFFFFFFFFFFFFFFFFFFFFFFFFFFFF AND SUB PUSH2 0xAF3 JUMPI PUSH0 PUSH1 0x40 MLOAD PUSH32 0x1E4FBDF700000000000000000000000000000000000000000000000000000000 DUP2 MSTORE PUSH1 0x4 ADD PUSH2 0xAEA SWAP2 SWAP1 PUSH2 0x106A JUMP JUMPDEST PUSH1 0x40 MLOAD DUP1 SWAP2 SUB SWAP1 REVERT JUMPDEST PUSH2 0xAFC DUP2 PUSH2 0x832 JUMP JUMPDEST POP JUMP JUMPDEST PUSH0 DUP2 SWAP1 POP SWAP2 SWAP1 POP JUMP JUMPDEST PUSH0 DUP2 PUSH20 0xFFFFFFFFFFFFFFFFFFFFFFFFFFFFFFFFFFFFFFFF AND EXTCODESIZE SUB PUSH2 0xB63 JUMPI DUP1 PUSH1 0x40 MLOAD PUSH32 0x4C9C8CE300000000000000000000000000000000000000000000000000000000 DUP2 MSTORE PUSH1 0x4 ADD PUSH2 0xB5A SWAP2 SWAP1 PUSH2 0x106A JUMP JUMPDEST PUSH1 0x40 MLOAD DUP1 SWAP2 SUB SWAP1 REVERT JUMPDEST DUP1 PUSH2 0xB8F PUSH32 0x360894A13BA1A3210667C828492DB98DCA3E2076CC3735A920A3CA505D382BBC PUSH0 SHL PUSH2 0xAFF JUMP JUMPDEST PUSH0 ADD PUSH0 PUSH2 0x100 EXP DUP2 SLOAD DUP2 PUSH20 0xFFFFFFFFFFFFFFFFFFFFFFFFFFFFFFFFFFFFFFFF MUL NOT AND SWAP1 DUP4 PUSH20 0xFFFFFFFFFFFFFFFFFFFFFFFFFFFFFFFFFFFFFFFF AND MUL OR SWAP1 SSTORE POP POP JUMP JUMPDEST PUSH1 0x60 PUSH0 DUP1 DUP5 PUSH20 0xFFFFFFFFFFFFFFFFFFFFFFFFFFFFFFFFFFFFFFFF AND DUP5 PUSH1 0x40 MLOAD PUSH2 0xBFA SWAP2 SWAP1 PUSH2 0x124F JUMP JUMPDEST PUSH0 PUSH1 0x40 MLOAD DUP1 DUP4 SUB DUP2 DUP6 GAS DELEGATECALL SWAP2 POP POP RETURNDATASIZE DUP1 PUSH0 DUP2 EQ PUSH2 0xC32 JUMPI PUSH1 0x40 MLOAD SWAP2 POP PUSH1 0x1F NOT PUSH1 0x3F RETURNDATASIZE ADD AND DUP3 ADD PUSH1 0x40 MSTORE RETURNDATASIZE DUP3 MSTORE RETURNDATASIZE PUSH0 PUSH1 0x20 DUP5 ADD RETURNDATACOPY PUSH2 0xC37 JUMP JUMPDEST PUSH1 0x60 SWAP2 POP JUMPDEST POP SWAP2 POP SWAP2 POP PUSH2 0xC47 DUP6 DUP4 DUP4 PUSH2 0xCAB JUMP JUMPDEST SWAP3 POP POP POP SWAP3 SWAP2 POP POP JUMP JUMPDEST PUSH0 CALLVALUE GT ISZERO PUSH2 0xC8B JUMPI PUSH1 0x40 MLOAD PUSH32 0xB398979F00000000000000000000000000000000000000000000000000000000 DUP2 MSTORE PUSH1 0x4 ADD PUSH1 0x40 MLOAD DUP1 SWAP2 SUB SWAP1 REVERT JUMPDEST JUMP JUMPDEST PUSH0 PUSH2 0xC96 PUSH2 0x903 JUMP JUMPDEST PUSH0 ADD PUSH1 0x8 SWAP1 SLOAD SWAP1 PUSH2 0x100 EXP SWAP1 DIV PUSH1 0xFF AND SWAP1 POP SWAP1 JUMP JUMPDEST PUSH1 0x60 DUP3 PUSH2 0xCC0 JUMPI PUSH2 0xCBB DUP3 PUSH2 0xD38 JUMP JUMPDEST PUSH2 0xD30 JUMP JUMPDEST PUSH0 DUP3 MLOAD EQ DUP1 ISZERO PUSH2 0xCE6 JUMPI POP PUSH0 DUP5 PUSH20 0xFFFFFFFFFFFFFFFFFFFFFFFFFFFFFFFFFFFFFFFF AND EXTCODESIZE EQ JUMPDEST ISZERO PUSH2 0xD28 JUMPI DUP4 PUSH1 0x40 MLOAD PUSH32 0x9996B31500000000000000000000000000000000000000000000000000000000 DUP2 MSTORE PUSH1 0x4 ADD PUSH2 0xD1F SWAP2 SWAP1 PUSH2 0x106A JUMP JUMPDEST PUSH1 0x40 MLOAD DUP1 SWAP2 SUB SWAP1 REVERT JUMPDEST DUP2 SWAP1 POP PUSH2 0xD31 JUMP JUMPDEST JUMPDEST SWAP4 SWAP3 POP POP POP JUMP JUMPDEST PUSH0 DUP2 MLOAD GT ISZERO PUSH2 0xD4A JUMPI DUP1 MLOAD DUP1 DUP3 PUSH1 0x20 ADD REVERT JUMPDEST PUSH1 0x40 MLOAD PUSH32 0x1425EA4200000000000000000000000000000000000000000000000000000000 DUP2 MSTORE PUSH1 0x4 ADD PUSH1 0x40 MLOAD DUP1 SWAP2 SUB SWAP1 REVERT JUMPDEST PUSH0 PUSH1 0x40 MLOAD SWAP1 POP SWAP1 JUMP JUMPDEST PUSH0 DUP1 REVERT JUMPDEST PUSH0 DUP1 REVERT JUMPDEST PUSH0 DUP2 SWAP1 POP SWAP2 SWAP1 POP JUMP JUMPDEST PUSH2 0xD9F DUP2 PUSH2 0xD8D JUMP JUMPDEST DUP2 EQ PUSH2 0xDA9 JUMPI PUSH0 DUP1 REVERT JUMPDEST POP JUMP JUMPDEST PUSH0 DUP2 CALLDATALOAD SWAP1 POP PUSH2 0xDBA DUP2 PUSH2 0xD96 JUMP JUMPDEST SWAP3 SWAP2 POP POP JUMP JUMPDEST PUSH0 PUSH1 0x20 DUP3 DUP5 SUB SLT ISZERO PUSH2 0xDD5 JUMPI PUSH2 0xDD4 PUSH2 0xD85 JUMP JUMPDEST JUMPDEST PUSH0 PUSH2 0xDE2 DUP5 DUP3 DUP6 ADD PUSH2 0xDAC JUMP JUMPDEST SWAP2 POP POP SWAP3 SWAP2 POP POP JUMP JUMPDEST PUSH2 0xDF4 DUP2 PUSH2 0xD8D JUMP JUMPDEST DUP3 MSTORE POP POP JUMP JUMPDEST PUSH0 PUSH1 0x40 DUP3 ADD SWAP1 POP PUSH2 0xE0D PUSH0 DUP4 ADD DUP6 PUSH2 0xDEB JUMP JUMPDEST PUSH2 0xE1A PUSH1 0x20 DUP4 ADD DUP5 PUSH2 0xDEB JUMP JUMPDEST SWAP4 SWAP3 POP POP POP JUMP JUMPDEST PUSH0 PUSH20 0xFFFFFFFFFFFFFFFFFFFFFFFFFFFFFFFFFFFFFFFF DUP3 AND SWAP1 POP SWAP2 SWAP1 POP JUMP JUMPDEST PUSH0 PUSH2 0xE4A DUP3 PUSH2 0xE21 JUMP JUMPDEST SWAP1 POP SWAP2 SWAP1 POP JUMP JUMPDEST PUSH2 0xE5A DUP2 PUSH2 0xE40 JUMP JUMPDEST DUP2 EQ PUSH2 0xE64 JUMPI PUSH0 DUP1 REVERT JUMPDEST POP JUMP JUMPDEST PUSH0 DUP2 CALLDATALOAD SWAP1 POP PUSH2 0xE75 DUP2 PUSH2 0xE51 JUMP JUMPDEST SWAP3 SWAP2 POP POP JUMP JUMPDEST PUSH0 DUP1 REVERT JUMPDEST PUSH0 DUP1 REVERT JUMPDEST PUSH0 PUSH1 0x1F NOT PUSH1 0x1F DUP4 ADD AND SWAP1 POP SWAP2 SWAP1 POP JUMP JUMPDEST PUSH32 0x4E487B7100000000000000000000000000000000000000000000000000000000 PUSH0 MSTORE PUSH1 0x41 PUSH1 0x4 MSTORE PUSH1 0x24 PUSH0 REVERT JUMPDEST PUSH2 0xEC9 DUP3 PUSH2 0xE83 JUMP JUMPDEST DUP2 ADD DUP2 DUP2 LT PUSH8 0xFFFFFFFFFFFFFFFF DUP3 GT OR ISZERO PUSH2 0xEE8 JUMPI PUSH2 0xEE7 PUSH2 0xE93 JUMP JUMPDEST JUMPDEST DUP1 PUSH1 0x40 MSTORE POP POP POP JUMP JUMPDEST PUSH0 PUSH2 0xEFA PUSH2 0xD7C JUMP JUMPDEST SWAP1 POP PUSH2 0xF06 DUP3 DUP3 PUSH2 0xEC0 JUMP JUMPDEST SWAP2 SWAP1 POP JUMP JUMPDEST PUSH0 PUSH8 0xFFFFFFFFFFFFFFFF DUP3 GT ISZERO PUSH2 0xF25 JUMPI PUSH2 0xF24 PUSH2 0xE93 JUMP JUMPDEST JUMPDEST PUSH2 0xF2E DUP3 PUSH2 0xE83 JUMP JUMPDEST SWAP1 POP PUSH1 0x20 DUP2 ADD SWAP1 POP SWAP2 SWAP1 POP JUMP JUMPDEST DUP3 DUP2 DUP4 CALLDATACOPY PUSH0 DUP4 DUP4 ADD MSTORE POP POP POP JUMP JUMPDEST PUSH0 PUSH2 0xF5B PUSH2 0xF56 DUP5 PUSH2 0xF0B JUMP JUMPDEST PUSH2 0xEF1 JUMP JUMPDEST SWAP1 POP DUP3 DUP2 MSTORE PUSH1 0x20 DUP2 ADD DUP5 DUP5 DUP5 ADD GT ISZERO PUSH2 0xF77 JUMPI PUSH2 0xF76 PUSH2 0xE7F JUMP JUMPDEST JUMPDEST PUSH2 0xF82 DUP5 DUP3 DUP6 PUSH2 0xF3B JUMP JUMPDEST POP SWAP4 SWAP3 POP POP POP JUMP JUMPDEST PUSH0 DUP3 PUSH1 0x1F DUP4 ADD SLT PUSH2 0xF9E JUMPI PUSH2 0xF9D PUSH2 0xE7B JUMP JUMPDEST JUMPDEST DUP2 CALLDATALOAD PUSH2 0xFAE DUP5 DUP3 PUSH1 0x20 DUP7 ADD PUSH2 0xF49 JUMP JUMPDEST SWAP2 POP POP SWAP3 SWAP2 POP POP JUMP JUMPDEST PUSH0 DUP1 PUSH1 0x40 DUP4 DUP6 SUB SLT ISZERO PUSH2 0xFCD JUMPI PUSH2 0xFCC PUSH2 0xD85 JUMP JUMPDEST JUMPDEST PUSH0 PUSH2 0xFDA DUP6 DUP3 DUP7 ADD PUSH2 0xE67 JUMP JUMPDEST SWAP3 POP POP PUSH1 0x20 DUP4 ADD CALLDATALOAD PUSH8 0xFFFFFFFFFFFFFFFF DUP2 GT ISZERO PUSH2 0xFFB JUMPI PUSH2 0xFFA PUSH2 0xD89 JUMP JUMPDEST JUMPDEST PUSH2 0x1007 DUP6 DUP3 DUP7 ADD PUSH2 0xF8A JUMP JUMPDEST SWAP2 POP POP SWAP3 POP SWAP3 SWAP1 POP JUMP JUMPDEST PUSH0 DUP2 SWAP1 POP SWAP2 SWAP1 POP JUMP JUMPDEST PUSH2 0x1023 DUP2 PUSH2 0x1011 JUMP JUMPDEST DUP3 MSTORE POP POP JUMP JUMPDEST PUSH0 PUSH1 0x20 DUP3 ADD SWAP1 POP PUSH2 0x103C PUSH0 DUP4 ADD DUP5 PUSH2 0x101A JUMP JUMPDEST SWAP3 SWAP2 POP POP JUMP JUMPDEST PUSH0 PUSH1 0x20 DUP3 ADD SWAP1 POP PUSH2 0x1055 PUSH0 DUP4 ADD DUP5 PUSH2 0xDEB JUMP JUMPDEST SWAP3 SWAP2 POP POP JUMP JUMPDEST PUSH2 0x1064 DUP2 PUSH2 0xE40 JUMP JUMPDEST DUP3 MSTORE POP POP JUMP JUMPDEST PUSH0 PUSH1 0x20 DUP3 ADD SWAP1 POP PUSH2 0x107D PUSH0 DUP4 ADD DUP5 PUSH2 0x105B JUMP JUMPDEST SWAP3 SWAP2 POP POP JUMP JUMPDEST PUSH0 DUP2 MLOAD SWAP1 POP SWAP2 SWAP1 POP JUMP JUMPDEST PUSH0 DUP3 DUP3 MSTORE PUSH1 0x20 DUP3 ADD SWAP1 POP SWAP3 SWAP2 POP POP JUMP JUMPDEST PUSH0 JUMPDEST DUP4 DUP2 LT ISZERO PUSH2 0x10BA JUMPI DUP1 DUP3 ADD MLOAD DUP2 DUP5 ADD MSTORE PUSH1 0x20 DUP2 ADD SWAP1 POP PUSH2 0x109F JUMP JUMPDEST PUSH0 DUP5 DUP5 ADD MSTORE POP POP POP POP JUMP JUMPDEST PUSH0 PUSH2 0x10CF DUP3 PUSH2 0x1083 JUMP JUMPDEST PUSH2 0x10D9 DUP2 DUP6 PUSH2 0x108D JUMP JUMPDEST SWAP4 POP PUSH2 0x10E9 DUP2 DUP6 PUSH1 0x20 DUP7 ADD PUSH2 0x109D JUMP JUMPDEST PUSH2 0x10F2 DUP2 PUSH2 0xE83 JUMP JUMPDEST DUP5 ADD SWAP2 POP POP SWAP3 SWAP2 POP POP JUMP JUMPDEST PUSH0 PUSH1 0x20 DUP3 ADD SWAP1 POP DUP2 DUP2 SUB PUSH0 DUP4 ADD MSTORE PUSH2 0x1115 DUP2 DUP5 PUSH2 0x10C5 JUMP JUMPDEST SWAP1 POP SWAP3 SWAP2 POP POP JUMP JUMPDEST PUSH0 PUSH1 0x20 DUP3 DUP5 SUB SLT ISZERO PUSH2 0x1132 JUMPI PUSH2 0x1131 PUSH2 0xD85 JUMP JUMPDEST JUMPDEST PUSH0 PUSH2 0x113F DUP5 DUP3 DUP6 ADD PUSH2 0xE67 JUMP JUMPDEST SWAP2 POP POP SWAP3 SWAP2 POP POP JUMP JUMPDEST PUSH0 DUP2 SWAP1 POP SWAP2 SWAP1 POP JUMP JUMPDEST PUSH0 PUSH8 0xFFFFFFFFFFFFFFFF DUP3 AND SWAP1 POP SWAP2 SWAP1 POP JUMP JUMPDEST PUSH0 DUP2 SWAP1 POP SWAP2 SWAP1 POP JUMP JUMPDEST PUSH0 PUSH2 0x1187 PUSH2 0x1182 PUSH2 0x117D DUP5 PUSH2 0x1148 JUMP JUMPDEST PUSH2 0x1164 JUMP JUMPDEST PUSH2 0x1151 JUMP JUMPDEST SWAP1 POP SWAP2 SWAP1 POP JUMP JUMPDEST PUSH2 0x1197 DUP2 PUSH2 0x116D JUMP JUMPDEST DUP3 MSTORE POP POP JUMP JUMPDEST PUSH0 PUSH1 0x20 DUP3 ADD SWAP1 POP PUSH2 0x11B0 PUSH0 DUP4 ADD DUP5 PUSH2 0x118E JUMP JUMPDEST SWAP3 SWAP2 POP POP JUMP JUMPDEST PUSH2 0x11BF DUP2 PUSH2 0x1011 JUMP JUMPDEST DUP2 EQ PUSH2 0x11C9 JUMPI PUSH0 DUP1 REVERT JUMPDEST POP JUMP JUMPDEST PUSH0 DUP2 MLOAD SWAP1 POP PUSH2 0x11DA DUP2 PUSH2 0x11B6 JUMP JUMPDEST SWAP3 SWAP2 POP POP JUMP JUMPDEST PUSH0 PUSH1 0x20 DUP3 DUP5 SUB SLT ISZERO PUSH2 0x11F5 JUMPI PUSH2 0x11F4 PUSH2 0xD85 JUMP JUMPDEST JUMPDEST PUSH0 PUSH2 0x1202 DUP5 DUP3 DUP6 ADD PUSH2 0x11CC JUMP JUMPDEST SWAP2 POP POP SWAP3 SWAP2 POP POP JUMP JUMPDEST PUSH0 DUP2 MLOAD SWAP1 POP SWAP2 SWAP1 POP JUMP JUMPDEST PUSH0 DUP2 SWAP1 POP SWAP3 SWAP2 POP POP JUMP JUMPDEST PUSH0 PUSH2 0x1229 DUP3 PUSH2 0x120B JUMP JUMPDEST PUSH2 0x1233 DUP2 DUP6 PUSH2 0x1215 JUMP JUMPDEST SWAP4 POP PUSH2 0x1243 DUP2 DUP6 PUSH1 0x20 DUP7 ADD PUSH2 0x109D JUMP JUMPDEST DUP1 DUP5 ADD SWAP2 POP POP SWAP3 SWAP2 POP POP JUMP JUMPDEST PUSH0 PUSH2 0x125A DUP3 DUP5 PUSH2 0x121F JUMP JUMPDEST SWAP2 POP DUP2 SWAP1 POP SWAP3 SWAP2 POP POP JUMP INVALID LOG2 PUSH5 0x6970667358 0x22 SLT KECCAK256 PUSH4 0xCF5A313F 0xB9 INVALID DUP5 SWAP13 0xBB SWAP5 0xD 0xD 0xB5 SWAP11 0xB9 0xDD 0xCE 0x4D NUMBER COINBASE CHAINID 0xE8 GT TIMESTAMP 0xDB SLOAD PUSH22 0x7BC118A64736F6C6343000816003300000000000000 "
		},
		"gasEstimates": {
			"creation": {
				"codeDepositCost": "952600",
				"executionCost": "infinite",
				"totalCost": "infinite"
			},
			"external": {
				"UPGRADE_INTERFACE_VERSION()": "infinite",
				"initialize()": "infinite",
				"number()": "2447",
				"owner()": "2611",
				"proxiableUUID()": "infinite",
				"renounceOwnership()": "infinite",
				"transferOwnership(address)": "infinite",
				"updateNumber(uint256)": "infinite",
				"upgradeToAndCall(address,bytes)": "infinite"
			},
			"internal": {
				"_authorizeUpgrade(address)": "infinite"
			}
		},
		"methodIdentifiers": {
			"UPGRADE_INTERFACE_VERSION()": "ad3cb1cc",
			"initialize()": "8129fc1c",
			"number()": "8381f58a",
			"owner()": "8da5cb5b",
			"proxiableUUID()": "52d1902d",
			"renounceOwnership()": "715018a6",
			"transferOwnership(address)": "f2fde38b",
			"updateNumber(uint256)": "1db05a88",
			"upgradeToAndCall(address,bytes)": "4f1ef286"
		}
	},
	"abi": [
		{
			"inputs": [
				{
					"internalType": "address",
					"name": "target",
					"type": "address"
				}
			],
			"name": "AddressEmptyCode",
			"type": "error"
		},
		{
			"inputs": [
				{
					"internalType": "address",
					"name": "implementation",
					"type": "address"
				}
			],
			"name": "ERC1967InvalidImplementation",
			"type": "error"
		},
		{
			"inputs": [],
			"name": "ERC1967NonPayable",
			"type": "error"
		},
		{
			"inputs": [],
			"name": "FailedInnerCall",
			"type": "error"
		},
		{
			"inputs": [],
			"name": "InvalidInitialization",
			"type": "error"
		},
		{
			"inputs": [],
			"name": "NotInitializing",
			"type": "error"
		},
		{
			"inputs": [
				{
					"internalType": "address",
					"name": "owner",
					"type": "address"
				}
			],
			"name": "OwnableInvalidOwner",
			"type": "error"
		},
		{
			"inputs": [
				{
					"internalType": "address",
					"name": "account",
					"type": "address"
				}
			],
			"name": "OwnableUnauthorizedAccount",
			"type": "error"
		},
		{
			"inputs": [],
			"name": "UUPSUnauthorizedCallContext",
			"type": "error"
		},
		{
			"inputs": [
				{
					"internalType": "bytes32",
					"name": "slot",
					"type": "bytes32"
				}
			],
			"name": "UUPSUnsupportedProxiableUUID",
			"type": "error"
		},
		{
			"anonymous": false,
			"inputs": [
				{
					"indexed": false,
					"internalType": "uint64",
					"name": "version",
					"type": "uint64"
				}
			],
			"name": "Initialized",
			"type": "event"
		},
		{
			"anonymous": false,
			"inputs": [
				{
					"indexed": true,
					"internalType": "address",
					"name": "previousOwner",
					"type": "address"
				},
				{
					"indexed": true,
					"internalType": "address",
					"name": "newOwner",
					"type": "address"
				}
			],
			"name": "OwnershipTransferred",
			"type": "event"
		},
		{
			"anonymous": false,
			"inputs": [
				{
					"indexed": true,
					"internalType": "address",
					"name": "implementation",
					"type": "address"
				}
			],
			"name": "Upgraded",
			"type": "event"
		},
		{
			"inputs": [],
			"name": "UPGRADE_INTERFACE_VERSION",
			"outputs": [
				{
					"internalType": "string",
					"name": "",
					"type": "string"
				}
			],
			"stateMutability": "view",
			"type": "function"
		},
		{
			"inputs": [],
			"name": "initialize",
			"outputs": [],
			"stateMutability": "nonpayable",
			"type": "function"
		},
		{
			"inputs": [],
			"name": "number",
			"outputs": [
				{
					"internalType": "uint256",
					"name": "",
					"type": "uint256"
				}
			],
			"stateMutability": "view",
			"type": "function"
		},
		{
			"inputs": [],
			"name": "owner",
			"outputs": [
				{
					"internalType": "address",
					"name": "",
					"type": "address"
				}
			],
			"stateMutability": "view",
			"type": "function"
		},
		{
			"inputs": [],
			"name": "proxiableUUID",
			"outputs": [
				{
					"internalType": "bytes32",
					"name": "",
					"type": "bytes32"
				}
			],
			"stateMutability": "view",
			"type": "function"
		},
		{
			"inputs": [],
			"name": "renounceOwnership",
			"outputs": [],
			"stateMutability": "nonpayable",
			"type": "function"
		},
		{
			"inputs": [
				{
					"internalType": "address",
					"name": "newOwner",
					"type": "address"
				}
			],
			"name": "transferOwnership",
			"outputs": [],
			"stateMutability": "nonpayable",
			"type": "function"
		},
		{
			"inputs": [
				{
					"internalType": "uint256",
					"name": "_number",
					"type": "uint256"
				}
			],
			"name": "updateNumber",
			"outputs": [
				{
					"internalType": "uint256",
					"name": "",
					"type": "uint256"
				},
				{
					"internalType": "uint256",
					"name": "",
					"type": "uint256"
				}
			],
			"stateMutability": "nonpayable",
			"type": "function"
		},
		{
			"inputs": [
				{
					"internalType": "address",
					"name": "newImplementation",
					"type": "address"
				},
				{
					"internalType": "bytes",
					"name": "data",
					"type": "bytes"
				}
			],
			"name": "upgradeToAndCall",
			"outputs": [],
			"stateMutability": "payable",
			"type": "function"
		}
	]
}